:10000000901D00205DE40000DDE10000455000008F
:100010006BE400006BE400006BE400006BE40000A4
:100020000000000000000000000000006BE4000081
:100030006BE40000000000008F4F00007D0D010008
:100040008FC00000BFBF00004BC1000095C1000081
:100050005DCC00008FC00000BFBF00004BC100009E
:1000600095C100000000000000000000000000003A
:100070000000000000000000000000000000000080
:100080000000000000000000000000000000000070
:100090000000000000000000000000000000000060
:1000A0000000000000000000000000000000000050
:1000B0000000000000000000000000000000000040
:1000C0000000000000000000000000000000000030
:1000D0000000000000000000000000000000000020
:1000E0000000000000000000000000000000000010
:1000F0000000000000000000000000000000000000
:1001000000000000000000000000000000000000EF
:1001100000000000000000000000000000000000DF
:1001200000000000000000000000000000000000CF
:1001300000000000000000000000000000000000BF
:1001400000000000000000000000000000000000AF
:10015000000000000000000000000000000000009F
:10016000000000000000000000000000000000008F
:10017000000000000000000000000000000000007F
:10018000000000000000000000000000000000006F
:10019000000000000000000000000000000000005F
:1001A000000000000000000000000000000000004F
:1001B000000000000000000000000000000000003F
:1001C000FFFFFFFFFFFFFFFFFFFFFFFFFFFFFFFF3F
:1001D000FFFFFFFFFFFFFFFFFFFFFFFFFFFFFFFF2F
:1001E000FFFFFFFFFFFFFFFFFFFFFFFFFFFFFFFF1F
:1001F000FFFFFFFFFFFFFFFFFFFFFFFFFFFFFFFF0F
:1002000010B5054C237833B9044B13B1044800E012
:1002100000BF0123237010BD8807002000000000EC
:10022000CCFE010008B5034B1BB10349034800E0B5
:1002300000BF08BD000000008C070020CCFE0100BC
:1002400080B582B000AF00237B600D4800F0ADFDAB
:1002500003460C4A13600B4B1B68002B06D1084960
:10026000094802F0ADFB01237B6003E00449074825
:1002700002F0A6FB7B6818460837BD4680BD00BF6C
:10028000CC830100A4070020D48301000484010072
:1002900080B582B000AF0023FB800023BB80002329
:1002A0003B6047E0704B1B680021184609F052FC88
:1002B00003466E4A13606C4B1B680121184609F017
:1002C00049FC0346694A1360386804F053F8664BEA
:1002D0001B680021184609F01FFC03469AB2FB88F0
:1002E00013449BB2FB80386804F044F85E4B1B68F3
:1002F0000121184609F010FC03469AB2BB8813444A
:100300009BB2BB80584B1B680021184609F04CFC7F
:100310000346564A1360544B1B680121184609F0E6
:1003200043FC0346514A1360322004F023F83B6833
:1003300001333B604E4B1B781A463B689342B1DB5E
:10034000B7F906304A4A127893FBF2F3FB80B7F90B
:100350000430474A127893FBF2F3BB80B7F90630BA
:10036000184617F00BFA3EA3D3E9002317F070FAF2
:1003700002460B461046194617F01AFD0346FB804D
:10038000B7F906303B4A82FB03125211DB17D31A2E
:100390001BB2DBB2163BDAB2374B1A70B7F9063034
:1003A000344A82FB03125111DA178A1A642101FBC5
:1003B00002F29B1A1BB2DAB22F4B5A702E4B1B78EB
:1003C00019462D4B5B781A462C4802F0F9FAB7F91A
:1003D00004304FF4A57202FB03F3002B01DA03F69D
:1003E000FF731B13BB80B7F90430224A82FB031250
:1003F0005211DB17D31A1BB2DAB21F4B9A70B7F93E
:1004000004301C4A82FB03125111DA178A1A642144
:1004100001FB02F29B1A1BB2DAB2174BDA70164BD1
:100420009B781946144BDB781A46154802F0C8FA37
:10043000B7F906300F4A82FB03125211DB17D31AA9
:100440001BB2DBB2163BDAB20E4B1A70BB88DAB2C3
:100450000C4B5A700B4B18460837BD4680BD00BF89
:1004600000000000001D2040A4070020A807002075
:10047000000000201F85EB51AC0700202C840100F8
:1004800048840100B007002080B500AF074802F0A3
:1004900097FA074B1B78074A12781146184600F066
:1004A0000DFA4FF4FA7003F065FFF2E7648401007F
:1004B000B2070020B307002080B582B000AF002350
:1004C0007B6000237B80244800F06FFC0346234AB6
:1004D0001360224B1B68002B06D11F49204802F0F5
:1004E0006FFA00237B6003E01B491E4802F068FAA4
:1004F0001D4800F05AFC03461C4A13601B4B1B6846
:10050000002B06D11849164802F05AFA00237B60E6
:1005100003E01549134802F053FA104B18687B8822
:10052000134A002109F022FF104B18687B88104AFB
:10053000002109F01BFF094B1B680021184609F038
:10054000BBFE0A4B1B680021184609F0B5FE7B680C
:1005500018460837BD4680BD78840100B4070020E6
:1005600080840100B0840100D8840100B807002015
:1005700020A10700FFFFFFFF90B583B000AF034647
:100580000A46FB711346BB71FB79092B02D90A237A
:10059000FB7104E0FB79002B01D10023FB71BB79D7
:1005A000092B02D90A23BB7104E0BB79052B01D8C2
:1005B0000023BB71FB79002B11D1BB79002B0ED12D
:1005C0002B4B186800232B4A002109F0CFFE2A4B41
:1005D00018680023274A002109F0C8FE37E0244BA1
:1005E0001C68FB79184617F0C9F81BA3D3E9002350
:1005F00017F02EF902460B461046194617F000FC7C
:1006000003461C4A0021204609F0B0FE1A4B1C6824
:10061000BB79184617F0B2F811A3D3E9002317F0FD
:1006200017F902460B46104619460FA3D3E90023DB
:1006300016F058FF02460B461046194617F0E0FB2D
:1006400003460C4A0021204609F090FE00BF00BF7F
:100650000C37BD4690BD00BF00000000006AE840B6
:1006600000000000004CCD4000000000C05C1541BF
:10067000B407002020A10700B807002080B582B091
:1006800000AF786039603B68002B02D0034801F06E
:100690006BF8002318460837BD4680BDBC07002014
:1006A00080B582B000AF09E0002201210B4801F0C3
:1006B000B9F84FF0FF31094800F08EFF084B186879
:1006C000FA1D0123002100F04FFC0346002BEBD064
:1006D000FB7918460837BD4680BD00BFBC07002027
:1006E000DC07002080B588B000AFFFF7D9FF0346D4
:1006F000FB75FB7D0D2B40F0B180634B1B785A1CC2
:10070000D1B2614A117007F120021344002203F8AC
:10071000202C5E4802F054F90023FB610AE03A46BF
:10072000FB6913441B781946594802F049F9FB69E3
:100730000133FB61FB690A2BF1DD564802F040F9F9
:10074000012003F017FE3B785A2B67D1BB7AA52B0B
:1007500064D13B79002B03D14F4802F031F963E0BB
:100760003B79012B15D14D4802F02AF97B791946C6
:100770004FF4837009F09AFCBB78FA78114618465A
:10078000FFF7FAFE7B78194640F2034009F08EFC31
:100790004AE03B79022B47D1414802F011F9FFF7BB
:1007A00077FD386110F004F9F8603B691B781A4650
:1007B00013469B0013445B003A4A82FB03121A441F
:1007C0005211DB17D31A3A6901321278C2F5A572B9
:1007D00002FB03F3344A82FB0312D211DB17D31A54
:1007E000DBB2BB703B691B78304A82FB0312DB171C
:1007F000D31AFA681278C2F1650202FB03F32C4A9D
:1008000082FB03125210DB17D31ADBB2FB70BB78EA
:10081000FA7811461846FFF7AFFE05E03B46194649
:10082000244802F0CDF800E000BF234B18683A4698
:100830000C23002100F0DCFB0023BB6107E03A46FB
:10084000BB69134400221A70BB690133BB61BB69E9
:100850000B2BF4D90C4B00221A7013E00A4B1B78B7
:100860000B2B28BF0B23DAB2074B1A70064B1B78F1
:100870005A1CD1B2044A117007F120021344FA7DC8
:1008800003F8202C31E700BFE0070020E0840100DE
:10089000EC840100F0840100F48401000085010073
:1008A0000C850100EBA00EEA35064C6356555555F4
:1008B000676666661C850100DC07002090B5A3B062
:1008C00002AF03460A46FB711346BB71464B07F164
:1008D0000C040FCB07C4237007F119032022002159
:1008E000184613F003F8FFF7D3FCF86740F2034013
:1008F00009F0FCFB0346DBB287F870304FF48370DD
:1009000009F0F4FB0346DBB287F8713010F050F8C1
:10091000B8670FF0A9FA7867FB7987F86C30BB7974
:1009200087F86D30FB6F1B781946FB6F01331B781E
:1009300007F10C0207F13C0000930B462B4901F034
:10094000E7FF97F87030194697F8713007F13C02CD
:1009500007F13C0000930B46244901F0D9FFBB6F1F
:100960001B781946BB6F01331B7807F13C0207F176
:100970003C0000930B461D4901F0CAFF7B6F1B78BA
:1009800019467B6F01331B7807F13C0207F13C00ED
:1009900000930B46154901F0BBFF97F86C301946E0
:1009A00097F86D3007F13C0207F13C0000930B46CD
:1009B0000E4901F0ADFF07F13C0207F13C000C4B82
:1009C0000C4901F0A5FF0C4B186807F13C022D23E0
:1009D000002100F00DFB4FF4FA7003F0CBFC00BFD8
:1009E0008437BD4690BD00BF80850100648501004D
:1009F0007085010078850100DC070020B0B58EB05D
:100A000002AF786039600023FB62344B07F10C04BD
:100A10001D460FCD0FC42B681A46228002341B0CD2
:100A200023707B68022B09D13B680433196807F1F6
:100A300020030822184601F02CFB06E007F12003F2
:100A400008222749184601F024FB07F12003184625
:100A500000F0ABF90346234A1360224B1B68002BBE
:100A600007D107F1200319461F4801F0A9FF012310
:100A700030E0002300221D491D4800F013FD194BF2
:100A80001B684FF48071184600F09CF9154B1B68E9
:100A90001849184600F024FB124B186807F10C02A5
:100AA0001223002100F0A4FA0A23019319230093D2
:100AB0004FF4806300221049104803F07BFBB862BA
:100AC000BB6A002B03D0B86A03F0D2FA01E001231D
:100AD000FB62FB6A18463037BD46B0BDDC850100BD
:100AE000B0850100DC070020B8850100CC8501003D
:100AF000BC0700207D060000E5060000D48501004B
:100B000080B400AF034B1B681846BD465DF8047BFC
:100B1000704700BFE407002080B582B000AF1B4BD8
:100B20001B68002B02D0194B1B68984704F018FA79
:100B30007860174B1B680133154A136003F08CFA79
:100B400038603B689B6C5A1E3B689A643B689B6CA0
:100B5000002B12D13B685A6C3B689A643B6893F84F
:100B6000343043F00803DAB23B6883F83420786805
:100B700004F0FAF902F07CFF02E0786804F0F4F97E
:100B800004F060F800BF0837BD4680BDE8070020CC
:100B9000E407002080B485B000AF78607B68002B4C
:100BA00003DA4FF0FF33FB6027E07B68164A82FBD5
:100BB00003129211DB17D31A4FF47A7202FB03F37C
:100BC000FB607A68104B83FB02139911D317CB1A81
:100BD0004FF47A7101FB03F3D31A4FF47A7202FBDC
:100BE00003F303F2E733084A82FB03129211DB1787
:100BF000D31A1A46FB681344FB60FB681846143787
:100C0000BD465DF8047B7047D34D621080B400AFE1
:100C100000231846BD465DF8047B704780B400AFE2
:100C200000231846BD465DF8047B704780B400AFD2
:100C300000231846BD465DF8047B704780B400AFC2
:100C400000231846BD465DF8047B704780B582B02E
:100C500000AF094B7B6005E07B681B6898477B68A9
:100C600004337B607B68054A9342F5D300BF00BF25
:100C70000837BD4680BD00BF98830100A8830100EE
:100C800080B582B000AF094B7B6005E07B681B68D4
:100C900098477B6804337B607B68054A9342F5D3B1
:100CA00000BF00BF0837BD4680BD00BFA88301005C
:100CB000C883010080B500AF00F036F80023184665
:100CC00080BD80B582B000AF7860FFF7D9FF0AF031
:100CD00071FE00BF0837BD4680BDFFFF80B584B000
:100CE00002AF142301930A2300934FF40063002200
:100CF00009490A4803F05EFA78607B68002B04D14A
:100D0000D5220749074801F0B3FF786803F0B0F92E
:100D100000BF0837BD4680BDC30C0000F085010050
:100D200008860100F885010080B500AF04F018F9CD
:100D300010F070F801F01CFA04F0C4F802F060FE44
:100D4000FFF7CCFF04F0D8F800F0A0FA02F074FE30
:100D50000023184680BD80B584B000AFF860B9604C
:100D60001346FB80FB68002B02D14FF0FF3318E0E5
:100D7000B86800F01AF80346002B02D04FF0FF339A
:100D80000FE0FB68BA680921184602F0ABFBFB686C
:100D9000FA88DA82FB6800229A76FB6800221A83BE
:100DA000002318461037BD4680BD80B582B000AF25
:100DB00078600921786802F00BFD03461846083771
:100DC000BD4680BD80B584B000AF78600B467B80A7
:100DD0000023FB607B68002B04D1D02237493848C0
:100DE00001F046FF7B68184602F0D8FC0346092B49
:100DF00004D0D1223149334801F03AFF7B68DB8AC5
:100E000003F01003002B14D17B685B6A002B09D020
:100E10007B685B6A78689847F860FB68002B01D0B4
:100E2000FB6847E07B68DB8A43F010039AB27B687B
:100E3000DA827B68DB8A03F00803002B08D07B682A
:100E40001B8B03F00803002B02D06FF0060331E088
:100E50007B689B6A002B07D07B689B6A7A88114667
:100E600078689847F86007E07B8823F0F0031B055B
:100E70001B0D9AB27B681A83FB68002B03D0FB68BA
:100E800013F1060F15D17B681B8B43F008039AB250
:100E90007B681A837B689B7E0133DAB27B689A7623
:100EA0007B689B7E002B04D1FF220449064801F099
:100EB000DFFEFB6818461037BD4680BDD8860100AE
:100EC0001C8601002C860100C486010080B584B018
:100ED00000AF78600023FB607B68002B05D14FF4E6
:100EE00089721E491E4801F0C3FE7B68184602F055
:100EF00055FC0346092B05D040F213121749194837
:100F000001F0B6FE7B689B7E002B02D14FF0FF33D1
:100F10001FE07B689B7E013BDAB27B689A767B6838
:100F20009B7E002B01D0002313E07B68DB6A002B43
:100F300004D07B68DB6A78689847F860FB68002B10
:100F400003D0FB6813F1060F02D17B6800221A83DD
:100F5000FB6818461037BD4680BD00BFE88601001B
:100F60001C8601002C86010090B585B000AFF860AA
:100F7000B9607A603B60FB68002B05D14FF4A0722A
:100F80001849194801F074FEFB68184602F006FC87
:100F90000346092B05D040F241121249134801F0D3
:100FA00067FEFB689B7E002B05D14FF0FF3000F001
:100FB00031FF002311E0FB681B6B002B08D0FB689E
:100FC0001C6B3B687A68B968F868A047034604E080
:100FD0006FF0050000F01EFF002318461437BD46D1
:100FE00090BD00BFF88601001C8601002C86010020
:100FF00090B585B000AFF860B9607A603B60FB687F
:10100000002B05D140F26B121849194801F030FE4F
:10101000FB68184602F0C2FB0346092B05D04FF4CB
:10102000B6721249134801F023FEFB689B7E002B29
:1010300005D14FF0FF3000F0EDFE002311E0FB681A
:101040005B6B002B08D0FB685C6B3B687A68B96807
:10105000F868A047034604E06FF0050000F0DAFEF0
:10106000002318461437BD4690BD00BF0887010015
:101070001C8601002C86010080B584B000AFF860AA
:10108000B9607A60FB68002B05D140F28F121149DC
:10109000114801F0EDFDFB68184602F07FFB0346A6
:1010A000092B05D04FF4C8720A490C4801F0E0FD45
:1010B000FB689B6B002B07D0FB689B6B7A68B96859
:1010C000F8689847034601E06FF0050318461037AB
:1010D000BD4680BD188701001C8601002C860100DA
:1010E00080B582B000AF786039607B68002B05D195
:1010F00040F2AB120C490D4801F0BAFD7B6818466E
:1011000002F04CFB0346092B05D04FF4D67206497A
:10111000074801F0ADFD7B683A68DA6100231846A4
:101120000837BD4680BD00BF2C8701001C8601002A
:101130002C86010080B483B000AF786039607B6892
:101140001B683A685A607B681A683B681A607B685B
:101150003A681A603B687A685A6000BF0C37BD462F
:101160005DF8047B704780B483B000AF78607B6823
:101170001B687A6852685A607B685B687A68126894
:101180001A607B687A685A607B685A687B681A6064
:1011900000BF0C37BD465DF8047B704780B582B058
:1011A00000AF78607B68143319460348FFF7C2FF2D
:1011B00000BF0837BD4680BD0400002090B583B055
:1011C00000AF00237B600D4B3B603B681B683A68B7
:1011D0009A420ED03B681B68143B7B6003F0C0FE54
:1011E00004467B6814331846FFF7BDFF204603F022
:1011F000BBFE7B6818460C37BD4690BD040000203E
:1012000080B582B000AFFFF7D9FF78607B68002B14
:101210001BD07B689B6F3B603B68002B02D03B6818
:1012200078689847786802F09BFA0346012B03D14F
:10123000786802F0BDF9E6E77B689B6A184601F022
:10124000E5FC786802F04EFADDE700BF00BF083722
:10125000BD4680BD80B584B000AF78600023FB60E0
:101260000CE0094AFB6852F82330BB60BB68002BD6
:1012700001D0BB689847FB680133FB60FB68032B18
:10128000EFD9FFF7BDFFE9E76C09002080B588B012
:1012900004AF0023FB6024E03B1DFA6815491846A3
:1012A00001F036FBFB68DB01134A9818FB681B0250
:1012B000124A1344391D202203921F2202924FF436
:1012C00080720192009300230D4A02F08DFEFB68AC
:1012D000DB01094A1344184602F0CAFEFB680133D9
:1012E000FB60FB68002BD7D000BF00BF1037BD46A6
:1012F00080BD00BF48870100EC0700206C0800207B
:101300005512000080B483B000AF78607B687A68C3
:101310005A607B685A687B681A6000BF0C37BD460C
:101320005DF8047B704780B483B000AF78603960AB
:101330007B685B683A681A607B685A683B685A60E9
:101340007B683A685A603B687A681A6000BF0C375D
:10135000BD465DF8047B704780B483B000AF786011
:101360007B681B687A689A420CBF01230023DBB2BA
:1013700018460C37BD465DF8047B704780B582B0D7
:1013800000AF78607B6814331846FFF7BBFF00237B
:1013900018460837BD4680BD80B586B000AFF860FE
:1013A000B9601346FB71B86803F072F8FB79002B43
:1013B00002D0012B07D031E0BB6814331946F8681E
:1013C000FFF7B1FF31E0FB681B687B6117E07B69C9
:1013D000143B3B61BB6893F835203B6993F835308B
:1013E0009A4209D23B6903F11402BB6814331946CF
:1013F0001046FFF798FF06E07B691B687B617A69FE
:10140000FB689A42E3D17A69FB689A420CD1BB68C7
:1014100014331946F868FFF786FF05E0A322054953
:10142000054801F025FC00E000BF002318461837EE
:10143000BD4680BD588C01005087010080B584B046
:1014400000AF78607B681B68143BFB60F86803F0B2
:1014500083F8002318461037BD4680BD90B585B08F
:1014600000AF786012E003F07BFD03461C467B680A
:101470001B68143BFB60FB684FF0FF321A63F8688F
:1014800003F06AF82346184603F06EFD7868FFF70C
:1014900063FF0346002BE6D0002318461437BD46F1
:1014A00090BDFFFF80B584B000AFF860B9607A608E
:1014B000FB70FB68002B05D14FF496721749184852
:1014C00001F0D6FB7B68B3F5803F05D340F22D12C7
:1014D0001249144801F0CCFBFB78002B08D0FB78B4
:1014E000012B05D04FF497720C490F4801F0C0FB57
:1014F000FB68BA680221184601F0F4FFFB68184641
:10150000FFF73CFF7B689AB2FB689A83FB68FA7826
:101510005A72002318461037BD4680BD308C01003A
:1015200054870100648701007887010080B586B088
:1015300000AFF860B9601346FB71BB68B3F5803F3C
:1015400005D340F289121F491F4801F091FBFB7936
:10155000002B08D0FB79012B05D04FF4C572194937
:101560001A4801F085FB03F0FBFC786100F03EFCBB
:101570000346002B09D01349154801F021FA4FF416
:10158000C6721049134801F073FB786903F0ECFC54
:10159000F968022002F03AF838613B69002B01D16A
:1015A0003B690BE03B691846FFF7E8FEBB689AB25F
:1015B0003B699A833B69FA795A723B691846183736
:1015C000BD4680BD3C8C0100648701007887010026
:1015D0002C8801005087010090B587B000AF78607B
:1015E00039607B68002B05D140F2E5125549564819
:1015F00001F03EFB7B68184602F0D0F80346022B50
:1016000005D04FF4F3724F49504801F031FB504B75
:101610001B68002B04D04E4B1B687A681046984715
:1016200003F09EFC04467B689B8B002B09D07B68F3
:101630009B8B013B9AB27B689A83204603F094FC13
:1016400071E03B68002B05D1204603F08DFC6FF064
:10165000010372E003F084FC786102F0A5FB03460D
:10166000002B09D037493B4801F0AAF940F2062285
:101670003449394801F0FCFA03F072FC386102F099
:10168000EBFC0346002B09D12E49344801F098F9B0
:1016900040F206222B49304801F0EAFA03F060FCE0
:1016A000F86000F0A3FB0346002B09D025492C4825
:1016B00001F086F940F206222249274801F0D8FAC3
:1016C000F86803F051FC386903F04EFC786903F0C8
:1016D0004BFC02F0C1FCB860BB6800221A637B6857
:1016E00003F114007B685B7A1A46B968FFF754FE71
:1016F0003B68002B0BDDBB684C333A460021184693
:1017000003F024FABB684C33184603F0C3F82046B4
:1017100003F02AFC02F0ACF9BB681B6B002B02D073
:10172000BB681B6B09E00F4B1B68002B04D00D4BF3
:101730001B687A6810469847002318461C37BD4638
:1017400090BD00BF4C8C010054870100B48701009C
:101750004C0A00209088010050870100BC880100DD
:101760002C880100500A0020B0B582B000AF78602C
:101770007B68002B05D140F25F222649264801F004
:1017800077FA7B68184602F009F80346022B05D069
:101790004FF418721F49214801F06AFA204B1B6868
:1017A000002B04D01E4B1B687A6810469847002512
:1017B00003F0D6FB04467B6814331846FFF7CCFDD4
:1017C0000346002B06D17B6814331846FFF736FE1C
:1017D000012512E07B689B8B4FF6FF72934206D087
:1017E0007B689B8B01339AB27B689A8305E0204625
:1017F00003F0BAFB6FF0020307E0204603F0B4FBEE
:10180000012D01D102F034F9002318460837BD46F6
:10181000B0BD00BF6C8C010054870100B48701008B
:10182000540A002080B586B000AFF860B9607A60D5
:10183000FB68002B05D14FF428721849184801F0B5
:1018400017FAFB68184601F0A9FF0346022B05D0E2
:1018500040F2A1221149134801F00AFABB68012B9A
:1018600016D17B687B6103F07BFB03463B61FB6821
:1018700014331846FFF7F2FD7B699AB2FB689A832E
:101880003B69184603F070FB02F0F2F8002301E018
:101890004FF0FF3318461837BD4680BD7C8C0100E1
:1018A00054870100B487010080B584B000AFF860B0
:1018B000B9601346FB71FB68002B05D140F2E622AC
:1018C0001049114801F0D4F9FB68BA6803211846A1
:1018D00001F008FEFB681846FFF750FDFB68012287
:1018E0009A83FB6800221A62FB68FF229A77FB68E2
:1018F0000022DA77FB6801225A720023184610375B
:10190000BD4680BD8C8C0100F488010080B584B098
:1019100000AF78600B46FB7003F022FBF86000F02C
:1019200065FA0346002B09D01749184801F048F81A
:101930004FF44E721449164801F09AF9F86803F012
:1019400013FB7968032001F061FEB860BB68002BCF
:1019500001D1BB6813E0BB681846FFF70FFDBB68F9
:1019600001229A83BB6800221A62BB68FF229A7721
:10197000BB680022DA77BB6801225A72BB6818463E
:101980001037BD4680BD00BF9C8C01002C88010033
:101990005087010090B587B000AF7860396003F0E0
:1019A000DFFA786102F000FA0346002B09D077498C
:1019B000774801F005F84FF465727449754801F0F5
:1019C00057F903F0CDFA386102F046FB0346002BCD
:1019D00009D16E49704800F0F3FF4FF465726B490E
:1019E0006C4801F045F903F0BBFAF86000F0FEF92D
:1019F0000346002B09D06549684800F0E1FF4FF429
:101A000065726249634801F033F9F86803F0ACFA93
:101A1000386903F0A9FA786903F0A6FA7B68002B0D
:101A200005D140F2973259495D4801F021F97B68B0
:101A3000184601F0B3FE0346032B05D04FF466723F
:101A40005249584801F014F902F006FBB86003F05F
:101A500087FA0446544B1B68002B04D0524B1B687A
:101A60007A6810469847BB6800221A637B681B6A35
:101A7000BA689A4210D17B68DB7FFF2B06D07B6867
:101A8000DB7F0133DAB27B68DA776DE0204603F062
:101A90006BFA6FF0020374E07B689B8B002B1ED007
:101AA0007B689B8B013B9AB27B689A837B68BA68A0
:101AB0001A62BB6893F835207B689A777B68DB7F76
:101AC000FF2B06D07B68DB7F0133DAB27B68DA77E5
:101AD0004AE0204603F048FA6FF0020351E03B6809
:101AE000002B09D1BB686FF001021A63204603F096
:101AF0003BFA6FF0010344E0BB6893F835207B6844
:101B00001B6A93F835309A4207D27B68186ABB6823
:101B100035331A46022102F03DFC7B6803F11400C4
:101B20007B685B7A1A46B968FFF736FC3B68002B86
:101B30000BDDBB684C333A460021184603F006F82B
:101B4000BB684C33184602F0A5FE204603F00CFAA1
:101B500001F08EFFBB681B6B002B02D0BB681B6BB8
:101B60000FE003F0FDF90446204603F0FDF90F4BAA
:101B70001B68002B04D00D4B1B687A6810469847F1
:101B8000002318461C37BD4690BD00BFAC8C010039
:101B90009088010050870100BC8801002C8801005A
:101BA000F4880100088901004C0A0020500A002036
:101BB00090B587B000AF78607B68002B05D140F20C
:101BC00044426349634801F053F87B68184601F0CA
:101BD000E5FD0346032B05D040F245425C495E48D3
:101BE00001F046F800237B6103F0BAF9386102F096
:101BF00033FA0346002B09D15549584800F0E0FE5E
:101C000040F24A425249564801F032F803F0A8F92E
:101C1000F86000F0EBF80346002B09D04C4951481E
:101C200000F0CEFE40F24A4249494D4801F020F80A
:101C3000F86803F099F9386903F096F902F00CFAA4
:101C4000B86003F08DF90446474B1B68002B04D0A5
:101C5000454B1B687A68104698477B681B6ABA68D0
:101C60009A4209D0BB684FF0FF321A63204603F056
:101C70007BF94FF0FF3367E07B68DB7F013BDAB233
:101C80007B68DA777B68DB7F002B54D17B689A7F97
:101C90007B681B6A93F835309A4207D07B68186AD4
:101CA0007B681E331A46022102F074FB7B681433F2
:101CB0001846FFF751FB0346002B23D17B685B6975
:101CC000143BBB607B68BA681A62BB6893F8352026
:101CD0007B689A777B68DB7FFF2B0DD07B68DB7F8F
:101CE0000133DAB27B68DA777B6814331846FFF782
:101CF000A5FB01237B611EE0204603F035F96FF060
:101D0000020321E07B689B8B4FF6FF7293420CD05D
:101D10007B689B8B01339AB27B689A837B68002235
:101D20001A627B68FF229A7705E0204603F01CF9CF
:101D30006FF0020308E0204603F016F97B69012BDF
:101D400001D101F095FE002318461C37BD4690BD19
:101D5000BC8C0100F488010008890100BC880100E6
:101D6000508701002C880100540A002080B582B001
:101D700000AF03F0F5F878600A4B1B78DBB2013353
:101D8000DAB2084B1A70084B1B68002B02D0064BC6
:101D90001B689847786803F0E7F800BF0837BD462E
:101DA00080BD00BF840900207C09002080B582B07E
:101DB00000AF03F0D5F878600A4B1B68002B02D007
:101DC000084B1B689847084B1B78DBB2013BDAB223
:101DD000054B1A70786803F0C7F800BF0837BD4696
:101DE00080BD00BF800900208409002080B582B03A
:101DF00000AF03F0B5F87860054B1B78FB7078688E
:101E000003F0B2F8FB7818460837BD4680BD00BF26
:101E10008409002080B584B000AF7860FFF7E6FF4A
:101E20000346002B03D00A4A7B6813600CE002F0E3
:101E300013F9F860FB68002B03D1054A7B68136037
:101E400002E0FB687A681A631037BD4680BD00BFA8
:101E50008809002080B582B000AFFFF7C7FF0346B6
:101E6000002B01D0074B09E002F0F6F878607B68A0
:101E7000002B02D07B68303300E0024B1846083755
:101E8000BD4680BD8809002080B489B000AFF860ED
:101E9000B9607A60FB68FB61BB68DBB27B617B6821
:101EA000032B40D9FB6803F00303002B3BD1FB68F5
:101EB000BB617B691B027A6913433B613B691B046D
:101EC0003A6913433B6116E0BB691A1DBA613A696E
:101ED0001A60BB691A1DBA613A691A60BB691A1D9A
:101EE000BA613A691A60BB691A1DBA613A691A6027
:101EF0007B68103B7B607B680F2BE5D807E0BB69F4
:101F00001A1DBA613A691A607B68043B7B607B6882
:101F1000032BF4D8BB69FB6105E0FB695A1CFA612D
:101F20007A69D2B21A707B685A1E7A60002BF4D19B
:101F3000FB6818462437BD465DF8047B704780B4C3
:101F40008BB000AFF860B9607A60FB687B62BB68F9
:101F50003B627B687B617B690F2B4DD93A6A7B6A58
:101F6000134303F00303002B46D17B6AFB613B6AFA
:101F7000BB6122E0BA69131DBB61FB69191DF961E0
:101F800012681A60BA69131DBB61FB69191DF961FA
:101F900012681A60BA69131DBB61FB69191DF961EA
:101FA00012681A60BA69131DBB61FB69191DF961DA
:101FB00012681A607B69103B7B617B690F2BD9D853
:101FC0000AE0BA69131DBB61FB69191DF96112684A
:101FD0001A607B69043B7B617B69032BF1D8FB6949
:101FE0007B62BB693B6207E03A6A531C3B627B6AD7
:101FF000591C796212781A707B695A1E7A61002B1B
:10200000F2D1FB6818462C37BD465DF8047B70475B
:1020100080B487B000AFF860B9607A60FB687B611C
:10202000BB683B613A697B699A4226D23A697B6810
:1020300013447A699A4220D27A697B6813447B619F
:102040003A697B6813443B6109E03B69013B3B61B2
:102050007B69013B7B613B691A787B691A707B68FD
:102060005A1E7A60002BF0D10CE03A69531C3B6198
:102070007B69591C796112781A707B685A1E7A60E4
:10208000002BF2D1FB6818461C37BD465DF8047B77
:10209000704780B487B000AFF860B9607A607B6841
:1020A000002B21D0FB687B61BB683B613A69531C04
:1020B0003B617B69591C796112781A701B78002B7F
:1020C0000CD104E07B695A1C7A6100221A707B688B
:1020D000013B7B607B68002BF4D105E07B68013B12
:1020E0007B607B68002BE1D1FB6818461C37BD463E
:1020F0005DF8047B704790B484B000AFF860B960BD
:102100007A60002413E0FB681A78BB68591CB96038
:102110001B78D31ADBB25CB2002C0BD1FB685A1CC3
:10212000FA601B78002B05D07B68013B7B607B68E5
:10213000002BE8D1234618461037BD4690BC7047A7
:1021400080B485B000AF78607B68FB6002E0FB681C
:102150000133FB60FB681B78002BF8D1FA687B68C1
:10216000D31A18461437BD465DF8047B7047FFFF4D
:1021700080B582B002AF0B4800F022FC0A4800F0A4
:102180001FFC0A4B01930A4B0093002301220421F8
:10219000084800F015FC084800F012FC00BFBD46DE
:1021A00080BD00BFD08C0100DC8C0100248D0100BB
:1021B000308D0100008D01003C8D010080B485B0A0
:1021C00000AF786039603B680A2B17D17B681B68C9
:1021D0001946134BA3FB0123DA0813469B00134453
:1021E0005B00CA1AFA607B681B681A460C4BA3FB9B
:1021F0000223DB081A467B681A600AE07B681B68CA
:1022000003F00F03FB607B681B681B091A467B68A1
:102210001A60FB6818461437BD465DF8047B7047AA
:10222000CDCCCCCC90B482B000AF786000240DE06F
:1022300023469B0023445B0018467B681B68591C9F
:102240007A6811601B780344A3F130047B681B6833
:102250001B78303B092BEBD9234618460837BD467F
:1022600090BC7047B0B58CB000AFF860B9607A60D0
:102270003B607B6CBB623C6CBB6C03F04003002B8F
:1022800001D06D4B00E06D4B7B62BB6C03F0100323
:10229000002B03D0BB6C23F00103BB64BB6C03F0C9
:1022A0000103002B01D0302300E0202387F82330E6
:1022B000002387F82F30BB6C03F00203002B1AD0E9
:1022C0007B68002B06DA2D2387F82F307B685B4272
:1022D0007B6010E0BB6C03F00403002B03D02B23C6
:1022E00087F82F3007E0BB6C03F00803002B02D007
:1022F000202387F82F3000257B68002B19D12B462F
:102300005D1C07F130021344302203F8202C13E047
:102310003B1D39681846FFF751FF03461A467B6A92
:102320001A442B465D1C127807F130010B4403F868
:10233000202C7B68002BEBD17B6C9D4200DD7D6403
:102340007B6CE41ABB6C03F01103002B15D197F8DA
:102350002F30002B0DD0002C0BDD013C09E0FA687A
:10236000BB689A4202D2FB6820221A70FB680133D4
:10237000FB6023465C1E002BF1DC97F82F30002B0E
:102380000BD0FA68BB689A4203D2FB6897F82F20FB
:102390001A70013CFB680133FB60BB6C03F0100357
:1023A000002B1AD10AE0FA68BB689A4203D2FB6894
:1023B00097F823201A70FB680133FB6023465C1EEC
:1023C000002BF0DC09E0FA68BB689A4202D2FB6895
:1023D00030221A70FB680133FB607B6C5A1E7A64F2
:1023E0009D42F0DB0DE0FA68BB689A4206D207F125
:1023F00030032B4413F8202CFB681A70FB68013360
:10240000FB602B465D1E002B0DDDBB6A002BEAD165
:1024100009E0FA68BB689A4202D2FB6820221A706F
:10242000FB680133FB6023465C1E002BF1DCFB687C
:1024300018463037BD46B0BDD88D0100EC8D010087
:1024400080B592B004AFF860B9607A603B60FB6819
:10245000BB62FA68BB6813447B627A6AFB689A4283
:1024600080F026824FF0FF337B627A6AFB68D31AD2
:10247000BB601DE27B681B78252B0BD0BA6A7B6A98
:102480009A4203D27B681A78BB6A1A70BB6A01331E
:10249000BB620AE20023BB777B6801337B607B6809
:1024A0001B782D2B04D1BB7F43F01003BB77F3E7E0
:1024B0007B681B782B2B04D1BB7F43F00403BB77D5
:1024C000EAE77B681B78202B04D1BB7F43F008032D
:1024D000BB77E1E77B681B78232B04D1BB7F43F0FC
:1024E0002003BB77D8E77B681B78302B04D1BB7FF8
:1024F00043F00103BB77CFE700BF4FF0FF33BB6171
:102500007B681B78303B092B05D83B1D1846FFF72D
:1025100089FEB86115E07B681B782A2B11D17B6896
:1025200001337B603B681A1D3A601B68BB61BB6965
:10253000002B06DABB695B42BB61BB7F43F0100333
:10254000BB774FF0FF337B617B681B782E2B1ED14E
:102550007B6801337B607B681B78303B092B05D897
:102560003B1D1846FFF75EFE78610BE07B681B7829
:102570002A2B07D17B6801337B603B681A1D3A60C8
:102580001B687B617B69002B01DA00237B610023E0
:102590007B777B681B78682B03D07B681B786C2B60
:1025A00005D17B681B787B777B6801337B600A23CE
:1025B000FB777B681B78252B00F00881252BC0F268
:1025C0001F81782B00F31C81582BC0F21981583BD6
:1025D000202B00F2158101A252F823F0E927000018
:1025E0000128000001280000012800000128000047
:1025F0000128000001280000012800000128000037
:10260000012800000128000061260000F7270000D3
:102610000128000001280000012800000128000016
:10262000F727000001280000012800000128000011
:102630000128000001280000E32700009527000082
:102640000128000001280000CF260000012800001A
:102650003D2800000128000001280000F1270000AB
:10266000BB7F03F01003002B10D109E0BA6A7B6A2C
:102670009A4202D2BB6A20221A70BB6A0133BB6243
:10268000BB69013BBB61BB69002BEFDC3B681A1DDA
:102690003A601B68FB74BA6A7B6A9A4202D2BB6AD0
:1026A000FA7C1A70BB6A0133BB6209E0BA6A7B6AC2
:1026B0009A4202D2BB6A20221A70BB6A0133BB6203
:1026C000BB69013BBB61BB69002BEFDCEDE03B6804
:1026D0001A1D3A601B683B623B6A002B01D1824B9A
:1026E0003B620023FB6202E0FB6A0133FB62FA6A91
:1026F000BB699A4205D0FB6A3A6A13441B78002BE7
:10270000F2D17B69002B05DDFA6A7B699A4201DD13
:102710007B69FB62BB7F03F01003002B10D109E043
:10272000BA6A7B6A9A4202D2BB6A20221A70BB6ADA
:102730000133BB62BB695A1EBA61FA6A9A42EFDB87
:1027400000233B6310E0BA6A7B6A9A4203D23B6A79
:102750001A78BB6A1A70BB6A0133BB623B6A0133E9
:102760003B623B6B01333B633A6BFB6A9A42EADBA9
:1027700009E0BA6A7B6A9A4202D2BB6A20221A70C6
:10278000BB6A0133BB62BB695A1EBA61FA6A9A42DC
:10279000EFDB8AE0BB69B3F1FF3F05D10823BB61E2
:1027A000BB7F43F00103BB773B681A1D3A601B688F
:1027B0001A46BB7F02937B690193BB690093102388
:1027C000796AB86AFFF74EFDB8626EE0BA6A7B6A52
:1027D0009A4202D2BB6A25221A70BB6A0133BB62DD
:1027E00063E00823FB772AE0BB7F43F04003BB771D
:1027F0001023FB7723E0BB7F43F00203BB771DE090
:10280000BA6A7B6A9A4202D2BB6A25221A70BB6AF4
:102810000133BB627B681B78002B0BD0BA6A7B6AE2
:102820009A4203D27B681A78BB6A1A70BB6A01337A
:10283000BB623AE07B68013B7B6036E000BF7B7F98
:102840006C2B09D13B681A1D3A601B687B63BB7F08
:1028500003F00203002B1AE07B7F682B0ED13B684C
:102860001A1D3A601B689BB27B63BB7F03F00203B7
:10287000002B0CD07B6B1BB27B6308E03B681A1DFE
:102880003A601B687B63BB7F03F00203002B7A6B0B
:10289000F97FBB7F02937B690193BB6900930B4671
:1028A000796AB86AFFF7DEFCB8627B6801337B6047
:1028B0007B681B78002B7FF4DDADBB68002B0BD051
:1028C000BA6A7B6A9A4203D2BB6A00221A7003E09A
:1028D0007B6A013B00221A70BA6AFB68D31A184659
:1028E0003837BD4680BD00BF688D010080B584B01B
:1028F00000AFF860B9607A607B68BA684FF0FF316A
:10290000F868FFF79DFD034618461037BD4680BDA9
:102910000EB480B585B000AF786007F12003BB60CE
:10292000BA68F9697868FFF7E1FFF860FB68184654
:102930001437BD46BDE8804003B0704780B400AF97
:10294000034B1B681846BD465DF8047B704700BF0B
:102950008C09002080B584B000AF7860124B1B68F2
:10296000FB607868FEF721FAB860BA68FB689A42A3
:1029700001D1002313E0BB68002B0FD00A4B1B686A
:10298000002B04D0084B1B681846FEF79FFA432122
:10299000B868FEF717FA044ABB681360FB6818466C
:1029A0001037BD4680BD00BF8C09002080B483B0C5
:1029B00000AF786000BF0C37BD465DF8047B704700
:1029C0000FB480B582B000AF07F114033B603B68E1
:1029D0003A697F211048FFF733FD03467B607B682F
:1029E0007F2B01D97F237B600C4B1B68002B03D10D
:1029F0000948FFF7DBFF06E0084B18687B68064ACA
:102A00000021FEF7F5FA7B6818460837BD46BDE899
:102A1000804004B0704700BFC40900208C0900202A
:102A200080B500AF012203490348FEF73DFF00BF18
:102A300080BD00BF708D01009809002080B500AFF7
:102A400001F00AFB0346002B06D04FF0FF3104488B
:102A5000FEF7A0FF034600E00023184680BD00BF3C
:102A60009809002080B582B000AF78607B68002BA9
:102A700005D04FF4AC620849084800F0F9F801F0BD
:102A8000EBFA0346002B02D00548FFF791F800BF90
:102A90000837BD4680BD00BF148E0100788D01004F
:102AA0009809002080B485B000AFF860B9607A6002
:102AB000FB68002B04D00D4B1B68DA69FB681A60B9
:102AC000BB68002B04D0094B1B681A6ABB681A60EC
:102AD0007B68002B04D0054B1B685A6A7B681A6020
:102AE00000BF1437BD465DF8047B7047BC09002069
:102AF00080B584B000AF786039607B68033323F021
:102B00000303FB603B6823F00303BB60BA68FB6808
:102B10009A4205D840F2B6520A490B4800F0A8F88C
:102B2000BA68FB68D31A1A467968084800F042F977
:102B30000346074A1360FFF773FF00BF1037BD4617
:102B400080BD00BF008E0100888D0100708D0100E6
:102B5000BC09002080B584B000AF7860FFF76EFF3D
:102B6000F8600C4B1B687968184600F0A5F9B8604E
:102B7000F868FFF777FF084B1B68002B04D0064B63
:102B80001B687968B8689847BB6818461037BD4617
:102B900080BD00BFBC0900209009002080B584B032
:102BA00000AF78603960FFF749FFF860074B1B689A
:102BB0003A687968184600F0B3FAB860F868FFF729
:102BC00051FFBB6818461037BD4680BDBC090020C8
:102BD00080B584B000AF786039607B683A6802FBEA
:102BE00003F31846FFF7B6FFF860FB68002B08D028
:102BF0007B683A6802FB03F31A460021F868FFF786
:102C000043F9FB6818461037BD4680BD80B584B0D7
:102C100000AF78600A4B1B68002B03D0084B1B6881
:102C200078689847FFF70AFFF860786800F062FB61
:102C3000F868FFF717FF00BF1037BD4680BD00BF23
:102C40009409002080B586B000AFF860B9607A6062
:102C5000FFF7F4FE78617A68B968F868FFF722FF39
:102C60007869FFF7FFFE00BF1837BD4680BDFFFF44
:102C700080B586B000AFF860B9607A600023FB755C
:102C80000C4B1B68002B0BD17B68BA68F9680A48AB
:102C9000FFF796FE00BFFB7DDBB2002BFBD005E00B
:102CA000044B1B687A68B968F868984700BF183702
:102CB000BD4680BDC0090020A08D010080B584B054
:102CC00000AF786039607B689B6A3A689A4204D2A8
:102CD000822235493548FFF7CBFF7B68DB6A3A68CB
:102CE0009A4204D3832230493148FFF7C1FF7B6801
:102CF0009A6A3B685B681344FB603A68FB689A42D7
:102D000024D0FB681B6803F00103002B1ED17B68F5
:102D1000DB6AFA689A4219D07B681B6BFA689A42A0
:102D200002D17B683A681A63FB6800221A60FB686C
:102D30005A683B685A607B689B6A3A68D11A7B681C
:102D40009A6AFB685B6813440A469A607B689A6AD1
:102D50003B689B681344BB60BA683B689A421FD0CB
:102D6000BB681B6803F00103002B19D17B681B6B48
:102D70003A689A4202D17B68BA681A633B680022BB
:102D80001A603B685A68BB685A607B689B6ABA687D
:102D9000D11A7B689A6A3B685B6813440A469A605A
:102DA00000BF1037BD4680BD40920100248E010057
:102DB000488E010080B58AB000AFF860B9607A60D3
:102DC000BB68033323F003037B627B6A38333B62C7
:102DD0003B6A033323F00303FB61BA687B68134447
:102DE00023F00303BB61BB69182B53D9BB69183BA4
:102DF0003A6A9A424ED8BA69FB69D31A183B7B618A
:102E000038220021786AFFF73FF87B6AFA680C21C4
:102E1000184600F067FB7B6A254A5A617B6AFA69AB
:102E20009A617B6A7A69DA617B6A7A695A63FA69BC
:102E30007B6A9A627B6A9B6A3B617B6A23F0010230
:102E40003B691A607B6A5B6B03F10C023B695A6059
:102E50003B6900229A607B6A9A6A3B695B681A4404
:102E60007B6ADA627A6A7B6ADB6A42F001021A6084
:102E70007B6A5A6B7B6ADB6A0C325A607B6A5A6BDC
:102E80007B6ADB6A0C329A607B6A9A6A7B6A1A6395
:102E90007B6A08E0B968BA687B6813441A4605483B
:102EA000FFF78EFD002318462837BD4680BD00BFC2
:102EB000788E0100808E010080B588B000AF786008
:102EC00039603B68002B01D1002315E17B68002BA2
:102ED00005D14FF490728A498A48FFF7C9FE7B6892
:102EE000184600F05BFC03460C2B05D040F2211283
:102EF00083498548FFF7BCFE7B68184600F030FC2C
:102F00000346002B05D14FF491727D497F48FFF7AE
:102F1000AFFE7B68BB613B68033323F003033B6078
:102F2000BB695B6B3A689A4201D90023E4E03B68D5
:102F30000B2B01D80C233B60BB691A6BBB699B6AE6
:102F4000D31AFB61CFE0BB699A6AFB6913447B61CA
:102F50007B691B6803F00103002B40F0BE807B6996
:102F60005A68FB69D31A0C3B3A689A4200F2B58062
:102F70007B695A68FB69D31AA3F10C023B681833CA
:102F80009A4239D3FA693B6813440C333B61BB69FD
:102F90009A6A3B691344FB60BB6923F00102FB683A
:102FA0001A607B695A68FB685A60FB68FA699A6024
:102FB0007B693A695A60FB685A68BB695B6B0C3382
:102FC0009A4206D0BB699A6AFB685B6813443A6907
:102FD0009A60BB691A6A3B68134403F10C02BB692F
:102FE0001A62BB695A6ABB691B6A9A421AD2BB69E8
:102FF0001A6ABB695A6215E0BB691A6A7B695B6829
:10300000B969896A7869411A5B1A1A44BB691A62FC
:10301000BB695A6ABB691B6A9A4203D2BB691A6AC6
:10302000BB695A62BB6943F001027B691A60BB69E4
:103030001B6B7A699A4228D107E0BB699A6ABB691F
:103040001B6B5B681A44BB691A63BB691B6B1B680B
:1030500003F00103002B05D0BB691A6BBB69DB6A67
:103060009A42EAD1BB691A6BBB69DB6A9A420CD0FF
:10307000BB691B6B1B6803F00103002B05D040F2FA
:1030800083121F492248FFF7F3FD7A693B68134416
:103090000C33BA69D26A934205D940F285121849B5
:1030A0001C48FFF7E5FD7B690C3303F00303002B9D
:1030B00005D04FF4C37212491748FFF7D9FD7B6959
:1030C00003F00303002B05D040F287120C4913488C
:1030D000FFF7CEFD7B690C330EE0BB699A6AFB6992
:1030E00013445B68FB61BB695A6B3B68D31AFA698E
:1030F0009A427FF628AF002318462037BD4680BD90
:103100004C920100BC8E0100CC8E0100088F0100A2
:10311000308F0100808F0100D08F01001C900100D2
:1031200080B58CB000AFF860B9607A60FB68002BA6
:1031300005D14FF4D57268496848FFF799FDFB68DF
:10314000184600F02BFB03460C2B05D040F2AB12C7
:1031500061496348FFF78CFDFB68184600F000FBEF
:103160000346002B05D14FF4D6725B495D48FFF74B
:103170007FFDFB68FB627B68033323F003037B6006
:10318000FB6A5B6B7A689A4201D900239FE07B68F7
:10319000002B04D1B86800F0ADF8002397E0BB68BD
:1031A000002B06D1FB6A79681846FFF785FE0346B7
:1031B0008DE0BB6803F00303002B05D040F2C11281
:1031C00045494948FFF754FDFB6A9B6ABA689A4231
:1031D00005D24FF4E17240494448FFF749FDFB6ACC
:1031E000DB6ABA689A4205D340F2C3123A494048B2
:1031F000FFF73EFDBB680C3BBB62FB6A9B6ABA6A89
:10320000D31A7B62BB6A5A687B6AD31A0C3B3B6257
:103210003A6A7B689A4201D1BB6858E07B681833F0
:103220003A6A9A423CD9FB6A1A6A79683B6ACB1AB5
:103230001A44FB6A1A627A6A7B6813440C33BB61D6
:10324000FB6A9A6ABB6913447B61FB6A23F0010243
:103250007B691A60BB6A5A687B695A607B697A6AC3
:103260009A60BB6ABA695A607B695A68FB6A5B6B91
:103270000C339A4206D0FB6A9A6A7B695B681344F6
:10328000BA699A60FB6A1B6B7A699A4202D2FB6A3E
:103290007A691A637969F86AFFF710FDBB6816E06E
:1032A000FB6A79681846FFF707FEF861FB69002B97
:1032B0000CD07A683B6A934228BF13461A46B96815
:1032C000F869FEF73CFEB86800F014F8FB69184690
:1032D0003037BD4680BD00BF5C920100BC8E01004E
:1032E000CC8E0100088F01004C9001007C90010001
:1032F000B490010080B584B000AF78607B68002B8B
:1033000000F083807B6803F00303002B05D04FF4AB
:10331000027240494048FFF7ABFC7B680C3BFB6006
:10332000FB681B6823F00103BB60BB68002B05D161
:103330004FF4057237493948FFF79AFCFB681B6860
:1033400003F00103002B05D140F215223149344826
:10335000FFF78EFCBB68184600F020FA03460C2BE2
:1033600005D040F216222B492E48FFF781FCBB689E
:10337000184600F0F5F90346002B05D140F217225C
:1033800024492948FFF774FCBB689B6A7A689A4213
:1033900004D3BB68DB6A7A689A4205D34FF406729D
:1033A0001C492248FFF764FCBB689A6AFB685B68AB
:1033B00013441B6823F001031A46BB68934205D0EF
:1033C00040F21A2213491A48FFF752FCBB6823F057
:1033D0000102FB681A60BB681B6BFA689A4202D252
:1033E000BB68FA681A63BB681A6ABB689B6AF968AB
:1033F000CB1A1946FB685B68CB1A1A44BB681A6281
:10340000F968B868FFF75AFC00E000BF1037BD4606
:1034100080BD00BF6C9201004C900100EC90010057
:1034200004910100149101005C910100949101004C
:103430000892010080B483B000AF786039607B6887
:103440001B683A685A607B681A683B681A607B6838
:103450003A681A603B687A685A6000BF0C37BD460C
:103460005DF8047B704780B483B000AF78607B6800
:103470001B687A6852685A607B685B687A68126871
:103480001A607B687A685A607B685A687B681A6041
:1034900000BF0C37BD465DF8047B704780B485B033
:1034A00000AF0346FB710023FB600FE00C4AFB6892
:1034B0001B0113441B78FA799A4204D1FB681B0163
:1034C000074A134406E0FB680133FB60FB68082BE6
:1034D000ECDD002318461437BD465DF8047B7047C9
:1034E0000C00002090B589B000AFF8600B467A6000
:1034F000FB720023FB61FB7A1846FFF7CFFFB86130
:10350000BB69002B05D14FF4AB7225492548FFF765
:10351000AFFB00F009FCBB695B68FB6112E0FB6973
:103520000C3B7B617B69002B09D07A69FB689A426E
:1035300005D14FF4B3721A491B48FFF799FBFB6999
:103540001B68FB61BB690433FA699A42E7D100F05A
:1035500001FCFB7A63F07F03DAB2FB681A72FB6846
:10356000082279681846FEF794FD104B1B68002B63
:1035700003D00E4B1B68F868984701F0F1FC044635
:10358000BB691A1DFB680C3319461046FFF752FF42
:10359000204601F0E9FC00BF2437BD4690BD00BFC6
:1035A000109301007C92010094920100440A0020D3
:1035B00090B583B000AF78607B68002B05D140F2F6
:1035C00093120F490F48FFF753FB0F4B1B68002B5B
:1035D00003D00D4B1B68786898477B6800221A72ED
:1035E00001F0BEFC04467B680C331846FFF73BFF36
:1035F000204601F0B9FC00BF0C37BD4690BD00BFAE
:1036000020930100A4920100480A002090B587B0E1
:1036100000AF03463960FB7101F0A2FC7861FEF750
:10362000E5FB0346002B09D029492A48FFF7C8F9D2
:1036300040F2B71226492848FFF71AFB786901F0D3
:1036400093FCFB791846FFF729FF38613B69002B93
:1036500005D140F2BB121E492048FFF709FB3B6928
:10366000DB681846FFF776FAF860FB68002B01D19B
:10367000002329E03B69DB681A460021F868FEF761
:1036800003FCFB68FA791A72FB6800225A72FB6825
:10369000082239681846FEF7FCFC114B1B68002B0A
:1036A00003D00F4B1B68F868984701F059FC04469B
:1036B0003B691A1DFB680C3319461046FFF7BAFE2A
:1036C000204601F051FCFB6818461C37BD4690BDF2
:1036D00034930100B8920100E09201007C92010055
:1036E000440A002090B583B000AF78607B68002B5F
:1036F00005D140F2F51216491648FFF7B9FA7B6872
:103700001B7A5BB2002B05DA4FF4FB7210491248AA
:10371000FFF7AEFA114B1B68002B03D00F4B1B6851
:10372000786898477B6800221A7201F019FC0446F9
:103730007B680C331846FFF796FE204601F014FC18
:103740007868FFF763FA00BF0C37BD4690BD00BF35
:1037500048930100A4920100E4920100480A00206D
:1037600080B582B000AF78607B68002B05D14FF444
:10377000067208490848FFF77BFA7B681B7A5BB240
:10378000002B01DA012300E0002318460837BD466C
:1037900080BD00BF5C930100A492010080B582B09F
:1037A00000AF78607B68002B05D140F22B220649E0
:1037B0000648FFF75DFA7B681B7A03F07F03DBB2F4
:1037C00018460837BD4680BD78930100A4920100D9
:1037D00080B586B000AF78600B46FB7000233B617C
:1037E00000237B610023FB60FB781846FFF756FE41
:1037F000F8607B68002B02D0FB68002B01D100230E
:1038000035E001F0ADFBB860FEF7F0FA0346002B9F
:1038100009D019491948FFF7D3F840F2492216494F
:103820001748FFF725FAB86801F09EFB00F07CFA14
:10383000FB685B687B6112E07B690C3B3B613B6929
:10384000082279681846FEF756FC0346002B03D180
:1038500000F080FA3B690AE07B691B687B61FB68CA
:1038600004337A699A42E7D100F074FA00231846CB
:103870001837BD4680BD00BF8C930100B89201008F
:10388000E092010080B483B000AF78607B687A6812
:103890005A607B685A687B681A6000BF0C37BD4667
:1038A0005DF8047B704780B483B000AF7860396006
:1038B0007B685B683A681A607B685A683B685A6044
:1038C0007B683A685A603B687A681A6000BF0C37B8
:1038D000BD465DF8047B704780B483B000AF78606C
:1038E0007B681B687A6852685A607B685B687A6894
:1038F00012681A607B687A685A607B685A687B68CD
:103900001A6000BF0C37BD465DF8047B704780B479
:1039100083B000AF78607B681B687A689A420CBFFE
:1039200001230023DBB218460C37BD465DF8047B4B
:103930007047FFFF80B584B000AF78607B68002BD4
:1039400004D15F221C491D48FFF792F97B689B6AEE
:103950001B78232B11D17B68DB691A467B689B6A35
:103960009A420AD97B68DB691A467B689B6A1946CA
:103970007B68DB6A0B449A420CD97B681946104875
:10398000FFF71EF801F0ECFA0346FB60FB68002B22
:10399000FCD10DE07B68DB691A467B689B6A2033AB
:1039A0009A4205D87B6819460648FFF709F8FFE7F1
:1039B00000BF1037BD4680BD049401009C930100F8
:1039C000B0930100CC930100B0B582B000AF786035
:1039D000094B1B68184601F0C9FD0346013B1C4614
:1039E000064B53F83430A3F114057B681C602B465A
:1039F00018460837BD46B0BD580B0020580A0020B5
:103A000098B500AF094B00221A80002406E0E300BD
:103A1000074A13441846FFF735FF01341F2CF6DD23
:103A2000044B00221A6000BF98BD00BF5C0B002051
:103A3000580A0020580B002090B583B000AF3B1D02
:103A40001846FFF7C1FF0446084B1C60204600F0F3
:103A500033F9032384F8343004F11C03184601F0D1
:103A6000CCFA00BF0C37BD4690BD00BF600B0020F4
:103A700080B586B000AF01F073FAF8605C4BB3F923
:103A80000030002B40F0AC805A4B1B68002B00F03C
:103A9000A78000233B613B1D1846FFF795FF786127
:103AA000554B1B6893F8343003F00703032B2CD1DC
:103AB000514B1B6893F835301A467B689A4203D203
:103AC0004D4B1B687B6115E04B4B1B6893F8353001
:103AD0001A467B689A420BD1474B1B6893F83430E7
:103AE00003F00803002B03D1434B1B687B6101E00B
:103AF00001233B61404B1B6893F834203E4B1B680D
:103B000022F00802D2B283F834203B4B1B687A695A
:103B10009A4250D07B68DAB2384B1A70364B1B6829
:103B2000BB60354A7B691360354B1B68002B04D0A2
:103B3000334B1B687969B86898473B69002B02D002
:103B4000B86800F063F8786900F0B6F87B6993F81C
:103B500034305BB223F007035BB243F003035BB284
:103B6000DAB27B6983F834207869FFF7E3FE254BEE
:103B70001B78DBB2002B14D1234B1B68002B03D026
:103B8000214B1B68B8689847BB681C331A467B6991
:103B90001C331946104601F0EAF9F86801F0E4F91F
:103BA00022E0BB681C331A467B691C331946104659
:103BB00001F0DDF914E0104B1B68184600F07CF8AA
:103BC0000D4B1B6893F834305BB223F007035BB2F4
:103BD00043F003035AB2084B1B68D2B283F8342077
:103BE000F86801F0C1F900BF1837BD4680BD00BFBD
:103BF0005C0B0020580B0020600B0020640B0020A1
:103C0000680B0020840900206C0B002090B583B065
:103C100000AF78607B68002B05D140F2D2222149A9
:103C20002148FFF725F801F09BF904461F4B1B685C
:103C30007A689A420ED17B6893F834305BB223F0F5
:103C400007035BB243F003035BB2DAB27B6883F82D
:103C5000342020E07B6893F834305BB223F0070314
:103C60005BB243F001035BB2DAB27B6883F83420C5
:103C70007B6893F83530DB000D4A1A447B681433B7
:103C800019461046FFF70FFE7B689A6B094B1B68BD
:103C90001343084A1360204601F066F900BF0C3751
:103CA000BD4690BD209401009C930100600B002054
:103CB000580A0020580B002090B583B000AF786000
:103CC0007B68002B05D140F2333213491348FEF7CD
:103CD000CFFF01F045F904467B6814331846FFF71F
:103CE000FBFD7B6893F83530DB000D4A1344184622
:103CF000FFF70DFE0346002B07D07B689B6BDA4372
:103D0000084B1B681340074A1360204601F02CF94A
:103D100000BF0C37BD4690BD3C9401009C93010050
:103D2000580A0020580B002098B500AF01F018F990
:103D30000446074BB3F900309BB201339BB21AB271
:103D4000034B1A80204601F00FF900BF98BD00BF59
:103D50005C0B002098B500AF01F002F90446104B4F
:103D6000B3F900309BB2013B9BB21AB20C4B1A80E4
:103D70000B4BB3F90030002B0CDC094B00221A80EE
:103D8000204601F0F1F8074B1B68002B05D0FFF728
:103D90006FFE02E0204601F0E7F800BF98BD00BFCB
:103DA0005C0B0020600B002080B400AF044BB3F923
:103DB00000309BB21846BD465DF8047B704700BFDB
:103DC0005C0B002080B483B000AF78607B687A68B9
:103DD0005A607B685A687B681A6000BF0C37BD4622
:103DE0005DF8047B704780B483B000AF78607B6877
:103DF0001B687A6852685A607B685B687A681268E8
:103E00001A607B687A685A607B685A687B681A60B7
:103E100000BF0C37BD465DF8047B704790B583B09A
:103E200000AF00F019F9786001F09AF8044678685C
:103E3000FFF742FF7B684C33184600F0E3FC7B68D9
:103E4000042283F834207868FDF7A8F9204601F0B1
:103E50008BF8FFF70DFE00BF0C37BD4690BDFFFF8E
:103E600090B585B000AF78607B68FB60FB68002B85
:103E700004D1872219491A48FEF7FAFEFB6893F825
:103E8000343003F00703022B04D08822134915486D
:103E9000FEF7EEFEF868FFF781FC0346012B04D025
:103EA00089220E491048FEF7E3FE01F059F8044656
:103EB000FB686FF001021A63FB6814331846FFF7C2
:103EC00092FFF868FFF7A2FE204601F04DF8FFF7D9
:103ED000CFFD00BF1437BD4690BD00BFF89501006F
:103EE000589401006C940100A894010080B586B03C
:103EF00002AFF860B9607A603B60FB681433184623
:103F0000FFF760FFFB687A681A62FB683A685A62DA
:103F1000FB68BA699A62FB68FA69DA62FB68986AB8
:103F2000FB68DB6A1A462321FDF7AEFFFB68186ABF
:103F3000FB68596AFB689A6AFB68DB6A043B1A44AF
:103F4000244B01F0ABF80246FB68DA6197F82030A9
:103F50001F2B04D9BE2220492048FEF789FEFB68AA
:103F600097F8202083F83520FB6800229A63FB68CD
:103F70000022DA63FB68002283F84020FB687A6A3B
:103F80005A64FB687A6A9A64FB6800221A63FB68C9
:103F9000002283F83420FB6800229A67FB68002225
:103FA000DA67FB6803F14C00F968002301930023F2
:103FB0000093FB680A4A00F0E7FB0A4B1B68002BE2
:103FC00003D0084B1B68F868984700231846103741
:103FD000BD4680BD1D3E000008960100EC94010026
:103FE000613E0000780B002080B588B004AFF86017
:103FF000B9607A603B60FB68002B05D140F231125A
:1040000012491348FEF734FEBB69002B05D14FF46B
:1040100099720E490F48FEF72BFEBA680121F86825
:10402000FFF760FA7B6A039397F820300293FB69ED
:104030000193BB6900933B687A68B968F868FFF739
:1040400055FF034618461037BD4680BD189601003F
:10405000589401001095010080B400AF034B1B6819
:104060001846BD465DF8047B704700BF600B00201A
:1040700080B582B000AF78607B68002B05D14FF42B
:10408000B2721C491C48FEF7F3FD7B6893F834308C
:1040900003F00703002B05D040F2651215491748BD
:1040A000FEF7E6FD7868FFF779FB0346012B05D0A4
:1040B0004FF4B3720F491248FEF7DAFD7B6893F8AC
:1040C00035301A46012393401A467B689A637B6811
:1040D000022283F83420786800F03EFAFFF7BCFF34
:1040E0000346002B01D0FFF7C3FC00231846083716
:1040F000BD4680BD28960100589401002895010016
:10410000A894010080B584B000AF78607B68002B74
:1041100005D140F28F1223492348FEF7A9FD7868A4
:10412000FFF73CFB0346012B05D04FF4C8721D4935
:104130001E48FEF79DFD7868FFF712FB0346002B33
:1041400005D140F2911217491948FEF791FD7B689D
:1041500093F8343003F00703042B01D100231CE053
:104160007B6893F8343003F00703002B02D07868A3
:10417000FFF7A2FD00F0F4FEF8607B684C331846B0
:1041800000F040FB7B68042283F834207868FDF758
:1041900005F8F86800F0E8FE002318461037BD4621
:1041A00080BD00BF3C96010058940100A894010016
:1041B0006095010080B58AB004AFF860B9607A609C
:1041C0003B60F9680120FFF721FA78617B69002BD9
:1041D00001D100231BE03868FEF7BCFC38613B6965
:1041E000002B04D17869FFF77DFA00230FE07B6A8A
:1041F000039397F8203002933B6801933B69009347
:104200007B68BA68F9687869FFF770FE7B691846C1
:104210001837BD4680BDFFFF80B584B000AF786021
:104220007B68002B05D14FF4FB7223492348FEF72E
:104230001FFD7868FFF7B2FA0346012B05D040F264
:10424000F7121D491E48FEF713FD7868FFF788FA3C
:104250000346002B05D04FF4FC7217491948FEF7AE
:1042600007FD7B6893F8343003F00703042B01D17A
:1042700000231CE07B6893F8343003F00703002B25
:1042800002D07868FFF718FD00F06AFEF8607B68DE
:104290004C33184600F0B6FA7B68042283F83420C9
:1042A0007868FCF77BFFF86800F05EFE0023184694
:1042B0001037BD4680BD00BF5096010058940100E4
:1042C000A89401009095010090B585B000AF78608A
:1042D000FFF7C2FEF860FB68002B05D140F23F22D9
:1042E0001B491C48FEF7C4FCF868FFF757FA034661
:1042F000012B05D04FF4107215491748FEF7B8FC92
:1043000000F02EFE0446FB6800221A63F86800F0F5
:10431000BFF8FB684C333A1D0021184600F016FC2C
:10432000FB684C33184600F0B5FA204600F01CFE3E
:10433000FFF79EFBFB681B6B13F1020F02D1FB68BA
:1043400000221A63FB681B6B18461437BD4690BDEC
:104350006496010058940100A894010080B582B0D1
:1043600000AF78607868FFF7AFFF0346184608375C
:10437000BD4680BD80B584B000AF78607868FCF73A
:1043800009FCF860F868FFF79FFF034618461037EE
:10439000BD4680BD90B587B000AFF860B9607A6067
:1043A000FB68002B05D140F2D52236493648FEF78E
:1043B0005FFCF868FFF7F2F90346012B05D040F2E5
:1043C000D62230493148FEF753FCBB68022B09D096
:1043D000BB68022B4FDCBB68002B34D0BB68012BC1
:1043E00036D048E000F0BCFD0446FB6893F834305A
:1043F00003F00703012B14D1F868FFF75DFC7B681D
:104400001A78FB6883F83520FB6893F835301A4634
:10441000012393401A46FB689A63F868FFF7F6FB9E
:104420000DE07B681A78FB6883F83520FB6893F809
:1044300035301A46012393401A46FB689A6320469A
:1044400000F092FD18E0F868FFF712FE034614E052
:10445000F868FFF785F90346012B04D1F868FFF7E8
:1044600051FE786103E0F868FFF7D6FE7861FFF748
:10447000FFFA7B6901E000BF002318461C37BD46E8
:1044800090BD00BF7496010058940100A8940100EB
:1044900090B583B000AF78607B68002B05D140F207
:1044A0004B3228492848FEF7E3FB7868FFF776F996
:1044B0000346012B05D04FF4537222492348FEF7DF
:1044C000D7FBFFF7C9FD02467B68934205D040F257
:1044D0004D321C491E48FEF7CBFB7B6893F8343005
:1044E00003F00704012C04D0032C02D04FF0FF335B
:1044F00024E000F035FD04467868FFF7DDFB7B68BB
:1045000093F834305BB223F007035BB243F002034D
:104510005BB2DAB27B6883F834207B684C33184690
:1045200000F0CAFA204600F01FFD0A4B1B68002B62
:1045300003D0084B1B6878689847002318460C374F
:10454000BD4690BD8896010058940100A8940100D2
:10455000DC950100700B002090B583B000AF78604F
:104560007B68002B05D140F279321D491D48FEF7CA
:104570007FFB7868FFF712F90346012B05D040F264
:104580007A3217491848FEF773FB7B6893F834308A
:1045900003F00703022B02D04FF0FF331BE000F0C3
:1045A000DFFC04467B6814331846FFF71CFC7B686D
:1045B0004C33184600F080FA7868FFF727FB204656
:1045C00000F0D2FC094B1B68002B03D0074B1B6883
:1045D00078689847002318460C37BD4690BD00BF49
:1045E0009C96010058940100A8940100740B0020CF
:1045F00080B483B000AF78607B687A685A607B686B
:104600005A687B681A6000BF0C37BD465DF8047BB2
:10461000704780B483B000AF786039607B681B68F6
:104620003A685A607B681A683B681A607B683A6827
:104630001A603B687A685A6000BF0C37BD465DF867
:10464000047B704780B483B000AF78607B681B68E0
:104650007A6852685A607B685B687A6812681A6088
:104660007B687A685A607B685A687B681A6000BF0A
:104670000C37BD465DF8047B704780B483B000AF53
:1046800078607B681B687A689A420CBF012300231C
:10469000DBB218460C37BD465DF8047B704780B529
:1046A00086B000AFF860B9607A603B60FB6897F84D
:1046B00020205A72FB685B7A23F00103DAB2FB68B0
:1046C0005A72FB68BA68DA61FB687A681A62FB683A
:1046D00000229A62FB683A685A6200237B610BE011
:1046E0007B690233DB00FA68134404331846FFF792
:1046F0007FFF7B6901337B617B69002BF0DD00BFAD
:1047000000BF1837BD4680BD90B585B000AF78605A
:10471000396000F025FC04467868FFF7AEFF0346D9
:10472000002B0CD17B681B68143BFB60FB689A6A0A
:104730003B681A60204600F017FC002304E0204686
:1047400000F012FC4FF0FF3318461437BD4690BD01
:1047500080B584B000AF78600023FB600BE0FB689D
:104760000233DB007A68134404331846FFF76AFF0C
:10477000FB680133FB60FB68002BF0DD00BF00BF6E
:104780001037BD4680BDFFFF80B586B002AFF86030
:10479000B9607A603B60FB68002B05D140F20F12D4
:1047A00014491548FEF764FA7B68002B05D14FF4D5
:1047B000887210491148FEF75BFABB696FF000423E
:1047C000934205D340F211120A490D48FEF750FA00
:1047D000FB68BA680A211846FEF784FE3B7F009307
:1047E000BB693A687968F868FFF759FF00BF10376E
:1047F000BD4680BDC0970100B0960100C49601007F
:10480000D896010090B583B000AF78607B68002B2C
:1048100005D14FF493721B491B48FEF729FA7B68B8
:104820001846FEF7BBFF03460A2B05D040F22712BD
:1048300014491648FEF71CFA7B681846FEF790FFED
:104840000346002B05D14FF494720E491048FEF731
:104850000FFA00F085FB04467868FFF779FF7B6864
:104860005B7A23F00103DAB27B685A72204600F0CB
:104870007BFB7B681846FEF79BFE002318460C372F
:10488000BD4690BDD0970100B0960100F0960100A2
:104890002C970100B0B588B000AF78607B68002B22
:1048A00005D14FF4CC727B497B48FEF7E1F97B6878
:1048B0001846FEF773FF03460A2B05D040F2991203
:1048C00074497648FEF7D4F9002400F049FB054608
:1048D0007868FFF73DFF7B685B7A23F00103DAB26B
:1048E0007B685A726E4B1B68002B04D06C4B1B68A4
:1048F0007A6810469847FCF703F902467B685B6AC2
:104900001A447B689A627B685B7A03F00403002B8D
:1049100002D0644BBB6101E0634BBB61BB69BB6010
:104920000023FB6155E0FB699B0007F12002134463
:1049300053F8183C1B683B61FB69DB0014335B4296
:104940003A691344FB60FB689A6A7B689B6A9A42E7
:1049500009D0FB689A6A7B689B6AD31A6FF00042A1
:1049600093421FD300E000BFFB699B0007F12002C8
:10497000134453F8183C1A68FB699B0007F12001A7
:104980000B4443F8182CFB699B0007F120021344E9
:1049900053F8182CFB69DB00B9690B445B689A4239
:1049A000C1D100E000BFFB69002B0FD0FB699B0069
:1049B00007F12002134453F8182CFB690133083225
:1049C0009B0007F120010B4443F8182CFB690133CD
:1049D000FB61FB69002BD6D0344B1B680133334A93
:1049E0001360324B1B687B61BA687B6814331946CD
:1049F0001046FFF70EFE0223FB611EE07B6903F009
:104A00000303002B1DD1FB69C3F101039B0007F1D8
:104A10002002134453F8180CFB69C3F1010302335D
:104A2000DB007A68134404331946FFF7F2FD7B6913
:104A30009B087B61FB690133FB61FB69012BDDD9BD
:104A400000E000BF7B685B7A43F00103DAB27B6869
:104A50005A727B685B7A03F00403002B0ED0144B70
:104A60001B78012B0AD1134B93F8343003F0070362
:104A7000022B03D10F48FFF76FFD0124284600F0F9
:104A800073FA002C01D0FEF7F3FF002318462037FD
:104A9000BD46B0BDE0970100B0960100F096010060
:104AA000500A0020840B00207C0B0020140E0020F4
:104AB0009C0000208C0B002090B583B000AF786084
:104AC0007B68002B05D14FF404721C491C48FEF78B
:104AD000CFF87B681846FEF761FE03460A2B05D027
:104AE00040F2112215491748FEF7C2F87B685B7A3D
:104AF00003F00103002B02D14FF0FF3319E0124BFA
:104B00001B68002B04D0104B1B687A68104698472E
:104B100000F026FA04467868FFF71AFE7B685B7A95
:104B200023F00103DAB27B685A72204600F01CFAC7
:104B3000002318460C37BD4690BD00BFF09701001A
:104B4000B0960100F0960100540A002090B585B09F
:104B500000AFF860B9607A60FB68002B05D14FF4B4
:104B60000D7234493448FEF783F8FB681846FEF7A7
:104B700015FE03460A2B05D040F235222D492F4859
:104B8000FEF776F800F0ECF90446BB68052B47D831
:104B900001A252F823F000BFBB4B0000B14B000054
:104BA000DD4B0000ED4B0000FD4B0000174C0000FA
:104BB000FB685A6A7B681A6033E07B681B686FF099
:104BC0000042934205D340F23F221A491C48FEF7A7
:104BD0004FF87B681A68FB685A6222E0FB685B7AD0
:104BE00023F00203DAB2FB685A721AE0FB685B7AC0
:104BF00043F00203DAB2FB685A7212E0FB685B7A98
:104C000003F00103002B03D07B6801221A6002E04D
:104C10007B6800221A60FB689A6A7B681A6000E071
:104C200000BF204600F0A0F9002318461437BD4607
:104C300090BD00BF00980100B0960100F096010001
:104C40009097010090B585B000AF3B461846FFF73E
:104C5000CFFCFBF755FFF86000F082F904465FE0F7
:104C6000374B1B68143BBB60BB689B6AFA68D31A5E
:104C70006FF0004293425AD2324B1B68002B03D094
:104C8000304B1B68B8689847B868FFF761FDBB6890
:104C90005B7A03F00203002B06D1BB685B7A23F03A
:104CA0000103DAB2BB685A72BB6803F114023B46D7
:104CB00011461846FFF7ADFCBB68DB69BA68126A9B
:104CC00010469847FBF71CFFF8601F4B1B68002B32
:104CD00003D01D4B1B68B86898473B461846FFF742
:104CE000CCFC0346002B00D01AE0BB6814331846F6
:104CF000FFF7A8FCBB685B7A03F00203002B0FD020
:104D0000BB685B7A03F00103002B09D0BB685B7AB8
:104D100023F00103DAB2BB685A72B868FFF7BAFD34
:104D20000748FFF7AAFC0346002B99D000E000BF1C
:104D3000204600F019F900BF1437BD4690BD00BFF2
:104D40007C0B00200C0E0020100E002090B585B0CA
:104D500000AF3B461846FFF74BFC00F001F9044654
:104D60006BE03D4B1B68143BFB60FBF7C9FEB86072
:104D7000FB689B6ABA68D31A6FF00042934263D211
:104D8000364B1B68002B03D0344B1B68F8689847E0
:104D9000F868FFF7DDFCFB685B7A03F00203002B89
:104DA00006D1FB685B7A23F00103DAB2FB685A7222
:104DB000FB6803F114023B4611461846FFF729FC35
:104DC000274B00221A70204600F0CEF8FB68DB6902
:104DD000FA68126A10469847224B1B68002B03D0D2
:104DE000204B1B68F868984700F0BAF804461C4B43
:104DF00001221A703B461846FFF73FFC0346002B82
:104E000000D01AE0FB6814331846FFF71BFCFB6860
:104E10005B7A03F00203002B0FD0FB685B7A03F090
:104E20000103002B09D0FB685B7A23F00103DAB29F
:104E3000FB685A72F868FFF72DFD0748FFF71DFC65
:104E40000346002B8DD000E000BF204600F08CF818
:104E500000BF1437BD4690BD840B00200C0E00200F
:104E60009C000020100E002080B584B000AF786058
:104E700007F1080319461248FFF746FC0346002BCA
:104E800008D0FFF7E9F803461846FFF701FBFEF7E5
:104E9000EFFD11E0FBF734FEF860BA68FB68D31A47
:104EA0006FF00042934207D2BA68FB68D31ABB6026
:104EB000BB681846FFF752FAFFF748FFD8E700BF74
:104EC000840B002080B582B000AF00237B6009E036
:104ED0007B68DB00074A13441846FFF789FB7B68B1
:104EE00001337B607B68002BF2D000BF00BF083726
:104EF000BD4680BD7C0B002080B586B004AF00238A
:104F00007B6009E07B68DB00104A13441846FFF71A
:104F10006FFB7B6801337B607B68002BF2D00A2338
:104F20000393042302934FF400730193084B0093FF
:104F30000023084A08490948FFF756F80748FFF7D1
:104F400097F800BF0837BD4680BD00BF840B002026
:104F50000C0C0020694E0000B89701008C0B00205B
:104F6000EFF3108072B6704780F310887047444AA0
:104F70001368012B04D04FF001031360414A106005
:104F8000414A116041484FF0805101607047EFF392
:104F9000108272B63A48016851B34FF000010160C7
:104FA0003848016891B1EFF309811EF0100F08BF76
:104FB00021ED108B21E9F00F4FF000041EF0100FCF
:104FC00008BF012441F8044D006801602E490968BA
:104FD000096808C9B1E8F00F002B18BFB1EC108BBD
:104FE00081F309884EF0100E002B18BF2EF0100E22
:104FF00082F310884EF0040E704723490860EFF3E7
:10500000148222F0040282F314881E494FF000003B
:1050100008601B494FF0010008601D481D49D0F889
:10502000002041EA0201016018484FF08051016000
:1050300019480068006800BF80F3088861B662B64E
:10504000704700BFEFF308801EF0040F01D0EFF3AC
:10505000098020E9F00F40F804ED40F804ED1EF05F
:10506000040F02D080F3098801E080F3088800B5BE
:1050700000F0BAF95DF804EB4EF0040E7047000042
:10508000200E0020180E00201C0E002004ED00E071
:1050900020ED00E00000FFFF08ED00E080B489B0E3
:1050A00000AFF860B9607A603B607B680433BB6135
:1050B000BB6923F00703BB61BB69443BBB61BB69B0
:1050C0007B610023FB6108E0FB699B007A69134464
:1050D000154A1A60FB690133FB61FB69102BF3D998
:1050E000BA687B695A627B6900229A627B690022F6
:1050F000DA627B6900221A637B6900225A633A688C
:105100007B699A63FA687B69DA637B694FF0807226
:105110001A647B6900221A60BB6918462437BD46B1
:105120005DF8047B704700BFEFBEADDE80B500AF19
:105130002548FDF745FC254B1B889BB219462448A2
:10514000FDF73EFC214B1B889BB203F00103002BB3
:1051500002D02048FDF734FC1C4B1B889BB203F0A7
:105160000203002B02D01C48FDF72AFC174B1B88BA
:105170009BB203F00403002B02D01848FDF720FC7B
:10518000124B1B889BB203F00803002B02D014487B
:10519000FDF716FC0D4B1B889BB203F48073002BAC
:1051A00002D01048FDF70CFC084B1B889BB203F49F
:1051B0000073002B02D00C48FDF702FC0B48FDF7F2
:1051C000FFFB00BF80BD00BF149801002AED00E086
:1051D000249801003C98010048980100549801006F
:1051E0005C98010064980100709801007C980100AF
:1051F00080B500AF2648FDF7E3FB264B1B78DBB2FA
:1052000019462548FDF7DCFB224B1B78DBB203F087
:105210000103002B02D02148FDF7D2FB1D4B1B7868
:10522000DBB203F00203002B02D01D48FDF7C8FBE0
:10523000184B1B78DBB203F00403002B02D0194893
:10524000FDF7BEFB134B1B78DBB203F00803002B0A
:1052500002D01548FDF7B4FB0E4B1B78DBB203F010
:105260001003002B02D01148FDF7AAFB094B1B7855
:10527000DBB25BB2002B06DA0D4B1B6819460D48FA
:10528000FDF79EFB02E00C48FDF79AFB00BF80BDD6
:105290008098010029ED00E08C980100A49801009D
:1052A000B0980100BC980100CC980100D89801008A
:1052B00038ED00E0E09801007C98010080B500AF77
:1052C0002148FDF77DFB214B1B78DBB219462048B6
:1052D000FDF776FB1D4B1B78DBB203F00103002BBF
:1052E00002D01C48FDF76CFB184B1B78DBB203F0B7
:1052F0000203002B02D01848FDF762FB134B1B780A
:10530000DBB203F00803002B02D01448FDF758FB72
:105310000E4B1B78DBB203F01003002B02D01048B9
:10532000FDF74EFB094B1B78DBB25BB2002B06DAB4
:105330000C4B1B6819460C48FDF742FB02E00B487A
:10534000FDF73EFB00BF80BDF098010028ED00E0B6
:10535000049901001C990100289901003499010069
:105360004099010034ED00E04C9901007C98010067
:1053700080B500AF164B1B6803F00203002B02D070
:105380001448FDF71DFB124B1B6803F08043002BF4
:1053900014D0114B1B78DBB2002B01D0FFF728FF94
:1053A0000E4B1B78DBB2002B01D0FFF787FF0C4BB5
:1053B0001B889BB2002B01D0FFF7B8FE044B1B6883
:1053C000002B02DA0748FDF7FBFA00BF80BD00BFE3
:1053D0002CED00E05C99010029ED00E028ED00E0F3
:1053E0002AED00E07499010080B586B000AF7860C6
:1053F0007B6828337B617B6804333B61474B1B68C8
:10540000002B07D0454B1B6878699847F860FB680C
:10541000002B7ED03B691B6C19464148FDF7D0FA42
:105420003B695B6A19463F48FDF7CAFA3B699B6ACC
:1054300019463D48FDF7C4FA3B69DB6A19463B480B
:10544000FDF7BEFA3B691B6B19463948FDF7B8FA00
:105450003B695B6819463748FDF7B2FA3B699B68C0
:1054600019463548FDF7ACFA3B69DB681946334805
:10547000FDF7A6FA3B691B6919463148FDF7A0FA0A
:105480003B695B6919462F48FDF79AFA3B699B69AE
:1054900019462D48FDF794FA3B69DB6919462B48FC
:1054A000FDF78EFA3B691B6A19462948FDF788FA11
:1054B0003B695B6B19462748FDF782FA3B699B6B9A
:1054C00019462548FDF77CFA3B69DB6B19462348F2
:1054D000FDF776FA7B681B6803F00403002B09D004
:1054E000FEF7BAFD034619461D48FDF769FA00F0BC
:1054F0007FF902E01B48FDF763FA7B681B6803F045
:105500001003002B02D11848FDF75AFAFFF730FFBD
:10551000FEE700BF1837BD4680BD00BF240E002047
:105520008499010094990100A4990100B4990100A3
:10553000C4990100D4990100E4990100F499010093
:10554000049A0100149A0100249A0100349A01007F
:10555000449A0100549A0100649A0100749A01006F
:10556000849A0100A49A0100C09A010080B483B01B
:1055700000AF78607B6893FAA3F3B3FA83F37A6899
:10558000002A01D14FF0FF33013318460C37BD46D6
:105590005DF8047B704780B584B000AF78603960F7
:1055A0003868FDF7D7FAF860FB68002B02D17B68FA
:1055B0000C221A60FB6818461037BD4680BD80B5C6
:1055C00086B000AFF860B9607A607968B868FDF7B6
:1055D000E5FA78617B69002B02D1FB680C221A6026
:1055E0007B6918461837BD4680BD80B586B000AFD0
:1055F000F860B9607A607968B868FDF7E9FA7861AF
:105600007B69002B02D1FB680C221A607B6918466B
:105610001837BD4680BD80B582B000AF7860396074
:105620003868FDF7F3FA00BF0837BD4680BD80B586
:1056300000AFFCF70FFC0346184680BD80B483B072
:1056400000AF78607B681B687A689A420CBF0123C0
:105650000023DBB218460C37BD465DF8047B70476B
:1056600080B485B000AF78600023FB607B68BB60CE
:1056700005E0BB681B68BB60FB680133FB60BB686F
:105680001B687A689A42F4D1FB6818461437BD4605
:105690005DF8047B7047FFFF80B500AF0248FDF75F
:1056A0008FF90023184680BDE49A010080B500AF51
:1056B000FCF75EFD0023184680BDFFFF80B582B079
:1056C00000AF786002E00648FDF77AF97B685A1E61
:1056D0007A60002BF7D100BF00BF0837BD4680BD00
:1056E000EC9A010080B586B000AFF8607A603B604C
:1056F0000B46FB72FB7A1846FDF7D0FE78617B699A
:1057000004333B61FB683A691A60FB68FA7A1A72E3
:10571000FB687A685A60FB683A68DA60FB680022C6
:105720001A6100BF1837BD4680BD80B58AB000AF92
:105730007860396000237B623B6800221A613B6815
:10574000DB68002B03D03B681B7A002B01D10023C0
:105750004AE03B681B687B617B68002B04D17B6956
:105760003B6201237B6201E07B683B62FFF7F8FB51
:1057700003463B617B6A002B10D13B6A0C3BFB600C
:10578000FB681B7A23F080033A68127A934205D0B3
:105790003B691846FFF7E8FB002325E00023BB61C7
:1057A0003B685B68FB613B6A1B683B623A6A7B69EA
:1057B0009A4202D100233B620EE0BB690133BB6118
:1057C000FB691A1DFA613A6A1A603B68DB68BA69BC
:1057D0009A4200D0E7E700BF3B691846FFF7C4FBD9
:1057E0003B68BA691A613B6A18462837BD4680BDD6
:1057F00090B5B9B002AF0023C7F8D430744BC7F8E6
:10580000C83007F1800207F1A00008230121FFF74B
:1058100069FF0823C7F8C430D7F8C820D7F8C410E8
:105820006C48FDF7CDF8D7F8C400FFF747FF6A488A
:10583000FDF7C6F807F1A0031946D7F8D400FFF723
:1058400074FFC7F8D4000023C7F8D030AFE0D7F812
:10585000D0309B0007F1D802134453F8583C0C3B5E
:10586000C7F8C030FFF77CFB0346C7F8BC30D7F859
:10587000C0301B7A23F0800397F8A820934205D00C
:10588000D7F8BC301846FFF76FFB8BE03B46802211
:10589000D7F8C0101846FCF752FBD7F8BC301846B2
:1058A000FFF762FBD7F8C030C7F8B830D7F8B82098
:1058B000D7F8B83093F83530009313460822D7F85C
:1058C000C4104648FDF77CF8D7F8B83093F8343068
:1058D00003F0070387F8B73097F8B730012B03D1EF
:1058E0003F48FDF76DF81EE097F8B730022B03D163
:1058F0003C48FDF765F816E097F8B730002B03D168
:105900003948FDF75DF80EE097F8B730042B03D166
:105910003648FDF755F806E097F8B730032B02D16B
:105920003348FDF74DF8D7F8B8309B6AC7F8CC304C
:1059300004E0D7F8CC300133C7F8CC30D7F8CC30FE
:105940001B78232BF5D0D7F8B830DA6AD7F8B830FF
:105950009B6A1946D7F8B830DB69CB1AD118D7F84B
:10596000B830D86AD7F8B830DA6AD7F8B8309B6A56
:105970001C46D7F8CC30E31A1344642203FB02F22E
:10598000D7F8B830DB6AB2FBF3F4D7F8B8309B6CC9
:10599000D7F8B820126B01920093234602461548AF
:1059A000FDF70EF8D7F8D0300133C7F8D030D7F86C
:1059B000B030D7F8D0209A42FFF649AFD7F8D430AC
:1059C000002B7FF437AF00231846DC37BD4690BD6F
:1059D000F09A0100F89A01003C9B01007C9B0100B9
:1059E000889B0100949B0100A09B0100AC9B0100DF
:1059F000B89B0100C49B010080B584B000AF786003
:105A00007B681B68FB6013E0FB68143BBB60BB68F2
:105A10001A4608210B48FCF7D3FFFB681B687A681D
:105A20009A4202D00848FCF7CBFFFB681B68FB607A
:105A3000FA687B689A42E7D100BF00BF1037BD46C5
:105A400080BD00BFEC9B0100F49B0100B0B596B097
:105A500002AF0023FB64424B7B643A4607F120000F
:105A600008230221FFF73EFE08233B647A6C396C61
:105A70003C48FCF7A5FF386CFFF720FE3A48FCF7DE
:105A80009FFF07F120031946F86CFFF74EFEF864FC
:105A90000023BB6457E0BB6C9B0007F1500213442A
:105AA00053F8503C0C3BFB63FFF75AFA0346BB63C9
:105AB000FB6B1B7A23F0800397F82820934204D0D5
:105AC000BB6B1846FFF750FA3AE0BB6B1846FFF77E
:105AD0004BFAFB6B7B637B6B14331846FFF7AEFD11
:105AE0000346002B1AD17C6B7B6B9B8B1D467B6B1B
:105AF00014331846FFF7B4FD03460193009523467F
:105B00000822396C1948FCF75BFF7B6B143318468D
:105B1000FFF772FF1648FCF753FF11E07C6B7B6BBD
:105B20009B8B1D467B6B14331846FFF799FD03468C
:105B30000193009523460822396C0E48FCF740FF7C
:105B4000BB6C0133BB643B6BBA6C9A42A3DBFB6C4E
:105B5000002B96D1002318465037BD46B0BD00BF7C
:105B6000F89B0100049C0100209C0100389C01006E
:105B7000489C01004C9C0100B0B596B002AF0023D8
:105B8000FB643D4B7B643A4607F120000823042167
:105B9000FFF7A8FD08233B647A6C396C3748FCF7A3
:105BA0000FFF386CFFF78AFD3548FCF709FF07F156
:105BB00020031946F86CFFF7B8FDF8640023BB64B6
:105BC0004EE0BB6C9B0007F15002134453F8503C6D
:105BD0000C3BFB63FFF7C4F90346BB63FB6B1B7A0B
:105BE00023F0800397F82820934204D0BB6B18461B
:105BF000FFF7BAF931E0BB6B1846FFF7B5F9FB6B5D
:105C00007B637B6B14331846FFF718FD0346002BAC
:105C100019D17D6B7B6BDC697B6B14331846FFF706
:105C20001FFD0346019300942B460822396C15484A
:105C3000FCF7C6FE7B6B14331846FFF7DDFE1248F7
:105C4000FCF7BEFE09E07A6B7B6BDB6900931346C1
:105C50000822396C0D48FCF7B3FEBB6C0133BB6402
:105C60003B6BBA6C9A42ACDBFB6C002B9FD10023E0
:105C700018465037BD46B0BD5C9C0100649C0100D5
:105C8000889C0100A89C0100489C0100C09C010068
:105C9000F0B599B004AF0023FB64334B7B643A4604
:105CA00007F1200008230321FFF71CFD08233B64B4
:105CB0007A6C396C2D48FCF783FE386CFFF7FEFCDC
:105CC0002B48FCF77DFE07F120031946F86CFFF71F
:105CD0002CFDF8640023BB643AE0BB6C9B0007F129
:105CE0005002134453F8503C0C3BFB63FFF738F968
:105CF0000346BB63FB6B1B7A23F0800397F82820D5
:105D0000934204D0BB6B1846FFF72EF91DE0BB6B26
:105D10001846FFF729F9FB6B7B637C6B7B6B1B6A77
:105D20001D467B6BDB7F1E467B6B14331846FFF7EB
:105D300097FC03460393029601950823009323469C
:105D40000822396C0B48FCF73BFEBB6C0133BB648B
:105D50003B6BBA6C9A42C0DBFB6C002BB3D10023C7
:105D600018465437BD46F0BDD49C0100DC9C0100B0
:105D7000009D0100209D0100F0B599B004AF002303
:105D8000FB64464B7B643A4607F12000082305215B
:105D9000FFF7A8FC08233B647A6C396C4048FCF799
:105DA0000FFE386CFFF78AFC3E48FCF709FE07F14E
:105DB00020031946F86CFFF7B8FCF8640023BB64B5
:105DC0005FE0BB6C9B0007F15002134453F8503C5A
:105DD0000C3BFB63FFF7C4F80346BB63FB6B1B7A0A
:105DE00023F0800397F82820934204D0BB6B184619
:105DF000FFF7BAF842E0BB6B1846FFF7B5F8FB6B4C
:105E00007B637B6B14331846FFF718FC0346002BAB
:105E10001ED17C6B7B6B5B8C1D467B6B1B8C1E468B
:105E20007B6B14331846FFF71BFC03460293019665
:105E3000009523460822396C1B48FCF7C1FD7B6B9B
:105E400014331846FFF7D8FD1848FCF7B9FD15E0E4
:105E50007C6B7B6B5B8C1D467B6B1B8C1E467B6B54
:105E600014331846FFF7FCFB034602930196009596
:105E700023460822396C0E48FCF7A2FDBB6C0133A7
:105E8000BB643B6BBA6C9A429BDBFB6C002B8ED1E4
:105E9000002318465437BD46F0BD00BF389D0100B1
:105EA000409D0100649D0100809D0100489C01000F
:105EB000989D0100B0B596B002AF0023FB64424B41
:105EC0007B643A4607F1200008230621FFF70AFC0D
:105ED00008233B647A6C396C3C48FCF771FD386CE4
:105EE000FFF7ECFB3A48FCF76BFD07F1200319467E
:105EF000F86CFFF71AFCF8640023BB6457E0BB6C36
:105F00009B0007F15002134453F8503C0C3BFB63D9
:105F1000FFF726F80346BB63FB6B1B7A23F0800375
:105F200097F82820934204D0BB6B1846FFF71CF863
:105F30003AE0BB6B1846FFF717F8FB6B7B637B6B94
:105F400014331846FFF77AFB0346002B1AD17C6BFB
:105F50007B6B9B8C1D467B6B14331846FFF780FBD5
:105F600003460193009523460822396C1948FCF733
:105F700027FD7B6B14331846FFF73EFD1648FCF7F0
:105F80001FFD11E07C6B7B6B9B8C1D467B6B143380
:105F90001846FFF765FB0346019300952346082248
:105FA000396C0E48FCF70CFDBB6C0133BB643B6BDA
:105FB000BA6C9A42A3DBFB6C002B96D100231846E7
:105FC0005037BD46B0BD00BFB09D0100BC9D010073
:105FD000D89D0100F09D0100489C0100049E010035
:105FE00080B596B002AF0023FB643E4B7B643A461B
:105FF00007F1200008230A21FFF774FB08233B6404
:106000007A6C396C3848FCF7DBFC386CFFF756FBD0
:106010003648FCF7D5FC07F120031946F86CFFF76A
:1060200084FBF8640023BB6449E0BB6C9B0007F170
:106030005002134453F8503C0C3BFB63FEF790FFB7
:106040000346BB63FB6B1B7A23F0800397F8282081
:10605000934204D0BB6B1846FEF786FF2CE0BB6B67
:106060001846FEF781FFFB6B7B63796B7B6B5B6A8A
:106070007A6B926A019200930B460822396C1C4895
:10608000FCF79EFC7B6B5B7A03F00103002B03D0D3
:106090001848FCF795FC02E01748FCF791FC7B6B75
:1060A0005B7A03F00203002B03D01448FCF788FC52
:1060B00002E01348FCF784FCBB6C0133BB643B6B10
:1060C000BA6C9A42B1DBFB6C002BA4D1FAF718FD35
:1060D000034619460B48FCF773FC0023184650375B
:1060E000BD4680BD189E0100209E0100549E010007
:1060F000849E01009C9E0100AC9E0100BC9E01009C
:10610000C89E0100D49E010080B596B002AF002366
:10611000FB64334B7B643A4607F1200008230921D6
:10612000FFF7E0FA08233B647A6C396C2D48FCF7E2
:1061300047FC386CFFF7C2FA2B48FCF741FC07F12B
:1061400020031946F86CFFF7F0FAF8640023BB64EB
:1061500039E0BB6C9B0007F15002134453F8503CEC
:106160000C3BFB63FEF7FCFE0346BB63FB6B1B7A39
:1061700023F0800397F82820934204D0BB6B184685
:10618000FEF7F2FE1CE0BB6B1846FEF7EDFEFB6B64
:106190007B63796B7B6B1B7D182B06D87B6B1B7D20
:1061A0001A46124B53F8223000E0114B7A6B927E64
:1061B000019200930B460822396C0E48FCF700FC54
:1061C000BB6C0133BB643B6BBA6C9A42C1DBFB6CAA
:1061D000002BB4D1002318465037BD4680BD00BF08
:1061E00050A0010058A0010080A0010030A20100D1
:1061F00048A00100A4A0010080B584B000AF786081
:1062000039600F48FCF7DCFB0E4B1B68FB600AE0B3
:10621000FB681968FB685B681A460B48FCF7D0FB03
:10622000FB680C33FB60094B1B68FA689A42EFD39A
:106230000748FCF7C5FB002318461037BD4680BD54
:1062400094A20100280E0020B0A201002C0E002014
:10625000BCA2010080B582B000AF78603960FFF762
:10626000C7FA002318460837BD4680BD80B586B002
:1062700000AF7860396000237B6100233B6100231D
:10628000FB6007F10C0207F1100107F11403184637
:10629000FCF7D8FC7B6919460848FCF791FB3B6981
:1062A00019460748FCF78CFBFB6819460548FCF7C4
:1062B00087FB002318461837BD4680BDC0A20100E9
:1062C000D0A20100E0A2010080B588B000AFF86064
:1062D000B9607A60FB68FB610023BB6100237B61CE
:1062E00094E0FB6900221A70FB690133FB61BB6912
:1062F0000133BB61FB691B78202B03D0FB691B7842
:10630000092B03D1BA69BB689A42EAD37B69092B8E
:1063100019D94648FCF754FB00233B610BE03B696D
:106320009B007A6813441B6819464148FCF748FBF8
:106330003B6901333B613A697B699A42EFD33D483F
:10634000FCF73EFB6DE0BA69BB689A4264D2FB6918
:106350001B78222B3AD1FB690133FB61BB69013306
:10636000BB617B699B007A681344FA691A607B6998
:1063700001337B6114E0FB691B785C2B0AD1FB695C
:1063800001331B78222B05D1FB690133FB61BB690B
:106390000133BB61FB690133FB61BB690133BB6145
:1063A000FB691B78222B03D0BA69BB689A42E2D3FF
:1063B000BA69BB689A4231D2FB6900221A70FB6944
:1063C0000133FB61BB690133BB611FE07B699B004B
:1063D0007A681344FA691A607B6901337B6105E0CE
:1063E000FB690133FB61BB690133BB61FB691B784E
:1063F000202B07D0FB691B78092B03D0BA69BB6837
:106400009A42EDD3BA69BB689A4209D2BA69BB68AD
:106410009A42FFF46FAF04E000BF02E000BF00E06B
:1064200000BF7B6918462037BD4680BDF0A2010041
:1064300010A30100BCA2010080B584B000AF786059
:1064400039600023BB60134B1B68FB6017E0FB68DF
:106450001B683A68796818460DF068FC0346002B03
:106460000AD1FB681A683B6813441B78002B03D1E0
:10647000FB689B68BB6007E0FB680C33FB60064B66
:106480001B68FA689A42E2D3BB6818461037BD46CB
:1064900080BD00BF280E00202C0E002080B592B0D9
:1064A00000AFF860B9607A6000237B64FB68002B62
:1064B00005D140F20B122B492B48FCF7D9FB7B6826
:1064C000002B09D14FF4867226492848FCF7D0FBEF
:1064D00002E07B6C01337B64FA687B6C13441B78AD
:1064E000202B09D0FA687B6C13441B78092B03D04E
:1064F0007A6CBB689A42ECD37B6C002B02D14FF0D4
:10650000FF332AE07B6C1946F868FFF795FF386483
:106510003B6C002B02D14FF0FF331EE007F1140358
:10652000282200211846FBF7AFFC07F114031A4696
:10653000B968F868FFF7C8FEF863FB6B002B02D15F
:106540004FF0FF3309E007F114023B6C1146F86B82
:10655000984702467B681A60002318464837BD46B4
:1065600080BD00BFACA3010014A3010018A301006B
:1065700080B584B000AF7860396005E07B68013396
:106580007B603B68013B3B603B68002B07D07B682E
:106590001B78202BF2D07B681B78092BEED03B6850
:1065A000002B01D1002322E007F108031A463968C5
:1065B0007868FFF773FF0346002B01D1BB6816E034
:1065C0007B68FB6002E0FB680133FB60FB681B78C3
:1065D000202B03D0FB681B78002BF4D1FB68002232
:1065E0001A7079680448FCF7EBF94FF0FF3318464E
:1065F0001037BD4680BD00BF20A3010080B485B028
:1066000000AF786039607B68FB6005E0FB680133B0
:10661000FB603B6801333B60FB681B78002B09D0B3
:106620003B681B78002B05D0FB681A783B681B7809
:106630009A42EBD0FA687B68D31A18461437BD46E5
:106640005DF8047B7047FFFF80B588B000AF7860CD
:106650000023FB610023BB617B681B78002B04D106
:1066600000210020FFF7C8FD3DE0204B1B687B6147
:106670002AE07B691B683B6178680DF029FB0346C3
:106680001A46396978680DF051FB0346002B18D182
:10669000FB69002B06D13B69BB61B8690DF018FBA3
:1066A0000346FB613969B869FFF7A8FFF860FA682B
:1066B000FB699A4201DAFB68FB6139690C48FCF717
:1066C0007FF97B690C337B610A4B1B687A699A42BC
:1066D000CFD3BB69002B05D0FB691A46B96978682E
:1066E000FBF7D7FC00BF2037BD4680BD280E002039
:1066F00038A301002C0E002080B500AF184B1B689A
:1067000093F8213003F00203DBB2002B04D1154BC8
:1067100000221A70134B20E0134B1B68002B08D08B
:10672000114B1B68802219460E480DF03BFB0D4BA8
:1067300013E00C4B0D4A92E8030018600433197003
:1067400008480DF0C5FA03461A46064B134408499B
:106750001A460B461B881380024B184680BD00BFAB
:10676000300E0020380E0020340E0020BCA30100A3
:10677000C4A3010080B582B000AF78600C4B1B68E9
:10678000002B04D18E220B490B48FCF771FA084B01
:106790001A687B6803F00103D9B292F8213061F3E3
:1067A000410382F8213000BF0837BD4680BD00BFDD
:1067B000300E002050A40100C8A3010080B582B0B3
:1067C00000AF0023FB701E4B1B68002B04D1A222DC
:1067D0001C491D48FCF74CFA194B1B68D3F80C32C6
:1067E0007B607B68002B1BD14FF0FF3323E0144B01
:1067F0001B684FF0FF311846FAF7EEFE104B1B688E
:10680000D3F80C327A689A420AD00D4B1B68D3F841
:106810000C327B607B68002B02D14FF0FF330AE023
:10682000FA1C01234FF0FF317868FAF79DFB03460D
:10683000012BDCD1FB7818460837BD4680BD00BF70
:10684000300E002068A40100C8A3010080B582B00A
:1068500000AF78603960094B1B68002B04D1C1225E
:1068600007490848FCF704FA044B1B681846FAF776
:106870007BFF002318460837BD4680BD300E002040
:1068800078A40100C8A3010080B584B000AF78608F
:106890000023FB602D4B1B68002B04D1D4222C4914
:1068A0002C48FCF7E5F97868FAF77FFAF860FB689E
:1068B000002B04D179682848FCF782F842E0234B8A
:1068C0001B68D3F80C32FA689A423AD040F243116E
:1068D000F868FAF777FA0346002B33D11B4B1B6895
:1068E000D3F80C32002B0ED0184B1B68D3F80C32A7
:1068F0001846FAF7EBFA154B1B68D3F80C32002157
:106900001846FAF7EDFB114B1B6803F5DB735122B8
:1069100000211846FBF7B8FA0C4B1B680022A3F8BD
:1069200008220A4A1268B3F80832A2F80A32074B62
:106930001B68FA68C3F80C220849F868FAF7D0FB1C
:1069400000E000BF1037BD4680BD00BF300E002004
:1069500088A40100C8A30100DCA301004D68000069
:1069600080B582B000AF78600848FCF729F87868F5
:10697000FFF76AFEFFF7C0FE03467A68194604482F
:10698000FCF71EF800BF0837BD4680BDFCA3010020
:1069900000A4010080B582B000AF78600848FCF721
:1069A0000FF8FFF7A9FE01467B6803F5DB731A4673
:1069B0000448FCF705F8002318460837BD4680BD9B
:1069C00008A4010000A4010080B584B000AF786085
:1069D0007B68B3F80832002B00F09D807B689B8CAD
:1069E000042B51D97B6803F5B3707B6803F5DB7327
:1069F000502219460CF058FE0346002B00F08B8005
:106A00000023FB6019E0FA6813469B0013441B0146
:106A100020337A681344981DFB685A1C13469B0068
:106A200013441B0120337A6813440633502219465D
:106A3000FBF785FAFB680133FB60FB68032BE2DDA3
:106A4000FA6813469B0013441B0120337A681344F1
:106A50000633502200211846FBF716FAFA6813464F
:106A60009B0013441B0120337A681344981D7B68F4
:106A700003F5DB717B68B3F808321A46FBF75FFA5F
:106A80007B6805229A8446E07B689B8C002B14D09F
:106A90007B689B8C5A1E13469B0013441B012033BA
:106AA0007A681344981D7B6803F5DB7350221946FE
:106AB0000CF0FAFD0346002B2DD07B689A8C7B6886
:106AC0005A847B689B8C1A4613469B0013441B0117
:106AD00020337A6813440633502200211846FBF70E
:106AE000D3F97B689B8C1A4613469B0013441B0109
:106AF00020337A681344981D7B6803F5DB717B684B
:106B0000B3F808321A46FBF71AFA7B689B8C0133FC
:106B10009AB27B689A847B689A8C7B685A8400BF9F
:106B20001037BD4680BDFFFF80B588B000AF7860EC
:106B3000934B1A6892F8213043F0010382F8213018
:106B40008F4B1B68D3F80C32002B09D1FBF7F6FEF4
:106B500038613B69002B03D03B691846FFF794FE70
:106B6000FFF7CAFD03461846FBF72AFFFFF726FE8C
:106B7000F860FB68002BC0F2AC82FB681B2B05D1D0
:106B80007F4B1B68012283F82020ADE27C4B1B6801
:106B900093F82030012B0ED1FB685B2B05D1784B8D
:106BA0001B68022283F820209EE2754B1B6800229E
:106BB00083F82020D6E0724B1B6893F82030022B1C
:106BC00040F0D0806E4B1B68002283F82020FB68C9
:106BD000412B3DD16A4B1B685B8C002B33D0684B3B
:106BE0001B685A8C013A92B25A84654B1B6803F5B4
:106BF000DB70634B1A68624B1B685B8C19460B4653
:106C00009B000B441B0120331344063350221946CA
:106C1000FBF795F95A4B1B6803F5DB7318460DF02B
:106C200057F80246564B1B6892B2A3F80822544A02
:106C30001268B3F80832A2F80A32514B1B681846A2
:106C4000FFF7A8FE50E24E4B1B6800225A844BE22D
:106C5000FB68422B4CD14A4B1B685B8C1A46484B55
:106C60001B689B8C013B9A4206DA454B1B685A8C89
:106C7000013292B25A840DE0414B1B689B8C002B71
:106C800000F029823E4B1B689A8C3D4B1B68013AF1
:106C900092B25A843A4B1B6803F5DB70384B1A6882
:106CA000374B1B685B8C19460B469B000B441B0142
:106CB00020331344063350221946FBF740F9304B7A
:106CC0001B6803F5DB7318460DF002F802462C4BE7
:106CD0001B6892B2A3F80822294A1268B3F8083256
:106CE000A2F80A32264B1B681846FFF753FEFBE159
:106CF000FB68442B12D1224B1B68B3F80A32002BDD
:106D000000F0EB811F48FBF75BFE1D4B1B68B3F8DF
:106D10000A22013A92B2A3F80A22DEE1FB68432B71
:106D200020D1174B1B68B3F80A22154B1B68B3F828
:106D300008329A4280F0D381114B1B68104A1268C6
:106D4000B2F80A22134493F8B63119460E48FBF7FD
:106D500037FE0B4B1B68B3F80A22013292B2A3F83C
:106D60000A22BCE1FB68002B00F0BB81FB68FF2B13
:106D700000F0B781FB68092B31D10023FB610BE0E8
:106D8000300E002010A4010014A40100AC48FBF751
:106D900017FEFB690133FB61AA4B1B68B3F80A328B
:106DA0001A46FB699342F1DBA64B1B6803F5DB73C4
:106DB0001846FFF7D5FDA34B1B6803F5DB73184698
:106DC0000CF086FF02469F4B1B6892B2A3F8082284
:106DD0009C4A1268B3F80832A2F80A3284E1FB68D0
:106DE0007F2B02D0FB68082B7DD1964B1B68B3F834
:106DF0000A32002B00F07781924B1B68B3F808220F
:106E0000013A92B2A3F808228E4B1B68B3F80A220B
:106E1000013A92B2A3F80A228A4B1B68B3F80822FF
:106E2000884B1B68B3F80A329A424ED9854B1A68D0
:106E3000844B1B68B3F80A3203F5D8731344981DCA
:106E4000804B1A687F4B1B68B3F80A32013303F595
:106E5000D8731344991D7B4B1B68B3F808321A464C
:106E6000784B1B68B3F80A32D31A1A46FBF7D0F8EE
:106E7000744B1B68734A1268B2F80822134400224C
:106E800083F8B6216F4B1A686E4B1B68B3F80A3251
:106E900003F5D8731344063319466B48FBF790FD8E
:106EA000684B1B68B3F80A32BB6105E06448FBF726
:106EB00087FDBB690133BB61624B1B68B3F80832C5
:106EC0001A46BB699342F1DD0EE16048FBF778FD9D
:106ED0005C4B1B685B4A1268B2F80822134400221C
:106EE00083F8B62100E1FB680D2B02D0FB680A2B6A
:106EF00037D1544B1B681846FFF766FD514B1B6892
:106F000093F8213003F00103DBB2002B02D050488C
:106F1000FBF756FD4B4B1B6803F5DB72494B1B68B7
:106F2000B3F8083219461046FFF722FBFFF7E4FBDF
:106F300003461846FBF744FD424B1B6803F5DB7321
:106F4000512200211846FAF79FFF3E4B1B68002292
:106F5000A3F808223B4A1268B3F80832A2F80A32B2
:106F6000C2E0384B1B68B3F808324F2B04D9354BBD
:106F70001B680022A3F80822324B1B68B3F80A22D0
:106F8000304B1B68B3F808329A4265D22D4B1A6811
:106F90002C4B1B68B3F80A32013303F5D873134442
:106FA000981D284B1A68274B1B68B3F80A3203F563
:106FB000D8731344991D234B1B68B3F808321A4643
:106FC000204B1B68B3F80A32D31A1A46FBF720F895
:106FD0001C4B1B681B4A1268B2F80A221146FA6859
:106FE000D2B20B4483F8B621164B1B6893F82130BC
:106FF00003F00103DBB2002B0DD0124B1A68114BCA
:107000001B68B3F80A3203F5D873134406331946E4
:107010001048FBF7D5FC0B4B1B68B3F80A327B61B9
:1070200005E00748FBF7CCFC7B6901337B61054B2E
:107030001B68B3F808321A467B699342F1DB24E0FF
:1070400010A40100300E002018A4010020A40100AB
:10705000FCA3010024A40100244B1B68234A1268EE
:10706000B2F808221146FA68D2B20B4483F8B6216E
:107070001E4B1B6893F8213003F00103DBB2002B99
:1070800003D0F9681A48FBF79BFC0023FB60174B01
:107090001B68B3F80822013292B2A3F80822134BFE
:1070A0001B68B3F80A22013292B2A3F80A220F4BEE
:1070B0001B68B3F808324F2B7FF658AD0B4B1B689B
:1070C0000022A3F80822094B1B680022A3F80A2219
:1070D0004CE500BF4AE500BF48E500BF46E500BFFC
:1070E00044E500BF42E500BF40E500BF300E002090
:1070F00014A4010080B483B000AF78603960064A00
:107100007B681360054A3B68136000BF0C37BD46BF
:107110005DF8047B704700BF280E00202C0E002075
:1071200080B584B002AF00237B601D491D48FFF786
:10713000E1FF4FF404710120FBF74AFD03461A4AB0
:107140001360194B1B68002B05D11848FBF738FC5E
:107150004FF0FF3320E00A230193142300934FF4F0
:107160008053002212491348FDF724F838600E4B73
:107170001B681846002300220F49FAF793F90120F3
:10718000FFF7F8FA3B68002B05D07B68002B02D193
:107190003868FCF76DFF002318460837BD4680BDF0
:1071A0009483010068820100300E002028A40100B1
:1071B000296B000040A4010048A4010080B584B000
:1071C00000AF786039607B68002B04D1BF221C4976
:1071D0001C48FBF74DFD3B6800221A60786803F0FD
:1071E000D3FDF860FB68002B01D1002323E07B680E
:1071F0001B687A689288C2F34E0292B21A443B68C6
:107200001A607B68B3F908301A467B689B88C3F321
:107210004E039BB2D31A1A46FB68934201D2FB6815
:1072200009E07B68B3F908301A467B689B88C3F392
:107230004E039BB2D31A18461037BD4680BD00BF1F
:1072400028A601009CA4010080B584B000AF78603E
:107250000B467B807B68002B04D1D9222B492C481C
:10726000FBF706FD786803F08FFDF860FB68002BE4
:1072700001D1002345E07B88FA689A4201D2FB687D
:107280007B807B68B3F908301A467B689B88C3F320
:107290004E039BB2D21A7B889A4212DD7B689B8890
:1072A000C3F34E039BB21A467B8813449BB2C3F3CD
:1072B0000E0399B27A68938861F34F0393807B88B9
:1072C0001FE07B68B3F908309BB27A689288C2F3FA
:1072D0004E0292B29B1A7B807B681B79C3F300033A
:1072E000DBB2DB43DBB203F00103D9B27A68137976
:1072F00061F3000313717A6893886FF34F039380EF
:107300007B8818461037BD4680BD00BF44A60100EB
:107310009CA4010090B585B000AF78600B467B80DF
:107320007B68002B04D1F92232493348FBF7A0FCDB
:107330007B68B3F908309CB2786803F025FD0346FA
:107340009BB2E31AFB81FB89002B01D100234CE0A7
:10735000FA897B889A4201D2FB897B807B68B3F9EA
:1073600008301A467B68DB88C3F34E039BB2D21AFF
:107370007B889A4212DD7B68DB88C3F34E039BB2A5
:107380001A467B8813449BB2C3F30E0399B27A6802
:10739000D38861F34F03D3807B8826E07B689B7999
:1073A000C3F30003DBB2DB43DBB203F00103D9B26A
:1073B0007A68937961F3000393717B68DB88C3F388
:1073C0004E039BB21A467B68B3F908309BB2D31ABE
:1073D0009AB27B8813449BB2C3F30E0399B27A68C6
:1073E000D38861F34F03D3807B8818461437BD469A
:1073F00090BD00BF60A601009CA4010080B588B0CC
:1074000000AFF860B9607A603B60FB68002B05D183
:1074100040F229121F492048FBF72AFCFB68BB6198
:10742000BB69002B05D14FF496721A491B48FBF734
:107430001FFC7B68FB613B687B611CE0BB691B6CCC
:10744000DB68B869984738613B69B3F1FF3F16D0F4
:107450003B69DAB2FB691A70FB690133FB613B6877
:10746000013B3B60BB691B8B03F04003002B02D048
:107470003B690A2B05D03B68002BDFD102E000BF3F
:1074800000E000BF7A693B68D31A18462037BD4632
:1074900080BD00BF80A60100ACA40100BCA4010017
:1074A00080B588B000AFF860B9607A603B60FB6877
:1074B000002B05D14FF4AB721D491E48FBF7D8FBDA
:1074C000FB68BB61BB69002B05D140F2591218491A
:1074D0001948FBF7CDFB7B68FB613B687B611DE0D6
:1074E000BB691B8B03F04003002B09D0FB691B78A1
:1074F0000A2B05D1BB691B6C9B680D21B8699847A5
:10750000BB691B6C9B68FA6912781146B869984789
:10751000FB690133FB613B68013B3B603B68002B2F
:10752000DED17A693B68D31A18462037BD4680BD44
:1075300090A60100ACA40100BCA4010080B588B0F5
:1075400000AFF860B9607A603B60FB68002B05D142
:1075500040F2831230493148FBF78AFB3B68002B2D
:1075600001D1002354E0FB68FB61FB69002B02D0D2
:107570007B68002B05D14FF4C47227492848FBF7DC
:1075800077FBFB691B6DBB61FB681B8B03F48053AE
:10759000002B2ED0FB699B6CC3F38F239BB21A4642
:1075A0003B68934211D91F48FBF70AFAF968FB6957
:1075B0009B6CC3F38F239BB23A681B48FBF700FA1E
:1075C0001A48FBF7FDF9002322E0BB69184603F0D7
:1075D000DBFB78617A693B689A420AD23B689AB2CF
:1075E000BB691A83BB690C334FF0FF31184603F0B7
:1075F000ABF8FDF7B5FC3861BB693A6892B27968BF
:10760000184603F0B5FA78613869FDF7ADFC7B697F
:1076100018462037BD4680BDA0A60100ACA40100DD
:10762000D0A40100FCA401000CA5010080A501006C
:1076300090B587B000AFF860B9607A603B60002316
:107640007B61FB68002B05D140F2BF122049214825
:10765000FBF70EFB3B68002B01D1002333E0FB68F6
:107660003B613B69002B02D07B68002B05D140F2C7
:10767000C31217491848FBF7FBFA3B695B6D7B6146
:107680007B69002B05D140F2C51211491348FBF765
:10769000EFFA7B691B69012B01D1002313E07B69A1
:1076A00001221A613B691B6C1C694FF480433A68E4
:1076B00079683869A0477B6914334FF0FF31184669
:1076C00003F042F83B6818461C37BD4690BD00BF2A
:1076D000B0A60100ACA40100D0A4010088A501005F
:1076E00090B589B000AFF860B9607A603B60002364
:1076F000BB613B687B610023FB613B68002B01D1D0
:1077000000236CE0FB68002B05D14FF4F67236497C
:107710003648FBF7ADFAFB683B613B69002B02D0B2
:107720007B68002B05D14FF4F7722F493048FBF7E7
:107730009FFA3B695B6DBB61BB69002B05D140F2D1
:10774000F11229492B48FBF793FAFCF785FC034615
:10775000002B05D03B691B8B03F04003002B07D0A7
:107760003B687A68B968F868FFF79AFE034636E026
:10777000BB691B69012B01D1002330E0BB690122E9
:107780001A6128E0B8697A68FB6913443A6892B2D2
:10779000194603F037F90246BB69DA60BB69DB685A
:1077A000FA691344FB61BB69DB683A68D31A3B6032
:1077B0003B691B6C1C697A68FB69D118BB69DA6884
:1077C0004FF480433869A047BB6914334FF0FF3151
:1077D000184602F0B9FF3B68002BD3D17B691846ED
:1077E0002437BD4690BD00BFD0A60100ACA4010067
:1077F000D0A4010088A5010090B58BB000AFF8605F
:10780000B9607A603B60FB68002B05D140F226220C
:107810002B492C48FBF72CFA3B68002B01D10023A5
:1078200049E0FB687B627B6A002B02D07B68002BFF
:1078300005D140F22A2222492348FBF719FA7B6A34
:107840005B6D3B62FDF78CFBF8613B6A1B69002BAB
:1078500025D13B6A01221A613B6A3A6892B2796883
:10786000184603F0CFF8B861F869FDF77DFB0023F7
:107870007B613B6A07F1140211461846FFF79EFC34
:1078800002463B6ADA607B6A1B6C1C6979693B6A59
:10789000DA684FF40043786AA047BB690BE03B6AA3
:1078A0003A6892B27968184603F0ACF8B861F869A2
:1078B000FDF75AFBBB6918462C37BD4690BD00BF8B
:1078C000F0A60100ACA40100D0A4010080B586B0F0
:1078D00000AF78600B467B8000237B617B68002BC8
:1078E00005D14FF4187269496948FBF7C1F97B6803
:1078F0003B613B69B3F84C30002B1DD17B88B3F55D
:10790000004F0DD16348FBF75BF87B68194662486E
:10791000FBF756F86148FBF753F86FF00903B0E046
:107920007B685F4A5A637B681B8B43F480439AB23F
:107930007B681A830023A4E03B69B3F84C303F2BEB
:1079400003D83B694022A3F84C207B88B3F5804FD5
:107950005DD13B691B6C5B684FF480422021386924
:107960009847F860FB68012B22D13B69B3F84C3093
:1079700020331846FBF7EEF878617B69002B05D1C0
:1079800040F2862241494748FBF772F978697B69E2
:1079900003F120013B69B3F84C301BB21A4602F0E8
:1079A000E1FF3B697A695A657B683F4A5A631AE08E
:1079B0002020FBF7CFF878617B69002B05D140F2DE
:1079C000972232493748FBF753F93B697A695A6580
:1079D0007B68364A5A633B691B6C5B684FF4804294
:1079E0000321386998477B6900221A617B6900226C
:1079F000DA607B691433184602F084FE7B681B8BC7
:107A000043F480439AB27B681A83002339E03B69D0
:107A1000B3F84C3020331846FBF79CF878617B694B
:107A2000002B05D140F2B12218491E48FBF720F97E
:107A30007B6900221A617B690022DA6078697B69C0
:107A400003F120013B69B3F84C301BB21A4602F037
:107A500089FF3B697A695A657B68154A5A637B6876
:107A60001B8B6FEA43436FEA53439AB27B681A83D6
:107A70003B691B6C5B684FF40042032138699847EF
:107A8000002318461837BD4680BD00BF0CA7010073
:107A9000ACA401009CA50100ACA5010080A50100DB
:107AA000A174000088A50100E17600003176000095
:107AB000F977000080B584B000AF78600B467B801A
:107AC0000023FB607B68002B05D14FF435724749DA
:107AD0004748FBF7CDF87B68BB60BB689A6C454BA9
:107AE0001340002B1DD17B88B3F5005F0DD14248B8
:107AF000FAF766FF7B6819464048FAF761FF40488D
:107B0000FAF75EFF6FF009036BE07B683D4A1A638A
:107B10007B681B8B43F480539AB27B681A830023E3
:107B20005FE0BB689B6CC3F38F239BB23F2B05D8F0
:107B3000BA68936C402161F399239364BB689B6C92
:107B4000C3F38F239BB21C331846FBF703F8F8608E
:107B5000FB68002B05D140F2EF2224492A48FBF7AD
:107B600087F8F868FB6803F11A01BB689B6CC3F3E4
:107B70008F239BB21BB21A4602F0F4FEBB68FA6870
:107B80001A657B68214A1A637B88B3F5005F10D1C0
:107B90007B681B8B43F400539AB27B681A83BB68E3
:107BA0001B6C5B684FF400520321B86898470023B0
:107BB00017E0FB6800221A83FB680C33184602F0BA
:107BC000A1FD7B681B8B43F480539AB27B681A83B8
:107BD000BB681B6C5B684FF480520321B868984700
:107BE000002318461037BD4680BD00BF20A7010006
:107BF000ACA4010000FCFF039CA50100E0A501006E
:107C000080A50100FD73000014A601003D75000071
:107C100080B584B000AF78600B467B807B68002B1A
:107C200005D140F21A3224492448FBF721F87B6839
:107C3000FB607B6800221A63FB681B6D002B01D17F
:107C4000002335E07B88B3F5005F0FD17B681B8B89
:107C500023F400539AB27B681A83FB681B6C5B6841
:107C60004FF400521121F86898470EE07B681B8B97
:107C700023F480539AB27B681A83FB681B6C5B68A1
:107C80004FF480521121F8689847FB681B6DBB6068
:107C9000BB68002B05D140F2353207490848FAF796
:107CA000E7FFB868FAF7B2FFFB6800221A65002305
:107CB00018461037BD4680BD34A70100ACA40100B2
:107CC00014A6010080B584B000AF78600B467B80BD
:107CD0007B68002B05D14FF4527227492748FAF7E9
:107CE000C7FF7B68FB607B6800225A63FB685B6DA3
:107CF000002B01D100233AE0FB685B6DBB60BB68E1
:107D0000002B05D140F252321B491D48FAF7B0FF53
:107D10007B88B3F5004F0FD17B681B8BC3F30E0339
:107D20009AB27B681A83FB681B6C5B684FF4004255
:107D30001121F868984713E0BB681433184602F025
:107D4000B1FD7B681B8B23F480439AB27B681A8356
:107D5000FB681B6C5B684FF480421121F868984700
:107D6000B868FAF753FFFB6800225A6500231846EB
:107D70001037BD4680BD00BF4CA70100ACA4010078
:107D800088A5010080B584B000AF78600023FB6057
:107D90007B68002B05D140F277320F490F48FAF784
:107DA00067FF7B68BB60BB6800221A65BB68002266
:107DB0005A65BB681B6C1B68002B08D0BB681B6C2A
:107DC0001B68BA6844321146B8689847F860FB6887
:107DD00018461037BD4680BD64A70100ACA4010061
:107DE00080B584B000AF78600B467B807B68002B49
:107DF00005D140F28F3235493548FAF739FF7B68B3
:107E0000FB607B681B8B03F47043002B01D00023C5
:107E100057E07B8803F48053002B07D07B681B8BD3
:107E200043F480539AB27B681A8306E07B681B8B0D
:107E300043F400539AB27B681A83B7F90230002BDF
:107E400009DA7B681B8B6FEA43436FEA53439AB2AC
:107E50007B681A8306E07B681B8B43F480439AB2ED
:107E60007B681A837B8803F04003002B05D17B6875
:107E70001B8B03F04003002B06D07B681B8B43F069
:107E800040039AB27B681A83FB681B6D002B08D1F4
:107E90007B681B8B03F440539BB219467868FFF74D
:107EA00009FEFB685B6D002B0AD17B681B8B23F4FA
:107EB0007F5323F03F039BB219467868FFF706FD16
:107EC000002318461037BD4680BD00BF74A70100CF
:107ED000ACA4010080B584B000AF78607B68002B53
:107EE00005D14FF471721D491D48FAF7C1FE7B6838
:107EF000FB607B689B7E012B02D94FF0FF3328E0AB
:107F00007B681B8B03F440539BB219467868FFF7DC
:107F10007FFE7B681B8B23F47F5323F03F039BB2D0
:107F200019467868FFF7CEFEFB680022DA61FB682D
:107F300000221A62FB681B6C5B6800220421F8684F
:107F400098477B68DB8A23F010039AB27B68DA8259
:107F5000002318461037BD4680BD00BF84A701002E
:107F6000ACA4010080B588B000AFF860B9607A6059
:107F70000023FB61FB68002B05D140F2E932254963
:107F80002548FAF775FEFB68BB61BB68032B18D068
:107F9000BB68032B2EDCBB68012B0AD0BB68022B0D
:107FA00028D1FB68DB8A43F020039AB2FB68DA82AF
:107FB0002AE0FB68DB8A23F020039AB2FB68DA82AE
:107FC00022E07B68002B1ED07B687B61BB699B7EB7
:107FD000002B02D06FF0060317E0BB697A694433C7
:107FE00007CA83E80700BB691B6C1B687968B8691E
:107FF000984708E0BB691B6C5B687A68B968B86928
:108000009847F86100E000BFFB6918462037BD467D
:1080100080BD00BF94A70100ACA4010080B586B06C
:1080200000AFF860B9607A603B60FB68002B05D157
:1080300040F2634218491948FAF71AFEFB687B615F
:108040007B6900221A757B690022DA617B69002254
:108050001A627B69124A5A627B69124A9A627B6988
:10806000114ADA627B6900221A637B6900225A6333
:108070007B690E4A9A637B693A68DA637B689BB2D4
:108080001A46B9687869F8F766FE38613B691846A0
:108090001837BD4680BD00BFA8A70100BCA40100E1
:1080A000857D0000E17D0000D57E0000657F000039
:1080B00090B589B000AF786039607B68002B05D13E
:1080C0004FF491627A497B48FAF7D2FD3B68DBB204
:1080D000013B032B00F2DF8001A252F823F000BF26
:1080E000F180000081810000F1800000FB81000030
:1080F00000233B617B681B6DFB60FB68002B05D197
:1081000040F293426A496C48FAF7B2FD3B681B1291
:108110003B613B69002B06D0FB683A6992B211467D
:108120001846FFF7F7F8FB68184602F02DFE386195
:108130003B69002B00F0B1807B681B8B03F48053FC
:10814000002B11D0FB681B8B002B0DD0FB681B8B09
:108150001A463B69934207D3FB6800221A83FB68E7
:108160000C33184602F09EFB7B68DB69002B00F0A5
:1081700096807B68DB697A683969104698478EE09B
:108180000023BB617B685B6D7B617B69002B05D144
:1081900040F2B34246494948FAF76AFD7B691846FE
:1081A00002F0F2FDB861BB69002B18D17B69002297
:1081B0001A617B681B6A002B05D07B681B6A7A6892
:1081C0000021104698477B681B8B03F48043002BEB
:1081D00067D07B691433184602F064FB61E07B686A
:1081E0001B6C1C697B6903F120017B681B8B03F40A
:1081F0004043BA697868A04756E07B685B6DFB61D5
:10820000FB69002B05D140F2D64229492B48FAF7E9
:108210002FFDFB6900221A617B681B6A002B05D0C9
:108220007B681B6A7A680021104698477B681B8B25
:1082300003F48043002B05D0FB691433184602F089
:1082400031FB31E0FA69FB69DB689BB219461046E5
:10825000FEF7FAFFFB69184602F096FD0346002B75
:1082600021D0FB6901221A610023BB60FB6907F181
:10827000080211461846FEF7A1FF0246FB69DA60C4
:108280007B681B6C1C69B968FB69DA684FF40043B2
:108290007868A04707E000BF06E000BF04E000BF29
:1082A00002E000BF00E000BF00BF2437BD4690BD24
:1082B000C0A70100BCA4010014A6010088A501000C
:1082C00080B582B000AF78607B68DB69002B33D06B
:1082D0007B68D3F88430002B04D07B68D3F88430DB
:1082E000786898477B689B6F002B0BD07B68DB69B5
:1082F00078687A68926F1249A1FB0212120911463E
:1083000098471AE07B6893F86C30022B06D17B68A3
:10831000DB697A680121104698470EE07B6893F884
:108320006C30032B09D17B68DB6978687A6892F836
:1083300058201146984700E000BF0837BD4680BD71
:10834000ABAAAAAA80B584B000AF78607B68BB6096
:10835000BB68D3F88030002B17D00023FB730CE0F0
:10836000BB68D3F88020FB7B9B0013445B681846F6
:10837000FFF7A6FFFB7B0133FB73BB68D3F88030AC
:108380001B7CFA7B9A42EBD302E0B868FFF798FFB8
:1083900000BF1037BD4680BD80B582B000AF7860A9
:1083A0007B68B3F868304FF6FF72934202D16FF0EA
:1083B000090347E07B68B3F868301A467B68B3F876
:1083C0006A301946104601F051FE7B68B3F86A30F6
:1083D000032B09D17B68B3F8683018467B681B4AC9
:1083E000002101F0EDFD1CE07B68B3F86A30022B40
:1083F00009D17B68B3F8683018467B68134A0121BD
:1084000001F0DEFD0DE07B68B3F86A30012B08D186
:108410007B68B3F8683018467B680C4A022101F08B
:10842000CFFD7B68B3F868300121184601F0F6FDF6
:108430000748FAF7C5FA0748FAF7C2FA0648FAF702
:10844000BFFA002318460837BD4680BD45830000AB
:1084500070A8010084A801009CA8010080B485B028
:1084600000AFF860B9607A60002318461437BD4643
:108470005DF8047B704780B485B000AFF860B960E8
:108480007A60012318461437BD465DF8047B7047B7
:1084900080B586B000AF78600B467B807B68FB6060
:1084A0007B68002B04D1952258495948FAF7E0FB24
:1084B00000237B61574B3B61FB68D3F88030002B76
:1084C00008D0FB68D3F880301B684FF0FF311846A6
:1084D000F9F760FAFB68D3F88030002B1ED0FB68F8
:1084E00093F85830002B19D0FB685B6F002B15D127
:1084F000FB6893F858301A4613465B001344DB00C0
:108500001846FAF727FB0246FB685A67FB685B6F61
:10851000002B03D16FF004037B6165E0FB68DB6F28
:108520005B68002B03D0FB68DB6F5B683B61FB681B
:10853000012283F86C207B8803F00103002B0BD011
:108540007B68DB8A03F00103002B05D03B69012225
:108550000421F868984739E07B8803F48073002B86
:1085600015D07B68DB8A03F48073002B0FD03B6946
:1085700002220421F86898470346002B26D1F868A8
:10858000FFF70AFFFB68022283F86C201EE07B885D
:1085900003F40073002B15D07B68DB8A03F40073AF
:1085A000002B0FD03B6903220421F868984703464B
:1085B000002B0BD1F868FFF7EFFEFB68032283F86E
:1085C0006C2003E06FF009037B610DE03B69022240
:1085D0000521F86898470346002B04D1FB68022266
:1085E00083F86D2000E000BFFB68D3F88030002BDB
:1085F00006D0FB68D3F880301B681846F9F7D8FA24
:108600007B6918461837BD4680BD00BF8CA90100A4
:10861000A4A801007784000080B586B000AF786020
:108620007B68FB60534B3B617B68002B04D1E422E9
:1086300051495248FAF71CFBFB68D3F88030002BF5
:1086400008D0FB68D3F880301B684FF0FF31184624
:10865000F9F7A0F9FB68DB6F5B68002B03D0FB68C0
:10866000DB6F5B683B613B6901220521F868984735
:108670000346002B03D1FB68012283F86D20FB68C1
:10868000D3F88030002B4CD0FB6893F85830002B87
:1086900047D0FB685B6F002B43D000237B610CE06D
:1086A000FB68D3F880207B699B0013445B689B7E4A
:1086B000002B4AD17B6901337B61FB68D3F88030A2
:1086C0001B7C1A467B699342EADB00237B6120E036
:1086D000FB68D3F880207B699B0013445B685B6F69
:1086E000002B13D0FB68D3F880207B699B001344D8
:1086F0005B685B6F1846FAF789FAFB68D3F880204D
:108700007B699B0013445B6800225A677B690133D5
:108710007B61FB68D3F880301B7C1A467B699342EF
:10872000D6DBFB6893F86C30012B10D0FB68B3F8F4
:1087300068304FF6FF72934209D0FB68B3F8683097
:108740000021184601F06AFC02E000BF00E000BF13
:10875000FB68D3F88030002B06D0FB68D3F880305C
:108760001B681846F9F724FA002318461837BD4647
:1087700080BD00BF778400009CA90100A4A801006F
:1087800080B586B000AFF860B9607A603B60FB6886
:108790003B6100237B61FB68002B05D140F21D1279
:1087A0002E492F48FAF764FA7B68002B02D03B6809
:1087B000002B01D100234CE03B69D3F88030002B23
:1087C00008D03B69D3F880301B684FF0FF31184662
:1087D000F9F7E0F83B699B6F002B20D03B699B6F5A
:1087E000204AA2FB03231B093A689A4206D93B6937
:1087F0009B6F1C4AA2FB03231B093B603B69596F1B
:108800003A6813465B001344DB001A467868F9F7B0
:1088100096FB3B6900229A673B687B610CE03B69F1
:10882000DB6F1B68002B07D03B69DB6F1B683A6866
:1088300079683869984778613B69D3F88030002BB4
:1088400006D03B69D3F880301B681846F9F7B0F9B9
:108850007B6918461837BD4680BD00BFACA9010032
:10886000A4A80100ABAAAAAA80B588B000AFF8609E
:10887000B9607A60FB687B610023FB61FB68002BB9
:1088800005D14FF4A67250495048FAF7F1F9504B10
:10889000BB617B69D3F88030002B08D07B69D3F8AB
:1088A00080301B684FF0FF311846F9F773F87B6989
:1088B000DB6F5B68002B03D07B69DB6F5B68BB61A0
:1088C000BB68062B57D801A252F823F0E9880000B4
:1088D000FD880000138900002D89000077890000C1
:1088E0004B890000698900007B68002B52D0BB696E
:1088F0007A68002178699847F8614BE07B68002B23
:108900004AD07B6940331C2219467868F9F717FB77
:1089100042E0BB697A68022178699847F861FB698F
:10892000002B3BD17A687B691A6737E0BB697A68AC
:10893000032178699847F861FB69002B30D17B6887
:108940009AB27B69A3F86E202AE0BB697A68052198
:1089500078699847F861FB69002B23D17B68DAB20C
:108960007B6983F86D201DE0BB697A680621786910
:108970009847F86117E0BB68B3F5807F06DDBB69F7
:108980007A68B96878699847F8610CE04FF0FF336E
:10899000FB6108E000BF06E000BF04E000BF02E0AA
:1089A00000BF00E000BF7B69D3F88030002B06D009
:1089B0007B69D3F880301B681846F9F7F9F8FB6932
:1089C00018462037BD4680BDBCA90100A4A80100FF
:1089D0007784000090B589B000AFF860B9607A6024
:1089E0003B60FB68002B05D14FF4D9725B495C48B2
:1089F000FAF73EF90023FB610023BB61FB68DB6FE4
:108A0000002B02D1FB68574ADA67FB6893F84030C5
:108A10001A46554B53F82230FB61F869F9F790FB81
:108A20000446B868F9F78CFB034623440133194622
:108A30000120FAF7CDF8B861BB69002B0BD14B4888
:108A4000F9F7BEFF4A48F9F7BBFF4A48F9F7B8FF04
:108A50004FF0FF337EE0F869F9F772FB034601330C
:108A60001A46F969B869F9F76AFAB968B8690AF093
:108A7000D3FFFB68D3F88030002B1AD0FB68D3F803
:108A800080301B68002B14D1FB68D3F88040012193
:108A9000B868F8F73BFF03462360FB68D3F88030E3
:108AA0001B68002B05D1B869FAF7B0F84FF0FF3317
:108AB00050E0FB687B617B6900225A627B692E4A29
:108AC0009A627B692D4ADA627B692D4A1A637B6957
:108AD00000225A637B692B4A9A637B6914221A75B8
:108AE0007B690022DA617B6900221A627B693A683D
:108AF000DA637B689BB243F008039BB21A46B969FC
:108B00007869F8F728F90346FB7497F91330002BBE
:108B100012D01648F9F754FF97F913301A46B9697D
:108B20001948F9F74DFF1348F9F74AFFB869FAF702
:108B30006DF897F913300DE01448F9F741FFB96962
:108B40001348F9F73DFF0B48F9F73AFFB869FAF710
:108B50005DF8002318462437BD4690BDD0A901001A
:108B6000B4A80100A000002038A90100C8A8010095
:108B7000DCA801009CA80100918400001986000077
:108B80008187000069880000F8A8010070A8010032
:108B90001CA9010090B589B004AFF860B9607A6093
:108BA000BB6893F84030013B132B00F2E38101A234
:108BB00052F823F0058C0000338C0000858C0000F7
:108BC000E38C00002B8D0000758D0000938D00005C
:108BD000B18D0000CF8D0000ED8D00000B8E0000E8
:108BE000298E0000478E0000658E0000D58E0000A3
:108BF000B38C0000B18D0000758F0000F38E000073
:108C0000358F00009F48F9F7DBFE7B6899687B6829
:108C1000D8687B681B697A681268019200930346E2
:108C20000A46F9689848F9F7CBFE9848F9F7C8FE64
:108C3000A1E19448F9F7C4FE7B689B68944A82FBE3
:108C400003129211DB17D11A7B68DB68904A82FB12
:108C500003029211DB17D01A7B681B698C4A82FBD6
:108C600003429211DB17D31A7A68126801920093BB
:108C700003460A46F9688748F9F7A2FE8348F9F7E0
:108C80009FFE78E17F48F9F79BFE7B6899687B68D7
:108C9000D8687B681B697A68126801920093034662
:108CA0000A46F9687C48F9F78BFE7848F9F788FEA0
:108CB00061E17448F9F784FE7B68D3E902017B68BF
:108CC000D3E904237C6824680294CDE9002302469A
:108CD0000B46F9687148F9F773FE6C48F9F770FEB6
:108CE00049E16848F9F76CFE7B689B686C4A82FB37
:108CF00003129210DB17D01A7B689B681946694BE8
:108D0000A3FB0123DA0813469B0013445B00CA1A35
:108D10007B681B68009313460246F9686248F9F7BE
:108D20004FFE5A48F9F74CFE25E15648F9F748FE40
:108D30007B689B685A4A82FB03129210DB17D01A99
:108D40007B689A68564B83FB02139910D317C91A94
:108D50000B469B000B445B00D11A7B681B68009399
:108D60000B460246F9685148F9F72AFE4748F9F7D9
:108D700027FE00E14348F9F723FE7B689A687B6889
:108D80001B68F9684A48F9F71BFE4048F9F718FED6
:108D9000F1E03C48F9F714FE7B689A687B681B6831
:108DA000F9684448F9F70CFE3848F9F709FEE2E0A3
:108DB0003448F9F705FE7B689A687B681B68F96898
:108DC0003D48F9F7FDFD3148F9F7FAFDD3E02D48AC
:108DD000F9F7F6FD7B689A687B681B68F968374885
:108DE000F9F7EEFD2948F9F7EBFDC4E02548F9F75E
:108DF000E7FD7B689A687B681B68F9683048F9F77B
:108E0000DFFD2248F9F7DCFDB5E01E48F9F7D8FD93
:108E10007B689A687B681B68F9682A48F9F7D0FD77
:108E20001A48F9F7CDFDA6E01648F9F7C9FD7B68A9
:108E30009A687B681B68F9682348F9F7C1FD1348F5
:108E4000F9F7BEFD97E00F48F9F7BAFD7B689A681D
:108E50007B681B68F9681D48F9F7B2FD0B48F9F704
:108E6000AFFD88E00748F9F7ABFD7B689A687B683F
:108E70001B68F9681648F9F7A3FD0448F9F7A0FD47
:108E800079E000BFE8A9010000AA010030AA0100B2
:108E9000D34D621038AA010068AA01009CAA010003
:108EA00067666666CDCCCCCCC8AA0100F0AA0100EA
:108EB00018AB010040AB010068AB010090AB0100B2
:108EC000BCAB0100E4AB010008AC01002CAC01001C
:108ED00050AC01002A48F9F773FD7B689A687B68FB
:108EE0001B68F9682748F9F76BFD2748F9F768FD13
:108EF00041E02348F9F764FD7B689B68234AA2FBA5
:108F00000323D8087B689968204BA3FB0123DA0868
:108F100013469B0013445B00CA1A7B681B680093CE
:108F200013460246F9681A48F9F74AFD1648F9F758
:108F300047FD20E01248F9F743FD7B689B68154A1E
:108F4000A2FB032399097B689A68124BA3FB0203D7
:108F50009B094FF47A7000FB03F3D31A7A68126806
:108F600000920A46F9680C48F9F72AFD0648F9F715
:108F700027FD00E000BF00BF1437BD4690BD00BF15
:108F8000E8A9010078AC010030AA0100CDCCCCCC1E
:108F9000A0AC0100D34D6210C4AC010080B582B01A
:108FA00000AF78603960054B1B681846F8F7DCFBAA
:108FB000002318460837BD4680BD00BFBC0E002008
:108FC00080B58EB000AF78607B683B637B68FB62E6
:108FD0000023BB6207F108031A460121386BF8F73A
:108FE0004BF897F820301A4613465B001344DB0019
:108FF0001846F9F7AFFDB862BB6A002B08D11848D4
:10900000F9F7DEFC1748F9F7DBFC1748F9F7D8FC4D
:10901000164B1B684FF0FF311846F8F7DDFA97F84A
:109020002030BA6A0021386BF7F79EFF7862002380
:109030007B630FE07A6B13465B001344DB001A4638
:10904000BB6A13441A46F96A786BFFF7A3FD7B6B82
:1090500001337B637A6B7B6A9A42EBD3D8E700BF1C
:10906000F0AC010008AD010030AA0100BC0E0020E8
:1090700080B586B002AF786039600023FB603B6842
:1090800004331B681846F7F790FEF860FB68002B66
:109090000DD12E48F9F794FC3B6804331B68194640
:1090A0002B48F9F78DFC2B48F9F78AFC4AE0FB685E
:1090B000BB604FF40071F868F7F784FE0346002B9D
:1090C00009D02248F9F77CFC2348F9F779FC2148BC
:1090D000F9F776FC36E0214B1B68002B1AD10022F1
:1090E00000211F48F8F722FA03461C4A13600523A3
:1090F00001930F2300934FF48063BA6819491A480B
:10910000FBF758F80346194A1360184B1B68002BED
:109110000FD009E00D48F9F753FC1548F9F750FC5A
:109120000C48F9F74DFC0DE0104B1B681846FAF798
:109130009FFF1049F868F7F7D3FF14220321F8685E
:10914000F7F79AFF1037BD4680BD00BFF0AC0100B5
:1091500024AD010030AA01003CAD0100BC0E00208E
:1091600050AD0100C18F000090AD0100C00E002085
:109170005CAD01009D8F000080B58CB000AF7860C1
:109180007B68BB627B687B620023FB620D4B1B68C4
:109190004FF0FF311846F8F71FFA07F108020123D4
:1091A0000021B86AF7F7E0FE38623B6A012BEDD187
:1091B000FB6A5A1CFA6207F10802796A1846FFF73F
:1091C000E9FCE3E7BC0E002080B586B002AF786012
:1091D00039600023FB603B6804331B681846F7F7CF
:1091E000E4FDF860FB68002B0DD12E48F9F7E8FB91
:1091F0003B6804331B6819462B48F9F7E1FB2B4801
:10920000F9F7DEFB4AE0FB68BB60294B1B68002BCB
:109210001AD1002200212748F8F788F90346244A8A
:109220001360052301930F2300934FF48063BA6802
:1092300021492248FAF7BEFF0346214A1360204B1A
:109240001B68002B0FD009E01648F9F7B9FB1D4841
:10925000F9F7B6FB1548F9F7B3FB1FE0184B1B688D
:109260001846FAF705FF1849F868F7F739FF4FF481
:109270008071F868F7F7A6FD0346002B09D009486E
:10928000F9F79EFB1148F9F79BFB0848F9F798FBA3
:1092900004E014220321F868F7F7EEFE1037BD460C
:1092A00080BD00BFF0AC010024AD010030AA010078
:1092B000BC0E002050AD01007991000090AD01007E
:1092C000C40E00205CAD01009D8F00003CAD01008C
:1092D00080B590B000AF786039600A23FB87002327
:1092E0007B633B6804331B681846F7F75EFD7863C1
:1092F0007B6B002B0DD13448F9F762FB3B680433DC
:109300001B6819463148F9F75BFB3148F9F758FB00
:1093100057E07B68022B07DD3B6808331B68184663
:109320000AF0BEF90346FB877B6B3B633B6B5B6DCF
:10933000642B38BF6423FB620121786BF7F742FD91
:10934000B862BB6A002B0AD01F48F9F739FBB96A2B
:109350002048F9F735FB1E48F9F732FB31E064226B
:109360000321786BF7F788FE0023BB6322E007F147
:10937000080201230021786BF7F7F6FD78627B6A1B
:10938000012B0AD01048F9F71BFB796A1248F9F74C
:1093900017FB0F48F9F714FB06E007F108031A461C
:1093A000396BB86BFFF7F6FBF86AFAF7E3FFBB6BB4
:1093B0000133BB63FB8FBA6B9A42D8D3786BF7F754
:1093C00085FD4037BD4680BDF0AC010024AD0100F5
:1093D00030AA0100A0AD0100C4AD010090B597B066
:1093E00000AF786039607B68012B1EDCB648F9F766
:1093F000E7FAB648F9F7E4FAB548F9F7E1FAB548FB
:10940000F9F7DEFAB448F9F7DBFAB448F9F7D8FA15
:10941000B348F9F7D5FAB348F9F7D2FAB248F9F7F1
:10942000CFFAB248F9F7CCFAAEE23B6804331B68D6
:10943000AF4918460AF010FB0346002B40F0F880B5
:10944000AC4B1B68002B09D1AB48F9F7B9FAAB4814
:10945000F9F7B6FAAA48F9F7B3FA95E2A54B1B68F3
:1094600007F10C0201211846F7F706FE7B7B0E2B55
:109470005CD801A252F823F0B5940000BD9400001E
:10948000C5940000CD940000D5940000DD94000048
:10949000E5940000ED940000F5940000FD940000B8
:1094A000059500000D950000159500001D95000024
:1094B000259500009348F9F783FA37E09248F9F7C9
:1094C0007FFA33E09148F9F77BFA2FE09048F9F7FB
:1094D00077FA2BE08F48F9F773FA27E08E48F9F70F
:1094E0006FFA23E08D48F9F76BFA1FE08C48F9F723
:1094F00067FA1BE08B48F9F763FA17E08A48F9F737
:109500005FFA13E08948F9F75BFA0FE08848F9F74A
:1095100057FA0BE08748F9F753FA07E08648F9F75E
:109520004FFA03E08548F9F74BFA00BF3B6919464B
:109530008348F9F745FA3B7D0F2B63D801A252F817
:1095400023F000BF859500008D95000095950000E3
:109550009D950000A5950000AD950000B595000013
:10956000BD950000C5950000CD950000D595000083
:10957000DD950000E5950000ED950000F5950000F3
:10958000FD9500006F48F9F71BFA3BE06E48F9F7CC
:1095900017FA37E06D48F9F713FA33E06C48F9F73A
:1095A0000FFA2FE06B48F9F70BFA2BE06A48F9F74E
:1095B00007FA27E06948F9F703FA23E06848F9F762
:1095C000FFF91FE06748F9F7FBF91BE06648F9F778
:1095D000F7F917E06548F9F7F3F913E06448F9F78C
:1095E000EFF90FE06348F9F7EBF90BE06248F9F7A0
:1095F000E7F907E06148F9F7E3F903E06048F9F7B4
:10960000DFF900BFBB6919465E48F9F7D9F9FB6974
:1096100019465D48F9F7D4F93B6A19465B48F9F7F2
:10962000CFF997F8243019465948F9F7C9F9ABE151
:109630003B6804331B68574918460AF00DFA034685
:10964000002B40F0C1800523A7F85230294B1B683E
:10965000002B09D12848F9F7B3F92848F9F7B0F9F0
:109660002748F9F7ADF98FE17B68032B08D13B68F8
:1096700008331B6818460AF013F80346A7F852305F
:109680001C4B1B68FB64FB6C5B6D642B38BF642355
:10969000BB6400237B6590E0164B186807F1280235
:1096A00001230021F7F760FC78647B6C012B77D0F5
:1096B0003948F9F785F9796C3848F9F781F9104894
:1096C000F9F77EF973E000BFE0AD0100E4AD010001
:1096D00000AE01003CAE01006CAE0100A0AE010086
:1096E000D8AE010010AF01004CAF010084AF010003
:1096F000B4AF0100C80E0020BCAF0100D4AF010020
:1097000030AA0100F8AF010014B0010034B001002C
:1097100048B0010060B0010074B0010088B00100E1
:10972000A0B00100B4B00100C8B00100DCB001007D
:10973000F4B0010014B101002CB101003CB10100F2
:109740005CB101006CB1010080B1010090B1010079
:10975000A4B10100B8B10100C8B10100D8B1010045
:10976000E8B1010000B2010014B2010024B201000E
:1097700034B2010044B2010054B2010064B20100ED
:1097800074B2010084B2010094B20100A4B20100DD
:10979000B8B20100C8B20100F0AC0100C4AD0100D4
:1097A00007F128031A46F96C786DFFF7F3F9B86CE6
:1097B000FAF7E0FD7B6D01337B65B7F852307A6DC7
:1097C0009A42FFF469AFDFE07B68032B40F0D3805F
:1097D0003B6804331B686E4918460AF03DF903469E
:1097E000002B4CD1FF23FB726A4B1B68002B04D06B
:1097F000684B1B681846F7F769FB3B6808331B6822
:109800001846F7F7D2FA0346624A1360614B1B68A9
:10981000002B0DD16048F9F7D3F83B6808331B687B
:1098200019465E48F9F7CCF85D48F9F7C9F8ABE09E
:10983000584B1B6803211846F7F7C4FA0346002B60
:1098400009D05548F9F7BCF85648F9F7B9F8544823
:10985000F9F7B6F898E04F4B1B6807F10B020021AF
:109860001846F7F709FC5048F9F7AAF8FB7A1946A9
:109870004E48F9F7A5F84A48F9F7A2F884E0454BB5
:109880001B68002B09D14A48F9F79AF84948F9F7BB
:1098900097F84348F9F794F876E03B6804331B687F
:1098A000454918460AF0D8F80346002B0ED1394B2B
:1098B0001C683B6808331B68184609F0F1FE034634
:1098C0001A4602212046F7F7D7FB5DE03B680433D8
:1098D0001B683A4918460AF0BFF80346002B0ED120
:1098E0002C4B1C683B6808331B68184609F0D8FEEF
:1098F00003461A4604212046F7F7BEFB44E03B68C6
:1099000004331B682E4918460AF0A6F80346002BBC
:109910000ED1204B1C683B6808331B68184609F0C1
:10992000BFFE03461A4605212046F7F7A5FB2BE0AC
:109930003B6804331B68234918460AF08DF8034638
:10994000002B0ED1134B1C683B6808331B6818466C
:1099500009F0A6FE03461A4603212046F7F78CFBC2
:1099600012E01348F9F72CF81748F9F729F80C48D2
:10997000F9F726F808E00E48F9F722F81248F9F747
:109980001FF80748F9F71CF85C37BD4690BD00BFCB
:10999000D0B20100C80E0020F0AC010024AD0100DF
:1099A00030AA01003CAD0100E8A90100D8B20100D5
:1099B000BCAF0100ECB2010008B301000CB3010020
:1099C00010B3010014B301001CB3010080B588B0CE
:1099D00000AFF860B9607A603B6000237B61FB6890
:1099E0003B617B68BB610023FB6114E03B691B6C3E
:1099F0005B68B968FA691144BA693869984778614F
:109A00007B69002B01D000230AE0BB690433BB61F2
:109A1000FB690433FB61FA693B689A42E6D3FB6950
:109A200018462037BD4680BD80B586B000AFF860CF
:109A3000B9607A6000237B61FB683B613B691B6C0A
:109A40001B68002B02D16FF0050317E0BB68002BE9
:109A500008D13B691B6C1B687968012238699847FB
:109A600078610AE0BB68012B07D13B691B6C1B685E
:109A7000796800223869984778617B6918461837F9
:109A8000BD4680BD80B586B000AFF860B9607A6031
:109A90003B6000237B617B68002B03D07B685B68A5
:109AA000002B04D14E2218491848F9F7E1F8FB6859
:109AB00013221A75FB680022DA61FB6800221A6221
:109AC000FB6800225A62FB6800229A62FB6800224F
:109AD000DA62FB680E4A1A63FB6800225A63FB686D
:109AE0000C4A9A63FB687A681A64FB683A68DA631E
:109AF000FB680322B9681846F7F72DF978617B698E
:109B000018461837BD4680BD1CB601000CB40100D4
:109B1000CD990000299A000080B584B000AF78602C
:109B200039607B68002B04D16A2208490848F9F79C
:109B30009FF87B681B6C5B6807F10C0239687868DA
:109B40009847FB6818461037BD4680BD30B6010007
:109B500038B4010080B584B000AF7860396000236C
:109B6000FB607B68002B04D175220D490D48F9F785
:109B70007FF87B681B6C1B68002B08D07B681B6C14
:109B80001B680122396878689847F86002E06FF036
:109B90000503FB60FB6818461037BD4680BD00BF5B
:109BA0003CB6010038B4010080B584B000AF7860E5
:109BB00039600023FB607B68002B04D186220D49AD
:109BC0000D48F9F755F87B681B6C1B68002B08D013
:109BD0007B681B6C1B680022396878689847F860BE
:109BE00002E06FF00503FB60FB6818461037BD46C6
:109BF00080BD00BF4CB6010038B4010090B587B0FD
:109C000000AF7860396000237B6100233B617B6893
:109C1000012B40F3D5803B6804331B687449184618
:109C200009F01AFF0346002B20D17B68032B19D1C2
:109C30003B6808331B681846F7F7B7F803466D4AC8
:109C400013606C4B1B68002B01D16B4B00E06B4B1E
:109C5000FB603B6808331B68FA6819466848F8F7E8
:109C6000AFFEBFE06748F8F7ABFEBBE0614B1B6897
:109C7000002B05D16448F8F7A3FE4FF0FF33B2E0A4
:109C80003B6804331B686149184609F0E5FE03464A
:109C9000002B2BD17B68032B24D1564B1C683B68CF
:109CA00008331B68184609F0FBFC0346194620469A
:109CB000FFF750FF38613B69002B01D14F4B00E0AB
:109CC0004D4BFB604B4B1B681C463B6808331B68C5
:109CD000184609F0E5FC0246FB6821464C48F8F7B7
:109CE0006FFE7FE04B48F8F76BFE7BE03B68043388
:109CF0001B684949184609F0AFFE0346002B25D1E1
:109D00007B68032B1ED13B4B1C683B6808331B68E8
:109D1000184609F0C5FC034619462046FFF7FCFE2D
:109D200003467B61334B1B681C463B6808331B684A
:109D3000184609F0B5FC02467B6921463748F8F71A
:109D40003FFE4FE03648F8F73BFE4BE03B680433FC
:109D50001B683449184609F07FFE0346002B2BD1BF
:109D60007B68032B24D1234B1C683B6808331B689A
:109D7000184609F095FC034619462046FFF714FFE4
:109D800038613B69002B01D11C4B00E01A4BFB6092
:109D9000184B1B681C463B6808331B68184609F0C3
:109DA0007FFC0246FB6821461F48F8F709FE19E0D0
:109DB0001E48F8F705FE15E01D48F8F701FE11E012
:109DC0001C48F8F7FDFD0F48F8F7FAFD1448F8F7BE
:109DD000F7FD1648F8F7F4FD0E48F8F7F1FD4FF0DF
:109DE000FF333B61002318461C37BD4690BD00BFC2
:109DF0003CB40100CC0E002044B401004CB401007E
:109E000054B4010064B4010090B40100BCB401007A
:109E1000C4B40100E0B4010010B5010018B50100A0
:109E200040B5010078B5010080B501009CB5010086
:109E3000CCB50100FCB5010080B586B000AFF8607C
:109E4000B9607A603B60FB687B617B69002B04D161
:109E500019220F490F48F8F70BFF7B683B613B69FC
:109E6000002B02D03B68042B01D000230CE07B695F
:109E70001B6C9B683A6912881146F868984703463C
:109E80009AB23B695A803B6818461837BD4680BD78
:109E900094B601005CB6010080B586B000AFF860F2
:109EA000B9607A603B60FB687B617B69002B04D101
:109EB00028220E490E48F8F7DBFE7B683B613B69C0
:109EC000002B02D03B68042B01D000230AE07B6901
:109ED0001B6C5B683A69128811463A695288F868C7
:109EE00098473B6818461837BD4680BDA0B60100AC
:109EF0005CB6010080B586B000AFF860B9607A60EA
:109F0000FB687B617B69002B04D138220D490E4828
:109F1000F8F7AEFE7B683B613B69002B02D14FF046
:109F2000FF330AE07B691B6C1B683A691288114693
:109F30003A695288F8689847002318461837BD4692
:109F400080BD00BFACB601005CB6010080B584B036
:109F500000AFF860B9607A60154B13221A75144B84
:109F60000022DA61124B00221A62114B00225A625F
:109F70000F4B00229A620E4B0022DA620C4B0D4A04
:109F80001A630B4B0C4A5A63094B0C4A9A63084AF2
:109F9000BB681364064A7B68D3630322F9680448EC
:109FA000F6F7D9FE002318461037BD4680BD00BF26
:109FB000D00E0020399E0000999E0000F59E000002
:109FC00090B587B002AFF860B9607A603B60104B23
:109FD0001B6C002B04D16B220E490F48F8F748FE8A
:109FE0000B4B1B6CDB68002B0BD0094B1B6CDC682C
:109FF0003B6800937B68BA68F9680548A047034648
:10A0000001E06FF0050318461437BD4690BD00BF50
:10A01000D00E0020BCB601006CB6010080B582B045
:10A0200000AF786039600E4B1B6C002B04D17F228F
:10A030000C490D48F8F71CFE094B1B6C5B69002BA3
:10A0400008D0074B1B6C5B693A68796804489847ED
:10A05000034601E06FF0050318460837BD4680BD92
:10A06000D00E0020D0B601006CB6010080B582B0E1
:10A0700000AF786039600A4B1B6C002B04D18A2238
:10A0800008490948F8F7F4FD054B1B6C1B683A6852
:10A0900079680348984700BF0837BD4680BD00BFB8
:10A0A000D00E0020E4B601006CB6010080B582B08D
:10A0B00000AF786039600A4B1B6C002B04D19122F1
:10A0C00008490948F8F7D4FD054B1B6C5B683A68F2
:10A0D00079680348984700BF0837BD4680BD00BF78
:10A0E000D00E0020F0B601006CB6010080B582B041
:10A0F00000AF7860094B1B6C002B04D198220849F3
:10A100000848F8F7B5FD054B1B6C9B687968034858
:10A110009847034618460837BD4680BDD00E00203C
:10A1200000B701006CB6010080B586B000AFF860E2
:10A13000B9607A6000237B61FB683B613B691B6C03
:10A140001B68002B07D03B691B6C1B687A68B968D9
:10A150003869984778617B6918461837BD4680BDD5
:10A1600080B58CB000AFF860B9607A603B600023C6
:10A17000FB62FB68BB627B687B6207F11403002211
:10A180001A605A609A60DA60BB687B61BB6A1B6CBC
:10A190001B68002B10D0BB6A1B6C1B6807F11402F4
:10A1A0008321B86A9847F862FB6A002B01D000232C
:10A1B00003E0FA697B6A1A603B6818463037BD468F
:10A1C00080BD80B58CB000AFF860B9607A603B604C
:10A1D0000023FB62FB68BB627B687B6207F11403B0
:10A1E00000221A605A609A60DA60BB687B61BB6AC1
:10A1F0001B6C1B68002B1ED0BB6A1B6C1B6807F115
:10A2000014028321B86A9847F862FB6A002B01D0D8
:10A21000002311E07B6A1B68FB61BB6A1B6C1B6837
:10A2200007F114028221B86A9847F862FB6A002B92
:10A2300001D0002300E03B6818463037BD4680BDA2
:10A2400080B586B000AFF860B9607A603B600023EB
:10A250007B6144220021F868F7F716FEFB680022B4
:10A260005A62FB6800229A62FB680022DA62FB688D
:10A270000E4A1A63FB680E4A5A63FB680D4A9A63DA
:10A28000FB6813221A75FB687A681A64FB683A68DF
:10A29000DA63FB680322B9681846F6F75CFD78615B
:10A2A0007B6918461837BD4680BD00BF61A100001C
:10A2B000C3A1000029A1000080B588B000AF78607C
:10A2C00039600023FB6107F10C0300221A605A6019
:10A2D0009A60DA607B68002B02D16FF0070314E00C
:10A2E0003B68002BB8BF5B42FB603B68002BD4BFD0
:10A2F00001230023DBB2BB617B6807F10C028021E4
:10A300001846F6F7B9FEF861FB6918462037BD46D6
:10A3100080BD80B588B000AF786039600023FB61F4
:10A3200007F10C0300221A605A609A60DA607B68B9
:10A33000002B02D16FF0070314E03B68002BB8BF7D
:10A340005B42FB603B68002BD4BF01230023DBB2E0
:10A35000BB617B6807F10C0281211846F6F78CFE81
:10A36000F861FB6918462037BD4680BD80B58AB0CC
:10A3700000AFF860B9607A603B6000237B6207F150
:10A38000140300221A605A609A60DA60FB68002B9E
:10A3900002D16FF007030EE0BB687B617B68BB6195
:10A3A0003B68FB61FB6807F1140282211846F6F74F
:10A3B00063FE78627B6A18462837BD4680BD80B54B
:10A3C00084B000AF786039600023FB607B68002BAD
:10A3D00002D16FF0070307E07B683A6883211846D3
:10A3E000F6F74AFEF860FB6818461037BD4680BD98
:10A3F00080B584B000AF786039600023FB60002333
:10A40000BB607B68032B09D01448F8F7D9FA1448CD
:10A41000F8F7D6FA4FF0FF33FB6019E03B680433DE
:10A420001B681846F6F7C1FCB860BB68002B03D167
:10A430006FF00703FB600BE03B6808331B681846AE
:10A4400009F02EF903461946B868FFF735FFF860A2
:10A45000FB6818461037BD4680BD00BF0CB7010031
:10A4600028B7010080B584B000AF78603960002360
:10A47000FB600023BB607B68032B09D01448F8F70E
:10A480009FFA1448F8F79CFA4FF0FF33FB6019E08D
:10A490003B6804331B681846F6F787FCB860BB6856
:10A4A000002B03D16FF00703FB600BE03B68083320
:10A4B0001B68184609F0F4F803461946B868FFF718
:10A4C00028FFF860FB6818461037BD4680BD00BF06
:10A4D00058B7010074B70100B0B584B000AF786020
:10A4E00039600023FB600023BB607B68052B09D02B
:10A4F0001C48F8F765FA1C48F8F762FA4FF0FF338A
:10A50000FB6029E03B6804331B681846F6F74DFCF6
:10A51000B860BB68002B03D16FF00703FB601BE042
:10A520003B6808331B68184609F0BAF804463B68D4
:10A530000C331B68184609F0B3F803461D463B6808
:10A5400010331B68184609F0ABF803462A4621462B
:10A55000B868FFF70BFFF860FB6818461037BD4678
:10A56000B0BD00BFA8B70100C8B70100B0B588B042
:10A5700000AF786039600023FB610023BB6107F105
:10A58000080300221A605A609A60DA607B68032B25
:10A5900009D03648F8F714FA3548F8F711FA4FF0B1
:10A5A000FF33FB615CE03B6804331B681846F6F739
:10A5B000FCFBB861BB69002B03D16FF00703FB61A3
:10A5C0004EE03B6808331B68184609F069F80346FB
:10A5D000BB6007F108031946B869FFF7F0FEF861A0
:10A5E000FB69002B07D03B6804331B6819462148E0
:10A5F000F8F7E6F934E03B6804331B6819461E4857
:10A60000F8F7DEF9FB6819461C48F8F7D9F93B69F9
:10A6100019461B48F8F7D4F93B6918460DF09EF827
:10A6200004460D46FB6818460DF098F802460B46A6
:10A63000204629460DF036FA02460B4610461946CA
:10A640004FF000020F4B0DF003F902460B46104687
:10A6500019460DF0ADFB034619460B48F8F7B0F963
:10A66000FB6918462037BD46B0BD00BF00B80100E9
:10A6700018B801003CB8010060B801007CB80100C6
:10A6800090B8010000005940A4B8010080B483B024
:10A6900000AF78607B687A685A607B685A687B682C
:10A6A0001A6000BF0C37BD465DF8047B704780B46C
:10A6B00083B000AF786039607B685B683A681A6085
:10A6C0007B685A683B685A607B683A685A603B68A6
:10A6D0007A681A6000BF0C37BD465DF8047B70478E
:10A6E00080B483B000AF78607B681B687A689A4258
:10A6F0000CBF01230023DBB218460C37BD465DF8C2
:10A70000047B704780B584B000AF78607B68002B15
:10A7100004D11B220A490B48F8F7AAFAFAF720FCE1
:10A72000F8607B6800221A607B6804331846FFF7E4
:10A73000ADFFF868FAF718FC00BF1037BD4680BDC2
:10A7400058BA010080B9010080B588B000AF7860C8
:10A7500039607B68002B04D13A224B494B48F8F70B
:10A7600087FA3B68002B3BD0FAF7FAFB7861F9F7E0
:10A770001BFB0346002B08D043494548F8F720F956
:10A780003D2241494348F8F773FAFAF7E9FB38618B
:10A79000F9F762FC0346002B08D13B493E48F8F725
:10A7A0000FF93D2238493B48F8F762FAFAF7D8FB2F
:10A7B000F860F7F71BFB0346002B08D032493748F7
:10A7C000F8F7FEF83D2230493248F8F751FAF868B8
:10A7D000FAF7CAFB3869FAF7C7FB7869FAF7C4FBDE
:10A7E0000023FB61F9F738FCB860FAF7B9FBB861F0
:10A7F0007B681B68012B3BD07B6804331846FFF74E
:10A800006FFF0346002B04D146221F492448F8F766
:10A810002FFA3B68002B03D16FF00103FB612AE0A4
:10A82000BB6800221A63B868F9F732FE7B681A1D0C
:10A83000BB68143319461046FFF739FF3B68002BFD
:10A840000BDDBB684C333A4600211846FAF77EF917
:10A85000BB684C331846FAF71DF8B869FAF784FB61
:10A86000F9F706F9BB681B6BFB61FAF779FBB86176
:10A870007B6800221A60B869FAF776FBFB69184614
:10A880002037BD4680BD00BF6CBA010080B9010011
:10A8900098B90100C4B90100C8B9010000BA0100AB
:10A8A00028BA010080B584B000AF78607B68002BC7
:10A8B00004D17F2215491648F8F7DAF97B681B683E
:10A8C000012B1ED0FAF74CFBF8607B6801221A605E
:10A8D0007B6804331846FFF703FF0346002B0CD1B7
:10A8E0007B685B68143BBB60B868F9F735FEF868B5
:10A8F000FAF73AFBF9F7BCF804E0F868FAF734FB2A
:10A9000000E000BF1037BD4680BD00BF80BA010027
:10A9100080B9010080B483B000AF78607B689B8809
:10A92000C3F34E039AB27B68DB88C3F34E039BB23A
:10A930009A420FD17B681B79C3F30003DAB27B68BC
:10A940009B79C3F30003DBB29A4201D1002302E0FA
:10A95000012300E0022318460C37BD465DF8047B56
:10A960007047FFFF80B584B000AFF860B960134650
:10A97000FB80FB68002B04D12A221F491F48F8F7EF
:10A9800077F9B7F90630002B04DC2B221A491C4852
:10A99000F8F76EF9FA6893886FF34F039380FB68BA
:10A9A0009B88C3F34E039BB203F00103D9B2FA684C
:10A9B000137961F300031371FA68D3886FF34F03BF
:10A9C000D380FB68DB88C3F34E039BB203F0010323
:10A9D000D9B2FA68937961F300039371FB68BA689E
:10A9E0001A60FB8823F003031AB2FB681A8100BFC8
:10A9F0001037BD4680BD00BFB0BA010094BA010057
:10AA0000A4BA010090B587B000AFF860B9601346F2
:10AA1000FB80FB68002B04D1462253495348F8F7CA
:10AA200027F9FB68B3F908309CB2F86800F0ACF97C
:10AA300003469BB2E31AFB82FB8A002B01D1002361
:10AA40008DE0FA8AFB889A4201D2FB8AFB80FB6880
:10AA5000B3F908301A46FB68DB88C3F34E039BB298
:10AA6000D21AFB889A421FDDFB681B68FA68D288FD
:10AA7000C2F34E0292B21344FA88B9681846F7F747
:10AA80005EFAFB68DB88C3F34E039BB21A46FB8871
:10AA900013449BB2C3F30E0399B2FA68D38861F3EF
:10AAA0004F03D380FB885AE0FB681B68FA68D288A2
:10AAB000C2F34E0292B29818FB68B3F908301A46F6
:10AAC000FB68DB88C3F34E039BB2D31A1A46B968FE
:10AAD000F7F735FAFB681868FB68B3F908301A46CF
:10AAE000FB68DB88C3F34E039BB2D31A1A46BB68DC
:10AAF0009918FA88FB68B3F908301C46FB68DB88B4
:10AB0000C3F34E039BB2E31AD31A1A46F7F717FAA8
:10AB1000FB689B79C3F30003DBB2DB43DBB203F0DA
:10AB20000103D9B2FA68937961F300039371FB686A
:10AB3000DB88C3F34E039BB21A46FB68B3F90830B7
:10AB40009BB2D31A9AB2FB8813449BB2C3F30E0391
:10AB500099B2FA68D38861F34F03D380FB88184613
:10AB60001C37BD4690BD00BFC4BA010094BA0100B5
:10AB700090B587B000AFF860B9601346FB80FB6802
:10AB8000002B04D1B8224F494F48F8F771F8F86804
:10AB900000F0FAF878617B69002B01D100238DE089
:10ABA000FB887A699A4201D27B69FB80FB68B3F922
:10ABB00008301A46FB689B88C3F34E039BB2D21A37
:10ABC000FB889A421FDDFB681B68FA689288C2F313
:10ABD0004E0292B21344FA881946B868F7F7AFF9F3
:10ABE000FB689B88C3F34E039BB21A46FB88134451
:10ABF0009BB2C3F30E0399B2FA68938861F34F03D3
:10AC00009380FB885AE0FB681B68FA689288C2F35D
:10AC10004E0292B29918FB68B3F908301A46FB68E5
:10AC20009B88C3F34E039BB2D31A1A46B868F7F752
:10AC300086F9FB68B3F908301A46FB689B88C3F3B2
:10AC40004E039BB2D31A1A46BB689818FB68196862
:10AC5000FA88FB68B3F908301C46FB689B88C3F38D
:10AC60004E039BB2E31AD31A1A46F7F768F9FB684A
:10AC70001B79C3F30003DBB2DB43DBB203F0010358
:10AC8000D9B2FA68137961F300031371FB689B88EA
:10AC9000C3F34E039BB21A46FB68B3F908309BB26C
:10ACA000D31A9AB2FB8813449BB2C3F30E0399B232
:10ACB000FA68938861F34F039380FB8818461C372A
:10ACC000BD4690BDD8BA010094BA010090B583B0DA
:10ACD00000AF78600B46FB707B68002B05D140F21B
:10ACE000131227492748F7F7C3FF7B68B3F90830E9
:10ACF0001C46786800F048F803469C4201D10023C6
:10AD000039E07B681B687A68D288C2F34E0292B23F
:10AD10001344FA781A707B68DB88C3F34E039BB246
:10AD20001A467B68B3F90830013B9A4214D17B681C
:10AD30009B79C3F30003DBB2DB43DBB203F0010317
:10AD4000D9B27A68937961F3000393717A68D388F2
:10AD50006FF34F03D3800DE07B68DB88C3F34E03B2
:10AD60009BB20133C3F30E0399B27A68D38861F3BF
:10AD70004F03D380012318460C37BD4690BD00BF5A
:10AD8000ECBA010094BA010080B584B000AF7860DD
:10AD90007868FFF7BFFD0346002B02D0012B02D0DD
:10ADA00005E000231FE07B68B3F908301BE07B68F7
:10ADB000DB88C3F34E039BB2FB607B689B88C3F3C5
:10ADC0004E039BB2BB60FA68BB689A4203D9FA682B
:10ADD000BB68D31A07E07B68B3F908301946FA68F4
:10ADE000BB68D31A0B4418461037BD4680BD80B5EA
:10ADF00082B000AF78607B685B697A6892690132E3
:10AE000052081046984700BF0837BD4680BD80B540
:10AE100082B000AF78607B685B697A68926910469F
:10AE2000984700BF0837BD4680BD80B584B000AFED
:10AE300078607B689B687A681268012110469847A1
:10AE40007B681B69002B20D0F5F75AFEF86012E0F2
:10AE5000F5F756FE0246FB68D21A7B68DB699A4218
:10AE600002D96FF0010315E07B68DB6901335B08F1
:10AE70001846F9F773FA7B681B697A6812681046FE
:10AE800098470346002BE3D000E000BF7868FFF747
:10AE9000AEFF002318461037BD4680BD80B582B096
:10AEA00000AF78607B685B687A68126800211046A2
:10AEB00098477868FFF79BFF7B689B687A68126801
:10AEC00000211046984700BF0837BD4680BD80B5B9
:10AED00082B000AF78607B685B687A681268012195
:10AEE000104698477868FFF7A0FF7868FFF77FFF64
:10AEF0007B685B687A68126800211046984778681A
:10AF0000FFF775FF7B689B687A681268002110461E
:10AF1000984700BF0837BD4680BD80B582B000AFFE
:10AF200078607B685B687A681268002110469847F1
:10AF30007868FFF75CFF7868FFF777FF7868FFF7BE
:10AF400056FF7B685B687A68126801211046984753
:10AF50007868FFF75CFF00BF0837BD4680BDFFFF84
:10AF600080B584B000AF78607B685B687A681268EF
:10AF70000121104698477868FFF739FF7868FFF796
:10AF800054FF0346002B0BDA1248F7F719FD12485D
:10AF9000F7F716FD1148F7F713FD6FF0010314E002
:10AFA0007B68DB687A681268104698470346002B76
:10AFB0000CBF01230023DBB2FB607B689B687A68CF
:10AFC0001268002110469847FB6818461037BD46A6
:10AFD00080BD00BF04BB010014BB010028BB010001
:10AFE00080B586B000AF78600B46FB707B685B6F06
:10AFF0003B6107237B6124E03B699B683A691268E7
:10B00000002110469847FA787B6942FA03F3DBB2D5
:10B0100003F00103FB733B695B683A691268F97BD3
:10B02000104698473869FFF7E2FE3869FFF7FDFEE2
:10B030000346002B02DA6FF0010313E07B69013B4A
:10B040007B617B69002BD7DA3B699B683A691268A0
:10B050000021104698473869FFF7C9FE3869FFF7A5
:10B060007FFF034618461837BD4680BD80B584B0C3
:10B0700000AF78600023BB737B685B6FBB60BB680D
:10B080005B68BA681268012110469847B868FFF7F4
:10B09000AEFE0023FB7325E0BB7B5B00BB73B8688F
:10B0A000FFF7C3FE0346002B02DA6FF001031DE039
:10B0B000BB68DB68BA681268104698470346002BE5
:10B0C00003D0BB7B43F00103BB73BB689B68BA68CA
:10B0D0001268002110469847B868FFF798FEFB7B7E
:10B0E0000133FB73FB7B072BD6D9BB7B184610378C
:10B0F000BD4680BD80B588B000AF78603960002360
:10B10000FB613B689B68BB613B689B887B613B68DC
:10B110005B8803F020037B822AE0BB691B78194619
:10B120007868FFF75DFFF860FB68002B05DC7B8A21
:10B13000002B0CD0FB68002B09D17B69013B7B61A4
:10B14000BB690133BB61FB690133FB6110E0FB6844
:10B15000002B01D100230FE00948F7F731FCF96813
:10B160000848F7F72DFC0848F7F72AFCFB6803E0CE
:10B170007B69002BD1DCFB6918462037BD4680BDBA
:10B1800030BB010040BB010028BB010080B584B08A
:10B1900000AF786039607B685B6FFB603B68002BB9
:10B1A00006D0FB685B68FA68126800211046984771
:10B1B000F868FFF71CFEF868FFF737FE0346002B20
:10B1C0000BDA0C48F7F7FCFB0B48F7F7F9FB0B48D9
:10B1D000F7F7F6FB6FF0010307E0FB689B68FA687E
:10B1E0001268002110469847002318461037BD46C4
:10B1F00080BD00BF30BB010058BB010028BB01006F
:10B2000080B588B000AF786039600023FB613B688F
:10B210009B68BB613B689B887B613B685B883B614B
:10B2200022E07868FFF722FFF860FB68002B1FDB45
:10B23000FB68DAB2BB691A70FB690133FB61BB6959
:10B240000133BB617B69013B7B613B6903F04003D8
:10B25000002B09D179697868FFF798FFF860FB68DF
:10B26000002B01DAFB6805E07B69002BD9DC00E0EC
:10B2700000BFFB6918462037BD4680BD80B588B049
:10B2800000AFF8600B467A60FB72FB685B6F7B6116
:10B290000023BB610023FB6118E0FB7A1946F868C4
:10B2A000FFF79EFEB861BB69012B13D0FA697B687A
:10B2B0009A420FD07869FFF730FE7869FFF7A7FD53
:10B2C0007869FFF7EBFDFB690133FB61FA697B6885
:10B2D0009A42E2DDBB6918462037BD4680BDFFFFBC
:10B2E00080B588B000AF786039603B685B88BB830D
:10B2F0003B685B8803F020037B837B685B6F7B612B
:10B300007B8B002B02D17B681B6F00E000233B612D
:10B31000BB8B03F00403002B64D03B681B88DB0964
:10B320009BB25BB203F006035BB263F00F035BB248
:10B33000FB773B681B88FB72FB7F3A69194678688C
:10B34000FFF79CFFF860FB68012B0ED07B8B002B76
:10B350000BD13648F7F734FB3548F7F731FB354862
:10B36000F7F72EFB6FF007035BE0FB7A194678686E
:10B37000FFF736FEF860FB68012B0ED07B8B002BAD
:10B380000BD12A48F7F71CFB2B48F7F719FB294884
:10B39000F7F716FB6FF0070343E0BB8B03F00103E5
:10B3A000002B3DD07869FFF792FDFB7F43F001034E
:10B3B000FB77FB7F3A6919467868FFF75FFFF86013
:10B3C000FB68012B2CD07B8B002B29D11B48F7F776
:10B3D000F7FA1B48F7F7F4FA1648F7F7F1FA6FF0A7
:10B3E00007031EE03B681B88DBB25B00FB77BB8B6F
:10B3F00003F00103002B03D0FB7F43F00103FB7735
:10B40000FB7F3A6919467868FFF738FFF860FB68F8
:10B41000012B05D07B8B002B02D16FF0070300E0DE
:10B42000002318462037BD4680BD00BF04BB010085
:10B4300070BB010028BB01008CBB010030BB0100C8
:10B44000A8BB010080B58AB000AFF860B9607A602F
:10B45000FB685B6FBB617B68002B01D1002370E050
:10B4600000233B6257E03A6A13465B0013449B009B
:10B470001A46BB6813447B627B6A5B8803F0200337
:10B48000FB827B6A5B8803F01003002B14D13B6ABC
:10B49000002B03D0B869FFF71AFD02E0B869FFF787
:10B4A000FDFC796AF868FFF71BFFF861FB69002B68
:10B4B00002D0FB8A002B35D07B6A5B8803F0010346
:10B4C000002B12D0796AF868FFF79AFE0346FB61F9
:10B4D0007B6A9B881A46FB69934219DAFB69002B49
:10B4E00022DB6FF00703FB611EE0796AF868FFF763
:10B4F00001FE0346FB617B6A9B881A46FB69934207
:10B5000006DAFB69002B11DB4FF0FF33FB610DE026
:10B510003B6A01333B623B6A7A689A42A3D83B6A32
:10B52000FB6104E000BF02E000BF00E000BF7B6AF7
:10B530005B8803F08003002B02D1B869FFF7EDFCB4
:10B54000FB6918462837BD4680BDFFFF80B582B035
:10B5500000AF786039607B68054A1A64396878689A
:10B5600000F008F8034618460837BD4680BD00BF06
:10B57000C4BB010080B584B000AF7860396000239F
:10B58000FB607B68483301220F491846F6F78CF9B7
:10B590007B68DB6E002B03D17B684FF47A72DA662E
:10B5A0003968786800F0CAF9F8600848F7F708FACF
:10B5B00039680748F7F704FA0648F7F701FAFB6815
:10B5C00018461037BD4680BDD0BB0100E0BB01006E
:10B5D000F0BB010008BC010080B584B000AF78600A
:10B5E0007868F5F7E2FBF860FB68002B03D0FB6896
:10B5F0001B7D082B0BD00A48F7F7E2F97968094858
:10B60000F7F7DEF90848F7F7DBF9002303E0FB68FA
:10B61000DB6BBB60BB6818461037BD4680BD00BF02
:10B6200010BC010020BC010008BC010080B586B040
:10B6300000AFF860B9607A60FB681B6C1B68002B78
:10B6400015D0FB6848334FF0FF311846F6F7A2F9E2
:10B65000FB681B6C1B687A68B968F8689847786162
:10B66000FB6848331846F6F7A3FA7B6909E00748F8
:10B67000F7F7A6F90648F7F7A3F90648F7F7A0F990
:10B68000002318461837BD4680BD00BF10BC01001E
:10B6900038BC010008BC010080B586B000AFF8607E
:10B6A000B9607A60FB681B6C9B68002B09D0FB6853
:10B6B0001B6C9B687A68B968F868984778617B6901
:10B6C00009E00748F7F77CF90648F7F779F90648E3
:10B6D000F7F776F9002318461837BD4680BD00BF3E
:10B6E00010BC010038BC010008BC010080B588B066
:10B6F00000AFF8607B600B467B8113463B817B8902
:10B700003B823B897B82BB6A9BB2BB827B68BB610D
:10B7100007F1100301221946F868FFF787FF034677
:10B72000FB61FB69002B01DDBB6A00E0FB69184689
:10B730002037BD4680BDFFFF80B588B000AFF86000
:10B740007B600B467B8113463B81FB68002B04D159
:10B75000842211491148F7F78BFA7B893B823B8998
:10B7600043F001039BB27B82BB6A9BB2BB827B68C6
:10B77000BB6107F1100301221946F868FFF756FF75
:10B780000346FB61FB69002B01DDBB6A00E0FB693E
:10B7900018462037BD4680BD68BC010058BC01007A
:10B7A00080B400AF00231846BD465DF8047B7047A7
:10B7B00080B588B002AFF860B9607A603B60FB6822
:10B7C000DB6B7B617B69002B04D120220E490F4883
:10B7D000F7F74EFA7B68002B04D121220A490C4866
:10B7E000F7F746FABB687B82BB681B0C3B823A8A40
:10B7F000798A3B6800937B687869FFF79DFF034671
:10B8000018461837BD4680BDA0BC01007CBC0100B5
:10B810008CBC010080B588B002AFF860B9607A6076
:10B820003B60FB68DB6B7B617B69002B04D13422BE
:10B830000E490F48F7F71CFA7B68002B04D135221C
:10B840000A490C48F7F714FABB687B82BB681B0CEB
:10B850003B823A8A798A3B6800937B687869FFF774
:10B8600045FF034618461837BD4680BDB4BC0100ED
:10B870007CBC01008CBC010080B588B000AFF860D2
:10B88000B9607A60FB68DB6BFB61FB69002B04D15C
:10B89000482228492848F7F7EBF9BB68203B042BDE
:10B8A0003DD801A252F823F0BDB800001FB9000036
:10B8B000D1B80000DBB80000FFB80000FB69B3F8A6
:10B8C000443043F004039AB2FB69A3F844202BE010
:10B8D0007B681A68FB69DA6626E07B683B613B6936
:10B8E00019683B695B681A46F869FFF79FFE0346D3
:10B8F0007B617B69002B14DA6FF0070315E07B682E
:10B900001B68BB61BB68BA691946F869FFF7C4FEDA
:10B9100078617B69002B06DA6FF0070305E000BF52
:10B9200002E000BF00E000BF002318462037BD46FC
:10B9300080BD00BFCCBC01007CBC010080B584B0E0
:10B9400000AF786039607B68002B04D17A221449FB
:10B950001448F7F78DF97B68FB60FB687A68DA6357
:10B96000FB6808221A75FB6800225A62FB680022F5
:10B970009A62FB680022DA62FB680B4A1A63FB6872
:10B980000A4A5A63FB680A4A9A6303223968F868CC
:10B99000F5F7E1F9002318461037BD4680BD00BF1A
:10B9A000E4BC01007CBC0100B1B7000015B8000088
:10B9B00079B8000080B500AFF4F766FD00231846A3
:10B9C00080BD80B483B000AFEFF303837B607B68FE
:10B9D0003B603B88C3F308039BB2DBB2103BDBB296
:10B9E0005BB218460C37BD465DF8047B7047FFFF1D
:10B9F00080B483B000AF03463960FB7197F907301C
:10BA000004493A6841F8232000BF0C37BD465DF871
:10BA1000047B70473410002080B483B000AF03462D
:10BA2000FB71084997F9073003F1C00251F8223041
:10BA30006FF3104341F8223000BF0C37BD465DF86C
:10BA4000047B70470060004080B584B000AF0346BF
:10BA5000FB7197F907301846FFF7DEFF97F90730BB
:10BA6000FB60FB6803F01F02064997F907305B098A
:10BA7000012000FA02F2603341F8232000BF1037A2
:10BA8000BD4680BD00E100E080B584B000AF034654
:10BA9000B9607A60FB73BB68DAB2094997F90F3075
:10BAA0001201D2B20B4483F8002397F90F30796862
:10BAB0001846FFF79DFF00BF1037BD4680BD00BF91
:10BAC00000E100E080B485B000AF0346FB7197F958
:10BAD0000730FB60FB6803F01F02074997F9073046
:10BAE0005B09012000FA02F241F8232000BF14375D
:10BAF000BD465DF8047B704700E100E080B582B090
:10BB000000AF0346FB7197F907301846FFF79CFF1B
:10BB100097F907301846FFF7D5FF00BF0837BD4635
:10BB200080BDFFFF80B485B000AF0346FB7197F97D
:10BB30000730FB60FB6803F01F020B4997F90730E1
:10BB40005B09012000FA02F2203341F82320BFF301
:10BB50004F8F00BFBFF36F8F00BF00BF1437BD46CC
:10BB60005DF8047B704700BF00E100E080B483B063
:10BB700000AF0346FB7197F90730044A52F82330AF
:10BB800018460C37BD465DF8047B70473410002022
:10BB900080B58AB000AF786039607B687B623B68B3
:10BBA0001B7803F5800303F58C531B021A467B6A4E
:10BBB0001A627B6A00221A707B6A3A68DA613B6813
:10BBC0005A697B6A5A623B689A697B6ADA627B6A65
:10BBD00000229A627A6A9378012161F301039370DB
:10BBE0003B685B78002B05D17A6A9378022161F378
:10BBF000010393703968786A00F04DF900233B62C5
:10BC0000EFF31083FB60FB683B6201233B613B6900
:10BC100083F3108800BF474B5A683B681B7819466E
:10BC20004FF00043CB40DB43424913404B60414B54
:10BC30005B683B6A7B617B6983F3108800BF7B6A2A
:10BC40001B6A00229A707B6A1B6A00221A717B6A47
:10BC50001B6A00225A727B6A1B6A00229A727B6AF4
:10BC60001B6A0022DA727B6A1B6A00225A833B68D5
:10BC70001B781A4640F2F933D34003F00103002B3E
:10BC800003D07B6A1B6A4022DA747B6A1B6A062235
:10BC90001A773968786A00F051F87B6A0022DA6016
:10BCA0007B6A00221A617B6A00225A617B6A002249
:10BCB0009A613B68DB69FB61FB691B7803F0030356
:10BCC000BB61BB6943F01003BB617B6ADB6993F91D
:10BCD00005301846FFF712FF7B6ADB6993F90B30DA
:10BCE0001846FFF70BFFBB6943F04003BB617B6A5B
:10BCF000DB6993F907301846FFF700FF7B6ADB69C1
:10BD000093F909301846FFF7F9FEBB6943F02003A9
:10BD1000BB617B6A1B6ABA69D2B29A70FB695A89A5
:10BD20007B6A1A817B6A044A5A60002318462837C6
:10BD3000BD4680BD004008405549435380B586B09C
:10BD400000AF786039603B681B781A4640F2F933DF
:10BD5000D34003F00103002B04D07B681B6A4FF42F
:10BD600078429A823B689B781A013B68DB78DB005B
:10BD700013437B61F2233B613B685B78032B04D167
:10BD80007B6943F040037B6107E03B685B78002BF5
:10BD900003D13B6923F010033B617B681B6A7A691E
:10BDA000D2B21A707B681B6A3A69D2B29A713B6848
:10BDB000DB69BB60BB681B7B082B04D17B681B6AFB
:10BDC0000A225A7309E0BB681B7B5B00DAB27B680E
:10BDD0001B6A02F00202D2B25A730023FB60BB68F6
:10BDE0005B78DB01DBB2FA681343FB60BB689B78CE
:10BDF0005B0103F02003FA681343FB607B681B6A56
:10BE000000221A72BB681B78022B03D0BB681B7818
:10BE1000032B11D17B681B6AFF225A70BB681B7809
:10BE2000022B03D1FB6843F01003FB607B681B6AA5
:10BE3000FA68D2B2DA710DE07B681B6AFA68D2B296
:10BE4000DA717B681A6ABB685B681946104600F0B5
:10BE50004FF800BF00BF1837BD4680BD80B582B027
:10BE600000AF78600B46FB701346BB7097F9023049
:10BE70001846FFF757FE97F902301846FFF7CCFD3A
:10BE8000F97897F902307A681846FFF7FDFD00BF90
:10BE90000837BD4680BD80B582B000AF786039609C
:10BEA0003B68997A3B6893F90B301A467868FFF73C
:10BEB000D5FF3B6819793B6893F905301A467868D5
:10BEC000FFF7CCFF3B6899793B6893F907301A4636
:10BED0007868FFF7C3FF3B68197A3B6893F909302C
:10BEE0001A467868FFF7BAFF00BF0837BD4680BD25
:10BEF00080B483B000AF786039603B689A787B6823
:10BF00005A703B685B78C3F30103D9B27A6813783F
:10BF100061F3010313703B68DA787B689A747B687D
:10BF2000DB79DBB223F05C03DAB23B681B7803F009
:10BF30005C03DBB21343DAB27B68DA7100BF0C3703
:10BF4000BD465DF8047B704790B58BB000AFF860DC
:10BF5000B9601346FB71FB689B6A7B627B6A002BAE
:10BF600003D107F114037B6205E07B6A07F1140437
:10BF70000FCB84E80F00FB68DB691B781A467B6AED
:10BF80001A607B6ABA689A607B6AFA791A71FB68F0
:10BF9000DA6A7B6ADA60FB685B6A786A9847FB68F2
:10BFA0009B6A002B07D0FB689B6A1C4607F11403B1
:10BFB0000FCB84E80F0000BF2C37BD4690BD80B585
:10BFC00084B000AFFFF7FDFC0346FB7397F90F3019
:10BFD0001846FFF721FD97F90F301846FFF7C6FD09
:10BFE000B860BB68DB691B69002B30D1BB681B697B
:10BFF000002B2CD0BB689B7803F00303DBB2022B31
:10C000000BD1BB68DB681B88BA68126A6FEAC3533E
:10C010006FEAD3539BB2D38105E0BB68DA68BB6893
:10C020001B6A1278DA70BB681B69BA689278C2F32F
:10C030000102D2B29A1ABB681A61BB68DB68BA689F
:10C040009278C2F30102D2B21A44BB68DA60BB68CC
:10C050001B69002B17D1BB681B6A9B78FB71FB79AE
:10C0600043F00403FB71FB7903F07F03FB71BB68B2
:10C070001B6AFA799A70BB680022DA60802200217C
:10C08000B868FFF761FF00BF1037BD4680BD80B5BF
:10C0900084B000AFFFF795FC0346FB7397F90F30B0
:10C0A0001846FFF7B9FC97F90F301846FFF75EFD09
:10C0B000B860BB689B7803F00303DBB2022B07D1A7
:10C0C000BB681B6A1B8A9BB2C3F308037B6004E056
:10C0D000BB681B6A5B79DBB27B60BB689B69002B2A
:10C0E00006D17B6804221946B868FFF72DFF28E0C7
:10C0F000BB685869BB689B78C3F30103DBB21A467F
:10C100003B1D194607F000FBBB685B69BA68927873
:10C11000C2F30102D2B21A44BB685A61BB689B6980
:10C12000BA689278C2F30102D2B29A1ABB689A61D5
:10C13000BB689B69002B04D101220021B868FFF77E
:10C1400003FF00BF1037BD4680BD80B582B000AF91
:10C15000FFF737FC0346FB7197F907301846FFF7E6
:10C1600005FD38603B681B6A9B78DAB23B681B6A46
:10C1700002F07B02D2B29A70022200213868FFF7E7
:10C18000E3FE97F907301846FFF746FC00BF083773
:10C19000BD4680BD80B584B000AFFFF712FC0346FA
:10C1A000BB7297F90A301846FFF7E0FC786000236D
:10C1B000FB607B689B7803F00303DBB2022B07D1A3
:10C1C0007B681B6A1B8A9BB2C3F30803FB6004E015
:10C1D0007B681B6A5B79DBB2FB607B681B6A1B793F
:10C1E000DBB203F03803FB72FB7A03F01003002B81
:10C1F0000BD07B681B6A1B7FC3F30003DBB2002BF1
:10C2000003D1FB7A43F04003FB727B681B6A1B7906
:10C21000DAB27B681B6A22F03802D2B21A71FB7A5A
:10C220001A46F9687868FFF78FFE97F90A301846C2
:10C23000FFF7F2FB00BF1037BD4680BD80B483B06E
:10C2400000AF0346FB800A49FB881B0A9BB21A46D3
:10C25000FB88DBB21201134451F82330C3F34003CF
:10C26000DBB218460C37BD465DF8047B704700BF53
:10C270000008084080B485B000AF0023FB60EFF3F6
:10C2800010837B607B68FB600123BB60BB6883F32A
:10C29000108800BF0D4B1B68002B05D10C4B0022F2
:10C2A000DA700B4B4022DA70084B1B680133074AE7
:10C2B0001360FB683B603B6883F3108800BF00BFDE
:10C2C0001437BD465DF8047B704700BF3010002076
:10C2D000000D084080B485B000AF0023FB60EFF391
:10C2E00010837B607B68FB600123BB60BB6883F3CA
:10C2F000108800BF0F4B1B68002B04D00D4B1B6830
:10C30000013B0C4A13600B4B1B68002B05D10A4BF9
:10C310000022DA70084B8022DA70FB683B603B68D1
:10C3200083F3108800BF00BF1437BD465DF8047B5F
:10C33000704700BF30100020000D084080B584B069
:10C3400000AF786039607B68FB60FB68044A1A6064
:10C35000386800F0DDF9002318461037BD4680BD6F
:10C3600054524F5080B485B000AF78607B68FB605A
:10C37000FB6800221A60002318461437BD465DF89A
:10C38000047B704780B582B000AF78603960386850
:10C3900000F0BEF9002318460837BD4680BD80B5C1
:10C3A00088B000AFF8600B467A607B817B89BB82E6
:10C3B0007B683B6101233B8307F11003FB6107F1BD
:10C3C0001803184600F050FAFFF754FF7B8979688C
:10C3D000184600F00DFAFFF77DFF002318462037BE
:10C3E000BD4680BD80B584B000AFF8600B467A6072
:10C3F0007B817B891846FFF721FF0346DAB27B6811
:10C400001A70002318461037BD4680BD80B487B02F
:10C4100000AFF8600B467A607B817B891B0A9BB278
:10C42000DBB25B0103F1804303F500237B617B6991
:10C430005B689AB27B681A80002318461C37BD4699
:10C440005DF8047B704780B487B000AFF8600846A1
:10C4500011461A4603467B810B463B811346FB80FF
:10C460003A89FB881340FB82B7F90830DB431AB2E4
:10C47000B7F9063013401BB2BB827B891B0A9BB203
:10C48000DBB25B0103F1804303F500233B61BB8A10
:10C490001A04FB8A1A433B699A60002318461C372A
:10C4A000BD465DF8047B704780B487B000AF78600C
:10C4B0000B467B8013467B700023FB820023BB82EC
:10C4C0007B8823F0FF037B827B88DBB23B823B8A45
:10C4D000012202FA03F3FB817B78002B02D1FB8956
:10C4E000BB8201E0FB89FB827B8A1B0A9BB2DBB229
:10C4F0005B0103F1804303F50023BB60BB8A1A0490
:10C50000FB8A1A43BB689A60002318461C37BD4655
:10C510005DF8047B704780B48BB000AFF8600846CC
:10C5200011461A4603467B810B463B811346FB802E
:10C530007B891B0A9BB2DBB25B0103F1804303F5ED
:10C5400000237B627B6A1B683B623A89FB8813404D
:10C550009BB2FB613B89DA43FB881340BB613B6ABA
:10C560007B617A69FB6913437B61BB69DB437A6951
:10C5700013407B617B6A7A691A60002318462C3766
:10C58000BD465DF8047B704780B487B000AFF860AB
:10C590000B467A607B817B891B0A9BB2DBB25B0115
:10C5A00003F1804303F500237B617B695B68C3F380
:10C5B0000F439AB27B681A80002318461C37BD4689
:10C5C0005DF8047B704780B487B000AFF8600B461D
:10C5D0007A607B817B891B0A9BB2DBB25B0103F132
:10C5E000804303F500237B617B695B68C3F30F43E2
:10C5F0007B827B89DBB2012202FA03F33B827A8AD7
:10C600003B8A13409BB23A8A9A4203D17B6801224B
:10C610001A7002E07B6800221A70002318461C374B
:10C62000BD465DF8047B704780B487B000AFF8600A
:10C63000084611461A4603467B810B463B8113464A
:10C64000FB803A89FB881340FB82B7F90830DB4353
:10C650001AB2B7F9063013401BB2BB827B891B0AA2
:10C660009BB2DBB25B0103F1804303F500233B6126
:10C67000BB8A1A04FB8A1A433B69DA600023184616
:10C680001C37BD465DF8047B704780B584B000AFB1
:10C6900078600B467B8013467B707B887B817B892F
:10C6A00023F0FF037B817B893B810023FB810023F7
:10C6B000BB817B78012B06D17B88DBB2012202FA99
:10C6C00003F3FB8105E07B88DBB2012202FA03F36E
:10C6D000BB817B78BA89F989388900F044F8002356
:10C6E00018461037BD4680BD80B483B000AF786077
:10C6F0000B46FB701346BB70044ABB7813700023D3
:10C7000018460C37BD465DF8047B7047000D0840A5
:10C7100080B584B000AF7860786800F0A5F87B68D9
:10C72000BB60FFF7A7FD0023FB8111E0BB685A68DF
:10C73000FB89DB0013449888BB685A68FB89DB00DF
:10C7400013441B68194600F053F8FB890133FB8141
:10C75000BB681B88FA899A42E8D3FFF7BBFD00BF8C
:10C760001037BD4680BD90B484B000AF0446084683
:10C7700011461A462346FB800346BB800B467B804E
:10C7800013467B700023FB60FB881B0A9BB2DBB265
:10C790005B0103F1804303F50023BB60BB68DB68EA
:10C7A000FB607B78012B0DD1BB88FA681343FB60DB
:10C7B0007B881B046FEA13436FEA0343FA68134054
:10C7C000FB600CE07B881B04FA681343FB60BB88AA
:10C7D0006FEA03436FEA1343FA681340FB60BB68D8
:10C7E000FA68DA6000BF1037BD4690BC7047FFFFA3
:10C7F00080B483B000AF03463960FB803B6803F42C
:10C800008033002B1CD01749FB881B0A9BB21A46A9
:10C81000FB88DBB212011A4451F822306FF3104347
:10C8200041F822300F48FB881B0A9BB21946FB884F
:10C83000DBB23A6822F4803209010B4440F823202D
:10C840000849FB881B0A9BB21A46FB88DBB212011F
:10C8500013443A6841F8232000BF0C37BD465DF809
:10C86000047B70470008084080B586B000AF786050
:10C870000023FB730023BB7300237B6139E000239B
:10C880003B6130E07B685A687B69DB0013449A881F
:10C8900029493B6931F813309A4221D17B685A68A3
:10C8A0007B69DB0013441B6803F0F853BB60BB6873
:10C8B000B3F1807F03D0BB68B3F1106F08D10122C0
:10C8C0003B6902FA03F3DAB2FB7B1343FB7307E025
:10C8D00001223B6902FA03F3DAB2BB7B1343BB7359
:10C8E0003B6901333B613B69022BCBD97B69013347
:10C8F0007B617B681B881A467B699342BFD301200A
:10C9000001F064FD0D4B93F8BB347B737A7BFB7BAA
:10C9100013437B73BB7BDB43DAB27B7B13407B73BC
:10C92000064A7B7B82F8BB34012001F0FFFC00BF8C
:10C930001837BD4680BD00BFF4C0010000E00140D3
:10C9400080B483B000AFEFF303837B607B683B6010
:10C950003B88C3F308039BB2DBB2103BDBB25BB294
:10C9600018460C37BD465DF8047B704780B483B031
:10C9700000AF03463960FB7197F9073004493A6804
:10C9800041F8232000BF0C37BD465DF8047B70479B
:10C990003410002080B483B000AF0346FB71084917
:10C9A00097F9073003F1C00251F822306FF31043BA
:10C9B00041F8223000BF0C37BD465DF8047B70475C
:10C9C0000060004080B584B000AF0346FB7197F96A
:10C9D00007301846FFF7DEFF97F90730FB60FB686A
:10C9E00003F01F02064997F907305B09012000FA9E
:10C9F00002F2603341F8232000BF1037BD4680BDEE
:10CA000000E100E080B584B000AF0346B9607A6011
:10CA1000FB73BB68DAB2094997F90F301201D2B241
:10CA20000B4483F8002397F90F3079681846FFF715
:10CA30009DFF00BF1037BD4680BD00BF00E100E094
:10CA400080B485B000AF0346FB7197F90730FB60F7
:10CA5000FB6803F01F02074997F907305B090120C3
:10CA600000FA02F241F8232000BF1437BD465DF8FA
:10CA7000047B704700E100E080B582B000AF034660
:10CA8000FB7197F907301846FFF79CFF97F90730BD
:10CA90001846FFF7D5FF00BF0837BD4680BDFFFF32
:10CAA00080B485B000AF0346FB7197F90730FB6097
:10CAB000FB6803F01F020B4997F907305B0901205F
:10CAC00000FA02F2203341F82320BFF34F8F00BF5A
:10CAD000BFF36F8F00BF00BF1437BD465DF8047B06
:10CAE000704700BF00E100E080B483B000AF0346B0
:10CAF000FB7197F90730044A52F8233018460C3777
:10CB0000BD465DF8047B70473410002080B586B0C8
:10CB100000AF786039607B687B613B6893F90220E5
:10CB20007B691A712A4A7B6993F90430C03352F841
:10CB300023303B61264A7B6993F90430C0330021DE
:10CB400042F823103B689A687B699A603B68DA6810
:10CB50007B69DA603B681A787B695A711C4A7B6989
:10CB60005B790021D1543B681B791B01FB733B6847
:10CB70005B79DB01DAB2FB7B1343FB733B68DA784A
:10CB8000FB7B1343FB73124A7B695B791946FB7B82
:10CB900053540F497B6993F90430C0333A6941F823
:10CBA00023207B6993F90430002B08DB7B6993F920
:10CBB00004003B685B787A691946FFF723FF7B69BD
:10CBC000044A1A60002318461837BD4680BD00BFCE
:10CBD000006000405543490080B584B000AF7860E4
:10CBE0007B68FB60FB6893F904301846FFF744FF4D
:10CBF000002318461037BD4680BD80B584B000AF15
:10CC000078607B68FB60FB6893F904301846FFF797
:10CC100047FF002318461037BD4680BD80B584B05D
:10CC200000AF78607B68FB60FB6893F90430002BF1
:10CC30000CDBFB6893F904301846FFF731FFFB6803
:10CC400093F9043000211846FFF790FEFB6800229C
:10CC50001A60002318461037BD4680BD80B584B0E9
:10CC600000AFFFF76DFE0346BB7397F90E30184611
:10CC7000FFF73AFFB8600023FB73174ABB685B7984
:10CC8000D35CC3F30103DBB2032B02D10123FB739B
:10CC900004E097F90E301846FFF77CFEBB68002BC6
:10CCA0000ED0BB689B68002B0AD0BB685B797B60A9
:10CCB000BB68DB683B60BB689B683A461046984798
:10CCC000FB7B002B04D097F90E301846FFF762FE6D
:10CCD00000BF1037BD4680BD0060004080B487B003
:10CCE00000AF0346FB710E4B1B6A7B617B691B0E19
:10CCF00003F007033B61FB797A6922FA03F303F03F
:10CD00000703FB60074B1A683B699A40FB6822FAED
:10CD100003F318461C37BD465DF8047B704700BF1F
:10CD200000E00140BC11002080B483B000AF034696
:10CD30003960FB7197F9073004493A6841F82320BC
:10CD400000BF0C37BD465DF8047B704734100020EF
:10CD500080B483B000AF0346FB71084997F90730F0
:10CD600003F1C00251F822306FF3104341F8223032
:10CD700000BF0C37BD465DF8047B70470060004083
:10CD800080B584B000AF0346FB7197F907301846B1
:10CD9000FFF7DEFF97F90730FB60FB6803F01F0227
:10CDA000064997F907305B09012000FA02F2603367
:10CDB00041F8232000BF1037BD4680BD00E100E0F0
:10CDC00080B584B000AF0346B9607A60FB73BB687E
:10CDD000DAB2094997F90F301201D2B20B4483F845
:10CDE000002397F90F3079681846FFF79DFF00BFC1
:10CDF0001037BD4680BD00BF00E100E080B485B0C3
:10CE000000AF0346FB7197F90730FB60FB6803F046
:10CE10001F02074997F907305B09012000FA02F267
:10CE200041F8232000BF1437BD465DF8047B7047EE
:10CE300000E100E080B582B000AF0346FB7197F9D6
:10CE400007301846FFF79CFF97F907301846FFF7A1
:10CE5000D5FF00BF0837BD4680BDFFFF80B485B059
:10CE600000AF0346FB7197F90730FB60FB6803F0E6
:10CE70001F020B4997F907305B09012000FA02F203
:10CE8000203341F82320BFF34F8F00BFBFF36F8FD4
:10CE900000BF00BF1437BD465DF8047B704700BF7C
:10CEA00000E100E080B584B000AF0346B9607A606D
:10CEB000FB7397F90F307A68B9681846FFF780FF5F
:10CEC00097F90F301846FFF7B5FF00BF1037BD4682
:10CED00080BDFFFF80B584B000AF786039607B68AB
:10CEE000FB603B681B7C1A46012303FA02F2FB68D5
:10CEF000DA603968F86800F013FA3968F86800F009
:10CF000041FAFB68034A1A60002318461037BD46F1
:10CF100080BD00BF5450470080B485B000AF78603A
:10CF20007B68FB60FB689B68FA68D2689A600023A4
:10CF300018461437BD465DF8047B704780B485B051
:10CF400000AF78607B68FB60FB689B68FA68D2681A
:10CF50005A60002318461437BD465DF8047B7047BD
:10CF600080B485B000AF78607B68FB60FB689B682D
:10CF7000FA68D268DA60002318461437BD465DF8B7
:10CF8000047B704780B588B000AF78607B68FB6138
:10CF9000FB695B68DB69BB614FF000437B614FF06D
:10CFA00000433B614FF00043FB60BB695B687A69FB
:10CFB00013437B61BB699B683A6913433B61BB695F
:10CFC000DB68FA681343FB60F86900F09DF9B8600C
:10CFD000FB699B683A695A61FB699B68FA689A61C8
:10CFE000FB699B687A691A61FB699B68BA69126977
:10CFF0005A62FB699B68BA6952699A62BB6843F4DA
:10D0000025431946F86900F074F9002318462037C3
:10D01000BD4680BD80B584B000AF78607B68FB60A2
:10D02000F86800F071F9B860F86800F0C9FABB68F8
:10D0300043F425431946F86800F05BF900231846CD
:10D040001037BD4680BD80B586B000AF78603960CE
:10D050007B687B61786900F057F938613B68013B78
:10D06000FB607B699B68FA689A667B695B681B78E2
:10D07000002B0BD13B685B08013BBB607B699B6865
:10D08000BA685A657B699B68BA689A657B699B68D0
:10D09000DB6AC3F30003DBB2002B0DD17B699B6815
:10D0A000FA685A667B699B684FF4AA021A647B6926
:10D0B0009B687A69D268DA603B6943F42543194674
:10D0C000786900F016F9002318461837BD4680BD70
:10D0D00080B58CB000AFF860B9607A607B6803F00F
:10D0E00003037B62FB683B624FF0FF337B610023ED
:10D0F000BB6107F114027B68B968386A00F0AFFAC7
:10D10000386A00F001F9F8613B6A9B681B6BFB62AF
:10D11000BB69002B29D10223BB627B6803F00803A3
:10D12000002B01D00423BB627B6803F00203002BB9
:10D1300011D03B6A99687A69BB6A12339B000B4431
:10D140005A603B6A9968BB6A01337A6912339B0063
:10D150000B445A6009E03B6A99687A6ABB6A1344D7
:10D160007A6912339B000B445A607B6A012B08D00A
:10D17000FB6A23F44033FB62BB691B04FA6A134366
:10D18000FB627B68022B09D1BB69002B06D007F13B
:10D1900014020123B968386A00F061FA7B6A002B37
:10D1A00008D0FB6A23F04073FB62BB691B06FA6A76
:10D1B0001343FB623B6A9B68FA6A1A63FB6943F498
:10D1C00025431946386A00F094F800231846303792
:10D1D000BD4680BD80B586B000AF786039607B68A1
:10D1E0007B617B699B685B6E3B613B690133FB60E4
:10D1F0003B68FA689A60786900F0A6FA02463B68D4
:10D200005A603B6801221A70002318461837BD4641
:10D2100080BD80B485B000AF786039607B68FB600A
:10D22000FB689B68DB6AC3F30003DBB21A463B680A
:10D230001A71FB689B689A6C3B681A600023184659
:10D240001437BD465DF8047B704780B487B000AFEB
:10D25000F860B9607A603B60FB687B617B69BA68A3
:10D260005A617B697A68DA617B693A689A6100235E
:10D2700018461C37BD465DF8047B704780B586B004
:10D2800000AF78607B687B6100233B617B695B68F2
:10D29000DB69FB607B695B6893F91230184600F02C
:10D2A000B0F9FB6893F92430184600F0AAF9FB683E
:10D2B00093F92530184600F0A4F97B6900221A6022
:10D2C000786900F021F8B8607B699B687A69D26858
:10D2D0009A607B699B6800225A63BB6843F42543CC
:10D2E0001946786900F005F83B6918461837BD46BD
:10D2F00080BD80B483B000AF7860396000BF0C3768
:10D30000BD465DF8047B704780B483B000AF7860A1
:10D31000002318460C37BD465DF8047B7047FFFFBD
:10D3200080B485B000AF786039607B683A685A6035
:10D330007B6801221A747B68DB6803F00F03002B03
:10D3400002D07B6800221A743B681B7C1A460C4B87
:10D3500013441B02FB60FA687B689A603B685A6959
:10D360007B685A613B689A697B68DA617B68002256
:10D370009A6100BF1437BD465DF8047B704700BF5B
:10D380009016400080B592B000AF786039603B687D
:10D39000DB693B640023FB63EFF310837B617B69F4
:10D3A000FB630123BB61BB6983F3108800BF834B20
:10D3B0001A693B681B7C19464FF00043CB40DB43A6
:10D3C0007E4913400B617D4B1B69FB6BFB61FB6965
:10D3D00083F3108800BF7B689B684FF425421A6076
:10D3E0007B689B680022DA627B689B680022DA63B4
:10D3F0007B689B6800229A643B681B7ABB63BB6BAB
:10D40000DB057B633B685B68013B3B637B689B6838
:10D410007A6BDA62786800F0D3F87B689B683A6CC4
:10D420009269DA617B689B683A6CD2691A627B68A0
:10D430009B683A6B9A667B689B683A6B5A660023D6
:10D44000FB623B6CDB6A7B644FF0FF33FB600023C5
:10D450003B613B681B78002B06D13B685B685B082F
:10D46000013BBB62BB6AFB603B681B78012B07D9A1
:10D470003B68D96807F10C020023786800F0EFF8E8
:10D480007B689B68FA685A657B689B68FA689A654E
:10D490003B691B04FA6A1343FB623B691B06FA6A89
:10D4A0001343FB623B6CDB6A002B1ED13B6C1B7889
:10D4B000002B0AD03B6C5B781946386800F05BF9AA
:10D4C00078627A6C7B6A13437B643B6C9B78002B9D
:10D4D0000BD03B6CDB781946386800F04CF93862A9
:10D4E0003B6A1B047A6C13437B647B689B68002255
:10D4F0009A637B689B680022C3F888203B6CDB6AD8
:10D50000002B0FD13B6C93F820305B031A467B6CE9
:10D5100013437B643B6C93F821305B071A467B6CAA
:10D5200013437B647B689B684FF4AA021A643B68D0
:10D530001B78012B07D17B689B680022DA647B682B
:10D540009B6800221A657B689B687A68D268DA60FB
:10D550007B689B687A6C5A637B689B68FA6A42F0C6
:10D5600003021A637B689B68FA6A42F001021A633D
:10D570004AF201517868FFF7BCFE3B6893F912004C
:10D580003B685B7C7A68194600F053F83B6C93F972
:10D5900024003B6C93F822307A68194600F049F871
:10D5A0003B6C93F925003B6C93F823307A6819465D
:10D5B00000F03FF800BF4837BD4680BD004008403E
:10D5C00080B483B000AF78607B689B684FF0004206
:10D5D0001A617B689B684FF000425A617B689B68C8
:10D5E0004FF000429A617B689B6800225A627B6818
:10D5F0009B6800229A6200BF0C37BD465DF8047B31
:10D60000704780B582B000AF0346FB7197F90730D1
:10D61000002B0ADB97F907301846FFF71FFC97F934
:10D62000073000211846FFF77FFB00BF0837BD46D3
:10D6300080BD80B584B000AF0346B9607A60FB73EB
:10D6400097F90F30002B06DB97F90F307A68B9682D
:10D650001846FFF727FC00BF1037BD4680BD80B4D9
:10D660008BB000AFF860B9607A603B60FB689B6884
:10D670005B6EFB61FB690133FB61BB68002B0CBF78
:10D6800001230023FB76BA68FB699A422CBF012371
:10D690000023BB76FB7E002B02D1BB7E002B44D047
:10D6A0003B6803F00103002B07D1FB689B685B6BB1
:10D6B000C3F30403DBB27B6206E0FB689B685B6B31
:10D6C000C3F30443DBB27B62FB685B681B78032B0C
:10D6D00009D97B6A03F01003002B0CBF0123002340
:10D6E00087F8233008E07B6A03F00C03042B0CBF9F
:10D6F0000123002387F82330FB7E002B06D097F808
:10D70000233083F00103DBB2002B06D1BB7E002B5C
:10D7100007D097F82330002B03D07B6802225A6091
:10D720000CE07B6803225A6008E0BB687B617B6980
:10D73000013B7B617B687A691A6000BF00BF2C37B0
:10D74000BD465DF8047B704780B584B000AF78605B
:10D750007B689B68DB6AC3F3C353DBB2FB730020B7
:10D76000FFF7BCFAB860FB7BBA6822FA03F31846ED
:10D770001037BD4680BD80B485B000AF78600B46E1
:10D78000FB70FB789A01FB781B01134343F4807311
:10D79000BB600923FB607B681B78022B04D0FB78FD
:10D7A000002B01D10623FB60BA68FB681343BB6002
:10D7B000BB6818461437BD465DF8047B7047FFFF11
:10D7C00080B487B000AF0346FB710E4B1B6A7B61D0
:10D7D0007B691B0E03F007033B61FB797A6922FA30
:10D7E00003F303F00703FB60074B1A683B699A4099
:10D7F000FB6822FA03F318461C37BD465DF8047B2C
:10D80000704700BF00E00140BC11002080B483B02D
:10D8100000AF03463960FB7197F9073004493A6855
:10D8200041F8232000BF0C37BD465DF8047B7047EC
:10D830003410002080B483B000AF0346FB71084968
:10D8400097F9073003F1C00251F822306FF310430B
:10D8500041F8223000BF0C37BD465DF8047B7047AD
:10D860000060004080B584B000AF0346FB7197F9BB
:10D8700007301846FFF7DEFF97F90730FB60FB68BB
:10D8800003F01F02064997F907305B09012000FAEF
:10D8900002F2603341F8232000BF1037BD4680BD3F
:10D8A00000E100E080B584B000AF0346B9607A6063
:10D8B000FB73BB68DAB2094997F90F301201D2B293
:10D8C0000B4483F8002397F90F3079681846FFF767
:10D8D0009DFF00BF1037BD4680BD00BF00E100E0E6
:10D8E00080B485B000AF0346FB7197F90730FB6049
:10D8F000FB6803F01F02074997F907305B09012015
:10D9000000FA02F241F8232000BF1437BD465DF84B
:10D91000047B704700E100E080B582B000AF0346B1
:10D92000FB7197F907301846FFF79CFF97F907300E
:10D930001846FFF7D5FF00BF0837BD4680BD80B54C
:10D9400084B000AF0346B9607A60FB7397F90F307B
:10D950007A68B9681846FFF7A5FF97F90F3018469F
:10D96000FFF7DAFF00BF1037BD4680BD80B586B037
:10D9700000AF786039607B687B613B685B693B61C5
:10D980007B693A685A603B68DA687B699A613B68F0
:10D990001A697B691A627B690022DA614FF40073AD
:10D9A000FB603B681B881A46FB6802FB03F303F12C
:10D9B000804303F5B8131A467B691A6039687869A1
:10D9C00000F0B4F83B6893F906003B681B7A7A696B
:10D9D000194600F0F1FA3B6893F907003B685B7A5F
:10D9E0007A69194600F0E8FA3B6993F906003B6949
:10D9F0001B7A7A69194600F0DFFA3B6993F9070050
:10DA00003B695B7A7A69194600F0D6FA7B69002295
:10DA10001A617B69034A9A60002318461837BD468D
:10DA200080BD00BF4344415280B586B000AF7860EE
:10DA300039603B687B617B683B610023FB607969EF
:10DA4000386900F0C7F97B691A683B691A61FB689D
:10DA500018461837BD4680BD80B485B000AF7860E9
:10DA60007B68FB60FB681B68FA68928A1A80002357
:10DA700018461437BD465DF8047B704780B485B006
:10DA800000AF78607B68FB60FB681B6800221A802F
:10DA9000002318461437BD465DF8047B704780B4F8
:10DAA00087B000AFF8600B467A60FB72FB687B6161
:10DAB0007B691B6897F90B20103233F812309AB249
:10DAC0007B681A80002318461C37BD465DF8047B2E
:10DAD000704780B588B000AFF8600B467A60FB7283
:10DAE00000237B820023FB6107F1120297F90B30C0
:10DAF0001946F868FFF7D3FFB861BB69002B01D066
:10DB0000BB690FE07B8AFB61FB687B617B695B68BB
:10DB10001B79012B02D1FB691B04FB617B68FA694D
:10DB20001A60002318462037BD4680BD80B48DB0F2
:10DB300000AF786039603B685B693B623B689B780B
:10DB40005B03FB62FB6A43F04003FB623B685B796B
:10DB50001B02FA6A1343FB623B6ADB78002B04D09A
:10DB6000FB6A43F42073FB6207E03B685B79002BA0
:10DB700003D1FB6A43F40043FB62FB6A9AB27B6801
:10DB80009A820023BB623B685B79022B06D13B6A19
:10DB9000DB781A46354B53F82230BB620023FB6119
:10DBA0003B68DB785B00FA691343FB613B681B79D8
:10DBB000DB03FA691343FB613B6A5B785B01FA693B
:10DBC0001343FB613B6A1B78BB6100237B61EFF36E
:10DBD0001083BB60BB687B610123FB60FB6883F340
:10DBE000108800BF224BDA683B681B88C3F1100322
:10DBF000012101FA03F3DB431D491340CB601C4BA9
:10DC0000DB687B693B613B6983F3108800BFFB6A7B
:10DC100099B27B681A6847F6FF530B409BB213809A
:10DC20007B681B68BA6A92B21A827B681B68FA69C1
:10DC300092B2DA817B681B68BA69D2B21A73002388
:10DC400087F827303B6A5B79012B02D1012387F8E3
:10DC500027307B681B6897F8272083F8D02000BF07
:10DC60003437BD465DF8047B704700BF2CC101000E
:10DC70000040084080B58AB000AF7860396000236A
:10DC8000FB6007F10C03184600F07CF83B681A684B
:10DC90003B685B6813433B6200237B623B6A03F093
:10DCA0008053002B3CD00023FB61EFF310833B61DA
:10DCB0003B69FB6101237B617B6983F3108800BFB3
:10DCC0002E4BDB682D4A23F48003D3602B4BDB689B
:10DCD000FB69BB61BB6983F3108800BF284B9022AE
:10DCE0001A70FA687B681B68D2B283F8DE203B6842
:10DCF0001B6803F08053002B04D07B6A43F48073CD
:10DD00007B6203E07B6A43F480637B623B689B68D1
:10DD100003F08053002B03D07B6A43F001037B6246
:10DD20003B6A03F00053002B1ED0FA687B681B6827
:10DD3000D2B283F8DF203B681B6803F00053002B4E
:10DD400004D07B6A43F400737B6203E07B6A43F494
:10DD500000637B623B689B6803F00053002B03D099
:10DD60007B6A43F002037B627B681B687A6A92B22B
:10DD70005A8200BF2837BD4680BD00BF0040084022
:10DD800000300F4080B584B000AF78600420FFF70A
:10DD900017FDB860BB680D4AA2FB03239B0941F243
:10DDA000360202FB03F30A4AA2FB03239B0C013356
:10DDB000FB60FB68062B01D80723FB607B68FA68D1
:10DDC0001A6000BF1037BD4680BD00BFD34D621042
:10DDD00083DE1B4380B58CB000AF786039603B6850
:10DDE0001B6823F04053BB627B685B685B697B62A6
:10DDF0003B685B6823F040533B623B689B6823F0C1
:10DE00004053FB617B681B68BA6A92B29A807B6858
:10DE10001B683A6A92B29A827B681B68FA6992B26E
:10DE20001A81BB6A1A0C7B681B6892B2DA803B6A63
:10DE30001A0C7B681B6892B2DA82FB691A0C7B6849
:10DE40001B6892B25A813B681A683B685B6813434F
:10DE5000BB61BB6903F04053002B03D0396878687D
:10DE6000FFF708FF3B68DB687B610023FB857B696C
:10DE7000002B66D07B691B89FB857B691B8903F4BA
:10DE80000063002B41D07B681B687A691289A3F874
:10DE900090207B681B687A695289A3F89C207B6874
:10DEA0001B687A699289A3F89E207B691A687B684F
:10DEB0001B6892B2A3F894207B691B681B011A0DA2
:10DEC0007B681B6892B2A3F896207B691B681A0FC7
:10DED0007B681B68D2B283F892207B695A687B68A2
:10DEE0001B6892B2A3F898207B695B681B011A0D2E
:10DEF0007B681B6892B2A3F89A207B695B681A0F53
:10DF00007B681B68D2B283F893207B691B8903F47A
:10DF10000073002B15D07B69997C7B69DA7C7B6868
:10DF20001B680A43D2B283F8A6207B681B687A6913
:10DF3000D289A3F8A8207B681B687A69128AA3F8A3
:10DF4000AA207B681B68FA8DA3F890207B681B6869
:10DF50003A68128AA3F880207B6ADB78002B22D0F3
:10DF60007B681B681B889BB23B613B6923F01F03E6
:10DF7000BA6AFA60FA68002A01D1202203E0FA683E
:10DF8000B2FA82F2D2B29B1A1F333B617B681B68E4
:10DF90003A6992B21A807B689A8A3B699BB21343B2
:10DFA0009AB27B689A827B68024ADA6000BF303797
:10DFB000BD4680BD4344415280B582B000AF0346A8
:10DFC0003A60FB710B46BB7197F90730002B06DBFB
:10DFD000B97997F907303A681846FFF7B0FC00BFE7
:10DFE0000837BD4680BDFFFF80B400AF0C4B012257
:10DFF000A3F8042100BF0A4BB3F804319BB2002BF5
:10E00000F9D1074B0122A3F80021064B01229A60A7
:10E01000044B01221A6000BFBD465DF8047B7047C7
:10E0200000C001400070004080B483B000AF0B4BD3
:10E0300093F82630DBB27B60094A7B6852F82330C4
:10E04000064A126AC2F30262D2B2D340054A136092
:10E0500000BF0C37BD465DF8047B704700E001400F
:10E060006C070020BC11002080B500AF074B0322D5
:10E0700083F81C21064B052283F82620044B054A11
:10E080001A62FFF7D1FF00BF80BD00BF00C0014092
:10E0900000E001402112012080B500AF0B4B0C4A7B
:10E0A0001A600A4B0B4A5A60084B4FF400429A60C0
:10E0B000064B094ADA60054B4FF400421A61034BE4
:10E0C000064A5A61FFF7B0FF00BF80BD6C07002011
:10E0D000002D310100127A0000366E0100C2EB0BF8
:10E0E00080B500AF264B4AF20352A3F8FE23FFF798
:10E0F0007BFFFFF7D1FF224B002283F81324204B34
:10E10000092283F8A2201E4B93F88034DBB2002B47
:10E1100007D01B4B002283F88124194B002283F87F
:10E120008024174B002283F8362000BF144B93F84D
:10E130003C30C3F30003DBB2012BF7D1104B42F2AA
:10E1400011721A850E4B002283F82A2000BF0C4B57
:10E1500093F83C30C3F34013DBB2012BF7D1FFF748
:10E1600083FF074B012283F83020054B012283F8FF
:10E170005220034B4FF42542A3F8FE2300BF80BD7D
:10E1800000E0014080B483B000AF786000BF0C377E
:10E19000BD465DF8047B704780B485B000AFF86081
:10E1A000B9607A603B6000BEFEE7FFFF80B582B0D9
:10E1B00000AF0346FB71FB79074A52F82330002B6E
:10E1C00006D0FB79044A52F82330FA791046984772
:10E1D00000BF0837BD4680BDF00F002080B582B07B
:10E1E00000AF104BB3F84031BB800023FB710EE051
:10E1F000BA88FB7922FA03F303F00103002B03D062
:10E20000FB791846FFF7D2FFFB790133FB71FB79ED
:10E210000F2BEDD9034ABB88A2F8303100BF083775
:10E22000BD4680BD0060004080B58AB000AF0320CD
:10E2300000F0CCF8384B6FF0FF029A643B1D0C22C3
:10E24000FF21184605F052FB00237B6223E0334A8E
:10E250007B6A32F81330002B1AD07B6A5B097B6132
:10E260007B6A03F01F033B617B699B0007F1280277
:10E27000134453F8242C01213B6901FA03F3DB43D7
:10E280001A407B699B0007F128010B4443F8242CBA
:10E290007B6A01337B627B6A5F2BD8D9204BBB61E1
:10E2A00000233B621AE03B6A9B00BA691A443B6A4E
:10E2B0009B0007F128010B4453F8243C13601949D3
:10E2C0003B6A9B0007F12802134453F8242C3B6A55
:10E2D000A03341F823203B6A01333B623B6A022BA7
:10E2E000E1D9032000F022F80023FB610CE00B4A87
:10E2F000FB6932F813300C4A1946FB69C03342F807
:10E300002310FB690133FB61FB695F2BEFD900BF71
:10E3100000BF2837BD4680BD00800040FCBF010023
:10E320007080004000E100E00060004080B487B0F1
:10E3300000AF0346FB7100237B61EFF31083FB60AA
:10E34000FB687B6101233B613B6983F3108800BF5D
:10E35000FB791A4A32F813309BB2002B09D0FB79B3
:10E36000164A32F8132092B2013A91B2134A22F8B7
:10E370001310FB79114A32F813309BB2002B11D1E4
:10E380000F4BB3F8FE339AB20E4B13439AB2FB799C
:10E390000D4931F81330DB439BB2094913409BB25E
:10E3A000A1F8FE337B69BB60BB6883F3108800BFB4
:10E3B00000BF1C37BD465DF8047B7047B4110020D8
:10E3C00000E0014000A5FFFF38C1010080B487B024
:10E3D00000AF0346FB7100237B61EFF31083FB600A
:10E3E000FB687B6101233B613B6983F3108800BFBD
:10E3F000FB79164A32F813309BB2002B0FD1144B25
:10E40000B3F8FE339AB2FB79124931F81330134353
:10E410009AB20F49104B13439BB2A1F8FE33FB791C
:10E420000A4A32F8132092B2013291B2074A22F816
:10E4300013107B69BB60BB6883F3108800BF00BF0B
:10E440001C37BD465DF8047B704700BFB411002047
:10E4500000E0014038C1010000A5FFFF80B500AF1A
:10E4600000F00CF8F2F726FCFEE780B400AF00BE27
:10E4700000BFBD465DF8047B7047FFFF80B584B0E8
:10E4800000AF2F4B4FF47002C3F888202C4B2D4A5D
:10E490009A60002002F0D8FCFFF722FE012002F073
:10E4A000D3FC294B3B603B6883F30A8800BF274AB3
:10E4B000274BD31A1A460021254805F017FA254A9A
:10E4C000254BD31A1A462549234805F01DF9244A3D
:10E4D000244BD31A9B107B600023FB6007E0214A8A
:10E4E000FB6852F823309847FB680133FB60FA68F9
:10E4F0007B689A42F3DBFFF797FD0320FFF766FF87
:10E500000023BB6009E0184ABB6808334FF6FF716F
:10E5100022F81310BB680133BB60BB68082BF2D92B
:10E520000320FFF703FF022002F08EFCFFF77CFEC2
:10E530000020FFF727FE00BF1037BD4680BD00BF9B
:10E5400000ED00E000000000901900208C19002070
:10E55000880700206C07002000000020D8FE010082
:10E560006807002060070020000D084080B400AF5D
:10E5700000BFBD465DF8047B7047FFFF80B586B0E5
:10E5800002AF0346FB7100233B73FB797B73074BA0
:10E59000186807F10C030222009200223C21FDF7CB
:10E5A000A5F800BF1037BD4680BD00BFC0110020D8
:10E5B00080B586B002AF786039600023FB6013E05D
:10E5C00040233B72FB687A6813441B787B720B4BC9
:10E5D000186807F108030222009200223C21FDF78F
:10E5E00085F8FB680133FB60FB683A689A42E7D81C
:10E5F00000BF00BF1037BD4680BD00BFC011002066
:10E6000080B500AF3C48F2F7D0FB03463B4A1360AD
:10E610003A4B1B68002B0AD13948F4F7D1F9364937
:10E620003848F4F7CDF93848F4F7CAF963E0FFF752
:10E630009DFF6420F5F79EFE002000F0B3FC202033
:10E64000FFF79CFF0020FFF799FFB020FFF796FF30
:10E65000C820FFF793FF0020FFF790FF1020FFF77F
:10E660008DFF4020FFF78AFFFF2000F087FCA120EC
:10E67000FFF784FFA620FFF781FFA820FFF77EFFAA
:10E680003F20FFF77BFFA420FFF778FFD320FFF7A1
:10E6900075FF0020FFF772FFD520FFF76FFFF02016
:10E6A000FFF76CFFD920FFF769FF2220FFF766FF15
:10E6B000DA20FFF763FF1220FFF760FFDB20FFF790
:10E6C0005DFF2020FFF75AFF8D20FFF757FF142032
:10E6D000FFF754FF012000F065FC002000F018F85F
:10E6E00000F03AF8094B00221A80084B00225A80A9
:10E6F000064B01225A7180BD40C10100C0110020AB
:10E7000044C101005CC1010074C10100C4150020B6
:10E7100080B485B000AF0346FB710023FB600DE0C1
:10E72000FB79002B01D1002100E0FF21094AFB68A1
:10E7300013440A461A70FB680133FB60FB68B3F5AB
:10E74000806FEDD300BF00BF1437BD465DF8047B7A
:10E75000704700BFC411002080B582B000AF002315
:10E76000FB7116E0FB79503BDBB21846FFF706FF62
:10E770000020FFF703FF1020FFF700FFFB79DB010C
:10E78000084A134480211846FFF712FFFB79013332
:10E79000FB71FB79072BE5D900BF00BF0837BD46E9
:10E7A00080BD00BFC411002080B483B000AF034619
:10E7B000FB710B46BB7113467B7197F90730002B39
:10E7C00048DBBB793F2B45D8254B1B79002B06D066
:10E7D0007B79002B0CBF01230023DBB27B717B799B
:10E7E000012B1AD1FA79BB79DB08D8B20346DB01D9
:10E7F00013441C4AD35C5AB2BB7903F007030121CE
:10E8000001FA03F35BB2134359B2FA790346DB0111
:10E810001344C9B2134AD1541DE0FA79BB79DB081D
:10E82000D8B20346DB0113440E4AD35C5AB2BB791B
:10E8300003F00703012101FA03F35BB2DB435BB290
:10E84000134059B2FA790346DB011344C9B2054AB1
:10E85000D15400E000BF0C37BD465DF8047B704723
:10E86000C4150020C411002090B589B000AF044643
:10E87000381D80E806001A462346FB731346BB7317
:10E88000FB7B1F2B02D9FB7B7E2B01D900236DE084
:10E89000384B1B881A463B791344802B06DC354BDA
:10E8A0005B881A467B791344402B01DD00235DE031
:10E8B0000023FB614CE0BA68FB7B203B797901FBCC
:10E8C00003F31946FB690B445B0013441B887B610F
:10E8D0000023BB6134E07A69BB6902FA03F303F4F5
:10E8E0000043002B12D0234B1B88DAB2BB69DBB28A
:10E8F0001344D8B21F4B5B88DAB2FB69DBB2134416
:10E90000DBB2BA7B1946FFF74FFF16E0194B1B88A5
:10E91000DAB2BB69DBB21344D8B2164B5B88DAB209
:10E92000FB69DBB21344D9B2BB7B002B0CBF0123C4
:10E930000023DBB21A46FFF737FFBB690133BB6127
:10E940003B791A46BB699342C5D3FB690133FB612E
:10E950007B791A46FB699342ADD3064B1A883B7903
:10E960009BB213449AB2034B1A80FB7B18462437A0
:10E97000BD4690BDC415002080B584B000AFF860DE
:10E98000381D80E80600FB7012E0FB681878FB7801
:10E990003A1D06CAFFF768FF03461A46FB681B7854
:10E9A0009A4202D0FB681B7808E0FB680133FB60E9
:10E9B000FB681B78002BE8D1FB681B7818461037E2
:10E9C000BD4680BD80B483B000AF03460A46FB71EC
:10E9D0001346BB71FB799AB2054B1A80BB799AB288
:10E9E000034B5A8000BF0C37BD465DF8047B70476F
:10E9F000C415002090B589B000AF04460846114602
:10EA00001A462346FB710346BB710B467B711346C6
:10EA10003B717A79FB79D31A002BB8BF5B42BB619B
:10EA20003A79BB79D31A002BB8BF5B427B61FA7984
:10EA30007B799A4201D2012301E04FF0FF333B6121
:10EA4000BA793B799A4201D2012301E04FF0FF33BA
:10EA5000FB60BA697B69D31AFB6197F8302039797A
:10EA60007B791846FFF7A0FE24E097F83020B979AB
:10EA7000FB791846FFF798FEFB695B00BB607B697A
:10EA80005B42BA689A4208DDFA697B69D31AFB6176
:10EA90003B69DAB2FB791344FB71BA68BB699A42ED
:10EAA00008DAFA69BB691344FB61FB68DAB2BB7927
:10EAB0001344BB71FA797B799A42D6D1BA793B7902
:10EAC0009A42D2D100BF2437BD4690BD90B587B0E1
:10EAD00002AF78600B467B8013467B707B68002B0F
:10EAE0002AD00123FB8122E0FB8903F10043013B93
:10EAF0005B007A6813441878FB8903F10043013BFB
:10EB00005B007A6813445978FB895B007A68134488
:10EB10001C78FB895B007A6813445A787B780093F1
:10EB200013462246FFF766FFFB890133FB81FA8912
:10EB30007B889A42D8D300BF00BF1437BD4690BD32
:10EB400080B582B000AF87ED010A786808F028FE32
:10EB50000EA3D3E9002308F07BFE02460B461046C5
:10EB600019464FF00002084B08F09CFF02460B4686
:10EB70001046194609F064F9034607EE903AB0EEE4
:10EB8000670A0837BD4680BD008066401F85EB518F
:10EB9000B81E094080B485B000AF0346FB80FB88F7
:10EBA000B3F5B47F02D8FB88FB8113E0FB88DA0859
:10EBB0000C49A1FB021292084FF4B47101FB02F25E
:10EBC0009B1AFB81FB88002B01D0FB8801E04FF4EE
:10EBD000B473FB81FB8918461437BD465DF8047B8E
:10EBE000704700BF176CC116B0B58AB002AF0446BB
:10EBF000084611461A462346FB710346BB710B4675
:10EC00007B7113467B800023FB6100237B613B8E7D
:10EC10001846FFF7BFFF03467B617B881846FFF766
:10EC2000B9FF0346744A82FB03129210DB17D31A12
:10EC3000FB617A691346DB0013449B00DB086F4AD3
:10EC4000A2FB03239B083B617B6907EE903AF8EE39
:10EC5000676A3B6907EE903AB8EE677AC6EE877A44
:10EC6000C7ED037ABEE0FB6907EE903AB8EE677A2B
:10EC7000D7ED037A67EE277AB0EE670AFFF760FFF9
:10EC800087ED060AB86908F08BFD02460B4643EC97
:10EC9000102B03F03DFB55EC104B7B79184608F028
:10ECA0006DFD02460B462046294608F0D1FD02467E
:10ECB0000B461046194609F07BF803465BB2DAB200
:10ECC000FB791344FB72B86908F06AFD02460B46F3
:10ECD00043EC102B03F0C8FA55EC104B7B79184627
:10ECE00008F04CFD02460B462046294608F0B0FDD0
:10ECF00002460B461046194609F05AF803465BB225
:10ED0000DAB2BB791344BB72FB690133FB61FA6968
:10ED10003B699A420FD0FB6907EE903AB8EE677AEA
:10ED2000D7ED037A67EE277AB0EE670AFFF708FFA0
:10ED300087ED060A0AE07B6907EE903AF8EE677AFB
:10ED4000B0EE670AFFF7FCFE87ED060AB86908F027
:10ED500027FD02460B4643EC102B03F0D9FA55EC85
:10ED6000104B7B79184608F009FD02460B462046F9
:10ED7000294608F06DFD02460B461046194609F07B
:10ED800017F803465BB2DAB2FB7913447B72B869B9
:10ED900008F006FD02460B4643EC102B03F064FA24
:10EDA00055EC104B7B79184608F0E8FC02460B4600
:10EDB0002046294608F04CFD02460B4610461946EF
:10EDC00008F0F6FF03465BB2DAB2BB7913443B723C
:10EDD0003C7A7A7AB97AF87A97F8343000932346F5
:10EDE000FFF708FEFA693B699A42FFF43CAF00BFA7
:10EDF0002037BD46B0BD00BF67666666176CC1169A
:10EE000090B587B000AF0446084611461A4623461F
:10EE1000FB710346BB710B467B7113463B717B79DB
:10EE20005B427B6100233B617B79C3F101035B00A3
:10EE3000FB6097F90730002B65DBBB793F2B62D86D
:10EE40007B69DBB2FA79D31AD8B23B69DAB2BB7903
:10EE50001344DBB23A791946FFF7A6FC7B69DAB2B4
:10EE6000FB791344D8B23B69DAB2BB791344DBB205
:10EE70003A791946FFF798FC7B69DAB2FB791344BB
:10EE8000D8B23B69DBB2BA79D31ADBB23A79194608
:10EE9000FFF78AFC7B69DBB2FA79D31AD8B23B69F7
:10EEA000DBB2BA79D31ADBB23A791946FFF77CFCA8
:10EEB000FB68BB60BA683B699A4213DC3B6901336B
:10EEC0003B613B695B000133FA681344FB607B697B
:10EED0005B423A699A4205D1BA687B699A4201DC81
:10EEE0000023BB60BA687B699A4208DD7B69013305
:10EEF0007B617B695B000133FA681344FB607B69CB
:10EF0000002B9DDD00E000BF1C37BD4690BD90B5D5
:10EF100085B002AF0446084611461A462346FB71E7
:10EF20000346BB710B467B7113463B71BC797A7902
:10EF3000B979F8793B7E00932346FFF75BFD3C7976
:10EF40007A79B97978793B7E00932346FFF752FDB1
:10EF50003C79FA79397978793B7E00932346FFF73B
:10EF600049FDBC79FA793979F8793B7E00932346DB
:10EF7000FFF740FD00BF0C37BD4690BD80B584B0A3
:10EF800000AF0346FB718123FB73FB7B1846FFF741
:10EF9000F5FAFB791846FFF7F1FA00BF1037BD46C6
:10EFA00080BDFFFF80B584B000AF0346FB71FB79E5
:10EFB000002B05D0AF23FB73084B01229A7104E0AC
:10EFC000AE23FB73054B00229A71FB7B1846FFF7BB
:10EFD000D5FA00BF1037BD4680BD00BFC415002064
:10EFE00080B584B000AF0020FFF792FBF1F788FDF9
:10EFF000B860BB687B600023FB730023BB73B97BE5
:10F00000FB7B00221846FFF7CFFBBB7B002B06D112
:10F01000FB7B7E2B03D8FB7B0133FB7316E0FB7B72
:10F020007F2B06D1BB7B3E2B03D8BB7B0133BB734D
:10F030000CE0BB7B3F2B06D1FB7B002B03D0FB7B83
:10F04000013BFB7302E0BB7B013BBB73B97BFB7BEA
:10F0500001221846FFF7A8FBFFF77EFB0520F5F716
:10F0600089F9F1F74DFD78607A68BB68D31AB3F57A
:10F07000FA5FC4D34FF47A70F5F77CF900BF10370C
:10F08000BD4680BD80B500AF0020FFF741FB0021E9
:10F090000220FFF797FC144A012306CA1348FFF722
:10F0A0006BFC1A210220FFF78DFC114A012306CACE
:10F0B0001048FFF761FC2C210220FFF783FC0E4A69
:10F0C000012306CA0D48FFF757FC36210220FFF73F
:10F0D00079FC0B4A012306CA0A48FFF74DFCFFF7EB
:10F0E0003BFB00BF80BD00BFC800002080EF0100D7
:10F0F000C00000208CEF0100B800002098EF010054
:10F10000B0000020A4EF0100B0B598B000AF01201E
:10F11000FFF7FEFAF1F7F4FCB865BB6D7B650023E1
:10F12000FB653E4A07F1440307CA83E80700002154
:10F130000220FFF747FC3A4A002306CA3948FFF786
:10F140001BFC12210220FFF73DFC354A07F1440069
:10F15000002306CAFFF710FCFFF7FEFA97F84430C9
:10F1600087F8533007F14403013307F144000A22C2
:10F17000194604F03FFB97F8533087F84E30FB6D8B
:10F180000133FB65F1F7BCFC78657A6DBB6DD31A72
:10F1900041F287329342D4D94FF47A70F5F7EAF806
:10F1A000FB6D07EE903AF8EEE77A17EE900A08F05A
:10F1B000F7FA04460D467A6DBB6DD31A184608F06F
:10F1C000CDFA4FF00002184B08F06CFC02460B46DB
:10F1D0002046294608F066FC02460B4610461946B2
:10F1E00008F0E6FD0346FB65381DFB6D0F4A402124
:10F1F00004F0CEFB0120FFF78BFA12210220FFF76B
:10F20000E1FB074A381D002306CAFFF7B5FBFFF7ED
:10F21000A3FA00BF6037BD46B0BD00BFC4EF010018
:10F22000C0000020B0EF010000408F40BCEF0100A3
:10F2300080B582B002AF012300933F237F220121DA
:10F240000120FFF7D7FB012300933F230122012177
:10F250007F20FFF7CFFBFFF77FFA00BFBD4680BDE1
:10F2600090B585B002AF00237B6028E07B68DBB2FD
:10F270001A4692001344DBB20133D8B27B68DBB28A
:10F280001A4692001344DBB20133D9B27B68DBB279
:10F290001A4692001344DBB2C3F17F03DAB27B68F3
:10F2A000DBB21C46A4002344DBB2C3F13F03DBB254
:10F2B00001240094FFF72BFE7B6801337B607B68A1
:10F2C000042BD3D9FFF748FA00BF0C37BD4690BDD9
:10F2D00080B582B000AF00237B6010E07B68DBB2BA
:10F2E0001A46920013449B00DBB21E33D8B20123AE
:10F2F0000A221E21FFF784FD7B6801337B607B6857
:10F30000042BEBD9FFF728FA00BF0837BD4680BDB4
:10F3100080B582B002AF012301934FF4877300934D
:10F3200014231E221E211E20FFF75EFCFFF714FA95
:10F3300000BFBD4680BDFFFF90B585B000AF084B54
:10F340003C460FCB07C423803B46012207211846C9
:10F35000FFF7BCFBFFF700FA00BF1437BD4690BDB6
:10F36000D0EF010080B500AFFFF74AF9FFF7CCFE00
:10F3700040F6B830F4F7FEFFFFF732FEFFF782FEEB
:10F3800040F6B830F4F7F6FF0020FFF7C1F9FFF7B9
:10F3900067FFFFF74DFF40F6B830F4F7EBFF0020B2
:10F3A000FFF7B6F9FFF7C8FF40F6B830F4F7E2FF11
:10F3B0000020FFF7ADF9FFF7ABFF40F6B830F4F7E8
:10F3C000D9FF0020FFF7A4F9FFF782FF40F6B8301D
:10F3D000F4F7D0FF00BF80BD80B584B000AF786087
:10F3E0000023FB7305E0FB7B0133FB73012001F07D
:10F3F000CFFC7868FAF77AFE0346002B02D0FB7B3D
:10F40000632BF0D90023FB7305E0FB7B0133FB7317
:10F41000012001F0BDFC7868FAF768FE0346002B76
:10F4200002D1FB7B632BF0D9282001F0B1FC786876
:10F43000FAF75CFE0346DBB218461037BD4680BDC6
:10F4400080B584B000AF78600023BB730023FB73EA
:10F450000DE0BB7B5B00BB737868FFF7BDFF034625
:10F460001A46BB7B1343BB73FB7B0133FB73FB7BF4
:10F47000072BEED9BB7B18461037BD4680BDFFFF7A
:10F4800090B585B000AF78607B68002B04D19B22DB
:10F4900049494A48F3F7ECFB0023BB7300237B7315
:10F4A0007B680533052200211846F2F7EDFC7B68E6
:10F4B0001B6800211846FAF7D9FD7B681B680021FC
:10F4C0001846FAF7F3FD7B681B79002B03D07B68A5
:10F4D0001B79012B03D11420F4F74CFF02E001202B
:10F4E000F4F748FF7B681B6802211846FAF7BEFD57
:10F4F0001E2001F04DFC05E0BB7B0133BB730120F6
:10F5000001F046FC7B681B681846FAF7EFFD0346DE
:10F51000002B02D0BB7B632BEED9BB7B632B01D9C5
:10F52000002344E00023BB7305E0BB7B0133BB73C6
:10F53000012001F02DFC7B681B681846FAF7D6FD08
:10F540000346002B02D1BB7B632BEED9BB7B632B25
:10F5500001D900232BE00023FB730DE07B681B68BF
:10F56000FC7B1846FFF76CFF03461A467B68234472
:10F570005A71FB7B0133FB73FB7B042BEED9002319
:10F58000FB7309E0FB7B7A6813445A797B7B134455
:10F590007B73FB7B0133FB73FB7B032BF2D97B6813
:10F5A0005B7A7A7B9A4201D0002300E0012318465F
:10F5B0001437BD4690BD00BF60F001000CF00100A3
:10F5C00080B584B000AF78607B68002B04D1E42262
:10F5D00015491648F3F74CFB0023FB607B681B7949
:10F5E000012B02DC002B04DA18E0023B012B15D8BA
:10F5F0000CE07B685B791A4613469B0013445B0062
:10F600001A467B689B791344FB6008E07B685B7952
:10F610001B027A6892791344FB6000E000BFFB682C
:10F6200018461037BD4680BD6CF001000CF001009B
:10F6300080B584B000AF78607B68002B05D14FF4B3
:10F64000817222492248F3F713FB0023FB607B6899
:10F650001B79012B02DC002B04DA2CE0023B012B8E
:10F6600029D816E07B68DB791A4613469B001344C1
:10F670005B001A467B681B7A03F07F031344FB6030
:10F680007B681B7A5BB2002B17DAFB685B42FB607E
:10F6900013E07B68DB791B0203F4FE437A68127A7D
:10F6A0001344FB607B68DB795BB2002B07DAFB68F5
:10F6B0005B42FB6003E000BF02E000BF00E000BF70
:10F6C000FB6818461037BD4680BD00BF80F00100C2
:10F6D0000CF0010080B584B000AF786010210120EB
:10F6E000F3F776FAF860FB68002B0AD11148F3F7BC
:10F6F00067F91148F3F764F91048F3F761F900234B
:10F7000013E0FB6800221A71FB687A681A60FB68D4
:10F710000533052200211846F2F7B6FBFB681B688B
:10F7200002211846FAF7A2FCFB6818461037BD46BE
:10F7300080BD00BF10F0010030F0010058F0010062
:10F7400080B582B000AF78607B68002B02D078680B
:10F75000F3F75CFA00BF0837BD4680BD80B584B0C2
:10F7600000AF78600023FB7305E0FB7B0133FB7384
:10F77000012001F00DFB7868FAF7B8FC0346002B76
:10F7800002D0FB7B632BF0D90023FB7305E0FB7BEE
:10F790000133FB73012001F0FBFA7868FAF7A6FC4D
:10F7A0000346002B02D1FB7B632BF0D9282001F00C
:10F7B000EFFA7868FAF79AFC0346DBB2184610377E
:10F7C000BD4680BD80B584B000AF78600023BB73B8
:10F7D0000023FB730DE0BB7B5B00BB737868FFF716
:10F7E000BDFF03461A46BB7B1343BB73FB7B013350
:10F7F000FB73FB7B072BEED9BB7B18461037BD464E
:10F8000080BDFFFF90B587B000AF786039603B687E
:10F81000002B04D1732251495148F3F729FA7B6830
:10F820005B6E3B610023FB730023BB7500237B757C
:10F83000052200213868F2F727FB00213869FAF722
:10F8400015FC00213869FAF731FCFB7B002B02D054
:10F85000FB7B012B03D11420F4F78CFD02E0012087
:10F86000F4F788FD02213869FAF700FC1E2001F048
:10F870008FFA05E0BB7D0133BB75012001F088FAEA
:10F880003869FAF733FC0346002B02D0BB7D632BAB
:10F89000F0D9BB7D632B0AD93248F3F791F832488F
:10F8A000F3F78EF83148F3F78BF8002352E000238A
:10F8B000BB7505E0BB7D0133BB75012001F068FA23
:10F8C0003869FAF713FC0346002B02D1BB7D632B8A
:10F8D000F0D9BB7D632B0AD92248F3F771F824488D
:10F8E000F3F76EF82148F3F76BF8002332E00023BA
:10F8F000FB750AE0FB7D3A68D4183869FFF762FFB0
:10F9000003462370FB7D0133FB75FB7D042BF1D98E
:10F910000023FB7509E0FB7D3A6813441A787B7D70
:10F9200013447B75FB7D0133FB75FB7D032BF2D903
:10F930003B6804331B787A7D9A420AD00948F3F772
:10F940003FF80C48F3F73CF80848F3F739F8002380
:10F9500000E0012318461C37BD4690BDE0F10100D0
:10F96000B4F00100BCF00100D8F00100FCF001008F
:10F9700004F1010028F1010080B584B000AF786087
:10F9800039603B68002B04D1CC220C490C48F3F7BA
:10F990006FF90023FB603B681B781A4613469B00F7
:10F9A00013445B001A463B6801331B781344FB6029
:10F9B00000BFFB6818461037BD4680BDECF1010062
:10F9C00038F1010080B584B000AF786039603B68E1
:10F9D000002B04D1EB2212491248F3F749F9002316
:10F9E000FB603B6802331B781A4613469B001344A6
:10F9F0005B001A463B6803331B7803F07F03134414
:10FA0000FB603B6803331B785BB2002B02DAFB68B8
:10FA10005B42FB6000BFFB6818461037BD4680BDE7
:10FA200000F2010038F1010080B58AB000AF7860C3
:10FA300039603B687B620023BB6000233B7307F1A6
:10FA4000080319467868FFF7DDFE0346012B0DD049
:10FA50004548F2F7B5FF7B685B6C19464348F2F7FF
:10FA6000AFFF4348F2F7ACFF002378E0F1F748F826
:10FA7000386207F1080319467868FFF7A3FFF861B9
:10FA800007F1080319467868FFF776FFB861FB694C
:10FA900013F5C87F0ADBFB69B3F5487F06DCBB6959
:10FAA000002B03DBBB69B3F57A7F0ADD2E48F2F742
:10FAB00087FF3048F2F784FF2D48F2F781FF0023DB
:10FAC0004DE07B6893F84030052B21D17B6A0522FD
:10FAD0001A717B6ABA699A607B6A3A6A1A607B68B3
:10FAE000D3F880309B685B6F3B613B69002B35D05E
:10FAF0003B6904221A713B69FA699A603B693A6A68
:10FB00001A607B68D3F880309B6818229A6725E0DA
:10FB10007B6893F84030042B20D17B6A04221A7151
:10FB20007B6AFA699A607B6A3A6A1A607B68D3F8E2
:10FB300080305B685B6F7B617B69002B0ED07B69DB
:10FB400005221A717B69BA699A607B693A6A1A6000
:10FB50007B68D3F880305B6818229A6701231846C7
:10FB60002837BD4680BD00BFBCF0010044F1010054
:10FB7000FCF001005CF1010080B584B000AFF860DA
:10FB8000B9607A60FB6893F86C30012B05D1B968D5
:10FB9000F868FFF749FF034600E0002318461037D6
:10FBA000BD4680BD80B487B000AFF860B9607A60B0
:10FBB00000237B61BB68062B16D801A252F823F004
:10FBC000E9FB0000E9FB0000E9FB0000E9FB0000A5
:10FBD000DDFB0000E9FB0000E9FB00007B68DAB216
:10FBE000FB6883F86C2000E000BF7B6918461C3777
:10FBF000BD465DF8047B704780B582B000AF786089
:10FC000002217868FAF732FA002318460837BD4611
:10FC100080BDFFFF80B586B000AF786039600023FB
:10FC20003B610023FB600023BB603B689B68184678
:10FC3000FFF7E2FF0346002B0CD08248F2F7C0FE2C
:10FC40008148F2F7BDFE8148F2F7BAFE4FF0FF336C
:10FC50007B61CDE014210120F2F7BAFFB860BB68E8
:10FC6000002B03D16FF004037B61C1E088210120E8
:10FC7000F2F7AEFFF860FB68002B03D16FF00403CE
:10FC80007B61B5E0FB68052283F84020FB68082211
:10FC900083F841206E4AFB685A64FB68072283F8A8
:10FCA0004820FB68082283F84920FB684FF47A72E9
:10FCB000DA64FB6800221A65FB684FF47A725A65B1
:10FCC000FB68012283F85820FB6800229A67FB68D2
:10FCD0005C33182239681846F2F731F9FB685D4A3F
:10FCE000DA67FB68BA68C3F88020002303227968CA
:10FCF000F868F8F76FFE78617B69002B0DD05148EA
:10FD0000F2F75EFE79695448F2F75AFE4F48F2F76F
:10FD100057FE4FF0FF337B616AE088210120F2F744
:10FD200057FF38613B69002B03D16FF004037B61FF
:10FD30005EE03B69042283F840203B69082283F897
:10FD40004120434A3B695A643B69082283F84820B2
:10FD50003B69082283F849203B694FF44872DA6412
:10FD60003B693E4A1A653B694FF47A725A653B69B2
:10FD7000012283F858203B6900229A673B695C3373
:10FD8000182239681846F2F7DAF83B69314ADA671F
:10FD90003B69BA68C3F88020002303227968386978
:10FDA000F8F718FE78617B69002B0DD02548F2F733
:10FDB00007FE79692848F2F703FE2448F2F700FEAF
:10FDC0004FF0FF337B6113E0BB68FA685A60BB6891
:10FDD0003A699A60BB6802221A742148F2F7F0FD72
:10FDE0002048F2F7EDFD1948F2F7EAFD002324E080
:10FDF000FB68002B0BD0FB685B6F002B04D0FB680B
:10FE00005B6F1846F2F702FFF868F2F7FFFE3B69F6
:10FE1000002B0BD03B695B6F002B04D03B695B6F01
:10FE20001846F2F7F3FE3869F2F7F0FEBB68002BD4
:10FE300002D0B868F2F7EAFE7B6918461837BD466B
:10FE400080BD00BF70F1010090F10100FCF00100E5
:10FE500094F00100D0000020ACF1010070FEFFFF23
:10FE6000BCF00100CCF1010080B584B000AF4FF4CC
:10FE70008170FFF72FFCF860F868FFF701FB03467D
:10FE8000002B3ED0F868FFF7D3FBB860F868FFF7A7
:10FE900097FB7860BB68224A82FB03129210DB1743
:10FEA000D31A981EBA681E4B83FB02139910D317FE
:10FEB000C91A0B469B000B445B00D11A7B68184A99
:10FEC00082FB03C29210DB17D31A0A46014615487B
:10FED000F2F776FDBB68124A82FB03129210DB1721
:10FEE000D31ADBB2043BDAB20F4B1A707B680C4AB0
:10FEF00082FB03129210DB17D31ADAB20A4B5A7044
:10FF000002E00A48F2F75CFD6420F4F733FAF8687F
:10FF1000FFF716FC044B18461037BD4680BD00BFE6
:10FF20006766666618F20100CC15002038F2010001
:10FF300080B58AB000AF786000233B627868F0F744
:10FF400034FF38623B6A002B03D11B48F2F738FDBF
:10FF50002EE00321386AF0F735FF0346002B03D06B
:10FF60001648F2F72DFD23E000237B621AE007F12B
:10FF7000080201230021386AF0F7F6FF0346012B3F
:10FF800003D00F48F2F71CFD05E0BB683A6919463B
:10FF90000C48F2F715FD40F6B830F4F7EBF97B6A40
:10FFA00001337B627B6A042BE1DD386AF0F78EFF58
:10FFB0002837BD4680BD00BF54F2010070F2010039
:10FFC0008CF20100A4F2010080B58AB000AF786025
:10FFD00000233B627868F0F7E8FE38623B6A002B4A
:10FFE00003D11B48F2F7ECFC2EE00321386AF0F74E
:10FFF000E9FE0346002B03D01648F2F7E1FC23E0AC
:020000021000EC
:1000000000237B621AE007F1080201230021386A0D
:10001000F0F7AAFF0346012B03D00F48F2F7D0FCFC
:1000200005E0BB683A6919460C48F2F7C9FC40F68E
:10003000B830F4F79FF97B6A01337B627B6A042B4B
:10004000E1DD386AF0F742FF2837BD4680BD00BFCA
:10005000B4F20100D0F20100ECF2010004F301005F
:1000600080B586B002AF0023FB60142301931023F8
:1000700000934FF48063134A13491448F4F79AF835
:10008000B86014230193102300934FF48063104A47
:1000900010491148F4F78EF87860BB68002B02D045
:1000A000B868F3F7E5FF7B68002B03D07868F3F7B7
:1000B000DFFF01E00123FB60FB6818461037BD46F7
:1000C00080BD00BF14F3010031FF000020F30100E8
:1000D00028F30100C9FF000034F3010080B586B0A9
:1000E00000AF08233B714FF48173BB603B46194658
:1000F0000348FFF78FFD002318461837BD4680BD23
:100100003CF3010080B58EB000AFF8607A601A460B
:100110000B46FB721346BB7200237B6300233B63D9
:100120000023FB62FB685B6EFB62FB68DB6B7B633F
:100130007B6B9B693B63FB6ADBB29BB2BB82002398
:10014000FB8201233B8307F10B03FB61FB6ADBB2FC
:100150009BB23B8401237B84BB7A9BB2BB847B68CC
:10016000BB6207F1140302221946386BFBF75EFAF3
:100170000346022B01D100230AE00748F2F720FCD6
:100180000648F2F71DFC0648F2F71AFC4FF0FF3361
:1001900018463837BD4680BD6CF301007CF3010082
:1001A00094F3010080B58EB000AFF8607A601A4613
:1001B0000B46FB721346BB7200237B6300233B6339
:1001C000FB685B6E3B63FB68DB6B7B637B6B9B69F4
:1001D000FB623B6BDBB29BB2BB820023FB82012341
:1001E0003B8307F10B03FB613B6BDBB29BB23B84B0
:1001F00010237B84BB7A9BB2BB847B68BB6207F114
:10020000140302221946F86AFBF710FA0346022B80
:1002100001D100230AE00748F2F7D2FB0648F2F7C3
:10022000CFFB0648F2F7CCFB4FF0FF3318463837C8
:10023000BD4680BD6CF301009CF3010094F3010006
:1002400080B582B000AF78600B46FB701346BB7080
:10025000BA1CF97801237868FFF7A4FF0346184613
:100260000837BD4680BD80B584B000AF78600023FC
:100270003B810023FB602E22F4217868FFF7E0FF2A
:100280000120F4F76BF807F108020223F6217868E1
:10029000FFF738FF3B7A1B027A7A1343FB60FB6857
:1002A00018461037BD4680BD80B584B000AF786079
:1002B00000233B810023FB603422F4217868FFF7A0
:1002C000BFFF0120F4F74AF807F108020223F621E4
:1002D0007868FFF717FF3B7A1B027A7A1343FB60BB
:1002E000FB6818461037BD4680BDFFFF80B592B051
:1002F00000AF786039600023A7F842300023FB6329
:100300000023BB6300237B637868FFF7ACFF38638F
:100310007868FFF7C9FFF8627B68DB6BBB63BB6B78
:100320007B637B6B9B8A1A463B6B9B1A7A6B528A68
:1003300002FB03F3DB13BB627B6BB3F90C30DA0215
:100340007B6BB3F90E301946BB6A0B4492FBF3F397
:100350007B62BA6A7B6A13443B623B6A08331B11B7
:10036000A7F842303B6AA3F57A63FB617B6BB3F974
:1003700008301A46FB6903FB03F302FB03F3DB15AA
:10038000BB627B6BB3F902301A46FB6902FB03F3D5
:10039000DB127B62BA6A7B6A1344BB617B6BB3F985
:1003A00000309A00BB69134402339B107B617B6B66
:1003B000B3F904301A46FB6902FB03F35B13BB621B
:1003C0007B6BB3F906301A46FB6903FB03F31B137F
:1003D00002FB03F31B147B62BA6A7B6A1344023389
:1003E0009B10BB617B6B1B8A1A46BB6903F50043FC
:1003F00002FB03F3DB0B3B61FA6A7B69D31A1A46F3
:100400004CF2503302FB03F3FB60FB68002B06DB6E
:10041000FB685A003B69B2FBF3F37B6405E0FA68C2
:100420003B69B2FBF3F35B007B647B6C1B127A6C61
:10043000121202FB03F3BB62BB6A40F6DE3202FB20
:1004400003F31B14BB627B6C1B4A02FB03F31B14FC
:100450007B62BA6A7B6A134403F6CF631B117A6C22
:100460001344FB637B6893F84030062B0BD13B6849
:1004700006221A713B68FA6B9A60F0F741FB02465C
:100480003B681A6013E07B6893F84030042B0CD172
:100490003B6804221A71B7F942203B689A60F0F772
:1004A0002FFB02463B681A6001E0002300E00123B5
:1004B00018464837BD4680BD43E3FFFF80B584B092
:1004C00000AFF860B9607A60BB68002B04D1E42209
:1004D0000D490E48F2F7CCFBFB68002B04D1E52256
:1004E00009490B48F2F7C4FBFB6893F86C30012B09
:1004F00005D1B968F868FFF7F9FE034600E000236C
:1005000018461037BD4680BD50F40100B4F3010019
:10051000B8F3010080B586B000AFF860B9607A60CA
:1005200000237B61FB68002B04D1F5220B490C48AA
:10053000F2F79EFBBB68002B09D17B683B6101236E
:100540003A69D021F868FFF7DDFD786100E000BF6F
:100550007B6918461837BD4680BD00BF64F40100B2
:10056000B8F3010080B58EB000AF78603960002329
:100570007B6300233B630023FB620023BB620023F9
:100580007B620023FB6007F1100300221A605A60AF
:100590009A60DA601A821C210120F2F719FB786256
:1005A0007B6A002B0CD17148F2F70AFA7048F2F717
:1005B00007FA7048F2F704FA4FF0FF337B636BE100
:1005C0003B681B681846FBF707F802467B6A9A618E
:1005D0007B6A9B69002B0FD16448F2F7F1F93B6805
:1005E0001B6819466448F2F7EBF96248F2F7E8F93C
:1005F0004FF0FF337B634FE188210120F2F7E8FAE7
:10060000B862BB6A002B0CD15848F2F7D9F95848A8
:10061000F2F7D6F95748F2F7D3F94FF0FF337B637F
:100620003AE1BB6A3A6B5A60BB6AFA6A9A60BB6A83
:1006300002221A7488210120F2F7CAFA38633B6B50
:10064000002B00F0268188220021386BF1F71CFC7A
:100650003B6B062283F840203B6B022283F841204B
:100660003B6B464A5A643B6B062283F848203B6B3F
:10067000012283F849203B6B414ADA643B6B47F225
:1006800030521A653B6B64225A653B6B5C3318220F
:1006900039681846F1F753FC3B6B3A4ADA673B6B13
:1006A000BA6AC3F880207B6A03227968386BF8F74E
:1006B00091F978637B6B002B0AD02C48F2F780F914
:1006C000796B3148F2F77CF92A48F2F779F9E3E0DF
:1006D00088210120F2F77CFAF862FB6A002B00F017
:1006E000DA8088220021F86AF1F7CEFBFB6A042247
:1006F00083F84020FB6A022283F84120FB6A234AE8
:100700005A64FB6A082283F84820FB6A012283F8B6
:1007100049203B6B40F25232DA643B6B1C4A1A654B
:10072000FB6A64225A65FB6A5C33182239681846F2
:10073000F1F705FCFB6A134ADA67FB6ABA6AC3F889
:1007400080207B6A03227968F86AF8F743F97863B6
:100750007B6B002B1ED00548F2F732F9796B0A4803
:10076000F2F72EF90348F2F72BF995E06CF301004C
:10077000C0F3010094F30100D8F30100F8F3010085
:10078000B0AD0100D800002004F4010024F4010001
:1007900070FEFFFF07F10C021623AA21386BFFF74A
:1007A000B1FC78637B6B002B69D13B7B1B021AB2D7
:1007B0007B7B1BB213431AB27B6A1A80BB7B1B0282
:1007C0001AB2FB7B1BB213431AB27B6A5A803B7C82
:1007D0001B021AB27B7C1BB213431AB27B6A9A804B
:1007E000BB7C1B021AB2FB7C1BB213431BB29AB236
:1007F0007B6A1A823B7D1B021AB27B7D1BB21343BC
:100800001BB29AB27B6A5A82BB7D1B021AB2FB7D75
:100810001BB213431BB29AB27B6A9A823B7E1B02C5
:100820001AB27B7E1BB213431AB27B6ADA80BB7E9C
:100830001B021AB2FB7E1BB213431AB27B6A1A81E7
:100840003B7F1B021AB27B7F1BB213431AB27B6A37
:100850005A81BB7F1B021AB2FB7F1BB213431AB231
:100860007B6A9A8197F820301B021AB297F82130E0
:100870001BB213431AB27B6ADA81002325E01548C4
:10088000F2F79EF81448F2F79BF81448F2F798F83C
:1008900002E000BF00E000BF3B6B002B02D0386BD2
:1008A000F2F7B4F9FB6A002B02D0F86AF2F7AEF95E
:1008B000BB6A002B02D0B86AF2F7A8F97B6A002B5A
:1008C00002D0786AF2F7A2F97B6B18463837BD463A
:1008D00080BD00BF6CF3010030F4010094F301000F
:1008E00080B500AF2848F0F760FA0346274A136046
:1008F000264B1B68002B03D12548F2F761F842E034
:10090000224B1B6801211846F0F75CFA0346002BC6
:1009100003D02048F2F754F835E01F48F0F745FAC5
:1009200003461E4A13601D4B1B68002B03D11C4855
:10093000F2F746F827E0194B1B6801211846F0F73B
:1009400041FA0346002B03D01648F2F739F81AE0B3
:100950000E4B1B68012203211846F0F78DFB0F4B4D
:100960001B68012203211846F0F786FB0B4B1B681E
:100970000D4A00211846F0F77FFB0B4B1B781946F8
:100980000A48F2F71DF880BD74F40100D01500206C
:1009900080F40100A0F40100B8F40100D415002097
:1009A000C4F40100E4F401000C16002000F501007D
:1009B00090B583B002AF364B18680123354A002149
:1009C000F0F7D2FA0346344A1360344B1868012317
:1009D000334A0021F0F7C8FA03462F4A13602E4B22
:1009E0001B68002B03D02F4B1B68002B11D12A4B07
:1009F0001B682C4A126819462B48F1F7E1FF244B7B
:100A00001B681846F0F762FA244B1B681846F0F78B
:100A10005DFA204B9B68254A82FB03129211DB177B
:100A2000D31ADAB2224B1A701D4B9B68214A82FB03
:100A300003129210DB17D31ADBB22C3BDAB21C4B39
:100A40005A70144B9868164B9B681A4A82FB031223
:100A50009210DB17D31AA3F12C04114B9A68154B93
:100A600083FB02139910D317C91A0B469B000B4442
:100A70005B00D11A0A4B1B6800930B4622460146C5
:100A80000D48F1F79DFF0A4B18460437BD4690BD4F
:100A9000D0150020D815002008160020D4150020FD
:100AA000F0150020E000002018F50100D34D621081
:100AB00010160020676666663CF5010080B586B0BA
:100AC00000AF084B3B607723BB603B4619460648A6
:100AD000FFF748FDFFF704FF002318461837BD460F
:100AE00080BD00BF64F501006CF5010080B586B0E3
:100AF00000AFF860B9607A60FB68002B04D12E2249
:100B00001E491F48F2F7B4F8FB68DB6B7B617B681A
:100B1000002B16D07B699B681846FCF79DFF0346A7
:100B2000002B25D01748F1F74BFF7B691B7819463E
:100B30001548F1F745FF1548F1F742FF4FF0FF3335
:100B400017E07B699B681846FCF798FF0346002B6B
:100B50000ED00C48F1F734FF7B691B7819460C481E
:100B6000F1F72EFF0948F1F72BFF4FF0FF3300E0BC
:100B7000002318461837BD4680BD00BF20F601008F
:100B800074F5010088F501009CF50100B0F5010045
:100B9000B8F5010080B586B000AFF860B9607A6042
:100BA000FB68002B04D1532211491248F2F760F878
:100BB000FB68DB6B7B617B699B68BA6851B27A68C2
:100BC0001846FCF786FF0346002B0BD00A48F1F7C6
:100BD000F7FE0A48F1F7F4FE0948F1F7F1FE4FF08D
:100BE000FF3300E0002318461837BD4680BD00BF24
:100BF00030F6010074F5010088F50100E0F5010010
:100C0000B0F5010080B500AF164B5B689A68154BD4
:100C10005B685B6819461046FCF7A8FE114B5B68E1
:100C20009A68104B5B68DB6819461046FCF7FCFEBF
:100C30000C4B18680B4B5B680B4A0C49F8F722FF0A
:100C40000346002B0BD00A48F1F7BAFE0948F1F72A
:100C5000B7FE0948F1F7B4FE4FF0FF3300E0002380
:100C6000184680BDF400002018F60100F8F50100D8
:100C700088F5010000F60100B0F5010080B483B0F2
:100C800000AF03463960FB7197F90730002B0ADB90
:100C90003B68DAB20C4997F907301201D2B20B4423
:100CA00083F800230AE03B68DAB20849FB7903F0D5
:100CB0000F03043B1201D2B20B441A7600BF0C376B
:100CC000BD465DF8047B704700E100E000ED00E008
:100CD00080B400AFBFF34F8F00BF064BDB6803F457
:100CE000E0620449044B1343CB60BFF34F8F00BF56
:100CF00000BFFDE700ED00E00400FA0580B582B01A
:100D000000AF78607B68013BB3F1807F01D30123A2
:100D10000FE00A4A7B68013B53600F214FF0FF3020
:100D2000FFF7ACFF054B00229A60044B07221A60C4
:100D3000002318460837BD4680BD00BF10E000E024
:100D400080B582B000AF03463960FB71FFF7C0FF8A
:100D500080B500AF074B1B68074AA2FB03239B0922
:100D60001846FFF7CBFFFF214FF0FF30FFF786FF5C
:100D700000BF80BDBC110020D34D621080B500AF14
:100D8000F0F7F4FFEFF7C8FEF1F710F800BF80BDF1
:100D900080B489B000AF78600023BB611B4B5B68F7
:100DA0007B617B687A6902FB03F3194AA2FB032388
:100DB0009B093B61154B9B68FB61144B9B68FB6077
:100DC000FA68FB699A42F8D0FA68FB699A4206D23F
:100DD000FA69FB68D31ABA691344BB6107E07A6900
:100DE000FB68D21AFB691344BA691344BB61FB6800
:100DF000FB61BA693B699A4200D2DEE700BF00BFDF
:100E00002437BD465DF8047B704700BF10E000E06A
:100E1000D34D621080B500AFFFF79AFF074908482D
:100E2000F1F766FE00F016FD01F0C2F90548F1F792
:100E300091FDEFF70BFF00BF80BD00BF0000042055
:100E4000901D00205CF6010080B582B000AF034623
:100E5000FB71FB79022B05D1044B5B6819460448F2
:100E6000FBF76CFA00BF0837BD4680BD04BD01002A
:100E7000140F002080B483B000AF0346FB800A4902
:100E8000FB881B0A9BB21A46FB88DBB21201134493
:100E900051F82330C3F34003DBB218460C37BD468C
:100EA0005DF8047B704700BF0008084080B485B03F
:100EB00000AF03460A46FB8013467B711449FB884A
:100EC0001B0A9BB21A46FB88DBB21201134451F88D
:100ED0002330FB60FB6823F0011323F44043FB60E5
:100EE0007B79FA681343BB600948FB881B0A9BB2F5
:100EF0001946FB88DBB2BA6842F0040209010B44D0
:100F000040F8232000BF1437BD465DF8047B7047CE
:100F10000008084080B485B000AF0023FB60EFF309
:100F200010837B607B68FB600123BB60BB6883F33D
:100F3000108800BF0D4B1B68002B05D10C4B002205
:100F4000DA700B4B4022DA70084B1B680133074AFA
:100F50001360FB683B603B6883F3108800BF00BFF1
:100F60001437BD465DF8047B704700BF3010002089
:100F7000000D084080B485B000AF0023FB60EFF3A4
:100F800010837B607B68FB600123BB60BB6883F3DD
:100F9000108800BF0F4B1B68002B04D00D4B1B6843
:100FA000013B0C4A13600B4B1B68002B05D10A4B0D
:100FB0000022DA70084B8022DA70FB683B603B68E5
:100FC00083F3108800BF00BF1437BD465DF8047B73
:100FD000704700BF30100020000D084080B483B07F
:100FE00000AF78607B6840F20972934200F0218183
:100FF0007B6840F20972934200F227817B68B3F567
:10100000E16F00F018817B68B3F5E16F00F21D819C
:101010007B6840F20C52934200F217817B68B3F573
:10102000A06F22D87B68B3F5826F80F00E817B6859
:10103000B3F5806F3AD27B6840F20532934200F2FA
:1010400004817B68B3F5407F5AD87B6840F20D225B
:10105000934200F2FA807B6840F20222934263D20C
:101060007B680F2B00F2C880A0E07B68A3F20153DD
:101070000B2B00F2EA8001A252F823F03712010094
:101080003B1201004B1201004B1201004312010000
:10109000471201004B1201004B1201004B120100DC
:1010A0004B12010047120100431201007B68A3F5B7
:1010B00080630F2B00F2C98001A252F823F000BF19
:1010C0000B1201001F1201001B120100431201004C
:1010D000471201004B1201004B1201004B1201009C
:1010E00027120100231201001F1201001B12010030
:1010F0004B1201004B1201002F1201002B120100B4
:101100007B68A3F20133042B00F29F8001A252F806
:1011100023F000BF231201001F1201004B12010037
:101120002F1201002B1201007B68A3F202230B2B6C
:1011300000F28B8001A252F823F000BF17120100C9
:10114000131201004B1201000F1201000B120100DB
:101150004B1201004B1201004B1201004B12010017
:101160004B12010017120100131201007B68A3F556
:1011700080730B2B69D801A252F823F013120100DF
:101180000F1201004B1201004B1201000F1201005F
:101190000B1201004B1201004B1201004B12010017
:1011A0004B120100171201001B1201007B680F2B6C
:1011B0004BD801A252F823F023120100271201009C
:1011C0002B1201004B1201002F12010033120100FB
:1011D000371201004B1201003B1201003F120100C7
:1011E0004B1201004B1201004B1201004B12010087
:1011F0004B1201003F1201007B68B3F5867F24D2B9
:101200007B68B3F5807FB1D21FE000231FE001238C
:101210001DE002231BE0032319E0042317E005234C
:1012200015E0062313E0072311E008230FE009234C
:101230000DE00A230BE00B2309E00C2307E00D234C
:1012400005E00E2303E00F2301E04FF0FF331846C3
:101250000C37BD465DF8047B704700BF80B483B097
:1012600000AF00237B602AE01A497A6813465B00CE
:1012700013449B000B444FF6FF721A8015497A689D
:1012800013465B0013449B000B44023300221A8078
:1012900010497A6813465B0013449B000B440833E3
:1012A00000221A600B497A6813465B0013449B00C6
:1012B0000B44043300221A607B6801337B607B6837
:1012C0000F2BD1DD00BF00BF0C37BD465DF8047B9E
:1012D000704700BF5816002080B400AF054B064A87
:1012E0001A60044B054A5A6000BFBD465DF8047B96
:1012F000704700BF18170020B00F002030BE01005B
:1013000080B586B000AFF860B9607A603249334882
:10131000FBF714F878617B69002B09D03048F1F7AE
:101320004FFB3048F1F74CFB2F48F1F749FB50E0F9
:101330007B68042B33D07B68042B4ADC7B68002B52
:1013400003D07B68012B15D043E0BB689BB2012220
:1013500019462248FBF723F878617B69002B33D0CC
:101360001F48F1F72DFB2148F1F72AFB1E48F1F742
:1013700027FB2EE0BB689BB2002219461748FBF7FB
:101380000EF878617B69002B20D01548F1F718FB27
:101390001748F1F715FB1448F1F712FB19E0BB6889
:1013A0009BB2402219460D48FAF7F9FF78617B6934
:1013B000002B0DD00A48F1F703FB0E48F1F700FBB4
:1013C0000948F1F7FDFA04E000BF02E000BF00E0C9
:1013D00000BF1837BD4680BDF4BF0100140F0020C8
:1013E00064F6010074F6010088F6010090F6010031
:1013F000B8F60100DCF6010080B586B000AFF860F9
:10140000B9607A600123FB75FB7D7A689A4201D04E
:101410000023FB75FFF77EFDBB689BB2FA7D11468A
:101420001846FFF743FDFFF7A5FD00BF1837BD467F
:1014300080BDFFFF80B582B000AF786039603B6847
:10144000B3F5316F02DA3B68002B0BDA0A48F1F78B
:10145000B7FA0A48F1F7B4FA0948F1F7B1FA4FF0D0
:10146000FF3305E03B689BB21846FFF703FD0346D8
:1014700018460837BD4680BD64F6010004F7010038
:1014800088F6010080B586B000AFF860B9607A6078
:10149000BB681846FFF7A2FD78617B68012B3BD142
:1014A0007B69002B6BDB7B690F2B68D8364A7B6925
:1014B00052F8332034497B69DB000B445B681946E2
:1014C0001046FBF723FB03463B613B69002B0BD027
:1014D0002E48F1F775FA2E48F1F772FA2D48F1F718
:1014E0006FFA4FF0FF334BE0274A7B6952F83330F5
:1014F0001846FBF771FB03463B613B69002B3ED06E
:101500002248F1F75DFA2448F1F75AFA2148F1F739
:1015100057FA4FF0FF3333E07B68002B2FD11A4A84
:101520007B6952F833301846FBF767FB03463B6193
:101530003B69002B0BD01548F1F742FA1748F1F739
:101540003FFA1448F1F73CFA4FF0FF3318E00E4A27
:101550007B6952F833301846FBF760FB03463B616A
:101560003B69002B0BD00948F1F72AFA0C48F1F738
:1015700027FA0848F1F724FA4FF0FF3300E0002380
:1015800018461837BD4680BD1817002064F60100C4
:1015900020F7010088F601004CF7010078F7010000
:1015A000A4F7010080B586B000AFF860B9607A603A
:1015B0003B60BB681846FFF711FD78617B69002B23
:1015C0007EDB7B690F2B7BD8F3F7CAFC38613F4980
:1015D0007A6913465B0013449B000B44B3F9003057
:1015E0001A467B69934229D138497A6913465B00D0
:1015F00013449B000B4404331B683A689A421DD184
:1016000032497A6913465B0013449B000B44023352
:101610001B881A467B68934210D12C497A6913467D
:101620005B0013449B000B4408331B683A6A9A42E0
:1016300004D13869F3F798FC002343E023497A6921
:1016400013465B0013449B000B44B3F90030B3F125
:10165000FF3F04D03869F3F787FC072332E07B694A
:1016600018B21A497A6913465B0013449B000B4475
:1016700002461A8015497A6913465B0013449B00A1
:101680000B4404333A681A607B6898B20F497A6950
:1016900013465B0013449B000B44023302461A803E
:1016A0000A497A6913465B0013449B000B440833D4
:1016B0003A6A1A603869F3F757FC00BF002301E06B
:1016C0004FF0FF3318461837BD4680BD581600202E
:1016D00080B584B000AF786039603B681846FFF78A
:1016E0007DFCF860FB68002B44DBFB680F2B41D8C6
:1016F000F3F736FCB8602249FA6813465B001344DE
:101700009B000B44B3F90030B3F1FF3F04D1B8683C
:10171000F3F72AFC00232FE01949FA6813465B000F
:1017200013449B000B444FF6FF721A801449FA6869
:1017300013465B0013449B000B44043300221A60E1
:101740000F49FA6813465B0013449B000B440233B5
:1017500000221A800A49FA6813465B0013449B0072
:101760000B44083300221A60B868F3F7FDFB00BF92
:10177000002301E04FF0FF3318461037BD4680BD0F
:101780005816002080B586B000AF78604FF0FF3368
:101790007B614FF0FF333B614FF0FF33FB607868B4
:1017A000F0F7CEFC0346042B02D04FF0FF334CE0A1
:1017B0007B681B78502B03D07B681B78702B43D140
:1017C0007B6801331B782F2B3BD97B6801331B7857
:1017D000392B36D87B6801331B78303B1B023B61C9
:1017E0007B6802331B782F2B28D97B6802331B7848
:1017F000392B23D87B6803331B782F2B1BD97B68AD
:1018000003331B78392B16D87B6802331B78A3F17E
:10181000300213469B0013445B00FB607B6803337C
:101820001B78303BFA681344FB603A69FB68134449
:101830007B6100BF08E04FF0FF3306E04FF0FF335D
:1018400003E04FF0FF3300E07B6918461837BD46D0
:1018500080BDFFFF80B500AFFFF700FDFFF73CFD47
:10186000002203490348F8F771FB0346184680BD80
:10187000D4F70100D0F7010080B582B000AF7860E6
:10188000F0F774FA084BB3F90030002B05D1064B82
:101890005B68054A926810469847F0F787FA00BFE0
:1018A0000837BD4680BD00BF5816002080B487B001
:1018B00000AF0346FB710E4B1B6A7B617B691B0EFD
:1018C00003F007033B61FB797A6922FA03F303F023
:1018D0000703FB60074B1A683B699A40FB6822FAD2
:1018E00003F318461C37BD465DF8047B704700BF04
:1018F00000E00140BC1100202DE9B04F84B000AFE2
:10190000786039600020FFF7D1FF02467B6822FA39
:1019100003F3FB603B680022984691460F4B03FBA4
:1019200009F2002303FB08F313440C4AA8FB024509
:101930002B441D46FB6800229A46934652465B465E
:101940002046294606F0CCFA02460B461346BB60F9
:10195000BB6818461037BD46BDE8B08F00CA9A3B39
:101960002DE9B04F84B000AF786039600020FFF7F8
:101970009DFF02467B6822FA03F3FB603B6800226E
:101980009A469346FB6800229846914608FB0BF264
:101990000AFB09F31344AAFB08452B441D4608A380
:1019A000D3E900232046294606F09AFA02460B4660
:1019B0001346BB60BB6818461037BD46BDE8B08F04
:1019C00000CA9A3B0000000080B586B000AFF86006
:1019D000B9607A6000237B617B68002B06D0FB68CE
:1019E0005B6C1846FBF7AAFA786105E0FB685B6C54
:1019F0001846FBF791FA78617B69002B01D100232F
:101A000001E04FF0FF3318461837BD4680BD80B562
:101A100086B000AF786039607B685B6C07F10C02C0
:101A200011461846FBF7D6FB0346002B02D04FF0B9
:101A3000FF3320E07B68DB6C1B7A1A467B68DB6C2B
:101A4000DB6819461046FFF757FF02463B689A606D
:101A50007B68DB6C1B7A1A467B6919461046FFF7D8
:101A60004BFF02463B685A607B68DB6C1B7C1A4666
:101A70003B681A60002318461837BD4680BD80B504
:101A80008CB000AF7860396007F1080319467868B8
:101A9000FFF7BDFFF862FB6A002B01D0FB6A44E050
:101AA0003B685B68BB623B689B68BA6A934228BF2D
:101AB00013467B62FB68BA6A9A4214D07B68DB6C7F
:101AC0001B7AB96A1846FFF74BFF38627B685B6C7C
:101AD000396A1846FBF7B7FAF861FB69002B02D0A8
:101AE0004FF0FF3321E07B68DB6C1B7A796A184684
:101AF000FFF736FF38627B685B6C0022396A184654
:101B0000FBF7E6FAF8617B685B6C0122396A1846DC
:101B1000FBF7DEFAB861FB69002B02D1BB69002B31
:101B200002D04FF0FF3300E0002318463037BD46A7
:101B300080BDFFFF80B586B000AFF860B9607A6005
:101B40007B687B61FB68DB6B3B617B691B68002BFF
:101B500002D06FF009032BE0BB68803B032B25D834
:101B600001A252F823F000BF791B0100871B01007E
:101B7000A11B0100951B0100012279693869FFF75B
:101B800023FF034614E0002279693869FFF71CFF40
:101B900003460DE079693869FFF739FF034607E02E
:101BA00079693869FFF76BFF034601E06FF00903BD
:101BB00018461837BD4680BD80B584B000AF0023FD
:101BC000FB6000237B6000233B600023BB6038E0A8
:101BD000204ABB68542101FB03F3134444331A68C1
:101BE0001C49BB68542000FB03F30B444C331B68B7
:101BF00019461046FBF76EF93860BB68542202FBA9
:101C000003F3144A9818134ABB68542101FB03F3E9
