Archive member included to satisfy reference by file (symbol)

d:/rt-threadstudio/repo/extract/toolchain_support_packages/arm/gnu_tools_for_arm_embedded_processors/10.2.1/bin/../lib/gcc/arm-none-eabi/10.2.1/../../../../arm-none-eabi/lib/thumb/v8-m.main+fp/hard\libm.a(lib_a-s_cos.o)
                              ./packages/ssd1306-latest/src/ssd1306.o (cos)
d:/rt-threadstudio/repo/extract/toolchain_support_packages/arm/gnu_tools_for_arm_embedded_processors/10.2.1/bin/../lib/gcc/arm-none-eabi/10.2.1/../../../../arm-none-eabi/lib/thumb/v8-m.main+fp/hard\libm.a(lib_a-s_sin.o)
                              ./packages/ssd1306-latest/src/ssd1306.o (sin)
d:/rt-threadstudio/repo/extract/toolchain_support_packages/arm/gnu_tools_for_arm_embedded_processors/10.2.1/bin/../lib/gcc/arm-none-eabi/10.2.1/../../../../arm-none-eabi/lib/thumb/v8-m.main+fp/hard\libm.a(lib_a-e_rem_pio2.o)
                              d:/rt-threadstudio/repo/extract/toolchain_support_packages/arm/gnu_tools_for_arm_embedded_processors/10.2.1/bin/../lib/gcc/arm-none-eabi/10.2.1/../../../../arm-none-eabi/lib/thumb/v8-m.main+fp/hard\libm.a(lib_a-s_cos.o) (__ieee754_rem_pio2)
d:/rt-threadstudio/repo/extract/toolchain_support_packages/arm/gnu_tools_for_arm_embedded_processors/10.2.1/bin/../lib/gcc/arm-none-eabi/10.2.1/../../../../arm-none-eabi/lib/thumb/v8-m.main+fp/hard\libm.a(lib_a-k_cos.o)
                              d:/rt-threadstudio/repo/extract/toolchain_support_packages/arm/gnu_tools_for_arm_embedded_processors/10.2.1/bin/../lib/gcc/arm-none-eabi/10.2.1/../../../../arm-none-eabi/lib/thumb/v8-m.main+fp/hard\libm.a(lib_a-s_cos.o) (__kernel_cos)
d:/rt-threadstudio/repo/extract/toolchain_support_packages/arm/gnu_tools_for_arm_embedded_processors/10.2.1/bin/../lib/gcc/arm-none-eabi/10.2.1/../../../../arm-none-eabi/lib/thumb/v8-m.main+fp/hard\libm.a(lib_a-k_rem_pio2.o)
                              d:/rt-threadstudio/repo/extract/toolchain_support_packages/arm/gnu_tools_for_arm_embedded_processors/10.2.1/bin/../lib/gcc/arm-none-eabi/10.2.1/../../../../arm-none-eabi/lib/thumb/v8-m.main+fp/hard\libm.a(lib_a-e_rem_pio2.o) (__kernel_rem_pio2)
d:/rt-threadstudio/repo/extract/toolchain_support_packages/arm/gnu_tools_for_arm_embedded_processors/10.2.1/bin/../lib/gcc/arm-none-eabi/10.2.1/../../../../arm-none-eabi/lib/thumb/v8-m.main+fp/hard\libm.a(lib_a-k_sin.o)
                              d:/rt-threadstudio/repo/extract/toolchain_support_packages/arm/gnu_tools_for_arm_embedded_processors/10.2.1/bin/../lib/gcc/arm-none-eabi/10.2.1/../../../../arm-none-eabi/lib/thumb/v8-m.main+fp/hard\libm.a(lib_a-s_cos.o) (__kernel_sin)
d:/rt-threadstudio/repo/extract/toolchain_support_packages/arm/gnu_tools_for_arm_embedded_processors/10.2.1/bin/../lib/gcc/arm-none-eabi/10.2.1/../../../../arm-none-eabi/lib/thumb/v8-m.main+fp/hard\libm.a(lib_a-s_fabs.o)
                              d:/rt-threadstudio/repo/extract/toolchain_support_packages/arm/gnu_tools_for_arm_embedded_processors/10.2.1/bin/../lib/gcc/arm-none-eabi/10.2.1/../../../../arm-none-eabi/lib/thumb/v8-m.main+fp/hard\libm.a(lib_a-e_rem_pio2.o) (fabs)
d:/rt-threadstudio/repo/extract/toolchain_support_packages/arm/gnu_tools_for_arm_embedded_processors/10.2.1/bin/../lib/gcc/arm-none-eabi/10.2.1/../../../../arm-none-eabi/lib/thumb/v8-m.main+fp/hard\libm.a(lib_a-s_floor.o)
                              d:/rt-threadstudio/repo/extract/toolchain_support_packages/arm/gnu_tools_for_arm_embedded_processors/10.2.1/bin/../lib/gcc/arm-none-eabi/10.2.1/../../../../arm-none-eabi/lib/thumb/v8-m.main+fp/hard\libm.a(lib_a-k_rem_pio2.o) (floor)
d:/rt-threadstudio/repo/extract/toolchain_support_packages/arm/gnu_tools_for_arm_embedded_processors/10.2.1/bin/../lib/gcc/arm-none-eabi/10.2.1/../../../../arm-none-eabi/lib/thumb/v8-m.main+fp/hard\libm.a(lib_a-s_scalbn.o)
                              d:/rt-threadstudio/repo/extract/toolchain_support_packages/arm/gnu_tools_for_arm_embedded_processors/10.2.1/bin/../lib/gcc/arm-none-eabi/10.2.1/../../../../arm-none-eabi/lib/thumb/v8-m.main+fp/hard\libm.a(lib_a-k_rem_pio2.o) (scalbn)
d:/rt-threadstudio/repo/extract/toolchain_support_packages/arm/gnu_tools_for_arm_embedded_processors/10.2.1/bin/../lib/gcc/arm-none-eabi/10.2.1/../../../../arm-none-eabi/lib/thumb/v8-m.main+fp/hard\libc.a(lib_a-atoi.o)
                              ./rt-thread/components/drivers/sensors/sensor_cmd.o (atoi)
d:/rt-threadstudio/repo/extract/toolchain_support_packages/arm/gnu_tools_for_arm_embedded_processors/10.2.1/bin/../lib/gcc/arm-none-eabi/10.2.1/../../../../arm-none-eabi/lib/thumb/v8-m.main+fp/hard\libc.a(lib_a-exit.o)
                              d:/rt-threadstudio/repo/extract/toolchain_support_packages/arm/gnu_tools_for_arm_embedded_processors/10.2.1/bin/../lib/gcc/arm-none-eabi/10.2.1/../../../../arm-none-eabi/lib/thumb/v8-m.main+fp/hard/crt0.o (exit)
d:/rt-threadstudio/repo/extract/toolchain_support_packages/arm/gnu_tools_for_arm_embedded_processors/10.2.1/bin/../lib/gcc/arm-none-eabi/10.2.1/../../../../arm-none-eabi/lib/thumb/v8-m.main+fp/hard\libc.a(lib_a-impure.o)
                              d:/rt-threadstudio/repo/extract/toolchain_support_packages/arm/gnu_tools_for_arm_embedded_processors/10.2.1/bin/../lib/gcc/arm-none-eabi/10.2.1/../../../../arm-none-eabi/lib/thumb/v8-m.main+fp/hard\libc.a(lib_a-exit.o) (_global_impure_ptr)
d:/rt-threadstudio/repo/extract/toolchain_support_packages/arm/gnu_tools_for_arm_embedded_processors/10.2.1/bin/../lib/gcc/arm-none-eabi/10.2.1/../../../../arm-none-eabi/lib/thumb/v8-m.main+fp/hard\libc.a(lib_a-memcmp.o)
                              ./rt-thread/components/finsh/shell.o (memcmp)
d:/rt-threadstudio/repo/extract/toolchain_support_packages/arm/gnu_tools_for_arm_embedded_processors/10.2.1/bin/../lib/gcc/arm-none-eabi/10.2.1/../../../../arm-none-eabi/lib/thumb/v8-m.main+fp/hard\libc.a(lib_a-memcpy.o)
                              ./ra/fsp/src/r_sci_uart/r_sci_uart.o (memcpy)
d:/rt-threadstudio/repo/extract/toolchain_support_packages/arm/gnu_tools_for_arm_embedded_processors/10.2.1/bin/../lib/gcc/arm-none-eabi/10.2.1/../../../../arm-none-eabi/lib/thumb/v8-m.main+fp/hard\libc.a(lib_a-memmove.o)
                              ./packages/ssd1306-latest/examples/ssd1306_tests.o (memmove)
d:/rt-threadstudio/repo/extract/toolchain_support_packages/arm/gnu_tools_for_arm_embedded_processors/10.2.1/bin/../lib/gcc/arm-none-eabi/10.2.1/../../../../arm-none-eabi/lib/thumb/v8-m.main+fp/hard\libc.a(lib_a-memset.o)
                              d:/rt-threadstudio/repo/extract/toolchain_support_packages/arm/gnu_tools_for_arm_embedded_processors/10.2.1/bin/../lib/gcc/arm-none-eabi/10.2.1/../../../../arm-none-eabi/lib/thumb/v8-m.main+fp/hard/crt0.o (memset)
d:/rt-threadstudio/repo/extract/toolchain_support_packages/arm/gnu_tools_for_arm_embedded_processors/10.2.1/bin/../lib/gcc/arm-none-eabi/10.2.1/../../../../arm-none-eabi/lib/thumb/v8-m.main+fp/hard\libc.a(lib_a-snprintf.o)
                              ./packages/ssd1306-latest/examples/ssd1306_tests.o (snprintf)
d:/rt-threadstudio/repo/extract/toolchain_support_packages/arm/gnu_tools_for_arm_embedded_processors/10.2.1/bin/../lib/gcc/arm-none-eabi/10.2.1/../../../../arm-none-eabi/lib/thumb/v8-m.main+fp/hard\libc.a(lib_a-strcat.o)
                              ./rt-thread/components/drivers/sensors/sensor.o (strcat)
d:/rt-threadstudio/repo/extract/toolchain_support_packages/arm/gnu_tools_for_arm_embedded_processors/10.2.1/bin/../lib/gcc/arm-none-eabi/10.2.1/../../../../arm-none-eabi/lib/thumb/v8-m.main+fp/hard\libc.a(lib_a-strcmp.o)
                              ./rt-thread/components/drivers/sensors/sensor_cmd.o (strcmp)
d:/rt-threadstudio/repo/extract/toolchain_support_packages/arm/gnu_tools_for_arm_embedded_processors/10.2.1/bin/../lib/gcc/arm-none-eabi/10.2.1/../../../../arm-none-eabi/lib/thumb/v8-m.main+fp/hard\libc.a(lib_a-strcpy.o)
                              ./rt-thread/components/finsh/shell.o (strcpy)
d:/rt-threadstudio/repo/extract/toolchain_support_packages/arm/gnu_tools_for_arm_embedded_processors/10.2.1/bin/../lib/gcc/arm-none-eabi/10.2.1/../../../../arm-none-eabi/lib/thumb/v8-m.main+fp/hard\libc.a(lib_a-strlen-stub.o)
                              ./rt-thread/components/finsh/msh.o (strlen)
d:/rt-threadstudio/repo/extract/toolchain_support_packages/arm/gnu_tools_for_arm_embedded_processors/10.2.1/bin/../lib/gcc/arm-none-eabi/10.2.1/../../../../arm-none-eabi/lib/thumb/v8-m.main+fp/hard\libc.a(lib_a-strncmp.o)
                              ./rt-thread/components/finsh/msh.o (strncmp)
d:/rt-threadstudio/repo/extract/toolchain_support_packages/arm/gnu_tools_for_arm_embedded_processors/10.2.1/bin/../lib/gcc/arm-none-eabi/10.2.1/../../../../arm-none-eabi/lib/thumb/v8-m.main+fp/hard\libc.a(lib_a-strncpy.o)
                              ./rt-thread/components/finsh/shell.o (strncpy)
d:/rt-threadstudio/repo/extract/toolchain_support_packages/arm/gnu_tools_for_arm_embedded_processors/10.2.1/bin/../lib/gcc/arm-none-eabi/10.2.1/../../../../arm-none-eabi/lib/thumb/v8-m.main+fp/hard\libc.a(lib_a-strtol.o)
                              d:/rt-threadstudio/repo/extract/toolchain_support_packages/arm/gnu_tools_for_arm_embedded_processors/10.2.1/bin/../lib/gcc/arm-none-eabi/10.2.1/../../../../arm-none-eabi/lib/thumb/v8-m.main+fp/hard\libc.a(lib_a-atoi.o) (_strtol_r)
d:/rt-threadstudio/repo/extract/toolchain_support_packages/arm/gnu_tools_for_arm_embedded_processors/10.2.1/bin/../lib/gcc/arm-none-eabi/10.2.1/../../../../arm-none-eabi/lib/thumb/v8-m.main+fp/hard\libc.a(lib_a-svfprintf.o)
                              d:/rt-threadstudio/repo/extract/toolchain_support_packages/arm/gnu_tools_for_arm_embedded_processors/10.2.1/bin/../lib/gcc/arm-none-eabi/10.2.1/../../../../arm-none-eabi/lib/thumb/v8-m.main+fp/hard\libc.a(lib_a-snprintf.o) (_svfprintf_r)
d:/rt-threadstudio/repo/extract/toolchain_support_packages/arm/gnu_tools_for_arm_embedded_processors/10.2.1/bin/../lib/gcc/arm-none-eabi/10.2.1/../../../../arm-none-eabi/lib/thumb/v8-m.main+fp/hard\libc.a(lib_a-__call_atexit.o)
                              d:/rt-threadstudio/repo/extract/toolchain_support_packages/arm/gnu_tools_for_arm_embedded_processors/10.2.1/bin/../lib/gcc/arm-none-eabi/10.2.1/../../../../arm-none-eabi/lib/thumb/v8-m.main+fp/hard\libc.a(lib_a-exit.o) (__call_exitprocs)
d:/rt-threadstudio/repo/extract/toolchain_support_packages/arm/gnu_tools_for_arm_embedded_processors/10.2.1/bin/../lib/gcc/arm-none-eabi/10.2.1/../../../../arm-none-eabi/lib/thumb/v8-m.main+fp/hard\libc.a(lib_a-atexit.o)
                              d:/rt-threadstudio/repo/extract/toolchain_support_packages/arm/gnu_tools_for_arm_embedded_processors/10.2.1/bin/../lib/gcc/arm-none-eabi/10.2.1/../../../../arm-none-eabi/lib/thumb/v8-m.main+fp/hard\libc.a(lib_a-__call_atexit.o) (atexit)
d:/rt-threadstudio/repo/extract/toolchain_support_packages/arm/gnu_tools_for_arm_embedded_processors/10.2.1/bin/../lib/gcc/arm-none-eabi/10.2.1/../../../../arm-none-eabi/lib/thumb/v8-m.main+fp/hard\libc.a(lib_a-ctype_.o)
                              d:/rt-threadstudio/repo/extract/toolchain_support_packages/arm/gnu_tools_for_arm_embedded_processors/10.2.1/bin/../lib/gcc/arm-none-eabi/10.2.1/../../../../arm-none-eabi/lib/thumb/v8-m.main+fp/hard\libc.a(lib_a-strtol.o) (_ctype_)
d:/rt-threadstudio/repo/extract/toolchain_support_packages/arm/gnu_tools_for_arm_embedded_processors/10.2.1/bin/../lib/gcc/arm-none-eabi/10.2.1/../../../../arm-none-eabi/lib/thumb/v8-m.main+fp/hard\libc.a(lib_a-dtoa.o)
                              d:/rt-threadstudio/repo/extract/toolchain_support_packages/arm/gnu_tools_for_arm_embedded_processors/10.2.1/bin/../lib/gcc/arm-none-eabi/10.2.1/../../../../arm-none-eabi/lib/thumb/v8-m.main+fp/hard\libc.a(lib_a-svfprintf.o) (_dtoa_r)
d:/rt-threadstudio/repo/extract/toolchain_support_packages/arm/gnu_tools_for_arm_embedded_processors/10.2.1/bin/../lib/gcc/arm-none-eabi/10.2.1/../../../../arm-none-eabi/lib/thumb/v8-m.main+fp/hard\libc.a(lib_a-fini.o)
                              d:/rt-threadstudio/repo/extract/toolchain_support_packages/arm/gnu_tools_for_arm_embedded_processors/10.2.1/bin/../lib/gcc/arm-none-eabi/10.2.1/../../../../arm-none-eabi/lib/thumb/v8-m.main+fp/hard\libc.a(lib_a-__call_atexit.o) (__libc_fini_array)
d:/rt-threadstudio/repo/extract/toolchain_support_packages/arm/gnu_tools_for_arm_embedded_processors/10.2.1/bin/../lib/gcc/arm-none-eabi/10.2.1/../../../../arm-none-eabi/lib/thumb/v8-m.main+fp/hard\libc.a(lib_a-localeconv.o)
                              d:/rt-threadstudio/repo/extract/toolchain_support_packages/arm/gnu_tools_for_arm_embedded_processors/10.2.1/bin/../lib/gcc/arm-none-eabi/10.2.1/../../../../arm-none-eabi/lib/thumb/v8-m.main+fp/hard\libc.a(lib_a-svfprintf.o) (_localeconv_r)
d:/rt-threadstudio/repo/extract/toolchain_support_packages/arm/gnu_tools_for_arm_embedded_processors/10.2.1/bin/../lib/gcc/arm-none-eabi/10.2.1/../../../../arm-none-eabi/lib/thumb/v8-m.main+fp/hard\libc.a(lib_a-lock.o)
                              d:/rt-threadstudio/repo/extract/toolchain_support_packages/arm/gnu_tools_for_arm_embedded_processors/10.2.1/bin/../lib/gcc/arm-none-eabi/10.2.1/../../../../arm-none-eabi/lib/thumb/v8-m.main+fp/hard\libc.a(lib_a-__call_atexit.o) (__retarget_lock_acquire_recursive)
d:/rt-threadstudio/repo/extract/toolchain_support_packages/arm/gnu_tools_for_arm_embedded_processors/10.2.1/bin/../lib/gcc/arm-none-eabi/10.2.1/../../../../arm-none-eabi/lib/thumb/v8-m.main+fp/hard\libc.a(lib_a-memchr-stub.o)
                              d:/rt-threadstudio/repo/extract/toolchain_support_packages/arm/gnu_tools_for_arm_embedded_processors/10.2.1/bin/../lib/gcc/arm-none-eabi/10.2.1/../../../../arm-none-eabi/lib/thumb/v8-m.main+fp/hard\libc.a(lib_a-svfprintf.o) (memchr)
d:/rt-threadstudio/repo/extract/toolchain_support_packages/arm/gnu_tools_for_arm_embedded_processors/10.2.1/bin/../lib/gcc/arm-none-eabi/10.2.1/../../../../arm-none-eabi/lib/thumb/v8-m.main+fp/hard\libc.a(lib_a-mprec.o)
                              d:/rt-threadstudio/repo/extract/toolchain_support_packages/arm/gnu_tools_for_arm_embedded_processors/10.2.1/bin/../lib/gcc/arm-none-eabi/10.2.1/../../../../arm-none-eabi/lib/thumb/v8-m.main+fp/hard\libc.a(lib_a-dtoa.o) (_Balloc)
d:/rt-threadstudio/repo/extract/toolchain_support_packages/arm/gnu_tools_for_arm_embedded_processors/10.2.1/bin/../lib/gcc/arm-none-eabi/10.2.1/../../../../arm-none-eabi/lib/thumb/v8-m.main+fp/hard\libc.a(lib_a-s_frexp.o)
                              d:/rt-threadstudio/repo/extract/toolchain_support_packages/arm/gnu_tools_for_arm_embedded_processors/10.2.1/bin/../lib/gcc/arm-none-eabi/10.2.1/../../../../arm-none-eabi/lib/thumb/v8-m.main+fp/hard\libc.a(lib_a-svfprintf.o) (frexp)
d:/rt-threadstudio/repo/extract/toolchain_support_packages/arm/gnu_tools_for_arm_embedded_processors/10.2.1/bin/../lib/gcc/arm-none-eabi/10.2.1/../../../../arm-none-eabi/lib/thumb/v8-m.main+fp/hard\libc.a(lib_a-svfiprintf.o)
                              d:/rt-threadstudio/repo/extract/toolchain_support_packages/arm/gnu_tools_for_arm_embedded_processors/10.2.1/bin/../lib/gcc/arm-none-eabi/10.2.1/../../../../arm-none-eabi/lib/thumb/v8-m.main+fp/hard\libc.a(lib_a-svfprintf.o) (__ssprint_r)
d:/rt-threadstudio/repo/extract/toolchain_support_packages/arm/gnu_tools_for_arm_embedded_processors/10.2.1/bin/../lib/gcc/arm-none-eabi/10.2.1/../../../../arm-none-eabi/lib/thumb/v8-m.main+fp/hard\libc.a(lib_a-__atexit.o)
                              d:/rt-threadstudio/repo/extract/toolchain_support_packages/arm/gnu_tools_for_arm_embedded_processors/10.2.1/bin/../lib/gcc/arm-none-eabi/10.2.1/../../../../arm-none-eabi/lib/thumb/v8-m.main+fp/hard\libc.a(lib_a-atexit.o) (__register_exitproc)
d:/rt-threadstudio/repo/extract/toolchain_support_packages/arm/gnu_tools_for_arm_embedded_processors/10.2.1/bin/../lib/gcc/arm-none-eabi/10.2.1/../../../../arm-none-eabi/lib/thumb/v8-m.main+fp/hard\libc.a(lib_a-locale.o)
                              d:/rt-threadstudio/repo/extract/toolchain_support_packages/arm/gnu_tools_for_arm_embedded_processors/10.2.1/bin/../lib/gcc/arm-none-eabi/10.2.1/../../../../arm-none-eabi/lib/thumb/v8-m.main+fp/hard\libc.a(lib_a-localeconv.o) (__global_locale)
d:/rt-threadstudio/repo/extract/toolchain_support_packages/arm/gnu_tools_for_arm_embedded_processors/10.2.1/bin/../lib/gcc/arm-none-eabi/10.2.1/../../../../arm-none-eabi/lib/thumb/v8-m.main+fp/hard\libc.a(lib_a-mbtowc_r.o)
                              d:/rt-threadstudio/repo/extract/toolchain_support_packages/arm/gnu_tools_for_arm_embedded_processors/10.2.1/bin/../lib/gcc/arm-none-eabi/10.2.1/../../../../arm-none-eabi/lib/thumb/v8-m.main+fp/hard\libc.a(lib_a-locale.o) (__ascii_mbtowc)
d:/rt-threadstudio/repo/extract/toolchain_support_packages/arm/gnu_tools_for_arm_embedded_processors/10.2.1/bin/../lib/gcc/arm-none-eabi/10.2.1/../../../../arm-none-eabi/lib/thumb/v8-m.main+fp/hard\libc.a(lib_a-wctomb_r.o)
                              d:/rt-threadstudio/repo/extract/toolchain_support_packages/arm/gnu_tools_for_arm_embedded_processors/10.2.1/bin/../lib/gcc/arm-none-eabi/10.2.1/../../../../arm-none-eabi/lib/thumb/v8-m.main+fp/hard\libc.a(lib_a-locale.o) (__ascii_wctomb)
d:/rt-threadstudio/repo/extract/toolchain_support_packages/arm/gnu_tools_for_arm_embedded_processors/10.2.1/bin/../lib/gcc/arm-none-eabi/10.2.1/thumb/v8-m.main+fp/hard\libgcc.a(_arm_muldf3.o)
                              ./src/adc.o (__aeabi_dmul)
d:/rt-threadstudio/repo/extract/toolchain_support_packages/arm/gnu_tools_for_arm_embedded_processors/10.2.1/bin/../lib/gcc/arm-none-eabi/10.2.1/thumb/v8-m.main+fp/hard\libgcc.a(_arm_addsubdf3.o)
                              d:/rt-threadstudio/repo/extract/toolchain_support_packages/arm/gnu_tools_for_arm_embedded_processors/10.2.1/bin/../lib/gcc/arm-none-eabi/10.2.1/../../../../arm-none-eabi/lib/thumb/v8-m.main+fp/hard\libm.a(lib_a-s_cos.o) (__aeabi_dsub)
d:/rt-threadstudio/repo/extract/toolchain_support_packages/arm/gnu_tools_for_arm_embedded_processors/10.2.1/bin/../lib/gcc/arm-none-eabi/10.2.1/thumb/v8-m.main+fp/hard\libgcc.a(_arm_muldivdf3.o)
                              ./rt-thread/components/drivers/misc/rt_drv_pwm.o (__aeabi_ddiv)
d:/rt-threadstudio/repo/extract/toolchain_support_packages/arm/gnu_tools_for_arm_embedded_processors/10.2.1/bin/../lib/gcc/arm-none-eabi/10.2.1/thumb/v8-m.main+fp/hard\libgcc.a(_arm_cmpdf2.o)
                              d:/rt-threadstudio/repo/extract/toolchain_support_packages/arm/gnu_tools_for_arm_embedded_processors/10.2.1/bin/../lib/gcc/arm-none-eabi/10.2.1/../../../../arm-none-eabi/lib/thumb/v8-m.main+fp/hard\libm.a(lib_a-e_rem_pio2.o) (__aeabi_dcmpeq)
d:/rt-threadstudio/repo/extract/toolchain_support_packages/arm/gnu_tools_for_arm_embedded_processors/10.2.1/bin/../lib/gcc/arm-none-eabi/10.2.1/thumb/v8-m.main+fp/hard\libgcc.a(_arm_unorddf2.o)
                              d:/rt-threadstudio/repo/extract/toolchain_support_packages/arm/gnu_tools_for_arm_embedded_processors/10.2.1/bin/../lib/gcc/arm-none-eabi/10.2.1/../../../../arm-none-eabi/lib/thumb/v8-m.main+fp/hard\libc.a(lib_a-svfprintf.o) (__aeabi_dcmpun)
d:/rt-threadstudio/repo/extract/toolchain_support_packages/arm/gnu_tools_for_arm_embedded_processors/10.2.1/bin/../lib/gcc/arm-none-eabi/10.2.1/thumb/v8-m.main+fp/hard\libgcc.a(_arm_fixdfsi.o)
                              ./src/adc.o (__aeabi_d2iz)
d:/rt-threadstudio/repo/extract/toolchain_support_packages/arm/gnu_tools_for_arm_embedded_processors/10.2.1/bin/../lib/gcc/arm-none-eabi/10.2.1/thumb/v8-m.main+fp/hard\libgcc.a(_arm_fixunsdfsi.o)
                              ./src/pwmled.o (__aeabi_d2uiz)
d:/rt-threadstudio/repo/extract/toolchain_support_packages/arm/gnu_tools_for_arm_embedded_processors/10.2.1/bin/../lib/gcc/arm-none-eabi/10.2.1/thumb/v8-m.main+fp/hard\libgcc.a(_arm_truncdfsf2.o)
                              ./packages/ssd1306-latest/src/ssd1306.o (__aeabi_d2f)
d:/rt-threadstudio/repo/extract/toolchain_support_packages/arm/gnu_tools_for_arm_embedded_processors/10.2.1/bin/../lib/gcc/arm-none-eabi/10.2.1/thumb/v8-m.main+fp/hard\libgcc.a(_aeabi_ldivmod.o)
                              ./rt-thread/components/libc/compilers/common/time.o (__aeabi_ldivmod)
d:/rt-threadstudio/repo/extract/toolchain_support_packages/arm/gnu_tools_for_arm_embedded_processors/10.2.1/bin/../lib/gcc/arm-none-eabi/10.2.1/thumb/v8-m.main+fp/hard\libgcc.a(_aeabi_uldivmod.o)
                              ./libraries/HAL_Drivers/drv_pwm.o (__aeabi_uldivmod)
d:/rt-threadstudio/repo/extract/toolchain_support_packages/arm/gnu_tools_for_arm_embedded_processors/10.2.1/bin/../lib/gcc/arm-none-eabi/10.2.1/thumb/v8-m.main+fp/hard\libgcc.a(_udivmoddi4.o)
                              d:/rt-threadstudio/repo/extract/toolchain_support_packages/arm/gnu_tools_for_arm_embedded_processors/10.2.1/bin/../lib/gcc/arm-none-eabi/10.2.1/thumb/v8-m.main+fp/hard\libgcc.a(_aeabi_ldivmod.o) (__udivmoddi4)
d:/rt-threadstudio/repo/extract/toolchain_support_packages/arm/gnu_tools_for_arm_embedded_processors/10.2.1/bin/../lib/gcc/arm-none-eabi/10.2.1/thumb/v8-m.main+fp/hard\libgcc.a(_dvmd_tls.o)
                              d:/rt-threadstudio/repo/extract/toolchain_support_packages/arm/gnu_tools_for_arm_embedded_processors/10.2.1/bin/../lib/gcc/arm-none-eabi/10.2.1/thumb/v8-m.main+fp/hard\libgcc.a(_aeabi_ldivmod.o) (__aeabi_ldiv0)

Discarded input sections

 .text          0x00000000        0x0 d:/rt-threadstudio/repo/extract/toolchain_support_packages/arm/gnu_tools_for_arm_embedded_processors/10.2.1/bin/../lib/gcc/arm-none-eabi/10.2.1/thumb/v8-m.main+fp/hard/crti.o
 .data          0x00000000        0x0 d:/rt-threadstudio/repo/extract/toolchain_support_packages/arm/gnu_tools_for_arm_embedded_processors/10.2.1/bin/../lib/gcc/arm-none-eabi/10.2.1/thumb/v8-m.main+fp/hard/crti.o
 .bss           0x00000000        0x0 d:/rt-threadstudio/repo/extract/toolchain_support_packages/arm/gnu_tools_for_arm_embedded_processors/10.2.1/bin/../lib/gcc/arm-none-eabi/10.2.1/thumb/v8-m.main+fp/hard/crti.o
 .data          0x00000000        0x4 d:/rt-threadstudio/repo/extract/toolchain_support_packages/arm/gnu_tools_for_arm_embedded_processors/10.2.1/bin/../lib/gcc/arm-none-eabi/10.2.1/thumb/v8-m.main+fp/hard/crtbegin.o
 .rodata        0x00000000       0x24 d:/rt-threadstudio/repo/extract/toolchain_support_packages/arm/gnu_tools_for_arm_embedded_processors/10.2.1/bin/../lib/gcc/arm-none-eabi/10.2.1/thumb/v8-m.main+fp/hard/crtbegin.o
 .text          0x00000000       0x7c d:/rt-threadstudio/repo/extract/toolchain_support_packages/arm/gnu_tools_for_arm_embedded_processors/10.2.1/bin/../lib/gcc/arm-none-eabi/10.2.1/../../../../arm-none-eabi/lib/thumb/v8-m.main+fp/hard/crt0.o
 .data          0x00000000        0x0 d:/rt-threadstudio/repo/extract/toolchain_support_packages/arm/gnu_tools_for_arm_embedded_processors/10.2.1/bin/../lib/gcc/arm-none-eabi/10.2.1/../../../../arm-none-eabi/lib/thumb/v8-m.main+fp/hard/crt0.o
 .bss           0x00000000        0x0 d:/rt-threadstudio/repo/extract/toolchain_support_packages/arm/gnu_tools_for_arm_embedded_processors/10.2.1/bin/../lib/gcc/arm-none-eabi/10.2.1/../../../../arm-none-eabi/lib/thumb/v8-m.main+fp/hard/crt0.o
 .ARM.extab     0x00000000        0x0 d:/rt-threadstudio/repo/extract/toolchain_support_packages/arm/gnu_tools_for_arm_embedded_processors/10.2.1/bin/../lib/gcc/arm-none-eabi/10.2.1/../../../../arm-none-eabi/lib/thumb/v8-m.main+fp/hard/crt0.o
 .ARM.exidx     0x00000000       0x10 d:/rt-threadstudio/repo/extract/toolchain_support_packages/arm/gnu_tools_for_arm_embedded_processors/10.2.1/bin/../lib/gcc/arm-none-eabi/10.2.1/../../../../arm-none-eabi/lib/thumb/v8-m.main+fp/hard/crt0.o
 .ARM.attributes
                0x00000000       0x20 d:/rt-threadstudio/repo/extract/toolchain_support_packages/arm/gnu_tools_for_arm_embedded_processors/10.2.1/bin/../lib/gcc/arm-none-eabi/10.2.1/../../../../arm-none-eabi/lib/thumb/v8-m.main+fp/hard/crt0.o
 .text          0x00000000        0x0 ./src/adc.o
 .data          0x00000000        0x0 ./src/adc.o
 .bss           0x00000000        0x0 ./src/adc.o
 .text          0x00000000        0x0 ./src/hal_entry.o
 .data          0x00000000        0x0 ./src/hal_entry.o
 .bss           0x00000000        0x0 ./src/hal_entry.o
Memory Configuration

Name             Origin             Length             Attributes
FLASH            0x00000000         0x00100000         xr
RAM              0x20000000         0x00040000         xrw
DATA_FLASH       0x08000000         0x00002000         xr
QSPI_FLASH       0x60000000         0x04000000         xr
OSPI_DEVICE_0    0x68000000         0x08000000         xr
OSPI_DEVICE_1    0x70000000         0x10000000         xr
OSPI_DEVICE_0_RAM 0x68000000         0x08000000         xrw
OSPI_DEVICE_1_RAM 0x70000000         0x10000000         xrw
SDRAM            0x90000000         0x00000000         xrw
OPTION_SETTING   0x0100a100         0x00000100         r
OPTION_SETTING_S 0x0100a200         0x00000100         r
ID_CODE          0x00000000         0x00000000         xr
*default*        0x00000000         0xffffffff

Linker script and memory map

LOAD d:/rt-threadstudio/repo/extract/toolchain_support_packages/arm/gnu_tools_for_arm_embedded_processors/10.2.1/bin/../lib/gcc/arm-none-eabi/10.2.1/thumb/v8-m.main+fp/hard/crti.o
LOAD d:/rt-threadstudio/repo/extract/toolchain_support_packages/arm/gnu_tools_for_arm_embedded_processors/10.2.1/bin/../lib/gcc/arm-none-eabi/10.2.1/thumb/v8-m.main+fp/hard/crtbegin.o
LOAD d:/rt-threadstudio/repo/extract/toolchain_support_packages/arm/gnu_tools_for_arm_embedded_processors/10.2.1/bin/../lib/gcc/arm-none-eabi/10.2.1/../../../../arm-none-eabi/lib/thumb/v8-m.main+fp/hard/crt0.o
LOAD ./src/adc.o
LOAD ./src/hal_entry.o
LOAD ./src/pwmled.o
LOAD ./src/uart.o
LOAD ./rt-thread/src/clock.o
LOAD ./rt-thread/src/components.o
LOAD ./rt-thread/src/device.o
LOAD ./rt-thread/src/idle.o
LOAD ./rt-thread/src/ipc.o
LOAD ./rt-thread/src/irq.o
LOAD ./rt-thread/src/kservice.o
LOAD ./rt-thread/src/mem.o
LOAD ./rt-thread/src/object.o
LOAD ./rt-thread/src/scheduler.o
LOAD ./rt-thread/src/thread.o
LOAD ./rt-thread/src/timer.o
LOAD ./rt-thread/libcpu/arm/cortex-m4/context_gcc.o
LOAD ./rt-thread/libcpu/arm/cortex-m4/cpuport.o
LOAD ./rt-thread/libcpu/arm/common/backtrace.o
LOAD ./rt-thread/libcpu/arm/common/div0.o
LOAD ./rt-thread/libcpu/arm/common/showmem.o
LOAD ./rt-thread/components/libc/compilers/newlib/syscalls.o
LOAD ./rt-thread/components/libc/compilers/common/stdlib.o
LOAD ./rt-thread/components/libc/compilers/common/time.o
LOAD ./rt-thread/components/finsh/cmd.o
LOAD ./rt-thread/components/finsh/msh.o
LOAD ./rt-thread/components/finsh/shell.o
LOAD ./rt-thread/components/drivers/serial/serial_v2.o
LOAD ./rt-thread/components/drivers/sensors/sensor.o
LOAD ./rt-thread/components/drivers/sensors/sensor_cmd.o
LOAD ./rt-thread/components/drivers/misc/adc.o
LOAD ./rt-thread/components/drivers/misc/pin.o
LOAD ./rt-thread/components/drivers/misc/rt_drv_pwm.o
LOAD ./rt-thread/components/drivers/ipc/completion.o
LOAD ./rt-thread/components/drivers/ipc/dataqueue.o
LOAD ./rt-thread/components/drivers/ipc/pipe.o
LOAD ./rt-thread/components/drivers/ipc/ringblk_buf.o
LOAD ./rt-thread/components/drivers/ipc/ringbuffer.o
LOAD ./rt-thread/components/drivers/ipc/waitqueue.o
LOAD ./rt-thread/components/drivers/ipc/workqueue.o
LOAD ./rt-thread/components/drivers/i2c/i2c-bit-ops.o
LOAD ./rt-thread/components/drivers/i2c/i2c_core.o
LOAD ./rt-thread/components/drivers/i2c/i2c_dev.o
LOAD ./ra_gen/common_data.o
LOAD ./ra_gen/hal_data.o
LOAD ./ra_gen/main.o
LOAD ./ra_gen/pin_data.o
LOAD ./ra_gen/vector_data.o
LOAD ./ra/fsp/src/r_sci_uart/r_sci_uart.o
LOAD ./ra/fsp/src/r_ioport/r_ioport.o
LOAD ./ra/fsp/src/r_icu/r_icu.o
LOAD ./ra/fsp/src/r_gpt/r_gpt.o
LOAD ./ra/fsp/src/r_adc/r_adc.o
LOAD ./ra/fsp/src/bsp/mcu/all/bsp_clocks.o
LOAD ./ra/fsp/src/bsp/mcu/all/bsp_common.o
LOAD ./ra/fsp/src/bsp/mcu/all/bsp_delay.o
LOAD ./ra/fsp/src/bsp/mcu/all/bsp_group_irq.o
LOAD ./ra/fsp/src/bsp/mcu/all/bsp_guard.o
LOAD ./ra/fsp/src/bsp/mcu/all/bsp_io.o
LOAD ./ra/fsp/src/bsp/mcu/all/bsp_irq.o
LOAD ./ra/fsp/src/bsp/mcu/all/bsp_register_protection.o
LOAD ./ra/fsp/src/bsp/mcu/all/bsp_rom_registers.o
LOAD ./ra/fsp/src/bsp/mcu/all/bsp_sbrk.o
LOAD ./ra/fsp/src/bsp/mcu/all/bsp_security.o
LOAD ./ra/fsp/src/bsp/cmsis/Device/RENESAS/Source/startup.o
LOAD ./ra/fsp/src/bsp/cmsis/Device/RENESAS/Source/system.o
LOAD ./packages/ssd1306-latest/src/ssd1306.o
LOAD ./packages/ssd1306-latest/src/ssd1306_fonts.o
LOAD ./packages/ssd1306-latest/examples/ssd1306_tests.o
LOAD ./packages/dhtxx-latest/src/dhtxx.o
LOAD ./packages/dhtxx-latest/src/sensor_asair_dhtxx.o
LOAD ./packages/dhtxx-latest/examples/dhtxx_sample.o
LOAD ./packages/dhtxx-latest/examples/sensor_dhtxx_sample.o
LOAD ./packages/bmp180-latest/bmp180.o
LOAD ./packages/bmp180-latest/bmp180_sample.o
LOAD ./libraries/HAL_Drivers/drv_adc.o
LOAD ./libraries/HAL_Drivers/drv_common.o
LOAD ./libraries/HAL_Drivers/drv_gpio.o
LOAD ./libraries/HAL_Drivers/drv_pwm.o
LOAD ./libraries/HAL_Drivers/drv_soft_i2c.o
LOAD ./libraries/HAL_Drivers/drv_usart_v2.o
LOAD ./board/ports/drv_rw007.o
LOAD d:/rt-threadstudio/repo/extract/toolchain_support_packages/arm/gnu_tools_for_arm_embedded_processors/10.2.1/bin/../lib/gcc/arm-none-eabi/10.2.1/../../../../arm-none-eabi/lib/thumb/v8-m.main+fp/hard\libm.a
LOAD d:/rt-threadstudio/repo/extract/toolchain_support_packages/arm/gnu_tools_for_arm_embedded_processors/10.2.1/bin/../lib/gcc/arm-none-eabi/10.2.1/../../../../arm-none-eabi/lib/thumb/v8-m.main+fp/hard\libc.a
START GROUP
LOAD d:/rt-threadstudio/repo/extract/toolchain_support_packages/arm/gnu_tools_for_arm_embedded_processors/10.2.1/bin/../lib/gcc/arm-none-eabi/10.2.1/thumb/v8-m.main+fp/hard\libgcc.a
LOAD d:/rt-threadstudio/repo/extract/toolchain_support_packages/arm/gnu_tools_for_arm_embedded_processors/10.2.1/bin/../lib/gcc/arm-none-eabi/10.2.1/../../../../arm-none-eabi/lib/thumb/v8-m.main+fp/hard\libc.a
END GROUP
LOAD d:/rt-threadstudio/repo/extract/toolchain_support_packages/arm/gnu_tools_for_arm_embedded_processors/10.2.1/bin/../lib/gcc/arm-none-eabi/10.2.1/thumb/v8-m.main+fp/hard/crtend.o
LOAD d:/rt-threadstudio/repo/extract/toolchain_support_packages/arm/gnu_tools_for_arm_embedded_processors/10.2.1/bin/../lib/gcc/arm-none-eabi/10.2.1/thumb/v8-m.main+fp/hard/crtn.o
                0x20000000                RAM_START = 0x20000000
                0x00040000                RAM_LENGTH = 0x40000
                0x00000000                FLASH_START = 0x0
                0x00100000                FLASH_LENGTH = 0x100000
                0x08000000                DATA_FLASH_START = 0x8000000
                0x00002000                DATA_FLASH_LENGTH = 0x2000
                0x0100a100                OPTION_SETTING_START = 0x100a100
                0x00000100                OPTION_SETTING_LENGTH = 0x100
                0x0100a200                OPTION_SETTING_S_START = 0x100a200
                0x00000100                OPTION_SETTING_S_LENGTH = 0x100
                0x00000000                ID_CODE_START = 0x0
                0x00000000                ID_CODE_LENGTH = 0x0
                0x90000000                SDRAM_START = 0x90000000
                0x00000000                SDRAM_LENGTH = 0x0
                0x60000000                QSPI_FLASH_START = 0x60000000
                0x04000000                QSPI_FLASH_LENGTH = 0x4000000
                0x68000000                OSPI_DEVICE_0_START = 0x68000000
                0x08000000                OSPI_DEVICE_0_LENGTH = 0x8000000
                0x70000000                OSPI_DEVICE_1_START = 0x70000000
                0x10000000                OSPI_DEVICE_1_LENGTH = 0x10000000
                0x04000000                QSPI_FLASH_PRV_LENGTH = DEFINED (QSPI_FLASH_SIZE)?ABSOLUTE (QSPI_FLASH_SIZE):ABSOLUTE (QSPI_FLASH_LENGTH)
                0x08000000                OSPI_DEVICE_0_PRV_LENGTH = DEFINED (OSPI_DEVICE_0_SIZE)?ABSOLUTE (OSPI_DEVICE_0_SIZE):ABSOLUTE (OSPI_DEVICE_0_LENGTH)
                0x10000000                OSPI_DEVICE_1_PRV_LENGTH = DEFINED (OSPI_DEVICE_1_SIZE)?ABSOLUTE (OSPI_DEVICE_1_SIZE):ABSOLUTE (OSPI_DEVICE_1_LENGTH)
                0x00000000                __RESERVE_NS_RAM = ((! (DEFINED (PROJECT_NONSECURE)) && DEFINED (RAM_NS_BUFFER_LENGTH)) && (OPTION_SETTING_S_LENGTH != 0x0))
                0x00000000                RAM_NS_BUFFER_BLOCK_LENGTH = DEFINED (RAM_NS_BUFFER_LENGTH)?ALIGN (RAM_NS_BUFFER_LENGTH, 0x2000):0x0
                0x00000000                RAM_NS_BUFFER_LENGTH = DEFINED (RAM_NS_BUFFER_LENGTH)?RAM_NS_BUFFER_LENGTH:0x0
                0x20040000                RAM_NS_BUFFER_START = ((RAM_START + RAM_LENGTH) - RAM_NS_BUFFER_LENGTH)
                0x20040000                RAM_NS_BUFFER_BLOCK_START = ((RAM_START + RAM_LENGTH) - RAM_NS_BUFFER_BLOCK_LENGTH)
                0x0100a180                OPTION_SETTING_START_NS = 0x100a180
                0x00000001                __bl_FSP_BOOTABLE_IMAGE = 0x1
                0x00000001                __bln_FSP_BOOTABLE_IMAGE = 0x1
                0x00000001                PROJECT_SECURE_OR_FLAT = ((! (DEFINED (PROJECT_NONSECURE)) && OPTION_SETTING_LENGTH) && ! (DEFINED (FSP_BOOTABLE_IMAGE)))
                0x00000000                USE_OPTION_SETTING_NS = (DEFINED (PROJECT_NONSECURE) && ! (DEFINED (FSP_BOOTABLE_IMAGE)))
                0x00000000                __bl_FLASH_IMAGE_START = ! (DEFINED (FLASH_BOOTLOADER_LENGTH))?0x0:(FLASH_APPLICATION_IMAGE_NUMBER == 0x1)?(FLASH_BOOTLOADER_LENGTH + FLASH_BOOTLOADER_HEADER_LENGTH):(((FLASH_BOOTLOADER_LENGTH + FLASH_BOOTLOADER_SCRATCH_LENGTH) + FLASH_APPLICATION_S_LENGTH) + FLASH_BOOTLOADER_HEADER_LENGTH)
                0x00000000                __bl_FLASH_IMAGE_LENGTH = ! (DEFINED (FLASH_BOOTLOADER_LENGTH))?0x0:(FLASH_APPLICATION_S_LENGTH - FLASH_BOOTLOADER_HEADER_LENGTH)
                0x00000000                __bl_FLASH_IMAGE_END = (__bl_FLASH_IMAGE_START + __bl_FLASH_IMAGE_LENGTH)
                0x00000000                __bl_FLASH_NS_START = ! (DEFINED (FLASH_BOOTLOADER_LENGTH))?0x0:(FLASH_APPLICATION_NS_LENGTH == 0x0)?__bl_FLASH_IMAGE_END:((__bl_FLASH_IMAGE_START - FLASH_BOOTLOADER_HEADER_LENGTH) + FLASH_APPLICATION_S_LENGTH)
                0x00000000                __bl_FLASH_NSC_START = ! (DEFINED (FLASH_BOOTLOADER_LENGTH))?0x0:(FLASH_APPLICATION_NS_LENGTH == 0x0)?__bl_FLASH_IMAGE_END:(__bl_FLASH_NS_START - FLASH_APPLICATION_NSC_LENGTH)
                0x00000000                __bl_RAM_NS_START = ! (DEFINED (FLASH_BOOTLOADER_LENGTH))?0x0:(FLASH_APPLICATION_NS_LENGTH == 0x0)?(RAM_START + RAM_LENGTH):((RAM_START + RAM_LENGTH) - RAM_APPLICATION_NS_LENGTH)
                0x00000000                __bl_RAM_NSC_START = ! (DEFINED (FLASH_BOOTLOADER_LENGTH))?0x0:(FLASH_APPLICATION_NS_LENGTH == 0x0)?(RAM_START + RAM_LENGTH):(__bl_RAM_NS_START - RAM_APPLICATION_NSC_LENGTH)
                0x00000000                __bl_FLASH_NS_IMAGE_START = ! (DEFINED (FLASH_BOOTLOADER_LENGTH))?0x0:(FLASH_APPLICATION_NS_LENGTH == 0x0)?__bl_FLASH_IMAGE_END:(__bl_FLASH_NS_START + FLASH_BOOTLOADER_HEADER_LENGTH_2)
                0x00000000                __bln_FLASH_IMAGE_START = __bl_FLASH_NS_IMAGE_START
                0x00000000                __bln_FLASH_IMAGE_LENGTH = ! (DEFINED (FLASH_BOOTLOADER_LENGTH))?0x0:(FLASH_APPLICATION_NS_LENGTH == 0x0)?__bl_FLASH_IMAGE_END:(FLASH_APPLICATION_NS_LENGTH - FLASH_BOOTLOADER_HEADER_LENGTH_2)
                0x00000000                FLASH_ORIGIN = DEFINED (FLASH_IMAGE_START)?FLASH_IMAGE_START:FLASH_START
                0x00100000                LIMITED_FLASH_LENGTH = DEFINED (FLASH_IMAGE_LENGTH)?FLASH_IMAGE_LENGTH:DEFINED (FLASH_BOOTLOADER_LENGTH)?FLASH_BOOTLOADER_LENGTH:FLASH_LENGTH
START GROUP
LOAD d:/rt-threadstudio/repo/extract/toolchain_support_packages/arm/gnu_tools_for_arm_embedded_processors/10.2.1/bin/../lib/gcc/arm-none-eabi/10.2.1/thumb/v8-m.main+fp/hard\libgcc.a
LOAD d:/rt-threadstudio/repo/extract/toolchain_support_packages/arm/gnu_tools_for_arm_embedded_processors/10.2.1/bin/../lib/gcc/arm-none-eabi/10.2.1/../../../../arm-none-eabi/lib/thumb/v8-m.main+fp/hard\libc.a
LOAD d:/rt-threadstudio/repo/extract/toolchain_support_packages/arm/gnu_tools_for_arm_embedded_processors/10.2.1/bin/../lib/gcc/arm-none-eabi/10.2.1/../../../../arm-none-eabi/lib/thumb/v8-m.main+fp/hard\libm.a
LOAD d:/rt-threadstudio/repo/extract/toolchain_support_packages/arm/gnu_tools_for_arm_embedded_processors/10.2.1/bin/../lib/gcc/arm-none-eabi/10.2.1/../../../../arm-none-eabi/lib/thumb/v8-m.main+fp/hard\libnosys.a
END GROUP

.text           0x00000000    0x1fed0
                0x00000000                __tz_FLASH_S = ABSOLUTE (FLASH_START)
                0x00000000                __ROM_Start = .
 *(.fixed_vectors*)
 .fixed_vectors
                0x00000000       0x40 ./ra/fsp/src/bsp/cmsis/Device/RENESAS/Source/startup.o
                0x00000000                __Vectors
 *(.application_vectors*)
 .application_vectors
                0x00000040      0x180 ./ra_gen/vector_data.o
                0x00000040                g_vector_table
                0x000001c0                __Vectors_End = .
                0x000001c0                . = (OPTION_SETTING_LENGTH > 0x0)?.:(__ROM_Start + 0x400)
 *(.rom_registers*)
                0x000001c0                . = (OPTION_SETTING_LENGTH > 0x0)?.:(__ROM_Start + 0x500)
                0x00000200                . = ALIGN (0x80)
 *fill*         0x000001c0       0x40 ff
 *(.mcuboot_sce9_key*)
 *(.text*)
 .text          0x00000200       0x40 d:/rt-threadstudio/repo/extract/toolchain_support_packages/arm/gnu_tools_for_arm_embedded_processors/10.2.1/bin/../lib/gcc/arm-none-eabi/10.2.1/thumb/v8-m.main+fp/hard/crtbegin.o
 .text.adc_Initiation
                0x00000240       0x50 ./src/adc.o
                0x00000240                adc_Initiation
 .text.adc_read
                0x00000290      0x1f8 ./src/adc.o
                0x00000290                adc_read
 .text.hal_entry
                0x00000488       0x30 ./src/hal_entry.o
                0x00000488                hal_entry
 .text.pwm_Initiation
                0x000004b8       0xbc ./src/pwmled.o
                0x000004b8                pwm_Initiation
 *fill*         0x00000574        0x4 ff
 .text.pwm_action
                0x00000578      0x104 ./src/pwmled.o
                0x00000578                pwm_action
 .text.uart_rx_ind
                0x0000067c       0x24 ./src/uart.o
 .text.uart_sample_get_char
                0x000006a0       0x44 ./src/uart.o
 .text.control_thread_entry
                0x000006e4      0x1d8 ./src/uart.o
 .text.serial_thread_entry
                0x000008bc      0x140 ./src/uart.o
                0x000008bc                serial_thread_entry
 .text.uart_data_sample
                0x000009fc      0x104 ./src/uart.o
 .text.rt_tick_get
                0x00000b00       0x18 ./rt-thread/src/clock.o
                0x00000b00                rt_tick_get
 .text.rt_tick_increase
                0x00000b18       0x7c ./rt-thread/src/clock.o
                0x00000b18                rt_tick_increase
 .text.rt_tick_from_millisecond
                0x00000b94       0x78 ./rt-thread/src/clock.o
                0x00000b94                rt_tick_from_millisecond
 .text.rti_start
                0x00000c0c       0x10 ./rt-thread/src/components.o
 .text.rti_board_start
                0x00000c1c       0x10 ./rt-thread/src/components.o
 .text.rti_board_end
                0x00000c2c       0x10 ./rt-thread/src/components.o
 .text.rti_end  0x00000c3c       0x10 ./rt-thread/src/components.o
 .text.rt_components_board_init
                0x00000c4c       0x34 ./rt-thread/src/components.o
                0x00000c4c                rt_components_board_init
 .text.rt_components_init
                0x00000c80       0x34 ./rt-thread/src/components.o
                0x00000c80                rt_components_init
 .text.entry    0x00000cb4        0xe ./rt-thread/src/components.o
                0x00000cb4                entry
 .text.main_thread_entry
                0x00000cc2       0x18 ./rt-thread/src/components.o
                0x00000cc2                main_thread_entry
 *fill*         0x00000cda        0x2 ff
 .text.rt_application_init
                0x00000cdc       0x4c ./rt-thread/src/components.o
                0x00000cdc                rt_application_init
 .text.rtthread_startup
                0x00000d28       0x2e ./rt-thread/src/components.o
                0x00000d28                rtthread_startup
 .text.rt_device_register
                0x00000d56       0x54 ./rt-thread/src/device.o
                0x00000d56                rt_device_register
 .text.rt_device_find
                0x00000daa       0x1a ./rt-thread/src/device.o
                0x00000daa                rt_device_find
 .text.rt_device_open
                0x00000dc4      0x108 ./rt-thread/src/device.o
                0x00000dc4                rt_device_open
 .text.rt_device_close
                0x00000ecc       0x9c ./rt-thread/src/device.o
                0x00000ecc                rt_device_close
 .text.rt_device_read
                0x00000f68       0x88 ./rt-thread/src/device.o
                0x00000f68                rt_device_read
 .text.rt_device_write
                0x00000ff0       0x88 ./rt-thread/src/device.o
                0x00000ff0                rt_device_write
 .text.rt_device_control
                0x00001078       0x68 ./rt-thread/src/device.o
                0x00001078                rt_device_control
 .text.rt_device_set_rx_indicate
                0x000010e0       0x54 ./rt-thread/src/device.o
                0x000010e0                rt_device_set_rx_indicate
 .text.rt_list_insert_after
                0x00001134       0x32 ./rt-thread/src/idle.o
 .text.rt_list_remove
                0x00001166       0x36 ./rt-thread/src/idle.o
 .text.rt_thread_defunct_enqueue
                0x0000119c       0x20 ./rt-thread/src/idle.o
                0x0000119c                rt_thread_defunct_enqueue
 .text.rt_thread_defunct_dequeue
                0x000011bc       0x44 ./rt-thread/src/idle.o
                0x000011bc                rt_thread_defunct_dequeue
 .text.rt_defunct_execute
                0x00001200       0x54 ./rt-thread/src/idle.o
 .text.rt_thread_idle_entry
                0x00001254       0x38 ./rt-thread/src/idle.o
 .text.rt_thread_idle_init
                0x0000128c       0x78 ./rt-thread/src/idle.o
                0x0000128c                rt_thread_idle_init
 .text.rt_list_init
                0x00001304       0x22 ./rt-thread/src/ipc.o
 .text.rt_list_insert_before
                0x00001326       0x32 ./rt-thread/src/ipc.o
 .text.rt_list_isempty
                0x00001358       0x24 ./rt-thread/src/ipc.o
 .text._ipc_object_init
                0x0000137c       0x1c ./rt-thread/src/ipc.o
 .text._ipc_list_suspend
                0x00001398       0xa4 ./rt-thread/src/ipc.o
 .text._ipc_list_resume
                0x0000143c       0x20 ./rt-thread/src/ipc.o
 .text._ipc_list_resume_all
                0x0000145c       0x46 ./rt-thread/src/ipc.o
 *fill*         0x000014a2        0x2 ff
 .text.rt_sem_init
                0x000014a4       0x88 ./rt-thread/src/ipc.o
                0x000014a4                rt_sem_init
 .text.rt_sem_create
                0x0000152c       0xac ./rt-thread/src/ipc.o
                0x0000152c                rt_sem_create
 .text.rt_sem_take
                0x000015d8      0x190 ./rt-thread/src/ipc.o
                0x000015d8                rt_sem_take
 .text.rt_sem_release
                0x00001768       0xbc ./rt-thread/src/ipc.o
                0x00001768                rt_sem_release
 .text.rt_sem_control
                0x00001824       0x84 ./rt-thread/src/ipc.o
                0x00001824                rt_sem_control
 .text.rt_mutex_init
                0x000018a8       0x64 ./rt-thread/src/ipc.o
                0x000018a8                rt_mutex_init
 .text.rt_mutex_create
                0x0000190c       0x88 ./rt-thread/src/ipc.o
                0x0000190c                rt_mutex_create
 .text.rt_mutex_take
                0x00001994      0x21c ./rt-thread/src/ipc.o
                0x00001994                rt_mutex_take
 .text.rt_mutex_release
                0x00001bb0      0x1bc ./rt-thread/src/ipc.o
                0x00001bb0                rt_mutex_release
 .text.rt_interrupt_enter
                0x00001d6c       0x40 ./rt-thread/src/irq.o
                0x00001d6c                rt_interrupt_enter
 .text.rt_interrupt_leave
                0x00001dac       0x40 ./rt-thread/src/irq.o
                0x00001dac                rt_interrupt_leave
 .text.rt_interrupt_get_nest
                0x00001dec       0x28 ./rt-thread/src/irq.o
                0x00001dec                rt_interrupt_get_nest
 .text.rt_set_errno
                0x00001e14       0x40 ./rt-thread/src/kservice.o
                0x00001e14                rt_set_errno
 .text._rt_errno
                0x00001e54       0x34 ./rt-thread/src/kservice.o
                0x00001e54                _rt_errno
 .text.rt_memset
                0x00001e88       0xb6 ./rt-thread/src/kservice.o
                0x00001e88                rt_memset
 .text.rt_memcpy
                0x00001f3e       0xd2 ./rt-thread/src/kservice.o
                0x00001f3e                rt_memcpy
 .text.rt_memmove
                0x00002010       0x82 ./rt-thread/src/kservice.o
                0x00002010                rt_memmove
 .text.rt_strncpy
                0x00002092       0x64 ./rt-thread/src/kservice.o
                0x00002092                rt_strncpy
 .text.rt_strncmp
                0x000020f6       0x4a ./rt-thread/src/kservice.o
                0x000020f6                rt_strncmp
 .text.rt_strlen
                0x00002140       0x2e ./rt-thread/src/kservice.o
                0x00002140                rt_strlen
 *fill*         0x0000216e        0x2 ff
 .text.rt_show_version
                0x00002170       0x4c ./rt-thread/src/kservice.o
                0x00002170                rt_show_version
 .text.divide   0x000021bc       0x68 ./rt-thread/src/kservice.o
 .text.skip_atoi
                0x00002224       0x40 ./rt-thread/src/kservice.o
 .text.print_number
                0x00002264      0x1dc ./rt-thread/src/kservice.o
 .text.rt_vsnprintf
                0x00002440      0x4ac ./rt-thread/src/kservice.o
                0x00002440                rt_vsnprintf
 .text.rt_vsprintf
                0x000028ec       0x24 ./rt-thread/src/kservice.o
                0x000028ec                rt_vsprintf
 .text.rt_sprintf
                0x00002910       0x2c ./rt-thread/src/kservice.o
                0x00002910                rt_sprintf
 .text.rt_console_get_device
                0x0000293c       0x18 ./rt-thread/src/kservice.o
                0x0000293c                rt_console_get_device
 .text.rt_console_set_device
                0x00002954       0x58 ./rt-thread/src/kservice.o
                0x00002954                rt_console_set_device
 .text.rt_hw_console_output
                0x000029ac       0x14 ./rt-thread/src/kservice.o
                0x000029ac                rt_hw_console_output
 .text.rt_kprintf
                0x000029c0       0x60 ./rt-thread/src/kservice.o
                0x000029c0                rt_kprintf
 .text._heap_lock_init
                0x00002a20       0x1c ./rt-thread/src/kservice.o
 .text._heap_lock
                0x00002a3c       0x28 ./rt-thread/src/kservice.o
 .text._heap_unlock
                0x00002a64       0x40 ./rt-thread/src/kservice.o
 .text._smem_info
                0x00002aa4       0x4c ./rt-thread/src/kservice.o
 .text.rt_system_heap_init
                0x00002af0       0x64 ./rt-thread/src/kservice.o
                0x00002af0                rt_system_heap_init
 .text.rt_malloc
                0x00002b54       0x48 ./rt-thread/src/kservice.o
                0x00002b54                rt_malloc
 .text.rt_realloc
                0x00002b9c       0x34 ./rt-thread/src/kservice.o
                0x00002b9c                rt_realloc
 .text.rt_calloc
                0x00002bd0       0x3c ./rt-thread/src/kservice.o
                0x00002bd0                rt_calloc
 .text.rt_free  0x00002c0c       0x38 ./rt-thread/src/kservice.o
                0x00002c0c                rt_free
 .text.rt_memory_info
                0x00002c44       0x2a ./rt-thread/src/kservice.o
                0x00002c44                rt_memory_info
 *fill*         0x00002c6e        0x2 ff
 .text.rt_assert_handler
                0x00002c70       0x4c ./rt-thread/src/kservice.o
                0x00002c70                rt_assert_handler
 .text.plug_holes
                0x00002cbc       0xf8 ./rt-thread/src/mem.o
 .text.rt_smem_init
                0x00002db4      0x104 ./rt-thread/src/mem.o
                0x00002db4                rt_smem_init
 .text.rt_smem_alloc
                0x00002eb8      0x268 ./rt-thread/src/mem.o
                0x00002eb8                rt_smem_alloc
 .text.rt_smem_realloc
                0x00003120      0x1d4 ./rt-thread/src/mem.o
                0x00003120                rt_smem_realloc
 .text.rt_smem_free
                0x000032f4      0x140 ./rt-thread/src/mem.o
                0x000032f4                rt_smem_free
 .text.rt_list_insert_after
                0x00003434       0x32 ./rt-thread/src/object.o
 .text.rt_list_remove
                0x00003466       0x36 ./rt-thread/src/object.o
 .text.rt_object_get_information
                0x0000349c       0x48 ./rt-thread/src/object.o
                0x0000349c                rt_object_get_information
 .text.rt_object_init
                0x000034e4       0xcc ./rt-thread/src/object.o
                0x000034e4                rt_object_init
 .text.rt_object_detach
                0x000035b0       0x5c ./rt-thread/src/object.o
                0x000035b0                rt_object_detach
 .text.rt_object_allocate
                0x0000360c       0xd8 ./rt-thread/src/object.o
                0x0000360c                rt_object_allocate
 .text.rt_object_delete
                0x000036e4       0x7c ./rt-thread/src/object.o
                0x000036e4                rt_object_delete
 .text.rt_object_is_systemobject
                0x00003760       0x3c ./rt-thread/src/object.o
                0x00003760                rt_object_is_systemobject
 .text.rt_object_get_type
                0x0000379c       0x34 ./rt-thread/src/object.o
                0x0000379c                rt_object_get_type
 .text.rt_object_find
                0x000037d0       0xb4 ./rt-thread/src/object.o
                0x000037d0                rt_object_find
 .text.rt_list_init
                0x00003884       0x22 ./rt-thread/src/scheduler.o
 .text.rt_list_insert_before
                0x000038a6       0x32 ./rt-thread/src/scheduler.o
 .text.rt_list_remove
                0x000038d8       0x36 ./rt-thread/src/scheduler.o
 .text.rt_list_isempty
                0x0000390e       0x24 ./rt-thread/src/scheduler.o
 *fill*         0x00003932        0x2 ff
 .text._rt_scheduler_stack_check
                0x00003934       0x94 ./rt-thread/src/scheduler.o
 .text._scheduler_get_highest_priority_thread
                0x000039c8       0x38 ./rt-thread/src/scheduler.o
 .text.rt_system_scheduler_init
                0x00003a00       0x38 ./rt-thread/src/scheduler.o
                0x00003a00                rt_system_scheduler_init
 .text.rt_system_scheduler_start
                0x00003a38       0x38 ./rt-thread/src/scheduler.o
                0x00003a38                rt_system_scheduler_start
 .text.rt_schedule
                0x00003a70      0x19c ./rt-thread/src/scheduler.o
                0x00003a70                rt_schedule
 .text.rt_schedule_insert_thread
                0x00003c0c       0xac ./rt-thread/src/scheduler.o
                0x00003c0c                rt_schedule_insert_thread
 .text.rt_schedule_remove_thread
                0x00003cb8       0x70 ./rt-thread/src/scheduler.o
                0x00003cb8                rt_schedule_remove_thread
 .text.rt_enter_critical
                0x00003d28       0x2c ./rt-thread/src/scheduler.o
                0x00003d28                rt_enter_critical
 .text.rt_exit_critical
                0x00003d54       0x54 ./rt-thread/src/scheduler.o
                0x00003d54                rt_exit_critical
 .text.rt_critical_level
                0x00003da8       0x1c ./rt-thread/src/scheduler.o
                0x00003da8                rt_critical_level
 .text.rt_list_init
                0x00003dc4       0x22 ./rt-thread/src/thread.o
 .text.rt_list_remove
                0x00003de6       0x36 ./rt-thread/src/thread.o
 .text._thread_exit
                0x00003e1c       0x42 ./rt-thread/src/thread.o
 *fill*         0x00003e5e        0x2 ff
 .text._thread_timeout
                0x00003e60       0x8c ./rt-thread/src/thread.o
 .text._thread_init
                0x00003eec       0xfc ./rt-thread/src/thread.o
 .text.rt_thread_init
                0x00003fe8       0x70 ./rt-thread/src/thread.o
                0x00003fe8                rt_thread_init
 .text.rt_thread_self
                0x00004058       0x18 ./rt-thread/src/thread.o
                0x00004058                rt_thread_self
 .text.rt_thread_startup
                0x00004070       0x94 ./rt-thread/src/thread.o
                0x00004070                rt_thread_startup
 .text.rt_thread_detach
                0x00004104       0xb0 ./rt-thread/src/thread.o
                0x00004104                rt_thread_detach
 .text.rt_thread_create
                0x000041b4       0x62 ./rt-thread/src/thread.o
                0x000041b4                rt_thread_create
 *fill*         0x00004216        0x2 ff
 .text.rt_thread_delete
                0x00004218       0xb0 ./rt-thread/src/thread.o
                0x00004218                rt_thread_delete
 .text.rt_thread_sleep
                0x000042c8       0x94 ./rt-thread/src/thread.o
                0x000042c8                rt_thread_sleep
 .text.rt_thread_delay
                0x0000435c       0x18 ./rt-thread/src/thread.o
                0x0000435c                rt_thread_delay
 .text.rt_thread_mdelay
                0x00004374       0x20 ./rt-thread/src/thread.o
                0x00004374                rt_thread_mdelay
 .text.rt_thread_control
                0x00004394       0xfc ./rt-thread/src/thread.o
                0x00004394                rt_thread_control
 .text.rt_thread_suspend
                0x00004490       0xc8 ./rt-thread/src/thread.o
                0x00004490                rt_thread_suspend
 .text.rt_thread_resume
                0x00004558       0x98 ./rt-thread/src/thread.o
                0x00004558                rt_thread_resume
 .text.rt_list_init
                0x000045f0       0x22 ./rt-thread/src/timer.o
 .text.rt_list_insert_after
                0x00004612       0x32 ./rt-thread/src/timer.o
 .text.rt_list_remove
                0x00004644       0x36 ./rt-thread/src/timer.o
 .text.rt_list_isempty
                0x0000467a       0x24 ./rt-thread/src/timer.o
 .text._timer_init
                0x0000469e       0x6a ./rt-thread/src/timer.o
 .text._timer_list_next_timeout
                0x00004708       0x48 ./rt-thread/src/timer.o
 .text._timer_remove
                0x00004750       0x36 ./rt-thread/src/timer.o
 *fill*         0x00004786        0x2 ff
 .text.rt_timer_init
                0x00004788       0x7c ./rt-thread/src/timer.o
                0x00004788                rt_timer_init
 .text.rt_timer_detach
                0x00004804       0x90 ./rt-thread/src/timer.o
                0x00004804                rt_timer_detach
 .text.rt_timer_start
                0x00004894      0x224 ./rt-thread/src/timer.o
                0x00004894                rt_timer_start
 .text.rt_timer_stop
                0x00004ab8       0x94 ./rt-thread/src/timer.o
                0x00004ab8                rt_timer_stop
 .text.rt_timer_control
                0x00004b4c       0xf8 ./rt-thread/src/timer.o
                0x00004b4c                rt_timer_control
 .text.rt_timer_check
                0x00004c44      0x108 ./rt-thread/src/timer.o
                0x00004c44                rt_timer_check
 .text.rt_soft_timer_check
                0x00004d4c      0x11c ./rt-thread/src/timer.o
                0x00004d4c                rt_soft_timer_check
 .text._timer_thread_entry
                0x00004e68       0x5c ./rt-thread/src/timer.o
 .text.rt_system_timer_init
                0x00004ec4       0x34 ./rt-thread/src/timer.o
                0x00004ec4                rt_system_timer_init
 .text.rt_system_timer_thread_init
                0x00004ef8       0x68 ./rt-thread/src/timer.o
                0x00004ef8                rt_system_timer_thread_init
 .text          0x00004f60      0x13c ./rt-thread/libcpu/arm/cortex-m4/context_gcc.o
                0x00004f60                rt_hw_interrupt_disable
                0x00004f68                rt_hw_interrupt_enable
                0x00004f6e                rt_hw_context_switch_interrupt
                0x00004f6e                rt_hw_context_switch
                0x00004f8e                PendSV_Handler
                0x00004ffa                rt_hw_context_switch_to
                0x00005040                rt_hw_interrupt_thread_switch
                0x00005044                HardFault_Handler
 .text.rt_hw_stack_init
                0x0000509c       0x90 ./rt-thread/libcpu/arm/cortex-m4/cpuport.o
                0x0000509c                rt_hw_stack_init
 .text.usage_fault_track
                0x0000512c       0xc4 ./rt-thread/libcpu/arm/cortex-m4/cpuport.o
 .text.bus_fault_track
                0x000051f0       0xcc ./rt-thread/libcpu/arm/cortex-m4/cpuport.o
 .text.mem_manage_fault_track
                0x000052bc       0xb4 ./rt-thread/libcpu/arm/cortex-m4/cpuport.o
 .text.hard_fault_track
                0x00005370       0x78 ./rt-thread/libcpu/arm/cortex-m4/cpuport.o
 .text.rt_hw_hard_fault_exception
                0x000053e8      0x184 ./rt-thread/libcpu/arm/cortex-m4/cpuport.o
                0x000053e8                rt_hw_hard_fault_exception
 .text.__rt_ffs
                0x0000556c       0x2a ./rt-thread/libcpu/arm/cortex-m4/cpuport.o
                0x0000556c                __rt_ffs
 .text._malloc_r
                0x00005596       0x28 ./rt-thread/components/libc/compilers/newlib/syscalls.o
                0x00005596                _malloc_r
 .text._realloc_r
                0x000055be       0x2c ./rt-thread/components/libc/compilers/newlib/syscalls.o
                0x000055be                _realloc_r
 .text._calloc_r
                0x000055ea       0x2c ./rt-thread/components/libc/compilers/newlib/syscalls.o
                0x000055ea                _calloc_r
 .text._free_r  0x00005616       0x18 ./rt-thread/components/libc/compilers/newlib/syscalls.o
                0x00005616                _free_r
 .text.__errno  0x0000562e        0xe ./rt-thread/components/libc/compilers/newlib/syscalls.o
                0x0000562e                __errno
 .text.rt_list_isempty
                0x0000563c       0x24 ./rt-thread/components/finsh/cmd.o
 .text.rt_list_len
                0x00005660       0x36 ./rt-thread/components/finsh/cmd.o
 *fill*         0x00005696        0x2 ff
 .text.clear    0x00005698       0x14 ./rt-thread/components/finsh/cmd.o
 .text.version  0x000056ac        0xe ./rt-thread/components/finsh/cmd.o
                0x000056ac                version
 *fill*         0x000056ba        0x2 ff
 .text.object_split
                0x000056bc       0x28 ./rt-thread/components/finsh/cmd.o
 .text.list_find_init
                0x000056e4       0x46 ./rt-thread/components/finsh/cmd.o
 .text.list_get_next
                0x0000572a       0xc6 ./rt-thread/components/finsh/cmd.o
 .text.list_thread
                0x000057f0      0x208 ./rt-thread/components/finsh/cmd.o
                0x000057f0                list_thread
 .text.show_wait_queue
                0x000059f8       0x54 ./rt-thread/components/finsh/cmd.o
 .text.list_sem
                0x00005a4c      0x12c ./rt-thread/components/finsh/cmd.o
                0x00005a4c                list_sem
 .text.list_event
                0x00005b78      0x118 ./rt-thread/components/finsh/cmd.o
                0x00005b78                list_event
 .text.list_mutex
                0x00005c90       0xe8 ./rt-thread/components/finsh/cmd.o
                0x00005c90                list_mutex
 .text.list_mailbox
                0x00005d78      0x13c ./rt-thread/components/finsh/cmd.o
                0x00005d78                list_mailbox
 .text.list_msgqueue
                0x00005eb4      0x12c ./rt-thread/components/finsh/cmd.o
                0x00005eb4                list_msgqueue
 .text.list_timer
                0x00005fe0      0x128 ./rt-thread/components/finsh/cmd.o
                0x00005fe0                list_timer
 .text.list_device
                0x00006108       0xf0 ./rt-thread/components/finsh/cmd.o
                0x00006108                list_device
 .text.msh_help
                0x000061f8       0x5c ./rt-thread/components/finsh/msh.o
                0x000061f8                msh_help
 .text.cmd_ps   0x00006254       0x18 ./rt-thread/components/finsh/msh.o
                0x00006254                cmd_ps
 .text.cmd_free
                0x0000626c       0x5c ./rt-thread/components/finsh/msh.o
                0x0000626c                cmd_free
 .text.msh_split
                0x000062c8      0x170 ./rt-thread/components/finsh/msh.o
 .text.msh_get_cmd
                0x00006438       0x64 ./rt-thread/components/finsh/msh.o
 .text._msh_exec_cmd
                0x0000649c       0xd4 ./rt-thread/components/finsh/msh.o
 .text.msh_exec
                0x00006570       0x8c ./rt-thread/components/finsh/msh.o
                0x00006570                msh_exec
 .text.str_common
                0x000065fc       0x4a ./rt-thread/components/finsh/msh.o
 *fill*         0x00006646        0x2 ff
 .text.msh_auto_complete
                0x00006648       0xb0 ./rt-thread/components/finsh/msh.o
                0x00006648                msh_auto_complete
 .text.finsh_get_prompt
                0x000066f8       0x7c ./rt-thread/components/finsh/shell.o
                0x000066f8                finsh_get_prompt
 .text.finsh_set_prompt_mode
                0x00006774       0x48 ./rt-thread/components/finsh/shell.o
                0x00006774                finsh_set_prompt_mode
 .text.finsh_getchar
                0x000067bc       0x90 ./rt-thread/components/finsh/shell.o
                0x000067bc                finsh_getchar
 .text.finsh_rx_ind
                0x0000684c       0x3c ./rt-thread/components/finsh/shell.o
 .text.finsh_set_device
                0x00006888       0xd8 ./rt-thread/components/finsh/shell.o
                0x00006888                finsh_set_device
 .text.shell_auto_complete
                0x00006960       0x34 ./rt-thread/components/finsh/shell.o
 .text.shell_handle_history
                0x00006994       0x34 ./rt-thread/components/finsh/shell.o
 .text.shell_push_history
                0x000069c8      0x15e ./rt-thread/components/finsh/shell.o
 *fill*         0x00006b26        0x2 ff
 .text.finsh_thread_entry
                0x00006b28      0x5cc ./rt-thread/components/finsh/shell.o
                0x00006b28                finsh_thread_entry
 .text.finsh_system_function_init
                0x000070f4       0x2c ./rt-thread/components/finsh/shell.o
                0x000070f4                finsh_system_function_init
 .text.finsh_system_init
                0x00007120       0x9c ./rt-thread/components/finsh/shell.o
                0x00007120                finsh_system_init
 .text.rt_serial_get_linear_buffer
                0x000071bc       0x8c ./rt-thread/components/drivers/serial/serial_v2.o
 .text.rt_serial_update_read_index
                0x00007248       0xcc ./rt-thread/components/drivers/serial/serial_v2.o
 .text.rt_serial_update_write_index
                0x00007314       0xe8 ./rt-thread/components/drivers/serial/serial_v2.o
 .text._serial_poll_rx
                0x000073fc       0xa4 ./rt-thread/components/drivers/serial/serial_v2.o
                0x000073fc                _serial_poll_rx
 .text._serial_poll_tx
                0x000074a0       0x9c ./rt-thread/components/drivers/serial/serial_v2.o
                0x000074a0                _serial_poll_tx
 .text._serial_fifo_rx
                0x0000753c       0xf4 ./rt-thread/components/drivers/serial/serial_v2.o
 .text._serial_fifo_tx_blocking_nbuf
                0x00007630       0xb0 ./rt-thread/components/drivers/serial/serial_v2.o
 .text._serial_fifo_tx_blocking_buf
                0x000076e0      0x118 ./rt-thread/components/drivers/serial/serial_v2.o
 .text._serial_fifo_tx_nonblocking
                0x000077f8       0xd4 ./rt-thread/components/drivers/serial/serial_v2.o
 .text.rt_serial_tx_enable
                0x000078cc      0x1e8 ./rt-thread/components/drivers/serial/serial_v2.o
 .text.rt_serial_rx_enable
                0x00007ab4      0x15c ./rt-thread/components/drivers/serial/serial_v2.o
 .text.rt_serial_rx_disable
                0x00007c10       0xb4 ./rt-thread/components/drivers/serial/serial_v2.o
 .text.rt_serial_tx_disable
                0x00007cc4       0xc0 ./rt-thread/components/drivers/serial/serial_v2.o
 .text.rt_serial_init
                0x00007d84       0x5c ./rt-thread/components/drivers/serial/serial_v2.o
 .text.rt_serial_open
                0x00007de0       0xf4 ./rt-thread/components/drivers/serial/serial_v2.o
 .text.rt_serial_close
                0x00007ed4       0x90 ./rt-thread/components/drivers/serial/serial_v2.o
 .text.rt_serial_control
                0x00007f64       0xb8 ./rt-thread/components/drivers/serial/serial_v2.o
 .text.rt_hw_serial_register
                0x0000801c       0x94 ./rt-thread/components/drivers/serial/serial_v2.o
                0x0000801c                rt_hw_serial_register
 .text.rt_hw_serial_isr
                0x000080b0      0x210 ./rt-thread/components/drivers/serial/serial_v2.o
                0x000080b0                rt_hw_serial_isr
 .text.rt_sensor_cb
                0x000082c0       0x84 ./rt-thread/components/drivers/sensors/sensor.o
                0x000082c0                rt_sensor_cb
 .text.irq_callback
                0x00008344       0x54 ./rt-thread/components/drivers/sensors/sensor.o
 .text.rt_sensor_irq_init
                0x00008398       0xc4 ./rt-thread/components/drivers/sensors/sensor.o
 .text.local_fetch_data
                0x0000845c       0x1a ./rt-thread/components/drivers/sensors/sensor.o
 .text.local_control
                0x00008476       0x1a ./rt-thread/components/drivers/sensors/sensor.o
 .text.rt_sensor_open
                0x00008490      0x188 ./rt-thread/components/drivers/sensors/sensor.o
 .text.rt_sensor_close
                0x00008618      0x168 ./rt-thread/components/drivers/sensors/sensor.o
 .text.rt_sensor_read
                0x00008780       0xe8 ./rt-thread/components/drivers/sensors/sensor.o
 .text.rt_sensor_control
                0x00008868      0x16c ./rt-thread/components/drivers/sensors/sensor.o
 .text.rt_hw_sensor_register
                0x000089d4      0x1c0 ./rt-thread/components/drivers/sensors/sensor.o
                0x000089d4                rt_hw_sensor_register
 .text.sensor_show_data
                0x00008b94      0x408 ./rt-thread/components/drivers/sensors/sensor_cmd.o
 .text.rx_callback
                0x00008f9c       0x24 ./rt-thread/components/drivers/sensors/sensor_cmd.o
 .text.sensor_fifo_rx_entry
                0x00008fc0       0xb0 ./rt-thread/components/drivers/sensors/sensor_cmd.o
 .text.sensor_fifo
                0x00009070      0x108 ./rt-thread/components/drivers/sensors/sensor_cmd.o
 .text.sensor_irq_rx_entry
                0x00009178       0x50 ./rt-thread/components/drivers/sensors/sensor_cmd.o
 .text.sensor_int
                0x000091c8      0x108 ./rt-thread/components/drivers/sensors/sensor_cmd.o
 .text.sensor_polling
                0x000092d0      0x10c ./rt-thread/components/drivers/sensors/sensor_cmd.o
 .text.sensor   0x000093dc      0x5f0 ./rt-thread/components/drivers/sensors/sensor_cmd.o
 .text._adc_read
                0x000099cc       0x5c ./rt-thread/components/drivers/misc/adc.o
 .text._adc_control
                0x00009a28       0x5c ./rt-thread/components/drivers/misc/adc.o
 .text.rt_hw_adc_register
                0x00009a84       0x94 ./rt-thread/components/drivers/misc/adc.o
                0x00009a84                rt_hw_adc_register
 .text.rt_adc_read
                0x00009b18       0x3c ./rt-thread/components/drivers/misc/adc.o
                0x00009b18                rt_adc_read
 .text.rt_adc_enable
                0x00009b54       0x54 ./rt-thread/components/drivers/misc/adc.o
                0x00009b54                rt_adc_enable
 .text.rt_adc_disable
                0x00009ba8       0x54 ./rt-thread/components/drivers/misc/adc.o
                0x00009ba8                rt_adc_disable
 .text.adc      0x00009bfc      0x23c ./rt-thread/components/drivers/misc/adc.o
 .text._pin_read
                0x00009e38       0x60 ./rt-thread/components/drivers/misc/pin.o
 .text._pin_write
                0x00009e98       0x5c ./rt-thread/components/drivers/misc/pin.o
 .text._pin_control
                0x00009ef4       0x58 ./rt-thread/components/drivers/misc/pin.o
 .text.rt_device_pin_register
                0x00009f4c       0x74 ./rt-thread/components/drivers/misc/pin.o
                0x00009f4c                rt_device_pin_register
 .text.rt_pin_attach_irq
                0x00009fc0       0x5c ./rt-thread/components/drivers/misc/pin.o
                0x00009fc0                rt_pin_attach_irq
 .text.rt_pin_irq_enable
                0x0000a01c       0x50 ./rt-thread/components/drivers/misc/pin.o
                0x0000a01c                rt_pin_irq_enable
 .text.rt_pin_mode
                0x0000a06c       0x40 ./rt-thread/components/drivers/misc/pin.o
                0x0000a06c                rt_pin_mode
 .text.rt_pin_write
                0x0000a0ac       0x40 ./rt-thread/components/drivers/misc/pin.o
                0x0000a0ac                rt_pin_write
 .text.rt_pin_read
                0x0000a0ec       0x3c ./rt-thread/components/drivers/misc/pin.o
                0x0000a0ec                rt_pin_read
 .text._pwm_control
                0x0000a128       0x38 ./rt-thread/components/drivers/misc/rt_drv_pwm.o
 .text._pwm_read
                0x0000a160       0x62 ./rt-thread/components/drivers/misc/rt_drv_pwm.o
 .text._pwm_write
                0x0000a1c2       0x7e ./rt-thread/components/drivers/misc/rt_drv_pwm.o
 .text.rt_device_pwm_register
                0x0000a240       0x78 ./rt-thread/components/drivers/misc/rt_drv_pwm.o
                0x0000a240                rt_device_pwm_register
 .text.rt_pwm_enable
                0x0000a2b8       0x5a ./rt-thread/components/drivers/misc/rt_drv_pwm.o
                0x0000a2b8                rt_pwm_enable
 .text.rt_pwm_disable
                0x0000a312       0x5a ./rt-thread/components/drivers/misc/rt_drv_pwm.o
                0x0000a312                rt_pwm_disable
 .text.rt_pwm_set
                0x0000a36c       0x52 ./rt-thread/components/drivers/misc/rt_drv_pwm.o
                0x0000a36c                rt_pwm_set
 .text.rt_pwm_get
                0x0000a3be       0x32 ./rt-thread/components/drivers/misc/rt_drv_pwm.o
                0x0000a3be                rt_pwm_get
 .text.pwm_enable
                0x0000a3f0       0x74 ./rt-thread/components/drivers/misc/rt_drv_pwm.o
 .text.pwm_disable
                0x0000a464       0x74 ./rt-thread/components/drivers/misc/rt_drv_pwm.o
 .text.pwm_set  0x0000a4d8       0x94 ./rt-thread/components/drivers/misc/rt_drv_pwm.o
 .text.pwm_get  0x0000a56c      0x120 ./rt-thread/components/drivers/misc/rt_drv_pwm.o
 .text.rt_list_init
                0x0000a68c       0x22 ./rt-thread/components/drivers/ipc/completion.o
 .text.rt_list_insert_before
                0x0000a6ae       0x32 ./rt-thread/components/drivers/ipc/completion.o
 .text.rt_list_isempty
                0x0000a6e0       0x24 ./rt-thread/components/drivers/ipc/completion.o
 .text.rt_completion_init
                0x0000a704       0x44 ./rt-thread/components/drivers/ipc/completion.o
                0x0000a704                rt_completion_init
 .text.rt_completion_wait
                0x0000a748      0x15c ./rt-thread/components/drivers/ipc/completion.o
                0x0000a748                rt_completion_wait
 .text.rt_completion_done
                0x0000a8a4       0x70 ./rt-thread/components/drivers/ipc/completion.o
                0x0000a8a4                rt_completion_done
 .text.rt_ringbuffer_status
                0x0000a914       0x4e ./rt-thread/components/drivers/ipc/ringbuffer.o
 *fill*         0x0000a962        0x2 ff
 .text.rt_ringbuffer_init
                0x0000a964       0xa0 ./rt-thread/components/drivers/ipc/ringbuffer.o
                0x0000a964                rt_ringbuffer_init
 .text.rt_ringbuffer_put
                0x0000aa04      0x16c ./rt-thread/components/drivers/ipc/ringbuffer.o
                0x0000aa04                rt_ringbuffer_put
 .text.rt_ringbuffer_get
                0x0000ab70      0x15c ./rt-thread/components/drivers/ipc/ringbuffer.o
                0x0000ab70                rt_ringbuffer_get
 .text.rt_ringbuffer_putchar
                0x0000accc       0xbc ./rt-thread/components/drivers/ipc/ringbuffer.o
                0x0000accc                rt_ringbuffer_putchar
 .text.rt_ringbuffer_data_len
                0x0000ad88       0x66 ./rt-thread/components/drivers/ipc/ringbuffer.o
                0x0000ad88                rt_ringbuffer_data_len
 .text.i2c_delay
                0x0000adee       0x20 ./rt-thread/components/drivers/i2c/i2c-bit-ops.o
 .text.i2c_delay2
                0x0000ae0e       0x1c ./rt-thread/components/drivers/i2c/i2c-bit-ops.o
 .text.SCL_H    0x0000ae2a       0x72 ./rt-thread/components/drivers/i2c/i2c-bit-ops.o
 .text.i2c_start
                0x0000ae9c       0x32 ./rt-thread/components/drivers/i2c/i2c-bit-ops.o
 .text.i2c_restart
                0x0000aece       0x4c ./rt-thread/components/drivers/i2c/i2c-bit-ops.o
 .text.i2c_stop
                0x0000af1a       0x44 ./rt-thread/components/drivers/i2c/i2c-bit-ops.o
 *fill*         0x0000af5e        0x2 ff
 .text.i2c_waitack
                0x0000af60       0x80 ./rt-thread/components/drivers/i2c/i2c-bit-ops.o
 .text.i2c_writeb
                0x0000afe0       0x8c ./rt-thread/components/drivers/i2c/i2c-bit-ops.o
 .text.i2c_readb
                0x0000b06c       0x88 ./rt-thread/components/drivers/i2c/i2c-bit-ops.o
 .text.i2c_send_bytes
                0x0000b0f4       0x98 ./rt-thread/components/drivers/i2c/i2c-bit-ops.o
 .text.i2c_send_ack_or_nack
                0x0000b18c       0x74 ./rt-thread/components/drivers/i2c/i2c-bit-ops.o
 .text.i2c_recv_bytes
                0x0000b200       0x7c ./rt-thread/components/drivers/i2c/i2c-bit-ops.o
 .text.i2c_send_address
                0x0000b27c       0x62 ./rt-thread/components/drivers/i2c/i2c-bit-ops.o
 *fill*         0x0000b2de        0x2 ff
 .text.i2c_bit_send_address
                0x0000b2e0      0x164 ./rt-thread/components/drivers/i2c/i2c-bit-ops.o
 .text.i2c_bit_xfer
                0x0000b444      0x106 ./rt-thread/components/drivers/i2c/i2c-bit-ops.o
 *fill*         0x0000b54a        0x2 ff
 .text.rt_i2c_bit_add_bus
                0x0000b54c       0x28 ./rt-thread/components/drivers/i2c/i2c-bit-ops.o
                0x0000b54c                rt_i2c_bit_add_bus
 .text.rt_i2c_bus_device_register
                0x0000b574       0x64 ./rt-thread/components/drivers/i2c/i2c_core.o
                0x0000b574                rt_i2c_bus_device_register
 .text.rt_i2c_bus_device_find
                0x0000b5d8       0x54 ./rt-thread/components/drivers/i2c/i2c_core.o
                0x0000b5d8                rt_i2c_bus_device_find
 .text.rt_i2c_transfer
                0x0000b62c       0x6c ./rt-thread/components/drivers/i2c/i2c_core.o
                0x0000b62c                rt_i2c_transfer
 .text.rt_i2c_control
                0x0000b698       0x54 ./rt-thread/components/drivers/i2c/i2c_core.o
                0x0000b698                rt_i2c_control
 .text.rt_i2c_master_send
                0x0000b6ec       0x4a ./rt-thread/components/drivers/i2c/i2c_core.o
                0x0000b6ec                rt_i2c_master_send
 *fill*         0x0000b736        0x2 ff
 .text.rt_i2c_master_recv
                0x0000b738       0x68 ./rt-thread/components/drivers/i2c/i2c_core.o
                0x0000b738                rt_i2c_master_recv
 .text.rt_i2c_core_init
                0x0000b7a0       0x10 ./rt-thread/components/drivers/i2c/i2c_core.o
                0x0000b7a0                rt_i2c_core_init
 .text.i2c_bus_device_read
                0x0000b7b0       0x64 ./rt-thread/components/drivers/i2c/i2c_dev.o
 .text.i2c_bus_device_write
                0x0000b814       0x64 ./rt-thread/components/drivers/i2c/i2c_dev.o
 .text.i2c_bus_device_control
                0x0000b878       0xc4 ./rt-thread/components/drivers/i2c/i2c_dev.o
 .text.rt_i2c_bus_device_device_init
                0x0000b93c       0x78 ./rt-thread/components/drivers/i2c/i2c_dev.o
                0x0000b93c                rt_i2c_bus_device_device_init
 .text.main     0x0000b9b4        0xe ./ra_gen/main.o
                0x0000b9b4                main
 .text.R_FSP_CurrentIrqGet
                0x0000b9c2       0x2c ./ra/fsp/src/r_sci_uart/r_sci_uart.o
 *fill*         0x0000b9ee        0x2 ff
 .text.R_FSP_IsrContextSet
                0x0000b9f0       0x28 ./ra/fsp/src/r_sci_uart/r_sci_uart.o
 .text.R_BSP_IrqStatusClear
                0x0000ba18       0x30 ./ra/fsp/src/r_sci_uart/r_sci_uart.o
 .text.R_BSP_IrqClearPending
                0x0000ba48       0x40 ./ra/fsp/src/r_sci_uart/r_sci_uart.o
 .text.R_BSP_IrqCfg
                0x0000ba88       0x3c ./ra/fsp/src/r_sci_uart/r_sci_uart.o
 .text.R_BSP_IrqEnableNoClear
                0x0000bac4       0x38 ./ra/fsp/src/r_sci_uart/r_sci_uart.o
 .text.R_BSP_IrqEnable
                0x0000bafc       0x26 ./ra/fsp/src/r_sci_uart/r_sci_uart.o
 *fill*         0x0000bb22        0x2 ff
 .text.R_BSP_IrqDisable
                0x0000bb24       0x48 ./ra/fsp/src/r_sci_uart/r_sci_uart.o
 .text.R_FSP_IsrContextGet
                0x0000bb6c       0x24 ./ra/fsp/src/r_sci_uart/r_sci_uart.o
 .text.R_SCI_UART_Open
                0x0000bb90      0x1ac ./ra/fsp/src/r_sci_uart/r_sci_uart.o
                0x0000bb90                R_SCI_UART_Open
 .text.r_sci_uart_config_set
                0x0000bd3c      0x120 ./ra/fsp/src/r_sci_uart/r_sci_uart.o
 .text.r_sci_irq_cfg
                0x0000be5c       0x3a ./ra/fsp/src/r_sci_uart/r_sci_uart.o
 .text.r_sci_irqs_cfg
                0x0000be96       0x5a ./ra/fsp/src/r_sci_uart/r_sci_uart.o
 .text.r_sci_uart_baud_set
                0x0000bef0       0x58 ./ra/fsp/src/r_sci_uart/r_sci_uart.o
 .text.r_sci_uart_call_callback
                0x0000bf48       0x76 ./ra/fsp/src/r_sci_uart/r_sci_uart.o
 .text.sci_uart_txi_isr
                0x0000bfbe       0xd0 ./ra/fsp/src/r_sci_uart/r_sci_uart.o
                0x0000bfbe                sci_uart_txi_isr
 .text.sci_uart_rxi_isr
                0x0000c08e       0xbc ./ra/fsp/src/r_sci_uart/r_sci_uart.o
                0x0000c08e                sci_uart_rxi_isr
 .text.sci_uart_tei_isr
                0x0000c14a       0x4a ./ra/fsp/src/r_sci_uart/r_sci_uart.o
                0x0000c14a                sci_uart_tei_isr
 .text.sci_uart_eri_isr
                0x0000c194       0xa8 ./ra/fsp/src/r_sci_uart/r_sci_uart.o
                0x0000c194                sci_uart_eri_isr
 .text.R_BSP_PinRead
                0x0000c23c       0x38 ./ra/fsp/src/r_ioport/r_ioport.o
 .text.R_BSP_PinAccessEnable
                0x0000c274       0x60 ./ra/fsp/src/r_ioport/r_ioport.o
 .text.R_BSP_PinAccessDisable
                0x0000c2d4       0x68 ./ra/fsp/src/r_ioport/r_ioport.o
 .text.R_IOPORT_Open
                0x0000c33c       0x28 ./ra/fsp/src/r_ioport/r_ioport.o
                0x0000c33c                R_IOPORT_Open
 .text.R_IOPORT_Close
                0x0000c364       0x20 ./ra/fsp/src/r_ioport/r_ioport.o
                0x0000c364                R_IOPORT_Close
 .text.R_IOPORT_PinsCfg
                0x0000c384       0x1a ./ra/fsp/src/r_ioport/r_ioport.o
                0x0000c384                R_IOPORT_PinsCfg
 .text.R_IOPORT_PinCfg
                0x0000c39e       0x46 ./ra/fsp/src/r_ioport/r_ioport.o
                0x0000c39e                R_IOPORT_PinCfg
 .text.R_IOPORT_PinRead
                0x0000c3e4       0x28 ./ra/fsp/src/r_ioport/r_ioport.o
                0x0000c3e4                R_IOPORT_PinRead
 .text.R_IOPORT_PortRead
                0x0000c40c       0x3a ./ra/fsp/src/r_ioport/r_ioport.o
                0x0000c40c                R_IOPORT_PortRead
 .text.R_IOPORT_PortWrite
                0x0000c446       0x62 ./ra/fsp/src/r_ioport/r_ioport.o
                0x0000c446                R_IOPORT_PortWrite
 .text.R_IOPORT_PinWrite
                0x0000c4a8       0x6e ./ra/fsp/src/r_ioport/r_ioport.o
                0x0000c4a8                R_IOPORT_PinWrite
 .text.R_IOPORT_PortDirectionSet
                0x0000c516       0x72 ./ra/fsp/src/r_ioport/r_ioport.o
                0x0000c516                R_IOPORT_PortDirectionSet
 .text.R_IOPORT_PortEventInputRead
                0x0000c588       0x3e ./ra/fsp/src/r_ioport/r_ioport.o
                0x0000c588                R_IOPORT_PortEventInputRead
 .text.R_IOPORT_PinEventInputRead
                0x0000c5c6       0x62 ./ra/fsp/src/r_ioport/r_ioport.o
                0x0000c5c6                R_IOPORT_PinEventInputRead
 .text.R_IOPORT_PortEventOutputWrite
                0x0000c628       0x62 ./ra/fsp/src/r_ioport/r_ioport.o
                0x0000c628                R_IOPORT_PortEventOutputWrite
 .text.R_IOPORT_PinEventOutputWrite
                0x0000c68a       0x5e ./ra/fsp/src/r_ioport/r_ioport.o
                0x0000c68a                R_IOPORT_PinEventOutputWrite
 .text.R_IOPORT_EthernetModeCfg
                0x0000c6e8       0x28 ./ra/fsp/src/r_ioport/r_ioport.o
                0x0000c6e8                R_IOPORT_EthernetModeCfg
 .text.r_ioport_pins_config
                0x0000c710       0x56 ./ra/fsp/src/r_ioport/r_ioport.o
 .text.r_ioport_hw_pin_event_output_data_write
                0x0000c766       0x88 ./ra/fsp/src/r_ioport/r_ioport.o
 *fill*         0x0000c7ee        0x2 ff
 .text.r_ioport_pfs_write
                0x0000c7f0       0x78 ./ra/fsp/src/r_ioport/r_ioport.o
 .text.bsp_vbatt_init
                0x0000c868       0xd8 ./ra/fsp/src/r_ioport/r_ioport.o
 .text.R_FSP_CurrentIrqGet
                0x0000c940       0x2c ./ra/fsp/src/r_icu/r_icu.o
 .text.R_FSP_IsrContextSet
                0x0000c96c       0x28 ./ra/fsp/src/r_icu/r_icu.o
 .text.R_BSP_IrqStatusClear
                0x0000c994       0x30 ./ra/fsp/src/r_icu/r_icu.o
 .text.R_BSP_IrqClearPending
                0x0000c9c4       0x40 ./ra/fsp/src/r_icu/r_icu.o
 .text.R_BSP_IrqCfg
                0x0000ca04       0x3c ./ra/fsp/src/r_icu/r_icu.o
 .text.R_BSP_IrqEnableNoClear
                0x0000ca40       0x38 ./ra/fsp/src/r_icu/r_icu.o
 .text.R_BSP_IrqEnable
                0x0000ca78       0x26 ./ra/fsp/src/r_icu/r_icu.o
 *fill*         0x0000ca9e        0x2 ff
 .text.R_BSP_IrqDisable
                0x0000caa0       0x48 ./ra/fsp/src/r_icu/r_icu.o
 .text.R_FSP_IsrContextGet
                0x0000cae8       0x24 ./ra/fsp/src/r_icu/r_icu.o
 .text.R_ICU_ExternalIrqOpen
                0x0000cb0c       0xcc ./ra/fsp/src/r_icu/r_icu.o
                0x0000cb0c                R_ICU_ExternalIrqOpen
 .text.R_ICU_ExternalIrqEnable
                0x0000cbd8       0x22 ./ra/fsp/src/r_icu/r_icu.o
                0x0000cbd8                R_ICU_ExternalIrqEnable
 .text.R_ICU_ExternalIrqDisable
                0x0000cbfa       0x22 ./ra/fsp/src/r_icu/r_icu.o
                0x0000cbfa                R_ICU_ExternalIrqDisable
 .text.R_ICU_ExternalIrqClose
                0x0000cc1c       0x40 ./ra/fsp/src/r_icu/r_icu.o
                0x0000cc1c                R_ICU_ExternalIrqClose
 .text.r_icu_isr
                0x0000cc5c       0x80 ./ra/fsp/src/r_icu/r_icu.o
                0x0000cc5c                r_icu_isr
 .text.R_FSP_SystemClockHzGet
                0x0000ccdc       0x4c ./ra/fsp/src/r_gpt/r_gpt.o
 .text.R_FSP_IsrContextSet
                0x0000cd28       0x28 ./ra/fsp/src/r_gpt/r_gpt.o
 .text.R_BSP_IrqStatusClear
                0x0000cd50       0x30 ./ra/fsp/src/r_gpt/r_gpt.o
 .text.R_BSP_IrqClearPending
                0x0000cd80       0x40 ./ra/fsp/src/r_gpt/r_gpt.o
 .text.R_BSP_IrqCfg
                0x0000cdc0       0x3c ./ra/fsp/src/r_gpt/r_gpt.o
 .text.R_BSP_IrqEnableNoClear
                0x0000cdfc       0x38 ./ra/fsp/src/r_gpt/r_gpt.o
 .text.R_BSP_IrqEnable
                0x0000ce34       0x26 ./ra/fsp/src/r_gpt/r_gpt.o
 *fill*         0x0000ce5a        0x2 ff
 .text.R_BSP_IrqDisable
                0x0000ce5c       0x48 ./ra/fsp/src/r_gpt/r_gpt.o
 .text.R_BSP_IrqCfgEnable
                0x0000cea4       0x2e ./ra/fsp/src/r_gpt/r_gpt.o
 *fill*         0x0000ced2        0x2 ff
 .text.R_GPT_Open
                0x0000ced4       0x44 ./ra/fsp/src/r_gpt/r_gpt.o
                0x0000ced4                R_GPT_Open
 .text.R_GPT_Stop
                0x0000cf18       0x24 ./ra/fsp/src/r_gpt/r_gpt.o
                0x0000cf18                R_GPT_Stop
 .text.R_GPT_Start
                0x0000cf3c       0x24 ./ra/fsp/src/r_gpt/r_gpt.o
                0x0000cf3c                R_GPT_Start
 .text.R_GPT_Reset
                0x0000cf60       0x24 ./ra/fsp/src/r_gpt/r_gpt.o
                0x0000cf60                R_GPT_Reset
 .text.R_GPT_Enable
                0x0000cf84       0x90 ./ra/fsp/src/r_gpt/r_gpt.o
                0x0000cf84                R_GPT_Enable
 .text.R_GPT_Disable
                0x0000d014       0x32 ./ra/fsp/src/r_gpt/r_gpt.o
                0x0000d014                R_GPT_Disable
 .text.R_GPT_PeriodSet
                0x0000d046       0x8a ./ra/fsp/src/r_gpt/r_gpt.o
                0x0000d046                R_GPT_PeriodSet
 .text.R_GPT_DutyCycleSet
                0x0000d0d0      0x104 ./ra/fsp/src/r_gpt/r_gpt.o
                0x0000d0d0                R_GPT_DutyCycleSet
 .text.R_GPT_InfoGet
                0x0000d1d4       0x3e ./ra/fsp/src/r_gpt/r_gpt.o
                0x0000d1d4                R_GPT_InfoGet
 .text.R_GPT_StatusGet
                0x0000d212       0x38 ./ra/fsp/src/r_gpt/r_gpt.o
                0x0000d212                R_GPT_StatusGet
 .text.R_GPT_CallbackSet
                0x0000d24a       0x32 ./ra/fsp/src/r_gpt/r_gpt.o
                0x0000d24a                R_GPT_CallbackSet
 .text.R_GPT_Close
                0x0000d27c       0x76 ./ra/fsp/src/r_gpt/r_gpt.o
                0x0000d27c                R_GPT_Close
 .text.r_gpt_write_protect_enable
                0x0000d2f2       0x16 ./ra/fsp/src/r_gpt/r_gpt.o
 .text.r_gpt_write_protect_disable
                0x0000d308       0x16 ./ra/fsp/src/r_gpt/r_gpt.o
 *fill*         0x0000d31e        0x2 ff
 .text.gpt_common_open
                0x0000d320       0x64 ./ra/fsp/src/r_gpt/r_gpt.o
 .text.gpt_hardware_initialize
                0x0000d384      0x23c ./ra/fsp/src/r_gpt/r_gpt.o
 .text.gpt_hardware_events_disable
                0x0000d5c0       0x42 ./ra/fsp/src/r_gpt/r_gpt.o
 .text.r_gpt_disable_irq
                0x0000d602       0x30 ./ra/fsp/src/r_gpt/r_gpt.o
 .text.r_gpt_enable_irq
                0x0000d632       0x2c ./ra/fsp/src/r_gpt/r_gpt.o
 .text.gpt_calculate_duty_cycle
                0x0000d65e       0xea ./ra/fsp/src/r_gpt/r_gpt.o
 .text.gpt_clock_frequency_get
                0x0000d748       0x2e ./ra/fsp/src/r_gpt/r_gpt.o
 .text.gpt_gtior_calculate
                0x0000d776       0x48 ./ra/fsp/src/r_gpt/r_gpt.o
 *fill*         0x0000d7be        0x2 ff
 .text.R_FSP_SystemClockHzGet
                0x0000d7c0       0x4c ./ra/fsp/src/r_adc/r_adc.o
 .text.R_FSP_IsrContextSet
                0x0000d80c       0x28 ./ra/fsp/src/r_adc/r_adc.o
 .text.R_BSP_IrqStatusClear
                0x0000d834       0x30 ./ra/fsp/src/r_adc/r_adc.o
 .text.R_BSP_IrqClearPending
                0x0000d864       0x40 ./ra/fsp/src/r_adc/r_adc.o
 .text.R_BSP_IrqCfg
                0x0000d8a4       0x3c ./ra/fsp/src/r_adc/r_adc.o
 .text.R_BSP_IrqEnableNoClear
                0x0000d8e0       0x38 ./ra/fsp/src/r_adc/r_adc.o
 .text.R_BSP_IrqEnable
                0x0000d918       0x26 ./ra/fsp/src/r_adc/r_adc.o
 .text.R_BSP_IrqCfgEnable
                0x0000d93e       0x2e ./ra/fsp/src/r_adc/r_adc.o
 .text.R_ADC_Open
                0x0000d96c       0xbc ./ra/fsp/src/r_adc/r_adc.o
                0x0000d96c                R_ADC_Open
 .text.R_ADC_ScanCfg
                0x0000da28       0x30 ./ra/fsp/src/r_adc/r_adc.o
                0x0000da28                R_ADC_ScanCfg
 .text.R_ADC_ScanStart
                0x0000da58       0x24 ./ra/fsp/src/r_adc/r_adc.o
                0x0000da58                R_ADC_ScanStart
 .text.R_ADC_ScanStop
                0x0000da7c       0x22 ./ra/fsp/src/r_adc/r_adc.o
                0x0000da7c                R_ADC_ScanStop
 .text.R_ADC_Read
                0x0000da9e       0x34 ./ra/fsp/src/r_adc/r_adc.o
                0x0000da9e                R_ADC_Read
 .text.R_ADC_Read32
                0x0000dad2       0x5a ./ra/fsp/src/r_adc/r_adc.o
                0x0000dad2                R_ADC_Read32
 .text.r_adc_open_sub
                0x0000db2c      0x148 ./ra/fsp/src/r_adc/r_adc.o
 .text.r_adc_sensor_cfg
                0x0000dc74      0x110 ./ra/fsp/src/r_adc/r_adc.o
 .text.r_adc_sensor_sample_state_calculation
                0x0000dd84       0x50 ./ra/fsp/src/r_adc/r_adc.o
 .text.r_adc_scan_cfg
                0x0000ddd4      0x1e4 ./ra/fsp/src/r_adc/r_adc.o
 .text.r_adc_irq_enable
                0x0000dfb8       0x2e ./ra/fsp/src/r_adc/r_adc.o
 *fill*         0x0000dfe6        0x2 ff
 .text.R_BSP_FlashCacheEnable
                0x0000dfe8       0x40 ./ra/fsp/src/bsp/mcu/all/bsp_clocks.o
 .text.SystemCoreClockUpdate
                0x0000e028       0x40 ./ra/fsp/src/bsp/mcu/all/bsp_clocks.o
                0x0000e028                SystemCoreClockUpdate
 .text.bsp_prv_clock_set_hard_reset
                0x0000e068       0x30 ./ra/fsp/src/bsp/mcu/all/bsp_clocks.o
 .text.bsp_clock_freq_var_init
                0x0000e098       0x48 ./ra/fsp/src/bsp/mcu/all/bsp_clocks.o
 .text.bsp_clock_init
                0x0000e0e0       0xa4 ./ra/fsp/src/bsp/mcu/all/bsp_clocks.o
                0x0000e0e0                bsp_clock_init
 .text.bsp_init_internal
                0x0000e184       0x14 ./ra/fsp/src/bsp/mcu/all/bsp_common.o
                0x0000e184                bsp_init_internal
                0x0000e184                bsp_init
 .text.__assert_func
                0x0000e198       0x12 ./ra/fsp/src/bsp/mcu/all/bsp_common.o
                0x0000e198                __assert_func
 *fill*         0x0000e1aa        0x2 ff
 .text.bsp_group_irq_call
                0x0000e1ac       0x30 ./ra/fsp/src/bsp/mcu/all/bsp_group_irq.o
 .text.NMI_Handler
                0x0000e1dc       0x4c ./ra/fsp/src/bsp/mcu/all/bsp_group_irq.o
                0x0000e1dc                NMI_Handler
 .text.bsp_irq_cfg
                0x0000e228      0x104 ./ra/fsp/src/bsp/mcu/all/bsp_irq.o
                0x0000e228                bsp_irq_cfg
 .text.R_BSP_RegisterProtectEnable
                0x0000e32c       0xa0 ./ra/fsp/src/bsp/mcu/all/bsp_register_protection.o
                0x0000e32c                R_BSP_RegisterProtectEnable
 .text.R_BSP_RegisterProtectDisable
                0x0000e3cc       0x90 ./ra/fsp/src/bsp/mcu/all/bsp_register_protection.o
                0x0000e3cc                R_BSP_RegisterProtectDisable
 .text.Reset_Handler
                0x0000e45c        0xe ./ra/fsp/src/bsp/cmsis/Device/RENESAS/Source/startup.o
                0x0000e45c                Reset_Handler
 .text.Default_Handler
                0x0000e46a       0x10 ./ra/fsp/src/bsp/cmsis/Device/RENESAS/Source/startup.o
                0x0000e46a                UsageFault_Handler
                0x0000e46a                SecureFault_Handler
                0x0000e46a                Default_Handler
                0x0000e46a                MemManage_Handler
                0x0000e46a                SVC_Handler
                0x0000e46a                BusFault_Handler
                0x0000e46a                DebugMon_Handler
 *fill*         0x0000e47a        0x2 ff
 .text.SystemInit
                0x0000e47c       0xf0 ./ra/fsp/src/bsp/cmsis/Device/RENESAS/Source/system.o
                0x0000e47c                SystemInit
 .text.ssd1306_Reset
                0x0000e56c        0xe ./packages/ssd1306-latest/src/ssd1306.o
                0x0000e56c                ssd1306_Reset
 *fill*         0x0000e57a        0x2 ff
 .text.ssd1306_WriteCommand
                0x0000e57c       0x34 ./packages/ssd1306-latest/src/ssd1306.o
                0x0000e57c                ssd1306_WriteCommand
 .text.ssd1306_WriteData
                0x0000e5b0       0x50 ./packages/ssd1306-latest/src/ssd1306.o
                0x0000e5b0                ssd1306_WriteData
 .text.ssd1306_Init
                0x0000e600      0x110 ./packages/ssd1306-latest/src/ssd1306.o
                0x0000e600                ssd1306_Init
 .text.ssd1306_Fill
                0x0000e710       0x48 ./packages/ssd1306-latest/src/ssd1306.o
                0x0000e710                ssd1306_Fill
 .text.ssd1306_UpdateScreen
                0x0000e758       0x50 ./packages/ssd1306-latest/src/ssd1306.o
                0x0000e758                ssd1306_UpdateScreen
 .text.ssd1306_DrawPixel
                0x0000e7a8       0xc0 ./packages/ssd1306-latest/src/ssd1306.o
                0x0000e7a8                ssd1306_DrawPixel
 .text.ssd1306_WriteChar
                0x0000e868      0x110 ./packages/ssd1306-latest/src/ssd1306.o
                0x0000e868                ssd1306_WriteChar
 .text.ssd1306_WriteString
                0x0000e978       0x4c ./packages/ssd1306-latest/src/ssd1306.o
                0x0000e978                ssd1306_WriteString
 .text.ssd1306_SetCursor
                0x0000e9c4       0x30 ./packages/ssd1306-latest/src/ssd1306.o
                0x0000e9c4                ssd1306_SetCursor
 .text.ssd1306_Line
                0x0000e9f4       0xd8 ./packages/ssd1306-latest/src/ssd1306.o
                0x0000e9f4                ssd1306_Line
 .text.ssd1306_Polyline
                0x0000eacc       0x74 ./packages/ssd1306-latest/src/ssd1306.o
                0x0000eacc                ssd1306_Polyline
 .text.ssd1306_DegToRad
                0x0000eb40       0x54 ./packages/ssd1306-latest/src/ssd1306.o
 .text.ssd1306_NormalizeTo0_360
                0x0000eb94       0x54 ./packages/ssd1306-latest/src/ssd1306.o
 .text.ssd1306_DrawArc
                0x0000ebe8      0x218 ./packages/ssd1306-latest/src/ssd1306.o
                0x0000ebe8                ssd1306_DrawArc
 .text.ssd1306_DrawCircle
                0x0000ee00      0x10e ./packages/ssd1306-latest/src/ssd1306.o
                0x0000ee00                ssd1306_DrawCircle
 .text.ssd1306_DrawRectangle
                0x0000ef0e       0x6e ./packages/ssd1306-latest/src/ssd1306.o
                0x0000ef0e                ssd1306_DrawRectangle
 .text.ssd1306_SetContrast
                0x0000ef7c       0x26 ./packages/ssd1306-latest/src/ssd1306.o
                0x0000ef7c                ssd1306_SetContrast
 *fill*         0x0000efa2        0x2 ff
 .text.ssd1306_SetDisplayOn
                0x0000efa4       0x3c ./packages/ssd1306-latest/src/ssd1306.o
                0x0000efa4                ssd1306_SetDisplayOn
 .text.ssd1306_TestBorder
                0x0000efe0       0xa4 ./packages/ssd1306-latest/examples/ssd1306_tests.o
                0x0000efe0                ssd1306_TestBorder
 .text.ssd1306_TestFonts
                0x0000f084       0x84 ./packages/ssd1306-latest/examples/ssd1306_tests.o
                0x0000f084                ssd1306_TestFonts
 .text.ssd1306_TestFPS
                0x0000f108      0x128 ./packages/ssd1306-latest/examples/ssd1306_tests.o
                0x0000f108                ssd1306_TestFPS
 .text.ssd1306_TestLine
                0x0000f230       0x30 ./packages/ssd1306-latest/examples/ssd1306_tests.o
                0x0000f230                ssd1306_TestLine
 .text.ssd1306_TestRectangle
                0x0000f260       0x70 ./packages/ssd1306-latest/examples/ssd1306_tests.o
                0x0000f260                ssd1306_TestRectangle
 .text.ssd1306_TestCircle
                0x0000f2d0       0x40 ./packages/ssd1306-latest/examples/ssd1306_tests.o
                0x0000f2d0                ssd1306_TestCircle
 .text.ssd1306_TestArc
                0x0000f310       0x26 ./packages/ssd1306-latest/examples/ssd1306_tests.o
                0x0000f310                ssd1306_TestArc
 *fill*         0x0000f336        0x2 ff
 .text.ssd1306_TestPolyline
                0x0000f338       0x2c ./packages/ssd1306-latest/examples/ssd1306_tests.o
                0x0000f338                ssd1306_TestPolyline
 .text.ssd1306_TestAll
                0x0000f364       0x74 ./packages/ssd1306-latest/examples/ssd1306_tests.o
                0x0000f364                ssd1306_TestAll
 .text.dht_read_bit
                0x0000f3d8       0x68 ./packages/dhtxx-latest/src/dhtxx.o
 .text.dht_read_byte
                0x0000f440       0x3e ./packages/dhtxx-latest/src/dhtxx.o
 *fill*         0x0000f47e        0x2 ff
 .text.dht_read
                0x0000f480      0x140 ./packages/dhtxx-latest/src/dhtxx.o
                0x0000f480                dht_read
 .text.dht_get_humidity
                0x0000f5c0       0x70 ./packages/dhtxx-latest/src/dhtxx.o
                0x0000f5c0                dht_get_humidity
 .text.dht_get_temperature
                0x0000f630       0xa4 ./packages/dhtxx-latest/src/dhtxx.o
                0x0000f630                dht_get_temperature
 .text.dht_create
                0x0000f6d4       0x6c ./packages/dhtxx-latest/src/dhtxx.o
                0x0000f6d4                dht_create
 .text.dht_delete
                0x0000f740       0x1c ./packages/dhtxx-latest/src/dhtxx.o
                0x0000f740                dht_delete
 .text._dht_read_bit
                0x0000f75c       0x68 ./packages/dhtxx-latest/src/sensor_asair_dhtxx.o
 .text._dht_read_byte
                0x0000f7c4       0x3e ./packages/dhtxx-latest/src/sensor_asair_dhtxx.o
 *fill*         0x0000f802        0x2 ff
 .text._dht_read
                0x0000f804      0x174 ./packages/dhtxx-latest/src/sensor_asair_dhtxx.o
 .text._dht_get_humidity
                0x0000f978       0x4c ./packages/dhtxx-latest/src/sensor_asair_dhtxx.o
 .text._dht_get_temperature
                0x0000f9c4       0x64 ./packages/dhtxx-latest/src/sensor_asair_dhtxx.o
 .text._dht_polling_get_data
                0x0000fa28      0x150 ./packages/dhtxx-latest/src/sensor_asair_dhtxx.o
 .text.dht_fetch_data
                0x0000fb78       0x2c ./packages/dhtxx-latest/src/sensor_asair_dhtxx.o
 .text.dht_control
                0x0000fba4       0x54 ./packages/dhtxx-latest/src/sensor_asair_dhtxx.o
 .text.sensor_init
                0x0000fbf8       0x1a ./packages/dhtxx-latest/src/sensor_asair_dhtxx.o
 *fill*         0x0000fc12        0x2 ff
 .text.rt_hw_dht_init
                0x0000fc14      0x254 ./packages/dhtxx-latest/src/sensor_asair_dhtxx.o
                0x0000fc14                rt_hw_dht_init
 .text.cat_dhtxx
                0x0000fe68       0xc8 ./packages/dhtxx-latest/examples/dhtxx_sample.o
                0x0000fe68                cat_dhtxx
 .text.read_humi_entry
                0x0000ff30       0x98 ./packages/dhtxx-latest/examples/sensor_dhtxx_sample.o
 .text.read_temp_entry
                0x0000ffc8       0x98 ./packages/dhtxx-latest/examples/sensor_dhtxx_sample.o
 .text.dhtxx_read_sample
                0x00010060       0x7c ./packages/dhtxx-latest/examples/sensor_dhtxx_sample.o
 .text.rt_hw_dht_port
                0x000100dc       0x28 ./packages/dhtxx-latest/examples/sensor_dhtxx_sample.o
 .text.bmp180_read_regs
                0x00010104       0xa0 ./packages/bmp180-latest/bmp180.o
 .text.bmp180_write_regs
                0x000101a4       0x9c ./packages/bmp180-latest/bmp180.o
 .text.bmp180_write_reg
                0x00010240       0x26 ./packages/bmp180-latest/bmp180.o
 .text.bmp180_read_ut
                0x00010266       0x42 ./packages/bmp180-latest/bmp180.o
 .text.bmp180_read_up
                0x000102a8       0x42 ./packages/bmp180-latest/bmp180.o
 *fill*         0x000102ea        0x2 ff
 .text.bmp180_polling_get_data
                0x000102ec      0x1d0 ./packages/bmp180-latest/bmp180.o
 .text.bmp180_fetch_data
                0x000104bc       0x58 ./packages/bmp180-latest/bmp180.o
 .text.bmp180_control
                0x00010514       0x50 ./packages/bmp180-latest/bmp180.o
 .text.rt_hw_bmp180_init
                0x00010564      0x37c ./packages/bmp180-latest/bmp180.o
                0x00010564                rt_hw_bmp180_init
 .text.read_baro_entry
                0x000108e0       0xd0 ./packages/bmp180-latest/bmp180_sample.o
                0x000108e0                read_baro_entry
 .text.bmp_read
                0x000109b0      0x10c ./packages/bmp180-latest/bmp180_sample.o
                0x000109b0                bmp_read
 .text.rt_hw_bmp180_port
                0x00010abc       0x30 ./packages/bmp180-latest/bmp180_sample.o
                0x00010abc                rt_hw_bmp180_port
 .text.ra_adc_enabled
                0x00010aec       0xa8 ./libraries/HAL_Drivers/drv_adc.o
 .text.ra_get_adc_value
                0x00010b94       0x70 ./libraries/HAL_Drivers/drv_adc.o
 .text.ra_adc_init
                0x00010c04       0x78 ./libraries/HAL_Drivers/drv_adc.o
 .text.__NVIC_SetPriority
                0x00010c7c       0x54 ./libraries/HAL_Drivers/drv_common.o
 .text.__NVIC_SystemReset
                0x00010cd0       0x2c ./libraries/HAL_Drivers/drv_common.o
 .text.SysTick_Config
                0x00010cfc       0x44 ./libraries/HAL_Drivers/drv_common.o
 .text.reboot   0x00010d40       0x10 ./libraries/HAL_Drivers/drv_common.o
 .text.rt_hw_systick_init
                0x00010d50       0x2c ./libraries/HAL_Drivers/drv_common.o
                0x00010d50                rt_hw_systick_init
 .text.SysTick_Handler
                0x00010d7c       0x14 ./libraries/HAL_Drivers/drv_common.o
                0x00010d7c                SysTick_Handler
 .text.rt_hw_us_delay
                0x00010d90       0x84 ./libraries/HAL_Drivers/drv_common.o
                0x00010d90                rt_hw_us_delay
 .text.rt_hw_board_init
                0x00010e14       0x34 ./libraries/HAL_Drivers/drv_common.o
                0x00010e14                rt_hw_board_init
 .text.R_BSP_WarmStart
                0x00010e48       0x2c ./libraries/HAL_Drivers/drv_common.o
                0x00010e48                R_BSP_WarmStart
 .text.R_BSP_PinRead
                0x00010e74       0x38 ./libraries/HAL_Drivers/drv_gpio.o
 .text.R_BSP_PinWrite
                0x00010eac       0x68 ./libraries/HAL_Drivers/drv_gpio.o
 .text.R_BSP_PinAccessEnable
                0x00010f14       0x60 ./libraries/HAL_Drivers/drv_gpio.o
 .text.R_BSP_PinAccessDisable
                0x00010f74       0x68 ./libraries/HAL_Drivers/drv_gpio.o
 .text.ra_pin_get_irqx
                0x00010fdc      0x280 ./libraries/HAL_Drivers/drv_gpio.o
 .text.ra_irq_tab_init
                0x0001125c       0x7c ./libraries/HAL_Drivers/drv_gpio.o
 .text.ra_pin_map_init
                0x000112d8       0x28 ./libraries/HAL_Drivers/drv_gpio.o
 .text.ra_pin_mode
                0x00011300       0xf8 ./libraries/HAL_Drivers/drv_gpio.o
 .text.ra_pin_write
                0x000113f8       0x3a ./libraries/HAL_Drivers/drv_gpio.o
 *fill*         0x00011432        0x2 ff
 .text.ra_pin_read
                0x00011434       0x50 ./libraries/HAL_Drivers/drv_gpio.o
 .text.ra_pin_irq_enable
                0x00011484      0x120 ./libraries/HAL_Drivers/drv_gpio.o
 .text.ra_pin_attach_irq
                0x000115a4      0x12c ./libraries/HAL_Drivers/drv_gpio.o
 .text.ra_pin_dettach_irq
                0x000116d0       0xb4 ./libraries/HAL_Drivers/drv_gpio.o
 .text.ra_pin_get
                0x00011784       0xce ./libraries/HAL_Drivers/drv_gpio.o
 *fill*         0x00011852        0x2 ff
 .text.rt_hw_pin_init
                0x00011854       0x24 ./libraries/HAL_Drivers/drv_gpio.o
                0x00011854                rt_hw_pin_init
 .text.irq0_callback
                0x00011878       0x34 ./libraries/HAL_Drivers/drv_gpio.o
                0x00011878                irq0_callback
 .text.R_FSP_SystemClockHzGet
                0x000118ac       0x4c ./libraries/HAL_Drivers/drv_pwm.o
 .text._convert_counts_ns
                0x000118f8       0x68 ./libraries/HAL_Drivers/drv_pwm.o
 .text._convert_ns_counts
                0x00011960       0x68 ./libraries/HAL_Drivers/drv_pwm.o
 .text.drv_pwm_enable
                0x000119c8       0x46 ./libraries/HAL_Drivers/drv_pwm.o
 .text.drv_pwm_get
                0x00011a0e       0x70 ./libraries/HAL_Drivers/drv_pwm.o
 .text.drv_pwm_set
                0x00011a7e       0xb4 ./libraries/HAL_Drivers/drv_pwm.o
 *fill*         0x00011b32        0x2 ff
 .text.drv_pwm_control
                0x00011b34       0x84 ./libraries/HAL_Drivers/drv_pwm.o
 .text.rt_hw_pwm_init
                0x00011bb8       0xa4 ./libraries/HAL_Drivers/drv_pwm.o
                0x00011bb8                rt_hw_pwm_init
 .text.ra_i2c_gpio_init
                0x00011c5c       0x46 ./libraries/HAL_Drivers/drv_soft_i2c.o
 .text.ra_set_sda
                0x00011ca2       0x36 ./libraries/HAL_Drivers/drv_soft_i2c.o
 .text.ra_set_scl
                0x00011cd8       0x36 ./libraries/HAL_Drivers/drv_soft_i2c.o
 .text.ra_get_sda
                0x00011d0e       0x20 ./libraries/HAL_Drivers/drv_soft_i2c.o
 .text.ra_get_scl
                0x00011d2e       0x20 ./libraries/HAL_Drivers/drv_soft_i2c.o
 *fill*         0x00011d4e        0x2 ff
 .text.ra_udelay
                0x00011d50       0x84 ./libraries/HAL_Drivers/drv_soft_i2c.o
 .text.ra_i2c_bus_unlock
                0x00011dd4       0x6c ./libraries/HAL_Drivers/drv_soft_i2c.o
 .text.rt_hw_i2c_init
                0x00011e40       0xf0 ./libraries/HAL_Drivers/drv_soft_i2c.o
                0x00011e40                rt_hw_i2c_init
 .text.ra_uart_get_config
                0x00011f30       0x7c ./libraries/HAL_Drivers/drv_usart_v2.o
 .text.ra_uart_configure
                0x00011fac       0x7c ./libraries/HAL_Drivers/drv_usart_v2.o
 .text.ra_uart_control
                0x00012028       0x1a ./libraries/HAL_Drivers/drv_usart_v2.o
 *fill*         0x00012042        0x2 ff
 .text.ra_uart_putc
                0x00012044       0x68 ./libraries/HAL_Drivers/drv_usart_v2.o
 .text.ra_uart_getc
                0x000120ac       0x16 ./libraries/HAL_Drivers/drv_usart_v2.o
 *fill*         0x000120c2        0x2 ff
 .text.user_uart0_callback
                0x000120c4       0x74 ./libraries/HAL_Drivers/drv_usart_v2.o
                0x000120c4                user_uart0_callback
 .text.user_uart7_callback
                0x00012138       0x78 ./libraries/HAL_Drivers/drv_usart_v2.o
                0x00012138                user_uart7_callback
 .text.rt_hw_usart_init
                0x000121b0       0xb8 ./libraries/HAL_Drivers/drv_usart_v2.o
                0x000121b0                rt_hw_usart_init
 .text.cos      0x00012268       0xa8 d:/rt-threadstudio/repo/extract/toolchain_support_packages/arm/gnu_tools_for_arm_embedded_processors/10.2.1/bin/../lib/gcc/arm-none-eabi/10.2.1/../../../../arm-none-eabi/lib/thumb/v8-m.main+fp/hard\libm.a(lib_a-s_cos.o)
                0x00012268                cos
 .text.sin      0x00012310       0xa8 d:/rt-threadstudio/repo/extract/toolchain_support_packages/arm/gnu_tools_for_arm_embedded_processors/10.2.1/bin/../lib/gcc/arm-none-eabi/10.2.1/../../../../arm-none-eabi/lib/thumb/v8-m.main+fp/hard\libm.a(lib_a-s_sin.o)
                0x00012310                sin
 .text.__ieee754_rem_pio2
                0x000123b8      0x44c d:/rt-threadstudio/repo/extract/toolchain_support_packages/arm/gnu_tools_for_arm_embedded_processors/10.2.1/bin/../lib/gcc/arm-none-eabi/10.2.1/../../../../arm-none-eabi/lib/thumb/v8-m.main+fp/hard\libm.a(lib_a-e_rem_pio2.o)
                0x000123b8                __ieee754_rem_pio2
 *fill*         0x00012804        0x4 ff
 .text.__kernel_cos
                0x00012808      0x27c d:/rt-threadstudio/repo/extract/toolchain_support_packages/arm/gnu_tools_for_arm_embedded_processors/10.2.1/bin/../lib/gcc/arm-none-eabi/10.2.1/../../../../arm-none-eabi/lib/thumb/v8-m.main+fp/hard\libm.a(lib_a-k_cos.o)
                0x00012808                __kernel_cos
 *fill*         0x00012a84        0x4 ff
 .text.__kernel_rem_pio2
                0x00012a88      0x848 d:/rt-threadstudio/repo/extract/toolchain_support_packages/arm/gnu_tools_for_arm_embedded_processors/10.2.1/bin/../lib/gcc/arm-none-eabi/10.2.1/../../../../arm-none-eabi/lib/thumb/v8-m.main+fp/hard\libm.a(lib_a-k_rem_pio2.o)
                0x00012a88                __kernel_rem_pio2
 .text.__kernel_sin
                0x000132d0      0x18c d:/rt-threadstudio/repo/extract/toolchain_support_packages/arm/gnu_tools_for_arm_embedded_processors/10.2.1/bin/../lib/gcc/arm-none-eabi/10.2.1/../../../../arm-none-eabi/lib/thumb/v8-m.main+fp/hard\libm.a(lib_a-k_sin.o)
                0x000132d0                __kernel_sin
 .text.fabs     0x0001345c       0x14 d:/rt-threadstudio/repo/extract/toolchain_support_packages/arm/gnu_tools_for_arm_embedded_processors/10.2.1/bin/../lib/gcc/arm-none-eabi/10.2.1/../../../../arm-none-eabi/lib/thumb/v8-m.main+fp/hard\libm.a(lib_a-s_fabs.o)
                0x0001345c                fabs
 .text.floor    0x00013470      0x108 d:/rt-threadstudio/repo/extract/toolchain_support_packages/arm/gnu_tools_for_arm_embedded_processors/10.2.1/bin/../lib/gcc/arm-none-eabi/10.2.1/../../../../arm-none-eabi/lib/thumb/v8-m.main+fp/hard\libm.a(lib_a-s_floor.o)
                0x00013470                floor
 .text.scalbn   0x00013578      0x128 d:/rt-threadstudio/repo/extract/toolchain_support_packages/arm/gnu_tools_for_arm_embedded_processors/10.2.1/bin/../lib/gcc/arm-none-eabi/10.2.1/../../../../arm-none-eabi/lib/thumb/v8-m.main+fp/hard\libm.a(lib_a-s_scalbn.o)
                0x00013578                scalbn
 .text.atoi     0x000136a0        0x8 d:/rt-threadstudio/repo/extract/toolchain_support_packages/arm/gnu_tools_for_arm_embedded_processors/10.2.1/bin/../lib/gcc/arm-none-eabi/10.2.1/../../../../arm-none-eabi/lib/thumb/v8-m.main+fp/hard\libc.a(lib_a-atoi.o)
                0x000136a0                atoi
 .text.memcmp   0x000136a8       0x60 d:/rt-threadstudio/repo/extract/toolchain_support_packages/arm/gnu_tools_for_arm_embedded_processors/10.2.1/bin/../lib/gcc/arm-none-eabi/10.2.1/../../../../arm-none-eabi/lib/thumb/v8-m.main+fp/hard\libc.a(lib_a-memcmp.o)
                0x000136a8                memcmp
 .text          0x00013708       0xec d:/rt-threadstudio/repo/extract/toolchain_support_packages/arm/gnu_tools_for_arm_embedded_processors/10.2.1/bin/../lib/gcc/arm-none-eabi/10.2.1/../../../../arm-none-eabi/lib/thumb/v8-m.main+fp/hard\libc.a(lib_a-memcpy.o)
                0x00013708                memcpy
 .text.memmove  0x000137f4       0xf8 d:/rt-threadstudio/repo/extract/toolchain_support_packages/arm/gnu_tools_for_arm_embedded_processors/10.2.1/bin/../lib/gcc/arm-none-eabi/10.2.1/../../../../arm-none-eabi/lib/thumb/v8-m.main+fp/hard\libc.a(lib_a-memmove.o)
                0x000137f4                memmove
 .text.memset   0x000138ec       0xa4 d:/rt-threadstudio/repo/extract/toolchain_support_packages/arm/gnu_tools_for_arm_embedded_processors/10.2.1/bin/../lib/gcc/arm-none-eabi/10.2.1/../../../../arm-none-eabi/lib/thumb/v8-m.main+fp/hard\libc.a(lib_a-memset.o)
                0x000138ec                memset
 .text.snprintf
                0x00013990       0x88 d:/rt-threadstudio/repo/extract/toolchain_support_packages/arm/gnu_tools_for_arm_embedded_processors/10.2.1/bin/../lib/gcc/arm-none-eabi/10.2.1/../../../../arm-none-eabi/lib/thumb/v8-m.main+fp/hard\libc.a(lib_a-snprintf.o)
                0x00013990                snprintf
 .text.strcat   0x00013a18       0x40 d:/rt-threadstudio/repo/extract/toolchain_support_packages/arm/gnu_tools_for_arm_embedded_processors/10.2.1/bin/../lib/gcc/arm-none-eabi/10.2.1/../../../../arm-none-eabi/lib/thumb/v8-m.main+fp/hard\libc.a(lib_a-strcat.o)
                0x00013a18                strcat
 .text          0x00013a58      0x1bc d:/rt-threadstudio/repo/extract/toolchain_support_packages/arm/gnu_tools_for_arm_embedded_processors/10.2.1/bin/../lib/gcc/arm-none-eabi/10.2.1/../../../../arm-none-eabi/lib/thumb/v8-m.main+fp/hard\libc.a(lib_a-strcmp.o)
                0x00013a58                strcmp
 .text.strcpy   0x00013c14       0xbc d:/rt-threadstudio/repo/extract/toolchain_support_packages/arm/gnu_tools_for_arm_embedded_processors/10.2.1/bin/../lib/gcc/arm-none-eabi/10.2.1/../../../../arm-none-eabi/lib/thumb/v8-m.main+fp/hard\libc.a(lib_a-strcpy.o)
                0x00013c14                strcpy
 .text.strlen   0x00013cd0       0x5c d:/rt-threadstudio/repo/extract/toolchain_support_packages/arm/gnu_tools_for_arm_embedded_processors/10.2.1/bin/../lib/gcc/arm-none-eabi/10.2.1/../../../../arm-none-eabi/lib/thumb/v8-m.main+fp/hard\libc.a(lib_a-strlen-stub.o)
                0x00013cd0                strlen
 .text.strncmp  0x00013d2c       0x78 d:/rt-threadstudio/repo/extract/toolchain_support_packages/arm/gnu_tools_for_arm_embedded_processors/10.2.1/bin/../lib/gcc/arm-none-eabi/10.2.1/../../../../arm-none-eabi/lib/thumb/v8-m.main+fp/hard\libc.a(lib_a-strncmp.o)
                0x00013d2c                strncmp
 .text.strncpy  0x00013da4       0x64 d:/rt-threadstudio/repo/extract/toolchain_support_packages/arm/gnu_tools_for_arm_embedded_processors/10.2.1/bin/../lib/gcc/arm-none-eabi/10.2.1/../../../../arm-none-eabi/lib/thumb/v8-m.main+fp/hard\libc.a(lib_a-strncpy.o)
                0x00013da4                strncpy
 .text._strtol_l.part.0
                0x00013e08      0x104 d:/rt-threadstudio/repo/extract/toolchain_support_packages/arm/gnu_tools_for_arm_embedded_processors/10.2.1/bin/../lib/gcc/arm-none-eabi/10.2.1/../../../../arm-none-eabi/lib/thumb/v8-m.main+fp/hard\libc.a(lib_a-strtol.o)
 .text.strtol   0x00013f0c       0x2c d:/rt-threadstudio/repo/extract/toolchain_support_packages/arm/gnu_tools_for_arm_embedded_processors/10.2.1/bin/../lib/gcc/arm-none-eabi/10.2.1/../../../../arm-none-eabi/lib/thumb/v8-m.main+fp/hard\libc.a(lib_a-strtol.o)
                0x00013f0c                strtol
 .text._svfprintf_r
                0x00013f38     0x1a8c d:/rt-threadstudio/repo/extract/toolchain_support_packages/arm/gnu_tools_for_arm_embedded_processors/10.2.1/bin/../lib/gcc/arm-none-eabi/10.2.1/../../../../arm-none-eabi/lib/thumb/v8-m.main+fp/hard\libc.a(lib_a-svfprintf.o)
                0x00013f38                _svfprintf_r
 .text.startup.register_fini
                0x000159c4       0x14 d:/rt-threadstudio/repo/extract/toolchain_support_packages/arm/gnu_tools_for_arm_embedded_processors/10.2.1/bin/../lib/gcc/arm-none-eabi/10.2.1/../../../../arm-none-eabi/lib/thumb/v8-m.main+fp/hard\libc.a(lib_a-__call_atexit.o)
 .text.atexit   0x000159d8        0xc d:/rt-threadstudio/repo/extract/toolchain_support_packages/arm/gnu_tools_for_arm_embedded_processors/10.2.1/bin/../lib/gcc/arm-none-eabi/10.2.1/../../../../arm-none-eabi/lib/thumb/v8-m.main+fp/hard\libc.a(lib_a-atexit.o)
                0x000159d8                atexit
 .text.quorem   0x000159e4      0x134 d:/rt-threadstudio/repo/extract/toolchain_support_packages/arm/gnu_tools_for_arm_embedded_processors/10.2.1/bin/../lib/gcc/arm-none-eabi/10.2.1/../../../../arm-none-eabi/lib/thumb/v8-m.main+fp/hard\libc.a(lib_a-dtoa.o)
 .text._dtoa_r  0x00015b18      0xf54 d:/rt-threadstudio/repo/extract/toolchain_support_packages/arm/gnu_tools_for_arm_embedded_processors/10.2.1/bin/../lib/gcc/arm-none-eabi/10.2.1/../../../../arm-none-eabi/lib/thumb/v8-m.main+fp/hard\libc.a(lib_a-dtoa.o)
                0x00015b18                _dtoa_r
 .text.__libc_fini_array
                0x00016a6c       0x2c d:/rt-threadstudio/repo/extract/toolchain_support_packages/arm/gnu_tools_for_arm_embedded_processors/10.2.1/bin/../lib/gcc/arm-none-eabi/10.2.1/../../../../arm-none-eabi/lib/thumb/v8-m.main+fp/hard\libc.a(lib_a-fini.o)
                0x00016a6c                __libc_fini_array
 .text._localeconv_r
                0x00016a98        0x8 d:/rt-threadstudio/repo/extract/toolchain_support_packages/arm/gnu_tools_for_arm_embedded_processors/10.2.1/bin/../lib/gcc/arm-none-eabi/10.2.1/../../../../arm-none-eabi/lib/thumb/v8-m.main+fp/hard\libc.a(lib_a-localeconv.o)
                0x00016a98                _localeconv_r
 .text.__retarget_lock_acquire_recursive
                0x00016aa0        0x4 d:/rt-threadstudio/repo/extract/toolchain_support_packages/arm/gnu_tools_for_arm_embedded_processors/10.2.1/bin/../lib/gcc/arm-none-eabi/10.2.1/../../../../arm-none-eabi/lib/thumb/v8-m.main+fp/hard\libc.a(lib_a-lock.o)
                0x00016aa0                __retarget_lock_acquire_recursive
 .text.__retarget_lock_release_recursive
                0x00016aa4        0x4 d:/rt-threadstudio/repo/extract/toolchain_support_packages/arm/gnu_tools_for_arm_embedded_processors/10.2.1/bin/../lib/gcc/arm-none-eabi/10.2.1/../../../../arm-none-eabi/lib/thumb/v8-m.main+fp/hard\libc.a(lib_a-lock.o)
                0x00016aa4                __retarget_lock_release_recursive
 .text.memchr   0x00016aa8       0x80 d:/rt-threadstudio/repo/extract/toolchain_support_packages/arm/gnu_tools_for_arm_embedded_processors/10.2.1/bin/../lib/gcc/arm-none-eabi/10.2.1/../../../../arm-none-eabi/lib/thumb/v8-m.main+fp/hard\libc.a(lib_a-memchr-stub.o)
                0x00016aa8                memchr
 .text._Balloc  0x00016b28       0x4c d:/rt-threadstudio/repo/extract/toolchain_support_packages/arm/gnu_tools_for_arm_embedded_processors/10.2.1/bin/../lib/gcc/arm-none-eabi/10.2.1/../../../../arm-none-eabi/lib/thumb/v8-m.main+fp/hard\libc.a(lib_a-mprec.o)
                0x00016b28                _Balloc
 .text._Bfree   0x00016b74       0x14 d:/rt-threadstudio/repo/extract/toolchain_support_packages/arm/gnu_tools_for_arm_embedded_processors/10.2.1/bin/../lib/gcc/arm-none-eabi/10.2.1/../../../../arm-none-eabi/lib/thumb/v8-m.main+fp/hard\libc.a(lib_a-mprec.o)
                0x00016b74                _Bfree
 .text.__multadd
                0x00016b88       0xa8 d:/rt-threadstudio/repo/extract/toolchain_support_packages/arm/gnu_tools_for_arm_embedded_processors/10.2.1/bin/../lib/gcc/arm-none-eabi/10.2.1/../../../../arm-none-eabi/lib/thumb/v8-m.main+fp/hard\libc.a(lib_a-mprec.o)
                0x00016b88                __multadd
 .text.__hi0bits
                0x00016c30       0x44 d:/rt-threadstudio/repo/extract/toolchain_support_packages/arm/gnu_tools_for_arm_embedded_processors/10.2.1/bin/../lib/gcc/arm-none-eabi/10.2.1/../../../../arm-none-eabi/lib/thumb/v8-m.main+fp/hard\libc.a(lib_a-mprec.o)
                0x00016c30                __hi0bits
 .text.__lo0bits
                0x00016c74       0x60 d:/rt-threadstudio/repo/extract/toolchain_support_packages/arm/gnu_tools_for_arm_embedded_processors/10.2.1/bin/../lib/gcc/arm-none-eabi/10.2.1/../../../../arm-none-eabi/lib/thumb/v8-m.main+fp/hard\libc.a(lib_a-mprec.o)
                0x00016c74                __lo0bits
 .text.__i2b    0x00016cd4       0x5c d:/rt-threadstudio/repo/extract/toolchain_support_packages/arm/gnu_tools_for_arm_embedded_processors/10.2.1/bin/../lib/gcc/arm-none-eabi/10.2.1/../../../../arm-none-eabi/lib/thumb/v8-m.main+fp/hard\libc.a(lib_a-mprec.o)
                0x00016cd4                __i2b
 .text.__multiply
                0x00016d30      0x15c d:/rt-threadstudio/repo/extract/toolchain_support_packages/arm/gnu_tools_for_arm_embedded_processors/10.2.1/bin/../lib/gcc/arm-none-eabi/10.2.1/../../../../arm-none-eabi/lib/thumb/v8-m.main+fp/hard\libc.a(lib_a-mprec.o)
                0x00016d30                __multiply
 .text.__pow5mult
                0x00016e8c       0xc0 d:/rt-threadstudio/repo/extract/toolchain_support_packages/arm/gnu_tools_for_arm_embedded_processors/10.2.1/bin/../lib/gcc/arm-none-eabi/10.2.1/../../../../arm-none-eabi/lib/thumb/v8-m.main+fp/hard\libc.a(lib_a-mprec.o)
                0x00016e8c                __pow5mult
 .text.__lshift
                0x00016f4c       0xe8 d:/rt-threadstudio/repo/extract/toolchain_support_packages/arm/gnu_tools_for_arm_embedded_processors/10.2.1/bin/../lib/gcc/arm-none-eabi/10.2.1/../../../../arm-none-eabi/lib/thumb/v8-m.main+fp/hard\libc.a(lib_a-mprec.o)
                0x00016f4c                __lshift
 .text.__mcmp   0x00017034       0x44 d:/rt-threadstudio/repo/extract/toolchain_support_packages/arm/gnu_tools_for_arm_embedded_processors/10.2.1/bin/../lib/gcc/arm-none-eabi/10.2.1/../../../../arm-none-eabi/lib/thumb/v8-m.main+fp/hard\libc.a(lib_a-mprec.o)
                0x00017034                __mcmp
 .text.__mdiff  0x00017078      0x148 d:/rt-threadstudio/repo/extract/toolchain_support_packages/arm/gnu_tools_for_arm_embedded_processors/10.2.1/bin/../lib/gcc/arm-none-eabi/10.2.1/../../../../arm-none-eabi/lib/thumb/v8-m.main+fp/hard\libc.a(lib_a-mprec.o)
                0x00017078                __mdiff
 .text.__d2b    0x000171c0       0xd0 d:/rt-threadstudio/repo/extract/toolchain_support_packages/arm/gnu_tools_for_arm_embedded_processors/10.2.1/bin/../lib/gcc/arm-none-eabi/10.2.1/../../../../arm-none-eabi/lib/thumb/v8-m.main+fp/hard\libc.a(lib_a-mprec.o)
                0x000171c0                __d2b
 .text.frexp    0x00017290       0x70 d:/rt-threadstudio/repo/extract/toolchain_support_packages/arm/gnu_tools_for_arm_embedded_processors/10.2.1/bin/../lib/gcc/arm-none-eabi/10.2.1/../../../../arm-none-eabi/lib/thumb/v8-m.main+fp/hard\libc.a(lib_a-s_frexp.o)
                0x00017290                frexp
 .text.__ssprint_r
                0x00017300      0x100 d:/rt-threadstudio/repo/extract/toolchain_support_packages/arm/gnu_tools_for_arm_embedded_processors/10.2.1/bin/../lib/gcc/arm-none-eabi/10.2.1/../../../../arm-none-eabi/lib/thumb/v8-m.main+fp/hard\libc.a(lib_a-svfiprintf.o)
                0x00017300                __ssprint_r
 .text.__register_exitproc
                0x00017400       0x90 d:/rt-threadstudio/repo/extract/toolchain_support_packages/arm/gnu_tools_for_arm_embedded_processors/10.2.1/bin/../lib/gcc/arm-none-eabi/10.2.1/../../../../arm-none-eabi/lib/thumb/v8-m.main+fp/hard\libc.a(lib_a-__atexit.o)
                0x00017400                __register_exitproc
 .text.__ascii_mbtowc
                0x00017490       0x2c d:/rt-threadstudio/repo/extract/toolchain_support_packages/arm/gnu_tools_for_arm_embedded_processors/10.2.1/bin/../lib/gcc/arm-none-eabi/10.2.1/../../../../arm-none-eabi/lib/thumb/v8-m.main+fp/hard\libc.a(lib_a-mbtowc_r.o)
                0x00017490                __ascii_mbtowc
 .text.__ascii_wctomb
                0x000174bc       0x1c d:/rt-threadstudio/repo/extract/toolchain_support_packages/arm/gnu_tools_for_arm_embedded_processors/10.2.1/bin/../lib/gcc/arm-none-eabi/10.2.1/../../../../arm-none-eabi/lib/thumb/v8-m.main+fp/hard\libc.a(lib_a-wctomb_r.o)
                0x000174bc                __ascii_wctomb
 .text          0x000174d8      0x378 d:/rt-threadstudio/repo/extract/toolchain_support_packages/arm/gnu_tools_for_arm_embedded_processors/10.2.1/bin/../lib/gcc/arm-none-eabi/10.2.1/thumb/v8-m.main+fp/hard\libgcc.a(_arm_addsubdf3.o)
                0x000174d8                __aeabi_drsub
                0x000174e0                __aeabi_dsub
                0x000174e0                __subdf3
                0x000174e4                __aeabi_dadd
                0x000174e4                __adddf3
                0x0001775c                __floatunsidf
                0x0001775c                __aeabi_ui2d
                0x0001777c                __floatsidf
                0x0001777c                __aeabi_i2d
                0x000177a0                __aeabi_f2d
                0x000177a0                __extendsfdf2
                0x000177e4                __floatundidf
                0x000177e4                __aeabi_ul2d
                0x000177f4                __floatdidf
                0x000177f4                __aeabi_l2d
 .text          0x00017850      0x424 d:/rt-threadstudio/repo/extract/toolchain_support_packages/arm/gnu_tools_for_arm_embedded_processors/10.2.1/bin/../lib/gcc/arm-none-eabi/10.2.1/thumb/v8-m.main+fp/hard\libgcc.a(_arm_muldivdf3.o)
                0x00017850                __aeabi_dmul
                0x00017850                __muldf3
                0x00017aa4                __divdf3
                0x00017aa4                __aeabi_ddiv
 .text          0x00017c74      0x110 d:/rt-threadstudio/repo/extract/toolchain_support_packages/arm/gnu_tools_for_arm_embedded_processors/10.2.1/bin/../lib/gcc/arm-none-eabi/10.2.1/thumb/v8-m.main+fp/hard\libgcc.a(_arm_cmpdf2.o)
                0x00017c74                __gtdf2
                0x00017c74                __gedf2
                0x00017c7c                __ltdf2
                0x00017c7c                __ledf2
                0x00017c84                __nedf2
                0x00017c84                __eqdf2
                0x00017c84                __cmpdf2
                0x00017d00                __aeabi_cdrcmple
                0x00017d10                __aeabi_cdcmpeq
                0x00017d10                __aeabi_cdcmple
                0x00017d20                __aeabi_dcmpeq
                0x00017d34                __aeabi_dcmplt
                0x00017d48                __aeabi_dcmple
                0x00017d5c                __aeabi_dcmpge
                0x00017d70                __aeabi_dcmpgt
 .text          0x00017d84       0x2c d:/rt-threadstudio/repo/extract/toolchain_support_packages/arm/gnu_tools_for_arm_embedded_processors/10.2.1/bin/../lib/gcc/arm-none-eabi/10.2.1/thumb/v8-m.main+fp/hard\libgcc.a(_arm_unorddf2.o)
                0x00017d84                __unorddf2
                0x00017d84                __aeabi_dcmpun
 .text          0x00017db0       0x50 d:/rt-threadstudio/repo/extract/toolchain_support_packages/arm/gnu_tools_for_arm_embedded_processors/10.2.1/bin/../lib/gcc/arm-none-eabi/10.2.1/thumb/v8-m.main+fp/hard\libgcc.a(_arm_fixdfsi.o)
                0x00017db0                __aeabi_d2iz
                0x00017db0                __fixdfsi
 .text          0x00017e00       0x40 d:/rt-threadstudio/repo/extract/toolchain_support_packages/arm/gnu_tools_for_arm_embedded_processors/10.2.1/bin/../lib/gcc/arm-none-eabi/10.2.1/thumb/v8-m.main+fp/hard\libgcc.a(_arm_fixunsdfsi.o)
                0x00017e00                __aeabi_d2uiz
                0x00017e00                __fixunsdfsi
 .text          0x00017e40       0xa0 d:/rt-threadstudio/repo/extract/toolchain_support_packages/arm/gnu_tools_for_arm_embedded_processors/10.2.1/bin/../lib/gcc/arm-none-eabi/10.2.1/thumb/v8-m.main+fp/hard\libgcc.a(_arm_truncdfsf2.o)
                0x00017e40                __truncdfsf2
                0x00017e40                __aeabi_d2f
 .text          0x00017ee0       0x30 d:/rt-threadstudio/repo/extract/toolchain_support_packages/arm/gnu_tools_for_arm_embedded_processors/10.2.1/bin/../lib/gcc/arm-none-eabi/10.2.1/thumb/v8-m.main+fp/hard\libgcc.a(_aeabi_uldivmod.o)
                0x00017ee0                __aeabi_uldivmod
 .text          0x00017f10      0x2ec d:/rt-threadstudio/repo/extract/toolchain_support_packages/arm/gnu_tools_for_arm_embedded_processors/10.2.1/bin/../lib/gcc/arm-none-eabi/10.2.1/thumb/v8-m.main+fp/hard\libgcc.a(_udivmoddi4.o)
                0x00017f10                __udivmoddi4
 .text          0x000181fc        0x4 d:/rt-threadstudio/repo/extract/toolchain_support_packages/arm/gnu_tools_for_arm_embedded_processors/10.2.1/bin/../lib/gcc/arm-none-eabi/10.2.1/thumb/v8-m.main+fp/hard\libgcc.a(_dvmd_tls.o)
                0x000181fc                __aeabi_idiv0
                0x000181fc                __aeabi_ldiv0
 *(.version)
 .version       0x00018200       0x50 ./ra/fsp/src/bsp/mcu/all/bsp_common.o
 *(.init)
 .init          0x00018250        0x4 d:/rt-threadstudio/repo/extract/toolchain_support_packages/arm/gnu_tools_for_arm_embedded_processors/10.2.1/bin/../lib/gcc/arm-none-eabi/10.2.1/thumb/v8-m.main+fp/hard/crti.o
                0x00018250                _init
 .init          0x00018254        0x8 d:/rt-threadstudio/repo/extract/toolchain_support_packages/arm/gnu_tools_for_arm_embedded_processors/10.2.1/bin/../lib/gcc/arm-none-eabi/10.2.1/thumb/v8-m.main+fp/hard/crtn.o
 *(.fini)
 .fini          0x0001825c        0x4 d:/rt-threadstudio/repo/extract/toolchain_support_packages/arm/gnu_tools_for_arm_embedded_processors/10.2.1/bin/../lib/gcc/arm-none-eabi/10.2.1/thumb/v8-m.main+fp/hard/crti.o
                0x0001825c                _fini
 .fini          0x00018260        0x8 d:/rt-threadstudio/repo/extract/toolchain_support_packages/arm/gnu_tools_for_arm_embedded_processors/10.2.1/bin/../lib/gcc/arm-none-eabi/10.2.1/thumb/v8-m.main+fp/hard/crtn.o
                0x00018268                . = ALIGN (0x4)
                0x00018268                __fsymtab_start = .
 *(FSymTab)
 FSymTab        0x00018268       0x78 ./rt-thread/components/finsh/cmd.o
                0x00018268                __fsym_clear
                0x00018274                __fsym_version
                0x00018280                __fsym_list_thread
                0x0001828c                __fsym_list_sem
                0x00018298                __fsym_list_event
                0x000182a4                __fsym_list_mutex
                0x000182b0                __fsym_list_mailbox
                0x000182bc                __fsym_list_msgqueue
                0x000182c8                __fsym_list_timer
                0x000182d4                __fsym_list_device
 FSymTab        0x000182e0       0x24 ./rt-thread/components/finsh/msh.o
                0x000182e0                __fsym_help
                0x000182ec                __fsym_ps
                0x000182f8                __fsym_free
 FSymTab        0x00018304       0x30 ./rt-thread/components/drivers/sensors/sensor_cmd.o
                0x00018304                __fsym_sensor_fifo
                0x00018310                __fsym_sensor_int
                0x0001831c                __fsym_sensor_polling
                0x00018328                __fsym_sensor
 FSymTab        0x00018334        0xc ./rt-thread/components/drivers/misc/adc.o
                0x00018334                __fsym_adc
 FSymTab        0x00018340       0x30 ./rt-thread/components/drivers/misc/rt_drv_pwm.o
                0x00018340                __fsym_pwm_enable
                0x0001834c                __fsym_pwm_disable
                0x00018358                __fsym_pwm_set
                0x00018364                __fsym_pwm_get
 FSymTab        0x00018370        0xc ./packages/ssd1306-latest/examples/ssd1306_tests.o
                0x00018370                __fsym_ssd1306_TestAll
 FSymTab        0x0001837c        0xc ./packages/dhtxx-latest/examples/sensor_dhtxx_sample.o
                0x0001837c                __fsym_dhtxx_read_sample
 FSymTab        0x00018388        0xc ./libraries/HAL_Drivers/drv_common.o
                0x00018388                __fsym_reboot
                0x00018394                __fsymtab_end = .
                0x00018394                . = ALIGN (0x4)
                0x00018394                __vsymtab_start = .
 *(VSymTab)
                0x00018394                __vsymtab_end = .
                0x00018394                . = ALIGN (0x4)
                0x00018394                __rt_init_start = .
 *(SORT_BY_NAME(.rti_fn*))
 .rti_fn.0      0x00018394        0x4 ./rt-thread/src/components.o
                0x00018394                __rt_init_rti_start
 .rti_fn.0.end  0x00018398        0x4 ./rt-thread/src/components.o
                0x00018398                __rt_init_rti_board_start
 .rti_fn.1      0x0001839c        0x4 ./libraries/HAL_Drivers/drv_adc.o
                0x0001839c                __rt_init_ra_adc_init
 .rti_fn.1      0x000183a0        0x4 ./libraries/HAL_Drivers/drv_pwm.o
                0x000183a0                __rt_init_rt_hw_pwm_init
 .rti_fn.1      0x000183a4        0x4 ./libraries/HAL_Drivers/drv_soft_i2c.o
                0x000183a4                __rt_init_rt_hw_i2c_init
 .rti_fn.1.end  0x000183a8        0x4 ./rt-thread/src/components.o
                0x000183a8                __rt_init_rti_board_end
 .rti_fn.4      0x000183ac        0x4 ./rt-thread/components/drivers/i2c/i2c_core.o
                0x000183ac                __rt_init_rt_i2c_core_init
 .rti_fn.4      0x000183b0        0x4 ./packages/dhtxx-latest/examples/sensor_dhtxx_sample.o
                0x000183b0                __rt_init_rt_hw_dht_port
 .rti_fn.4      0x000183b4        0x4 ./packages/bmp180-latest/bmp180_sample.o
                0x000183b4                __rt_init_rt_hw_bmp180_port
 .rti_fn.6      0x000183b8        0x4 ./src/adc.o
                0x000183b8                __rt_init_adc_Initiation
 .rti_fn.6      0x000183bc        0x4 ./src/pwmled.o
                0x000183bc                __rt_init_pwm_Initiation
 .rti_fn.6      0x000183c0        0x4 ./src/uart.o
                0x000183c0                __rt_init_uart_data_sample
 .rti_fn.6      0x000183c4        0x4 ./rt-thread/components/finsh/shell.o
                0x000183c4                __rt_init_finsh_system_init
 .rti_fn.6.end  0x000183c8        0x4 ./rt-thread/src/components.o
                0x000183c8                __rt_init_rti_end
                0x000183cc                __rt_init_end = .
                0x000183cc                . = ALIGN (0x4)
 *(FalPartTable)
 *crtbegin.o(.ctors)
 *crtbegin?.o(.ctors)
 *(EXCLUDE_FILE(*crtend.o *crtend?.o) .ctors)
 *(SORT_BY_NAME(.ctors.*))
 *(.ctors)
 *crtbegin.o(.dtors)
 *crtbegin?.o(.dtors)
 *(EXCLUDE_FILE(*crtend.o *crtend?.o) .dtors)
 *(SORT_BY_NAME(.dtors.*))
 *(.dtors)
 *(.rodata*)
 .rodata        0x000183cc       0x98 ./src/adc.o
 .rodata        0x00018464       0x13 ./src/hal_entry.o
 *fill*         0x00018477        0x1 ff
 .rodata        0x00018478       0x65 ./src/pwmled.o
 *fill*         0x000184dd        0x3 ff
 .rodata        0x000184e0      0x10f ./src/uart.o
 *fill*         0x000185ef        0x1 ff
 .rodata        0x000185f0       0x17 ./rt-thread/src/components.o
 *fill*         0x00018607        0x1 ff
 .rodata.__FUNCTION__.0
                0x00018608       0x14 ./rt-thread/src/components.o
 .rodata        0x0001861c       0xbc ./rt-thread/src/device.o
 .rodata.__FUNCTION__.6
                0x000186d8        0xf ./rt-thread/src/device.o
 *fill*         0x000186e7        0x1 ff
 .rodata.__FUNCTION__.5
                0x000186e8       0x10 ./rt-thread/src/device.o
 .rodata.__FUNCTION__.4
                0x000186f8        0xf ./rt-thread/src/device.o
 *fill*         0x00018707        0x1 ff
 .rodata.__FUNCTION__.3
                0x00018708       0x10 ./rt-thread/src/device.o
 .rodata.__FUNCTION__.2
                0x00018718       0x12 ./rt-thread/src/device.o
 *fill*         0x0001872a        0x2 ff
 .rodata.__FUNCTION__.1
                0x0001872c       0x1a ./rt-thread/src/device.o
 *fill*         0x00018746        0x2 ff
 .rodata        0x00018748        0x8 ./rt-thread/src/idle.o
 .rodata        0x00018750      0x4de ./rt-thread/src/ipc.o
 *fill*         0x00018c2e        0x2 ff
 .rodata.__FUNCTION__.37
                0x00018c30        0xc ./rt-thread/src/ipc.o
 .rodata.__FUNCTION__.35
                0x00018c3c        0xe ./rt-thread/src/ipc.o
 *fill*         0x00018c4a        0x2 ff
 .rodata.__FUNCTION__.33
                0x00018c4c        0xc ./rt-thread/src/ipc.o
 .rodata.__FUNCTION__.32
                0x00018c58       0x12 ./rt-thread/src/ipc.o
 *fill*         0x00018c6a        0x2 ff
 .rodata.__FUNCTION__.31
                0x00018c6c        0xf ./rt-thread/src/ipc.o
 *fill*         0x00018c7b        0x1 ff
 .rodata.__FUNCTION__.30
                0x00018c7c        0xf ./rt-thread/src/ipc.o
 *fill*         0x00018c8b        0x1 ff
 .rodata.__FUNCTION__.29
                0x00018c8c        0xe ./rt-thread/src/ipc.o
 *fill*         0x00018c9a        0x2 ff
 .rodata.__FUNCTION__.27
                0x00018c9c       0x10 ./rt-thread/src/ipc.o
 .rodata.__FUNCTION__.25
                0x00018cac        0xe ./rt-thread/src/ipc.o
 *fill*         0x00018cba        0x2 ff
 .rodata.__FUNCTION__.24
                0x00018cbc       0x11 ./rt-thread/src/ipc.o
 *fill*         0x00018ccd        0x3 ff
 .rodata        0x00018cd0      0x107 ./rt-thread/src/kservice.o
 *fill*         0x00018dd7        0x1 ff
 .rodata.large_digits.4
                0x00018dd8       0x11 ./rt-thread/src/kservice.o
 *fill*         0x00018de9        0x3 ff
 .rodata.small_digits.3
                0x00018dec       0x11 ./rt-thread/src/kservice.o
 *fill*         0x00018dfd        0x3 ff
 .rodata.__FUNCTION__.1
                0x00018e00       0x14 ./rt-thread/src/kservice.o
 .rodata.__FUNCTION__.0
                0x00018e14        0xd ./rt-thread/src/kservice.o
 *fill*         0x00018e21        0x3 ff
 .rodata        0x00018e24      0x41b ./rt-thread/src/mem.o
 *fill*         0x0001923f        0x1 ff
 .rodata.__FUNCTION__.4
                0x00019240        0xb ./rt-thread/src/mem.o
 *fill*         0x0001924b        0x1 ff
 .rodata.__FUNCTION__.2
                0x0001924c        0xe ./rt-thread/src/mem.o
 *fill*         0x0001925a        0x2 ff
 .rodata.__FUNCTION__.1
                0x0001925c       0x10 ./rt-thread/src/mem.o
 .rodata.__FUNCTION__.0
                0x0001926c        0xd ./rt-thread/src/mem.o
 *fill*         0x00019279        0x3 ff
 .rodata        0x0001927c       0x91 ./rt-thread/src/object.o
 *fill*         0x0001930d        0x3 ff
 .rodata.__FUNCTION__.6
                0x00019310        0xf ./rt-thread/src/object.o
 *fill*         0x0001931f        0x1 ff
 .rodata.__FUNCTION__.5
                0x00019320       0x11 ./rt-thread/src/object.o
 *fill*         0x00019331        0x3 ff
 .rodata.__FUNCTION__.4
                0x00019334       0x13 ./rt-thread/src/object.o
 *fill*         0x00019347        0x1 ff
 .rodata.__FUNCTION__.3
                0x00019348       0x11 ./rt-thread/src/object.o
 *fill*         0x00019359        0x3 ff
 .rodata.__FUNCTION__.2
                0x0001935c       0x1a ./rt-thread/src/object.o
 *fill*         0x00019376        0x2 ff
 .rodata.__FUNCTION__.1
                0x00019378       0x13 ./rt-thread/src/object.o
 *fill*         0x0001938b        0x1 ff
 .rodata.__FUNCTION__.0
                0x0001938c        0xf ./rt-thread/src/object.o
 *fill*         0x0001939b        0x1 ff
 .rodata        0x0001939c       0x65 ./rt-thread/src/scheduler.o
 *fill*         0x00019401        0x3 ff
 .rodata.__FUNCTION__.2
                0x00019404       0x1a ./rt-thread/src/scheduler.o
 *fill*         0x0001941e        0x2 ff
 .rodata.__FUNCTION__.1
                0x00019420       0x1a ./rt-thread/src/scheduler.o
 *fill*         0x0001943a        0x2 ff
 .rodata.__FUNCTION__.0
                0x0001943c       0x1a ./rt-thread/src/scheduler.o
 *fill*         0x00019456        0x2 ff
 .rodata        0x00019458      0x19f ./rt-thread/src/thread.o
 *fill*         0x000195f7        0x1 ff
 .rodata.__FUNCTION__.10
                0x000195f8       0x10 ./rt-thread/src/thread.o
 .rodata.__FUNCTION__.9
                0x00019608        0xd ./rt-thread/src/thread.o
 *fill*         0x00019615        0x3 ff
 .rodata.__FUNCTION__.8
                0x00019618        0xf ./rt-thread/src/thread.o
 *fill*         0x00019627        0x1 ff
 .rodata.__FUNCTION__.7
                0x00019628       0x12 ./rt-thread/src/thread.o
 *fill*         0x0001963a        0x2 ff
 .rodata.__FUNCTION__.6
                0x0001963c       0x11 ./rt-thread/src/thread.o
 *fill*         0x0001964d        0x3 ff
 .rodata.__FUNCTION__.5
                0x00019650       0x11 ./rt-thread/src/thread.o
 *fill*         0x00019661        0x3 ff
 .rodata.__FUNCTION__.4
                0x00019664       0x10 ./rt-thread/src/thread.o
 .rodata.__FUNCTION__.2
                0x00019674       0x12 ./rt-thread/src/thread.o
 *fill*         0x00019686        0x2 ff
 .rodata.__FUNCTION__.1
                0x00019688       0x12 ./rt-thread/src/thread.o
 *fill*         0x0001969a        0x2 ff
 .rodata.__FUNCTION__.0
                0x0001969c       0x11 ./rt-thread/src/thread.o
 *fill*         0x000196ad        0x3 ff
 .rodata        0x000196b0      0x10e ./rt-thread/src/timer.o
 *fill*         0x000197be        0x2 ff
 .rodata.__FUNCTION__.7
                0x000197c0        0xe ./rt-thread/src/timer.o
 *fill*         0x000197ce        0x2 ff
 .rodata.__FUNCTION__.6
                0x000197d0       0x10 ./rt-thread/src/timer.o
 .rodata.__FUNCTION__.3
                0x000197e0        0xf ./rt-thread/src/timer.o
 *fill*         0x000197ef        0x1 ff
 .rodata.__FUNCTION__.1
                0x000197f0        0xe ./rt-thread/src/timer.o
 *fill*         0x000197fe        0x2 ff
 .rodata.__FUNCTION__.0
                0x00019800       0x11 ./rt-thread/src/timer.o
 *fill*         0x00019811        0x3 ff
 .rodata        0x00019814      0x2ce ./rt-thread/libcpu/arm/cortex-m4/cpuport.o
 *fill*         0x00019ae2        0x2 ff
 .rodata        0x00019ae4      0x5d3 ./rt-thread/components/finsh/cmd.o
 *fill*         0x0001a0b7        0x1 ff
 .rodata.name   0x0001a0b8      0x176 ./rt-thread/components/finsh/cmd.o
                0x0001a0b8                __fsym_clear_name
                0x0001a0c0                __fsym_clear_desc
                0x0001a0dc                __fsym_version_name
                0x0001a0e4                __fsym_version_desc
                0x0001a108                __fsym_list_thread_name
                0x0001a114                __fsym_list_thread_desc
                0x0001a120                __fsym_list_sem_name
                0x0001a12c                __fsym_list_sem_desc
                0x0001a148                __fsym_list_event_name
                0x0001a154                __fsym_list_event_desc
                0x0001a16c                __fsym_list_mutex_name
                0x0001a178                __fsym_list_mutex_desc
                0x0001a190                __fsym_list_mailbox_name
                0x0001a1a0                __fsym_list_mailbox_desc
                0x0001a1b8                __fsym_list_msgqueue_name
                0x0001a1c8                __fsym_list_msgqueue_desc
                0x0001a1e8                __fsym_list_timer_name
                0x0001a1f4                __fsym_list_timer_desc
                0x0001a20c                __fsym_list_device_name
                0x0001a218                __fsym_list_device_desc
 *fill*         0x0001a22e        0x2 ff
 .rodata.device_type_str
                0x0001a230       0x64 ./rt-thread/components/finsh/cmd.o
 .rodata        0x0001a294       0xa8 ./rt-thread/components/finsh/msh.o
 .rodata.name   0x0001a33c       0x6d ./rt-thread/components/finsh/msh.o
                0x0001a33c                __fsym_help_name
                0x0001a344                __fsym_help_desc
                0x0001a35c                __fsym_ps_name
                0x0001a360                __fsym_ps_desc
                0x0001a37c                __fsym_free_name
                0x0001a384                __fsym_free_desc
 *fill*         0x0001a3a9        0x3 ff
 .rodata.__FUNCTION__.0
                0x0001a3ac        0xe ./rt-thread/components/finsh/msh.o
 *fill*         0x0001a3ba        0x2 ff
 .rodata        0x0001a3bc       0x91 ./rt-thread/components/finsh/shell.o
 *fill*         0x0001a44d        0x3 ff
 .rodata.__FUNCTION__.6
                0x0001a450       0x16 ./rt-thread/components/finsh/shell.o
 *fill*         0x0001a466        0x2 ff
 .rodata.__FUNCTION__.5
                0x0001a468        0xe ./rt-thread/components/finsh/shell.o
 *fill*         0x0001a476        0x2 ff
 .rodata.__FUNCTION__.4
                0x0001a478        0xd ./rt-thread/components/finsh/shell.o
 *fill*         0x0001a485        0x3 ff
 .rodata.__FUNCTION__.3
                0x0001a488       0x11 ./rt-thread/components/finsh/shell.o
 *fill*         0x0001a499        0x3 ff
 .rodata        0x0001a49c      0x18b ./rt-thread/components/drivers/serial/serial_v2.o
 *fill*         0x0001a627        0x1 ff
 .rodata.__FUNCTION__.18
                0x0001a628       0x1c ./rt-thread/components/drivers/serial/serial_v2.o
 .rodata.__FUNCTION__.17
                0x0001a644       0x1c ./rt-thread/components/drivers/serial/serial_v2.o
 .rodata.__FUNCTION__.16
                0x0001a660       0x1d ./rt-thread/components/drivers/serial/serial_v2.o
 *fill*         0x0001a67d        0x3 ff
 .rodata.__FUNCTION__.15
                0x0001a680       0x10 ./rt-thread/components/drivers/serial/serial_v2.o
 .rodata.__FUNCTION__.14
                0x0001a690       0x10 ./rt-thread/components/drivers/serial/serial_v2.o
 .rodata.__FUNCTION__.13
                0x0001a6a0       0x10 ./rt-thread/components/drivers/serial/serial_v2.o
 .rodata.__FUNCTION__.12
                0x0001a6b0       0x1e ./rt-thread/components/drivers/serial/serial_v2.o
 *fill*         0x0001a6ce        0x2 ff
 .rodata.__FUNCTION__.11
                0x0001a6d0       0x1d ./rt-thread/components/drivers/serial/serial_v2.o
 *fill*         0x0001a6ed        0x3 ff
 .rodata.__FUNCTION__.10
                0x0001a6f0       0x1c ./rt-thread/components/drivers/serial/serial_v2.o
 .rodata.__FUNCTION__.9
                0x0001a70c       0x14 ./rt-thread/components/drivers/serial/serial_v2.o
 .rodata.__FUNCTION__.8
                0x0001a720       0x14 ./rt-thread/components/drivers/serial/serial_v2.o
 .rodata.__FUNCTION__.7
                0x0001a734       0x15 ./rt-thread/components/drivers/serial/serial_v2.o
 *fill*         0x0001a749        0x3 ff
 .rodata.__FUNCTION__.6
                0x0001a74c       0x15 ./rt-thread/components/drivers/serial/serial_v2.o
 *fill*         0x0001a761        0x3 ff
 .rodata.__FUNCTION__.5
                0x0001a764        0xf ./rt-thread/components/drivers/serial/serial_v2.o
 *fill*         0x0001a773        0x1 ff
 .rodata.__FUNCTION__.4
                0x0001a774        0xf ./rt-thread/components/drivers/serial/serial_v2.o
 *fill*         0x0001a783        0x1 ff
 .rodata.__FUNCTION__.3
                0x0001a784       0x10 ./rt-thread/components/drivers/serial/serial_v2.o
 .rodata.__FUNCTION__.2
                0x0001a794       0x12 ./rt-thread/components/drivers/serial/serial_v2.o
 *fill*         0x0001a7a6        0x2 ff
 .rodata.__FUNCTION__.1
                0x0001a7a8       0x16 ./rt-thread/components/drivers/serial/serial_v2.o
 *fill*         0x0001a7be        0x2 ff
 .rodata.__FUNCTION__.0
                0x0001a7c0       0x11 ./rt-thread/components/drivers/serial/serial_v2.o
 *fill*         0x0001a7d1        0x3 ff
 .rodata        0x0001a7d4      0x163 ./rt-thread/components/drivers/sensors/sensor.o
 *fill*         0x0001a937        0x1 ff
 .rodata.sensor_name_str
                0x0001a938       0x54 ./rt-thread/components/drivers/sensors/sensor.o
 .rodata.__FUNCTION__.4
                0x0001a98c        0xf ./rt-thread/components/drivers/sensors/sensor.o
 *fill*         0x0001a99b        0x1 ff
 .rodata.__FUNCTION__.3
                0x0001a99c       0x10 ./rt-thread/components/drivers/sensors/sensor.o
 .rodata.__FUNCTION__.2
                0x0001a9ac        0xf ./rt-thread/components/drivers/sensors/sensor.o
 *fill*         0x0001a9bb        0x1 ff
 .rodata.__FUNCTION__.1
                0x0001a9bc       0x12 ./rt-thread/components/drivers/sensors/sensor.o
 *fill*         0x0001a9ce        0x2 ff
 .rodata.__FUNCTION__.0
                0x0001a9d0       0x16 ./rt-thread/components/drivers/sensors/sensor.o
 *fill*         0x0001a9e6        0x2 ff
 .rodata        0x0001a9e8      0x971 ./rt-thread/components/drivers/sensors/sensor_cmd.o
 *fill*         0x0001b359        0x3 ff
 .rodata.name   0x0001b35c       0xad ./rt-thread/components/drivers/sensors/sensor_cmd.o
                0x0001b35c                __fsym_sensor_fifo_name
                0x0001b368                __fsym_sensor_fifo_desc
                0x0001b388                __fsym_sensor_int_name
                0x0001b394                __fsym_sensor_int_desc
                0x0001b3b8                __fsym_sensor_polling_name
                0x0001b3c8                __fsym_sensor_polling_desc
                0x0001b3ec                __fsym_sensor_name
                0x0001b3f4                __fsym_sensor_desc
 *fill*         0x0001b409        0x3 ff
 .rodata        0x0001b40c      0x1f9 ./rt-thread/components/drivers/misc/adc.o
 *fill*         0x0001b605        0x3 ff
 .rodata.name   0x0001b608       0x11 ./rt-thread/components/drivers/misc/adc.o
                0x0001b608                __fsym_adc_name
                0x0001b60c                __fsym_adc_desc
 *fill*         0x0001b619        0x3 ff
 .rodata.__FUNCTION__.4
                0x0001b61c       0x13 ./rt-thread/components/drivers/misc/adc.o
 *fill*         0x0001b62f        0x1 ff
 .rodata.__FUNCTION__.3
                0x0001b630        0xc ./rt-thread/components/drivers/misc/adc.o
 .rodata.__FUNCTION__.2
                0x0001b63c        0xe ./rt-thread/components/drivers/misc/adc.o
 *fill*         0x0001b64a        0x2 ff
 .rodata.__FUNCTION__.1
                0x0001b64c        0xf ./rt-thread/components/drivers/misc/adc.o
 *fill*         0x0001b65b        0x1 ff
 .rodata        0x0001b65c       0x37 ./rt-thread/components/drivers/misc/pin.o
 *fill*         0x0001b693        0x1 ff
 .rodata.__FUNCTION__.9
                0x0001b694        0xa ./rt-thread/components/drivers/misc/pin.o
 *fill*         0x0001b69e        0x2 ff
 .rodata.__FUNCTION__.8
                0x0001b6a0        0xb ./rt-thread/components/drivers/misc/pin.o
 *fill*         0x0001b6ab        0x1 ff
 .rodata.__FUNCTION__.7
                0x0001b6ac        0xd ./rt-thread/components/drivers/misc/pin.o
 *fill*         0x0001b6b9        0x3 ff
 .rodata.__FUNCTION__.6
                0x0001b6bc       0x12 ./rt-thread/components/drivers/misc/pin.o
 *fill*         0x0001b6ce        0x2 ff
 .rodata.__FUNCTION__.4
                0x0001b6d0       0x12 ./rt-thread/components/drivers/misc/pin.o
 *fill*         0x0001b6e2        0x2 ff
 .rodata.__FUNCTION__.3
                0x0001b6e4        0xc ./rt-thread/components/drivers/misc/pin.o
 .rodata.__FUNCTION__.2
                0x0001b6f0        0xd ./rt-thread/components/drivers/misc/pin.o
 *fill*         0x0001b6fd        0x3 ff
 .rodata.__FUNCTION__.1
                0x0001b700        0xc ./rt-thread/components/drivers/misc/pin.o
 .rodata        0x0001b70c      0x1ab ./rt-thread/components/drivers/misc/rt_drv_pwm.o
 *fill*         0x0001b8b7        0x1 ff
 .rodata.name   0x0001b8b8       0xc8 ./rt-thread/components/drivers/misc/rt_drv_pwm.o
                0x0001b8b8                __fsym_pwm_enable_name
                0x0001b8c4                __fsym_pwm_enable_desc
                0x0001b8ec                __fsym_pwm_disable_name
                0x0001b8f8                __fsym_pwm_disable_desc
                0x0001b924                __fsym_pwm_set_name
                0x0001b92c                __fsym_pwm_set_desc
                0x0001b95c                __fsym_pwm_get_name
                0x0001b964                __fsym_pwm_get_desc
 .rodata        0x0001b980       0xd7 ./rt-thread/components/drivers/ipc/completion.o
 *fill*         0x0001ba57        0x1 ff
 .rodata.__FUNCTION__.2
                0x0001ba58       0x13 ./rt-thread/components/drivers/ipc/completion.o
 *fill*         0x0001ba6b        0x1 ff
 .rodata.__FUNCTION__.1
                0x0001ba6c       0x13 ./rt-thread/components/drivers/ipc/completion.o
 *fill*         0x0001ba7f        0x1 ff
 .rodata.__FUNCTION__.0
                0x0001ba80       0x13 ./rt-thread/components/drivers/ipc/completion.o
 *fill*         0x0001ba93        0x1 ff
 .rodata        0x0001ba94       0x19 ./rt-thread/components/drivers/ipc/ringbuffer.o
 *fill*         0x0001baad        0x3 ff
 .rodata.__FUNCTION__.10
                0x0001bab0       0x13 ./rt-thread/components/drivers/ipc/ringbuffer.o
 *fill*         0x0001bac3        0x1 ff
 .rodata.__FUNCTION__.9
                0x0001bac4       0x12 ./rt-thread/components/drivers/ipc/ringbuffer.o
 *fill*         0x0001bad6        0x2 ff
 .rodata.__FUNCTION__.7
                0x0001bad8       0x12 ./rt-thread/components/drivers/ipc/ringbuffer.o
 *fill*         0x0001baea        0x2 ff
 .rodata.__FUNCTION__.5
                0x0001baec       0x16 ./rt-thread/components/drivers/ipc/ringbuffer.o
 *fill*         0x0001bb02        0x2 ff
 .rodata        0x0001bb04       0xc0 ./rt-thread/components/drivers/i2c/i2c-bit-ops.o
 .rodata.i2c_bit_bus_ops
                0x0001bbc4        0xc ./rt-thread/components/drivers/i2c/i2c-bit-ops.o
 .rodata        0x0001bbd0       0x97 ./rt-thread/components/drivers/i2c/i2c_core.o
 *fill*         0x0001bc67        0x1 ff
 .rodata.__FUNCTION__.0
                0x0001bc68       0x13 ./rt-thread/components/drivers/i2c/i2c_core.o
 *fill*         0x0001bc7b        0x1 ff
 .rodata        0x0001bc7c       0x22 ./rt-thread/components/drivers/i2c/i2c_dev.o
 *fill*         0x0001bc9e        0x2 ff
 .rodata.__FUNCTION__.3
                0x0001bca0       0x14 ./rt-thread/components/drivers/i2c/i2c_dev.o
 .rodata.__FUNCTION__.2
                0x0001bcb4       0x15 ./rt-thread/components/drivers/i2c/i2c_dev.o
 *fill*         0x0001bcc9        0x3 ff
 .rodata.__FUNCTION__.1
                0x0001bccc       0x17 ./rt-thread/components/drivers/i2c/i2c_dev.o
 *fill*         0x0001bce3        0x1 ff
 .rodata.__FUNCTION__.0
                0x0001bce4       0x1e ./rt-thread/components/drivers/i2c/i2c_dev.o
 *fill*         0x0001bd02        0x2 ff
 .rodata.g_ioport
                0x0001bd04        0xc ./ra_gen/common_data.o
                0x0001bd04                g_ioport
 .rodata.g_timer7_extend
                0x0001bd10       0x30 ./ra_gen/hal_data.o
                0x0001bd10                g_timer7_extend
 .rodata.g_timer7_cfg
                0x0001bd40       0x20 ./ra_gen/hal_data.o
                0x0001bd40                g_timer7_cfg
 .rodata.g_timer7
                0x0001bd60        0xc ./ra_gen/hal_data.o
                0x0001bd60                g_timer7
 .rodata.g_uart0_cfg_extend
                0x0001bd6c       0x10 ./ra_gen/hal_data.o
                0x0001bd6c                g_uart0_cfg_extend
 .rodata.g_uart0_cfg
                0x0001bd7c       0x20 ./ra_gen/hal_data.o
                0x0001bd7c                g_uart0_cfg
 .rodata.g_timer8_extend
                0x0001bd9c       0x30 ./ra_gen/hal_data.o
                0x0001bd9c                g_timer8_extend
 .rodata.g_timer8_cfg
                0x0001bdcc       0x20 ./ra_gen/hal_data.o
                0x0001bdcc                g_timer8_cfg
 .rodata.g_timer8
                0x0001bdec        0xc ./ra_gen/hal_data.o
                0x0001bdec                g_timer8
 .rodata.g_adc0_cfg_extend
                0x0001bdf8        0xa ./ra_gen/hal_data.o
                0x0001bdf8                g_adc0_cfg_extend
 *fill*         0x0001be02        0x2 ff
 .rodata.g_adc0_cfg
                0x0001be04       0x18 ./ra_gen/hal_data.o
                0x0001be04                g_adc0_cfg
 .rodata.g_adc0_channel_cfg
                0x0001be1c       0x14 ./ra_gen/hal_data.o
                0x0001be1c                g_adc0_channel_cfg
 .rodata.g_external_irq0_cfg
                0x0001be30       0x14 ./ra_gen/hal_data.o
                0x0001be30                g_external_irq0_cfg
 .rodata.g_uart7_cfg_extend
                0x0001be44       0x10 ./ra_gen/hal_data.o
                0x0001be44                g_uart7_cfg_extend
 .rodata.g_uart7_cfg
                0x0001be54       0x20 ./ra_gen/hal_data.o
                0x0001be54                g_uart7_cfg
 .rodata.g_bsp_pin_cfg_data
                0x0001be74      0x180 ./ra_gen/pin_data.o
                0x0001be74                g_bsp_pin_cfg_data
 .rodata.g_bsp_pin_cfg
                0x0001bff4        0x8 ./ra_gen/pin_data.o
                0x0001bff4                g_bsp_pin_cfg
 .rodata.g_interrupt_event_link_select
                0x0001bffc       0xc0 ./ra_gen/vector_data.o
                0x0001bffc                g_interrupt_event_link_select
 .rodata.g_ioport_on_ioport
                0x0001c0bc       0x38 ./ra/fsp/src/r_ioport/r_ioport.o
                0x0001c0bc                g_ioport_on_ioport
 .rodata.g_vbatt_pins_input
                0x0001c0f4        0x6 ./ra/fsp/src/r_ioport/r_ioport.o
 *fill*         0x0001c0fa        0x2 ff
 .rodata.g_timer_on_gpt
                0x0001c0fc       0x30 ./ra/fsp/src/r_gpt/r_gpt.o
                0x0001c0fc                g_timer_on_gpt
 .rodata.adc_elc_trigger_lut
                0x0001c12c        0xc ./ra/fsp/src/r_adc/r_adc.o
 .rodata.g_prcr_masks
                0x0001c138        0x8 ./ra/fsp/src/bsp/mcu/all/bsp_register_protection.o
 .rodata        0x0001c140       0x3a ./packages/ssd1306-latest/src/ssd1306.o
 *fill*         0x0001c17a        0x2 ff
 .rodata.Font7x10
                0x0001c17c      0x76c ./packages/ssd1306-latest/src/ssd1306_fonts.o
 .rodata.Font11x18
                0x0001c8e8      0xd5c ./packages/ssd1306-latest/src/ssd1306_fonts.o
 .rodata.Font16x26
                0x0001d644     0x134c ./packages/ssd1306-latest/src/ssd1306_fonts.o
 .rodata.Font6x8
                0x0001e990      0x5f0 ./packages/ssd1306-latest/src/ssd1306_fonts.o
 .rodata        0x0001ef80       0x5e ./packages/ssd1306-latest/examples/ssd1306_tests.o
 *fill*         0x0001efde        0x2 ff
 .rodata.name   0x0001efe0       0x29 ./packages/ssd1306-latest/examples/ssd1306_tests.o
                0x0001efe0                __fsym_ssd1306_TestAll_name
                0x0001eff0                __fsym_ssd1306_TestAll_desc
 *fill*         0x0001f009        0x3 ff
 .rodata        0x0001f00c       0x52 ./packages/dhtxx-latest/src/dhtxx.o
 *fill*         0x0001f05e        0x2 ff
 .rodata.__FUNCTION__.2
                0x0001f060        0x9 ./packages/dhtxx-latest/src/dhtxx.o
 *fill*         0x0001f069        0x3 ff
 .rodata.__FUNCTION__.1
                0x0001f06c       0x11 ./packages/dhtxx-latest/src/dhtxx.o
 *fill*         0x0001f07d        0x3 ff
 .rodata.__FUNCTION__.0
                0x0001f080       0x14 ./packages/dhtxx-latest/src/dhtxx.o
 .rodata        0x0001f094      0x14c ./packages/dhtxx-latest/src/sensor_asair_dhtxx.o
 .rodata.__FUNCTION__.2
                0x0001f1e0        0xa ./packages/dhtxx-latest/src/sensor_asair_dhtxx.o
 *fill*         0x0001f1ea        0x2 ff
 .rodata.__FUNCTION__.1
                0x0001f1ec       0x12 ./packages/dhtxx-latest/src/sensor_asair_dhtxx.o
 *fill*         0x0001f1fe        0x2 ff
 .rodata.__FUNCTION__.0
                0x0001f200       0x15 ./packages/dhtxx-latest/src/sensor_asair_dhtxx.o
 *fill*         0x0001f215        0x3 ff
 .rodata        0x0001f218       0x39 ./packages/dhtxx-latest/examples/dhtxx_sample.o
 *fill*         0x0001f251        0x3 ff
 .rodata        0x0001f254       0xec ./packages/dhtxx-latest/examples/sensor_dhtxx_sample.o
 .rodata.name   0x0001f340       0x2b ./packages/dhtxx-latest/examples/sensor_dhtxx_sample.o
                0x0001f340                __fsym_dhtxx_read_sample_name
                0x0001f354                __fsym_dhtxx_read_sample_desc
 *fill*         0x0001f36b        0x1 ff
 .rodata        0x0001f36c       0xe4 ./packages/bmp180-latest/bmp180.o
 .rodata.__FUNCTION__.1
                0x0001f450       0x12 ./packages/bmp180-latest/bmp180.o
 *fill*         0x0001f462        0x2 ff
 .rodata.__FUNCTION__.0
                0x0001f464        0xf ./packages/bmp180-latest/bmp180.o
 *fill*         0x0001f473        0x1 ff
 .rodata        0x0001f474       0xff ./packages/bmp180-latest/bmp180_sample.o
 *fill*         0x0001f573        0x1 ff
 .rodata        0x0001f574       0xa1 ./libraries/HAL_Drivers/drv_adc.o
 *fill*         0x0001f615        0x3 ff
 .rodata.ra_adc_ops
                0x0001f618        0x8 ./libraries/HAL_Drivers/drv_adc.o
 .rodata.__FUNCTION__.2
                0x0001f620        0xf ./libraries/HAL_Drivers/drv_adc.o
 *fill*         0x0001f62f        0x1 ff
 .rodata.__FUNCTION__.0
                0x0001f630       0x11 ./libraries/HAL_Drivers/drv_adc.o
 *fill*         0x0001f641        0x3 ff
 .rodata.name   0x0001f644       0x16 ./libraries/HAL_Drivers/drv_common.o
                0x0001f644                __fsym_reboot_name
                0x0001f64c                __fsym_reboot_desc
 *fill*         0x0001f65a        0x2 ff
 .rodata        0x0001f65c        0x6 ./libraries/HAL_Drivers/drv_common.o
 *fill*         0x0001f662        0x2 ff
 .rodata        0x0001f664      0x170 ./libraries/HAL_Drivers/drv_gpio.o
 .rodata._ra_pin_ops
                0x0001f7d4       0x1c ./libraries/HAL_Drivers/drv_gpio.o
 .rodata        0x0001f7f0        0xd ./libraries/HAL_Drivers/drv_pwm.o
 *fill*         0x0001f7fd        0x3 ff
 .rodata        0x0001f800       0x1d ./libraries/HAL_Drivers/drv_soft_i2c.o
 *fill*         0x0001f81d        0x3 ff
 .rodata.soft_i2c_config
                0x0001f820       0x18 ./libraries/HAL_Drivers/drv_soft_i2c.o
 .rodata.ra_bit_ops_default
                0x0001f838       0x20 ./libraries/HAL_Drivers/drv_soft_i2c.o
 .rodata.__FUNCTION__.0
                0x0001f858        0xf ./libraries/HAL_Drivers/drv_soft_i2c.o
 *fill*         0x0001f867        0x1 ff
 .rodata        0x0001f868       0x75 ./libraries/HAL_Drivers/drv_usart_v2.o
 *fill*         0x0001f8dd        0x3 ff
 .rodata.ra_uart_ops
                0x0001f8e0       0x14 ./libraries/HAL_Drivers/drv_usart_v2.o
 .rodata.__FUNCTION__.4
                0x0001f8f4       0x12 ./libraries/HAL_Drivers/drv_usart_v2.o
 *fill*         0x0001f906        0x2 ff
 .rodata.__FUNCTION__.3
                0x0001f908        0xd ./libraries/HAL_Drivers/drv_usart_v2.o
 *fill*         0x0001f915        0x3 ff
 .rodata.__FUNCTION__.2
                0x0001f918       0x14 ./libraries/HAL_Drivers/drv_usart_v2.o
 .rodata.__FUNCTION__.1
                0x0001f92c       0x14 ./libraries/HAL_Drivers/drv_usart_v2.o
 .rodata.__FUNCTION__.0
                0x0001f940       0x11 ./libraries/HAL_Drivers/drv_usart_v2.o
 *fill*         0x0001f951        0x3 ff
 .rodata.npio2_hw
                0x0001f954       0x80 d:/rt-threadstudio/repo/extract/toolchain_support_packages/arm/gnu_tools_for_arm_embedded_processors/10.2.1/bin/../lib/gcc/arm-none-eabi/10.2.1/../../../../arm-none-eabi/lib/thumb/v8-m.main+fp/hard\libm.a(lib_a-e_rem_pio2.o)
 .rodata.two_over_pi
                0x0001f9d4      0x108 d:/rt-threadstudio/repo/extract/toolchain_support_packages/arm/gnu_tools_for_arm_embedded_processors/10.2.1/bin/../lib/gcc/arm-none-eabi/10.2.1/../../../../arm-none-eabi/lib/thumb/v8-m.main+fp/hard\libm.a(lib_a-e_rem_pio2.o)
 *fill*         0x0001fadc        0x4 ff
 .rodata.PIo2   0x0001fae0       0x40 d:/rt-threadstudio/repo/extract/toolchain_support_packages/arm/gnu_tools_for_arm_embedded_processors/10.2.1/bin/../lib/gcc/arm-none-eabi/10.2.1/../../../../arm-none-eabi/lib/thumb/v8-m.main+fp/hard\libm.a(lib_a-k_rem_pio2.o)
 .rodata.init_jk
                0x0001fb20       0x10 d:/rt-threadstudio/repo/extract/toolchain_support_packages/arm/gnu_tools_for_arm_embedded_processors/10.2.1/bin/../lib/gcc/arm-none-eabi/10.2.1/../../../../arm-none-eabi/lib/thumb/v8-m.main+fp/hard\libm.a(lib_a-k_rem_pio2.o)
 .rodata._global_impure_ptr
                0x0001fb30        0x4 d:/rt-threadstudio/repo/extract/toolchain_support_packages/arm/gnu_tools_for_arm_embedded_processors/10.2.1/bin/../lib/gcc/arm-none-eabi/10.2.1/../../../../arm-none-eabi/lib/thumb/v8-m.main+fp/hard\libc.a(lib_a-impure.o)
                0x0001fb30                _global_impure_ptr
 .rodata._svfprintf_r.str1.4
                0x0001fb34       0x42 d:/rt-threadstudio/repo/extract/toolchain_support_packages/arm/gnu_tools_for_arm_embedded_processors/10.2.1/bin/../lib/gcc/arm-none-eabi/10.2.1/../../../../arm-none-eabi/lib/thumb/v8-m.main+fp/hard\libc.a(lib_a-svfprintf.o)
 *fill*         0x0001fb76        0x2 ff
 .rodata.blanks.1
                0x0001fb78       0x10 d:/rt-threadstudio/repo/extract/toolchain_support_packages/arm/gnu_tools_for_arm_embedded_processors/10.2.1/bin/../lib/gcc/arm-none-eabi/10.2.1/../../../../arm-none-eabi/lib/thumb/v8-m.main+fp/hard\libc.a(lib_a-svfprintf.o)
 .rodata.zeroes.0
                0x0001fb88       0x10 d:/rt-threadstudio/repo/extract/toolchain_support_packages/arm/gnu_tools_for_arm_embedded_processors/10.2.1/bin/../lib/gcc/arm-none-eabi/10.2.1/../../../../arm-none-eabi/lib/thumb/v8-m.main+fp/hard\libc.a(lib_a-svfprintf.o)
 .rodata._ctype_
                0x0001fb98      0x101 d:/rt-threadstudio/repo/extract/toolchain_support_packages/arm/gnu_tools_for_arm_embedded_processors/10.2.1/bin/../lib/gcc/arm-none-eabi/10.2.1/../../../../arm-none-eabi/lib/thumb/v8-m.main+fp/hard\libc.a(lib_a-ctype_.o)
                0x0001fb98                _ctype_
 *fill*         0x0001fc99        0x3 ff
 .rodata._dtoa_r.str1.4
                0x0001fc9c       0xa1 d:/rt-threadstudio/repo/extract/toolchain_support_packages/arm/gnu_tools_for_arm_embedded_processors/10.2.1/bin/../lib/gcc/arm-none-eabi/10.2.1/../../../../arm-none-eabi/lib/thumb/v8-m.main+fp/hard\libc.a(lib_a-dtoa.o)
                                 0xa5 (size before relaxing)
 *fill*         0x0001fd3d        0x3 ff
 .rodata.__multadd.str1.4
                0x0001fd40       0x7e d:/rt-threadstudio/repo/extract/toolchain_support_packages/arm/gnu_tools_for_arm_embedded_processors/10.2.1/bin/../lib/gcc/arm-none-eabi/10.2.1/../../../../arm-none-eabi/lib/thumb/v8-m.main+fp/hard\libc.a(lib_a-mprec.o)
                                 0x92 (size before relaxing)
 *fill*         0x0001fdbe        0x2 ff
 .rodata.__mprec_bigtens
                0x0001fdc0       0x28 d:/rt-threadstudio/repo/extract/toolchain_support_packages/arm/gnu_tools_for_arm_embedded_processors/10.2.1/bin/../lib/gcc/arm-none-eabi/10.2.1/../../../../arm-none-eabi/lib/thumb/v8-m.main+fp/hard\libc.a(lib_a-mprec.o)
                0x0001fdc0                __mprec_bigtens
 .rodata.__mprec_tens
                0x0001fde8       0xc8 d:/rt-threadstudio/repo/extract/toolchain_support_packages/arm/gnu_tools_for_arm_embedded_processors/10.2.1/bin/../lib/gcc/arm-none-eabi/10.2.1/../../../../arm-none-eabi/lib/thumb/v8-m.main+fp/hard\libc.a(lib_a-mprec.o)
                0x0001fde8                __mprec_tens
 .rodata.p05.0  0x0001feb0        0xc d:/rt-threadstudio/repo/extract/toolchain_support_packages/arm/gnu_tools_for_arm_embedded_processors/10.2.1/bin/../lib/gcc/arm-none-eabi/10.2.1/../../../../arm-none-eabi/lib/thumb/v8-m.main+fp/hard\libc.a(lib_a-mprec.o)
 .rodata._setlocale_r.str1.4
                0x0001febc        0xa d:/rt-threadstudio/repo/extract/toolchain_support_packages/arm/gnu_tools_for_arm_embedded_processors/10.2.1/bin/../lib/gcc/arm-none-eabi/10.2.1/../../../../arm-none-eabi/lib/thumb/v8-m.main+fp/hard\libc.a(lib_a-locale.o)
                                  0xd (size before relaxing)
 *fill*         0x0001fec6        0x2 ff
 .rodata.str1.4
                0x0001fec8        0x2 d:/rt-threadstudio/repo/extract/toolchain_support_packages/arm/gnu_tools_for_arm_embedded_processors/10.2.1/bin/../lib/gcc/arm-none-eabi/10.2.1/../../../../arm-none-eabi/lib/thumb/v8-m.main+fp/hard\libc.a(lib_a-locale.o)
                0x0001feca                __usb_dev_descriptor_start_fs = .
 *(.usb_device_desc_fs*)
                0x0001feca                __usb_cfg_descriptor_start_fs = .
 *(.usb_config_desc_fs*)
                0x0001feca                __usb_interface_descriptor_start_fs = .
 *(.usb_interface_desc_fs*)
                0x0001feca                __usb_descriptor_end_fs = .
                0x0001feca                __usb_dev_descriptor_start_hs = .
 *(.usb_device_desc_hs*)
                0x0001feca                __usb_cfg_descriptor_start_hs = .
 *(.usb_config_desc_hs*)
                0x0001feca                __usb_interface_descriptor_start_hs = .
 *(.usb_interface_desc_hs*)
                0x0001feca                __usb_descriptor_end_hs = .
 *(.eh_frame*)
 *fill*         0x0001feca        0x2 ff
 .eh_frame      0x0001fecc        0x0 d:/rt-threadstudio/repo/extract/toolchain_support_packages/arm/gnu_tools_for_arm_embedded_processors/10.2.1/bin/../lib/gcc/arm-none-eabi/10.2.1/thumb/v8-m.main+fp/hard/crtbegin.o
 .eh_frame      0x0001fecc        0x4 d:/rt-threadstudio/repo/extract/toolchain_support_packages/arm/gnu_tools_for_arm_embedded_processors/10.2.1/bin/../lib/gcc/arm-none-eabi/10.2.1/thumb/v8-m.main+fp/hard/crtend.o
                0x0001fed0                __ROM_End = .
                0x000001c0                __Vectors_Size = (__Vectors_End - __Vectors)

.glue_7         0x0001fed0        0x0
 .glue_7        0x0001fed0        0x0 linker stubs

.glue_7t        0x0001fed0        0x0
 .glue_7t       0x0001fed0        0x0 linker stubs

.vfp11_veneer   0x0001fed0        0x0
 .vfp11_veneer  0x0001fed0        0x0 linker stubs

.v4_bx          0x0001fed0        0x0
 .v4_bx         0x0001fed0        0x0 linker stubs

.iplt           0x0001fed0        0x0
 .iplt          0x0001fed0        0x0 d:/rt-threadstudio/repo/extract/toolchain_support_packages/arm/gnu_tools_for_arm_embedded_processors/10.2.1/bin/../lib/gcc/arm-none-eabi/10.2.1/thumb/v8-m.main+fp/hard/crtbegin.o

.ARM.extab
 *(.ARM.extab* .gnu.linkonce.armextab.*)
                0x0001fed0                __exidx_start = .

.ARM.exidx      0x0001fed0        0x8
 *(.ARM.exidx* .gnu.linkonce.armexidx.*)
 .ARM.exidx     0x0001fed0        0x8 d:/rt-threadstudio/repo/extract/toolchain_support_packages/arm/gnu_tools_for_arm_embedded_processors/10.2.1/bin/../lib/gcc/arm-none-eabi/10.2.1/thumb/v8-m.main+fp/hard\libgcc.a(_udivmoddi4.o)
                0x0001fed8                __exidx_end = .
                0x0001fed8                __etext = .
                0x20000000                __tz_RAM_S = ORIGIN (RAM)

.fsp_dtc_vector_table
                0x20000000        0x0
                0x20000000                . = ORIGIN (RAM)
 *(.fsp_dtc_vector_table)

.data           0x20000000      0x76c load address 0x0001fed8
                0x20000000                __data_start__ = .
                0x20000000                . = ALIGN (0x4)
                0x20000000                __Code_In_RAM_Start = .
 *(.code_in_ram*)
                0x20000000                __Code_In_RAM_End = .
 *(vtable)
 *(.data.*)
 .data.max.2    0x20000000        0x1 ./src/adc.o
 *fill*         0x20000001        0x3 
 .data._rt_thread_defunct
                0x20000004        0x8 ./rt-thread/src/idle.o
 .data._object_container
                0x2000000c       0x90 ./rt-thread/src/object.o
 .data._soft_timer_status
                0x2000009c        0x1 ./rt-thread/src/timer.o
 *fill*         0x2000009d        0x3 
 .data.local_ops
                0x200000a0        0x8 ./rt-thread/components/drivers/sensors/sensor.o
 .data.g_uart0_baud_setting
                0x200000a8        0x4 ./ra_gen/hal_data.o
                0x200000a8                g_uart0_baud_setting
 .data.g_uart7_baud_setting
                0x200000ac        0x4 ./ra_gen/hal_data.o
                0x200000ac                g_uart7_baud_setting
 .data.Font_6x8
                0x200000b0        0x8 ./packages/ssd1306-latest/src/ssd1306_fonts.o
                0x200000b0                Font_6x8
 .data.Font_7x10
                0x200000b8        0x8 ./packages/ssd1306-latest/src/ssd1306_fonts.o
                0x200000b8                Font_7x10
 .data.Font_11x18
                0x200000c0        0x8 ./packages/ssd1306-latest/src/ssd1306_fonts.o
                0x200000c0                Font_11x18
 .data.Font_16x26
                0x200000c8        0x8 ./packages/ssd1306-latest/src/ssd1306_fonts.o
                0x200000c8                Font_16x26
 .data.sensor_ops
                0x200000d0        0x8 ./packages/dhtxx-latest/src/sensor_asair_dhtxx.o
 .data.bmp180_ops
                0x200000d8        0x8 ./packages/bmp180-latest/bmp180.o
 .data.res1     0x200000e0        0x4 ./packages/bmp180-latest/bmp180_sample.o
                0x200000e0                res1
 .data.ra_adc   0x200000e4       0x10 ./libraries/HAL_Drivers/drv_adc.o
                0x200000e4                ra_adc
 .data._ra_adc0_device
                0x200000f4        0x8 ./libraries/HAL_Drivers/drv_adc.o
                0x200000f4                _ra_adc0_device
 .data.drv_ops  0x200000fc        0x4 ./libraries/HAL_Drivers/drv_pwm.o
 .data.ra6m4_pwm_obj
                0x20000100       0xa8 ./libraries/HAL_Drivers/drv_pwm.o
 .data.uart_config
                0x200001a8       0x18 ./libraries/HAL_Drivers/drv_usart_v2.o
 .data._impure_ptr
                0x200001c0        0x4 d:/rt-threadstudio/repo/extract/toolchain_support_packages/arm/gnu_tools_for_arm_embedded_processors/10.2.1/bin/../lib/gcc/arm-none-eabi/10.2.1/../../../../arm-none-eabi/lib/thumb/v8-m.main+fp/hard\libc.a(lib_a-impure.o)
                0x200001c0                _impure_ptr
 *fill*         0x200001c4        0x4 
 .data.impure_data
                0x200001c8      0x428 d:/rt-threadstudio/repo/extract/toolchain_support_packages/arm/gnu_tools_for_arm_embedded_processors/10.2.1/bin/../lib/gcc/arm-none-eabi/10.2.1/../../../../arm-none-eabi/lib/thumb/v8-m.main+fp/hard\libc.a(lib_a-impure.o)
 .data.__atexit_recursive_mutex
                0x200005f0        0x4 d:/rt-threadstudio/repo/extract/toolchain_support_packages/arm/gnu_tools_for_arm_embedded_processors/10.2.1/bin/../lib/gcc/arm-none-eabi/10.2.1/../../../../arm-none-eabi/lib/thumb/v8-m.main+fp/hard\libc.a(lib_a-__call_atexit.o)
                0x200005f0                __atexit_recursive_mutex
 .data.__global_locale
                0x200005f4      0x16c d:/rt-threadstudio/repo/extract/toolchain_support_packages/arm/gnu_tools_for_arm_embedded_processors/10.2.1/bin/../lib/gcc/arm-none-eabi/10.2.1/../../../../arm-none-eabi/lib/thumb/v8-m.main+fp/hard\libc.a(lib_a-locale.o)
                0x200005f4                __global_locale
 *(.data)
                0x20000760                . = ALIGN (0x4)
                [!provide]                PROVIDE (__preinit_array_start = .)
 *(.preinit_array)
                [!provide]                PROVIDE (__preinit_array_end = .)
                0x20000760                . = ALIGN (0x4)
                0x20000760                PROVIDE (__init_array_start = .)
 *(SORT_BY_NAME(.init_array.*))
 .init_array.00000
                0x20000760        0x4 d:/rt-threadstudio/repo/extract/toolchain_support_packages/arm/gnu_tools_for_arm_embedded_processors/10.2.1/bin/../lib/gcc/arm-none-eabi/10.2.1/../../../../arm-none-eabi/lib/thumb/v8-m.main+fp/hard\libc.a(lib_a-__call_atexit.o)
 *(.init_array)
 .init_array    0x20000764        0x4 d:/rt-threadstudio/repo/extract/toolchain_support_packages/arm/gnu_tools_for_arm_embedded_processors/10.2.1/bin/../lib/gcc/arm-none-eabi/10.2.1/thumb/v8-m.main+fp/hard/crtbegin.o
                0x20000768                PROVIDE (__init_array_end = .)
                0x20000768                . = ALIGN (0x4)
                0x20000768                PROVIDE (__fini_array_start = .)
 *(SORT_BY_NAME(.fini_array.*))
 *(.fini_array)
 .fini_array    0x20000768        0x4 d:/rt-threadstudio/repo/extract/toolchain_support_packages/arm/gnu_tools_for_arm_embedded_processors/10.2.1/bin/../lib/gcc/arm-none-eabi/10.2.1/thumb/v8-m.main+fp/hard/crtbegin.o
                0x2000076c                PROVIDE (__fini_array_end = .)
 *(.jcr*)
                0x2000076c                . = ALIGN (0x4)
                0x2000076c                __data_end__ = .

.igot.plt       0x2000076c        0x0 load address 0x00020644
 .igot.plt      0x2000076c        0x0 d:/rt-threadstudio/repo/extract/toolchain_support_packages/arm/gnu_tools_for_arm_embedded_processors/10.2.1/bin/../lib/gcc/arm-none-eabi/10.2.1/thumb/v8-m.main+fp/hard/crtbegin.o

.gnu.sgstubs    0x00020800        0x0
                0x00020800                . = (DEFINED (PROJECT_SECURE) && DEFINED (FLASH_NSC_START))?ABSOLUTE (FLASH_NSC_START):ALIGN (0x400)
                0x00020800                __tz_FLASH_C = DEFINED (FLASH_NSC_START)?ABSOLUTE (FLASH_NSC_START):__RESERVE_NS_RAM?ABSOLUTE ((FLASH_START + FLASH_LENGTH)):ALIGN (0x400)
                0x00020800                _start_sg = .
 *(.gnu.sgstubs*)
                0x00020800                . = ALIGN (0x20)
                0x00020800                _end_sg = .
                0x00028000                __tz_FLASH_N = DEFINED (FLASH_NS_START)?ABSOLUTE (FLASH_NS_START):__RESERVE_NS_RAM?ABSOLUTE ((FLASH_START + FLASH_LENGTH)):(FLASH_LENGTH < 0x8000)?FLASH_LENGTH:ALIGN (0x8000)
                0x00028000                FLASH_NS_IMAGE_START = DEFINED (FLASH_NS_IMAGE_START)?FLASH_NS_IMAGE_START:__tz_FLASH_N
                0x60000000                __tz_QSPI_FLASH_S = ORIGIN (QSPI_FLASH)

.qspi_flash     0x60000000        0x0
                0x60000000                __qspi_flash_start__ = .
 *(.qspi_flash*)
 *(.code_in_qspi*)
                0x60000000                __qspi_flash_end__ = .
                0x00000000                __qspi_flash_code_size__ = (__qspi_flash_end__ - __qspi_flash_start__)
                0x00020644                __qspi_flash_code_addr__ = (__etext + (__data_end__ - __data_start__))

.qspi_non_retentive
                0x60000000        0x0 load address 0x00020644
                0x60000000                __qspi_non_retentive_start__ = .
 *(.qspi_non_retentive*)
                0x60000000                __qspi_non_retentive_end__ = .
                0x00000000                __qspi_non_retentive_size__ = (__qspi_non_retentive_end__ - __qspi_non_retentive_start__)
                0x04000000                __qspi_region_max_size__ = 0x4000000
                0x60000000                __qspi_region_start_address__ = __qspi_flash_start__
                0x64000000                __qspi_region_end_address__ = (__qspi_flash_start__ + __qspi_region_max_size__)
                0x60000000                __tz_QSPI_FLASH_N = __qspi_non_retentive_end__

.OSPI_DEVICE_0_NO_LOAD
                0x68000000        0x0
                0x68000000                . = ALIGN (0x4)
                0x68000000                __ospi_device_0_start__ = .
 *(.ospi_device_0_no_load*)
                0x68000000                . = ALIGN (0x4)
                0x68000000                __ospi_device_0_end__ = .

.OSPI_DEVICE_1_NO_LOAD
                0x70000000        0x0
                0x70000000                . = ALIGN (0x4)
                0x70000000                __ospi_device_1_start__ = .
 *(.ospi_device_1_no_load*)
                0x70000000                . = ALIGN (0x4)
                0x70000000                __ospi_device_1_end__ = .
                0x68000000                __tz_OSPI_DEVICE_0_S = ORIGIN (OSPI_DEVICE_0)

.OSPI_DEVICE_0  0x68000000        0x0
                0x68000000                __ospi_device_0_start__ = .
 *(.ospi_device_0*)
 *(.code_in_ospi_device_0*)
                0x68000000                __ospi_device_0_end__ = .
                0x00000000                __ospi_device_0_code_size__ = (__ospi_device_0_end__ - __ospi_device_0_start__)
                0x00020644                __ospi_device_0_code_addr__ = (__etext + (__data_end__ - __data_start__))

.ospi_device_0_non_retentive
                0x68000000        0x0 load address 0x00020644
                0x68000000                __ospi_device_0_non_retentive_start__ = .
 *(.ospi_device_0_non_retentive*)
                0x68000000                __ospi_device_0_non_retentive_end__ = .
                0x00000000                __ospi_device_0_non_retentive_size__ = (__ospi_device_0_non_retentive_end__ - __ospi_device_0_non_retentive_start__)
                0x08000000                __ospi_device_0_region_max_size__ = 0x8000000
                0x68000000                __ospi_device_0_region_start_address__ = __ospi_device_0_start__
                0x70000000                __ospi_device_0_region_end_address__ = (__ospi_device_0_start__ + __ospi_device_0_region_max_size__)
                0x68000000                __tz_OSPI_DEVICE_0_N = __ospi_device_0_non_retentive_end__
                0x70000000                __tz_OSPI_DEVICE_1_S = ORIGIN (OSPI_DEVICE_1)

.OSPI_DEVICE_1  0x70000000        0x0
                0x70000000                __ospi_device_1_start__ = .
 *(.ospi_device_1*)
 *(.code_in_ospi_device_1*)
                0x70000000                __ospi_device_1_end__ = .
                0x00000000                __ospi_device_1_code_size__ = (__ospi_device_1_end__ - __ospi_device_1_start__)
                0x00020644                __ospi_device_1_code_addr__ = (__etext + (__data_end__ - __data_start__))

.ospi_device_1_non_retentive
                0x70000000        0x0 load address 0x00020644
                0x70000000                __ospi_device_1_non_retentive_start__ = .
 *(.ospi_device_1_non_retentive*)
                0x70000000                __ospi_device_1_non_retentive_end__ = .
                0x00000000                __ospi_device_1_non_retentive_size__ = (__ospi_device_1_non_retentive_end__ - __ospi_device_1_non_retentive_start__)
                0x10000000                __ospi_device_1_region_max_size__ = 0x10000000
                0x70000000                __ospi_device_1_region_start_address__ = __ospi_device_1_start__
                0x80000000                __ospi_device_1_region_end_address__ = (__ospi_device_1_start__ + __ospi_device_1_region_max_size__)
                0x70000000                __tz_OSPI_DEVICE_1_N = __ospi_device_1_non_retentive_end__

.noinit         0x2000076c       0x1c
                0x2000076c                . = ALIGN (0x4)
                0x2000076c                __noinit_start = .
 *(.noinit*)
 .noinit        0x2000076c       0x1c ./ra/fsp/src/bsp/mcu/all/bsp_clocks.o
                0x20000788                . = ALIGN (0x8)
 *(.heap.*)
                0x20000788                __noinit_end = .

.bss            0x20000788     0x1204
                0x20000788                . = ALIGN (0x4)
                0x20000788                __bss_start__ = .
 *(.bss*)
 .bss           0x20000788       0x1c d:/rt-threadstudio/repo/extract/toolchain_support_packages/arm/gnu_tools_for_arm_embedded_processors/10.2.1/bin/../lib/gcc/arm-none-eabi/10.2.1/thumb/v8-m.main+fp/hard/crtbegin.o
 .bss.adc_dev   0x200007a4        0x4 ./src/adc.o
                0x200007a4                adc_dev
 .bss.ret       0x200007a8        0x4 ./src/adc.o
                0x200007a8                ret
 .bss.adc_value.1
                0x200007ac        0x4 ./src/adc.o
 .bss.adc.0     0x200007b0        0x2 ./src/adc.o
 .bss.a         0x200007b2        0x1 ./src/hal_entry.o
                0x200007b2                a
 .bss.b         0x200007b3        0x1 ./src/hal_entry.o
                0x200007b3                b
 .bss.pwm_dev   0x200007b4        0x4 ./src/pwmled.o
                0x200007b4                pwm_dev
 .bss.pwm2_dev  0x200007b8        0x4 ./src/pwmled.o
                0x200007b8                pwm2_dev
 .bss.rx_sem    0x200007bc       0x20 ./src/uart.o
 .bss.serial    0x200007dc        0x4 ./src/uart.o
 .bss.i.0       0x200007e0        0x1 ./src/uart.o
 *fill*         0x200007e1        0x3 
 .bss.rt_tick   0x200007e4        0x4 ./rt-thread/src/clock.o
 .bss.rt_tick_hook
                0x200007e8        0x4 ./rt-thread/src/clock.o
 .bss.idle      0x200007ec       0x80 ./rt-thread/src/idle.o
 .bss.rt_thread_stack
                0x2000086c      0x100 ./rt-thread/src/idle.o
 .bss.idle_hook_list
                0x2000096c       0x10 ./rt-thread/src/idle.o
 .bss.rt_interrupt_enter_hook
                0x2000097c        0x4 ./rt-thread/src/irq.o
 .bss.rt_interrupt_leave_hook
                0x20000980        0x4 ./rt-thread/src/irq.o
 .bss.rt_interrupt_nest
                0x20000984        0x1 ./rt-thread/src/irq.o
                0x20000984                rt_interrupt_nest
 *fill*         0x20000985        0x3 
 .bss.__rt_errno
                0x20000988        0x4 ./rt-thread/src/kservice.o
 .bss._console_device
                0x2000098c        0x4 ./rt-thread/src/kservice.o
 .bss.rt_malloc_hook
                0x20000990        0x4 ./rt-thread/src/kservice.o
 .bss.rt_free_hook
                0x20000994        0x4 ./rt-thread/src/kservice.o
 .bss._lock     0x20000998       0x24 ./rt-thread/src/kservice.o
 .bss.system_heap
                0x200009bc        0x4 ./rt-thread/src/kservice.o
 .bss.rt_assert_hook
                0x200009c0        0x4 ./rt-thread/src/kservice.o
                0x200009c0                rt_assert_hook
 .bss.rt_log_buf.2
                0x200009c4       0x80 ./rt-thread/src/kservice.o
 .bss.rt_object_attach_hook
                0x20000a44        0x4 ./rt-thread/src/object.o
 .bss.rt_object_detach_hook
                0x20000a48        0x4 ./rt-thread/src/object.o
 .bss.rt_object_trytake_hook
                0x20000a4c        0x4 ./rt-thread/src/object.o
                0x20000a4c                rt_object_trytake_hook
 .bss.rt_object_take_hook
                0x20000a50        0x4 ./rt-thread/src/object.o
                0x20000a50                rt_object_take_hook
 .bss.rt_object_put_hook
                0x20000a54        0x4 ./rt-thread/src/object.o
                0x20000a54                rt_object_put_hook
 .bss.rt_thread_priority_table
                0x20000a58      0x100 ./rt-thread/src/scheduler.o
                0x20000a58                rt_thread_priority_table
 .bss.rt_thread_ready_priority_group
                0x20000b58        0x4 ./rt-thread/src/scheduler.o
                0x20000b58                rt_thread_ready_priority_group
 .bss.rt_scheduler_lock_nest
                0x20000b5c        0x2 ./rt-thread/src/scheduler.o
 *fill*         0x20000b5e        0x2 
 .bss.rt_current_thread
                0x20000b60        0x4 ./rt-thread/src/scheduler.o
                0x20000b60                rt_current_thread
 .bss.rt_current_priority
                0x20000b64        0x1 ./rt-thread/src/scheduler.o
                0x20000b64                rt_current_priority
 *fill*         0x20000b65        0x3 
 .bss.rt_scheduler_hook
                0x20000b68        0x4 ./rt-thread/src/scheduler.o
 .bss.rt_scheduler_switch_hook
                0x20000b6c        0x4 ./rt-thread/src/scheduler.o
 .bss.rt_thread_suspend_hook
                0x20000b70        0x4 ./rt-thread/src/thread.o
 .bss.rt_thread_resume_hook
                0x20000b74        0x4 ./rt-thread/src/thread.o
 .bss.rt_thread_inited_hook
                0x20000b78        0x4 ./rt-thread/src/thread.o
 .bss._timer_list
                0x20000b7c        0x8 ./rt-thread/src/timer.o
 .bss._soft_timer_list
                0x20000b84        0x8 ./rt-thread/src/timer.o
 .bss._timer_thread
                0x20000b8c       0x80 ./rt-thread/src/timer.o
 .bss._timer_thread_stack
                0x20000c0c      0x200 ./rt-thread/src/timer.o
 .bss.rt_timer_enter_hook
                0x20000e0c        0x4 ./rt-thread/src/timer.o
 .bss.rt_timer_exit_hook
                0x20000e10        0x4 ./rt-thread/src/timer.o
 .bss.random_nr.2
                0x20000e14        0x4 ./rt-thread/src/timer.o
 .bss.rt_interrupt_from_thread
                0x20000e18        0x4 ./rt-thread/libcpu/arm/cortex-m4/cpuport.o
                0x20000e18                rt_interrupt_from_thread
 .bss.rt_interrupt_to_thread
                0x20000e1c        0x4 ./rt-thread/libcpu/arm/cortex-m4/cpuport.o
                0x20000e1c                rt_interrupt_to_thread
 .bss.rt_thread_switch_interrupt_flag
                0x20000e20        0x4 ./rt-thread/libcpu/arm/cortex-m4/cpuport.o
                0x20000e20                rt_thread_switch_interrupt_flag
 .bss.rt_exception_hook
                0x20000e24        0x4 ./rt-thread/libcpu/arm/cortex-m4/cpuport.o
 .bss._syscall_table_begin
                0x20000e28        0x4 ./rt-thread/components/finsh/shell.o
                0x20000e28                _syscall_table_begin
 .bss._syscall_table_end
                0x20000e2c        0x4 ./rt-thread/components/finsh/shell.o
                0x20000e2c                _syscall_table_end
 .bss.shell     0x20000e30        0x4 ./rt-thread/components/finsh/shell.o
                0x20000e30                shell
 .bss.finsh_prompt_custom
                0x20000e34        0x4 ./rt-thread/components/finsh/shell.o
 .bss.finsh_prompt.8
                0x20000e38       0x81 ./rt-thread/components/finsh/shell.o
 *fill*         0x20000eb9        0x3 
 .bss.sensor_rx_sem
                0x20000ebc        0x4 ./rt-thread/components/drivers/sensors/sensor_cmd.o
 .bss.tid1.2    0x20000ec0        0x4 ./rt-thread/components/drivers/sensors/sensor_cmd.o
 .bss.tid1.1    0x20000ec4        0x4 ./rt-thread/components/drivers/sensors/sensor_cmd.o
 .bss.dev.0     0x20000ec8        0x4 ./rt-thread/components/drivers/sensors/sensor_cmd.o
 .bss.adc_device.0
                0x20000ecc        0x4 ./rt-thread/components/drivers/misc/adc.o
 .bss._hw_pin   0x20000ed0       0x44 ./rt-thread/components/drivers/misc/pin.o
 .bss.g_ioport_ctrl
                0x20000f14        0x8 ./ra_gen/common_data.o
                0x20000f14                g_ioport_ctrl
 .bss.g_timer7_ctrl
                0x20000f1c       0x20 ./ra_gen/hal_data.o
                0x20000f1c                g_timer7_ctrl
 .bss.g_uart0_ctrl
                0x20000f3c       0x30 ./ra_gen/hal_data.o
                0x20000f3c                g_uart0_ctrl
 .bss.g_timer8_ctrl
                0x20000f6c       0x20 ./ra_gen/hal_data.o
                0x20000f6c                g_timer8_ctrl
 .bss.g_adc0_ctrl
                0x20000f8c       0x24 ./ra_gen/hal_data.o
                0x20000f8c                g_adc0_ctrl
 .bss.g_external_irq0_ctrl
                0x20000fb0       0x10 ./ra_gen/hal_data.o
                0x20000fb0                g_external_irq0_ctrl
 .bss.g_uart7_ctrl
                0x20000fc0       0x30 ./ra_gen/hal_data.o
                0x20000fc0                g_uart7_ctrl
 .bss.g_bsp_group_irq_sources
                0x20000ff0       0x40 ./ra/fsp/src/bsp/mcu/all/bsp_group_irq.o
                0x20000ff0                g_bsp_group_irq_sources
 .bss.g_protect_pfswe_counter
                0x20001030        0x4 ./ra/fsp/src/bsp/mcu/all/bsp_io.o
                0x20001030                g_protect_pfswe_counter
 .bss.gp_renesas_isr_context
                0x20001034      0x180 ./ra/fsp/src/bsp/mcu/all/bsp_irq.o
                0x20001034                gp_renesas_isr_context
 .bss.g_protect_counters
                0x200011b4        0x8 ./ra/fsp/src/bsp/mcu/all/bsp_register_protection.o
                0x200011b4                g_protect_counters
 .bss.SystemCoreClock
                0x200011bc        0x4 ./ra/fsp/src/bsp/cmsis/Device/RENESAS/Source/system.o
                0x200011bc                SystemCoreClock
 .bss.i2c_bus   0x200011c0        0x4 ./packages/ssd1306-latest/src/ssd1306.o
 .bss.SSD1306_Buffer
                0x200011c4      0x400 ./packages/ssd1306-latest/src/ssd1306.o
 .bss.SSD1306   0x200015c4        0x8 ./packages/ssd1306-latest/src/ssd1306.o
 .bss.dht.0     0x200015cc        0x2 ./packages/dhtxx-latest/examples/dhtxx_sample.o
 *fill*         0x200015ce        0x2 
 .bss.baro_dev  0x200015d0        0x4 ./packages/bmp180-latest/bmp180_sample.o
                0x200015d0                baro_dev
 .bss.temp_dev  0x200015d4        0x4 ./packages/bmp180-latest/bmp180_sample.o
                0x200015d4                temp_dev
 .bss.baro_data
                0x200015d8       0x18 ./packages/bmp180-latest/bmp180_sample.o
                0x200015d8                baro_data
 .bss.temp_data
                0x200015f0       0x18 ./packages/bmp180-latest/bmp180_sample.o
                0x200015f0                temp_data
 .bss.res0      0x20001608        0x4 ./packages/bmp180-latest/bmp180_sample.o
                0x20001608                res0
 .bss.chip_id   0x2000160c        0x1 ./packages/bmp180-latest/bmp180_sample.o
                0x2000160c                chip_id
 *fill*         0x2000160d        0x3 
 .bss.bmp.0     0x20001610        0x2 ./packages/bmp180-latest/bmp180_sample.o
 *fill*         0x20001612        0x2 
 .bss.adc0_device
                0x20001614       0x44 ./libraries/HAL_Drivers/drv_adc.o
                0x20001614                adc0_device
 .bss.pin_irq_hdr_tab
                0x20001658       0xc0 ./libraries/HAL_Drivers/drv_gpio.o
 .bss.pin_irq_map
                0x20001718       0x80 ./libraries/HAL_Drivers/drv_gpio.o
                0x20001718                pin_irq_map
 .bss.i2c_obj   0x20001798      0x130 ./libraries/HAL_Drivers/drv_soft_i2c.o
 .bss.uart_obj  0x200018c8       0xc0 ./libraries/HAL_Drivers/drv_usart_v2.o
 .bss.__lock___atexit_recursive_mutex
                0x20001988        0x1 d:/rt-threadstudio/repo/extract/toolchain_support_packages/arm/gnu_tools_for_arm_embedded_processors/10.2.1/bin/../lib/gcc/arm-none-eabi/10.2.1/../../../../arm-none-eabi/lib/thumb/v8-m.main+fp/hard\libc.a(lib_a-lock.o)
                0x20001988                __lock___atexit_recursive_mutex
 *(COMMON)
                0x2000198c                . = ALIGN (0x4)
 *fill*         0x20001989        0x3 
                0x2000198c                __bss_end__ = .

.heap           0x2000198c        0x4
                0x20001990                . = ALIGN (0x8)
 *fill*         0x2000198c        0x4 
                0x20001990                __HeapBase = .
 *(.heap)
                0x20001990                __HeapLimit = .

.stack_dummy    0x20001990      0x400
                0x20001990                . = ALIGN (0x8)
                0x20001990                __StackLimit = .
 *(.stack)
 .stack         0x20001990      0x400 ./ra/fsp/src/bsp/cmsis/Device/RENESAS/Source/startup.o
                0x20001d90                __StackTop = .
 *(.stack*)
                0x20001d90                __StackTopAll = .
                0x20001d90                PROVIDE (__stack = __StackTopAll)
                0x20001d90                __RAM_segment_used_end__ = ALIGN (__StackTopAll, 0x4)
                0x20002000                __tz_RAM_C = DEFINED (RAM_NSC_START)?ABSOLUTE (RAM_NSC_START):__RESERVE_NS_RAM?ABSOLUTE (RAM_NS_BUFFER_BLOCK_START):ALIGN (__RAM_segment_used_end__, 0x400)
                0x20002000                __tz_RAM_N = DEFINED (RAM_NS_START)?ABSOLUTE (RAM_NS_START):__RESERVE_NS_RAM?ABSOLUTE (RAM_NS_BUFFER_BLOCK_START):ALIGN (__tz_RAM_C, 0x2000)

.ns_buffer      0x20001d90        0x0
                0x20001d90                . = __RESERVE_NS_RAM?ABSOLUTE ((RAM_NS_BUFFER_START & 0xffffffe0)):.
 *(.ns_buffer*)

.data_flash     0x08000000        0x0
                0x08000000                . = ORIGIN (DATA_FLASH)
                0x08000000                __tz_DATA_FLASH_S = .
                0x08000000                __Data_Flash_Start = .
 *(.data_flash*)
                0x08000000                __Data_Flash_End = .
                0x08000000                __tz_DATA_FLASH_N = DEFINED (DATA_FLASH_NS_START)?ABSOLUTE (DATA_FLASH_NS_START):__RESERVE_NS_RAM?ABSOLUTE ((DATA_FLASH_START + DATA_FLASH_LENGTH)):ALIGN (0x400)
                0x90000000                __tz_SDRAM_S = ORIGIN (SDRAM)

.sdram          0x90000000        0x0
                0x90000000                __SDRAM_Start = .
 *(.sdram*)
 *(.frame*)
                0x90000000                __SDRAM_End = .
                0x90000000                __tz_SDRAM_N = __SDRAM_End
                0x00000000                __tz_ID_CODE_S = ORIGIN (ID_CODE)

.id_code        0x00000000        0x0
                0x00000000                __ID_Code_Start = .
 *(.id_code*)
                0x00000000                __ID_Code_End = .
                0x00000000                __tz_ID_CODE_N = __ID_Code_End
                0x0100a100                __tz_OPTION_SETTING_S = ORIGIN (OPTION_SETTING)

.option_setting
                0x0100a100       0x38
                0x0100a100                __OPTION_SETTING_Start = .
 *(.option_setting_ofs0)
 .option_setting_ofs0
                0x0100a100        0x4 ./ra/fsp/src/bsp/mcu/all/bsp_rom_registers.o
                0x0100a110                . = PROJECT_SECURE_OR_FLAT?(__OPTION_SETTING_Start + 0x10):__OPTION_SETTING_Start
 *fill*         0x0100a104        0xc ff
 *(.option_setting_dualsel)
 .option_setting_dualsel
                0x0100a110        0x4 ./ra/fsp/src/bsp/mcu/all/bsp_rom_registers.o
                0x0100a134                . = PROJECT_SECURE_OR_FLAT?(__OPTION_SETTING_Start + 0x34):__OPTION_SETTING_Start
 *fill*         0x0100a114       0x20 ff
 *(.option_setting_sas)
 .option_setting_sas
                0x0100a134        0x4 ./ra/fsp/src/bsp/mcu/all/bsp_rom_registers.o
                0x0100a138                __OPTION_SETTING_End = .
                0x0100a180                __tz_OPTION_SETTING_N = OPTION_SETTING_START_NS

.option_setting_ns
                0x0100a138        0x0
                0x0100a138                __OPTION_SETTING_NS_Start = .
 *(.option_setting_ofs1)
                0x0100a138                . = USE_OPTION_SETTING_NS?(__OPTION_SETTING_NS_Start + 0x10):__OPTION_SETTING_NS_Start
 *(.option_setting_banksel)
                0x0100a138                . = USE_OPTION_SETTING_NS?(__OPTION_SETTING_NS_Start + 0x40):__OPTION_SETTING_NS_Start
 *(.option_setting_bps0)
                0x0100a138                . = USE_OPTION_SETTING_NS?(__OPTION_SETTING_NS_Start + 0x44):__OPTION_SETTING_NS_Start
 *(.option_setting_bps1)
                0x0100a138                . = USE_OPTION_SETTING_NS?(__OPTION_SETTING_NS_Start + 0x48):__OPTION_SETTING_NS_Start
 *(.option_setting_bps2)
                0x0100a138                . = USE_OPTION_SETTING_NS?(__OPTION_SETTING_NS_Start + 0x60):__OPTION_SETTING_NS_Start
 *(.option_setting_pbps0)
                0x0100a138                . = USE_OPTION_SETTING_NS?(__OPTION_SETTING_NS_Start + 0x64):__OPTION_SETTING_NS_Start
 *(.option_setting_pbps1)
                0x0100a138                . = USE_OPTION_SETTING_NS?(__OPTION_SETTING_NS_Start + 0x68):__OPTION_SETTING_NS_Start
 *(.option_setting_pbps2)
                0x0100a138                __OPTION_SETTING_NS_End = .
                0x0100a200                __tz_OPTION_SETTING_S_S = ORIGIN (OPTION_SETTING_S)

.option_setting_s
                0x0100a200       0xcc
                0x0100a200                __OPTION_SETTING_S_Start = .
 *(.option_setting_ofs1_sec)
 .option_setting_ofs1_sec
